:020000040800F2
:1000000000000120E1D7000831D8000831D80008ED
:1000100031D8000831D8000831D8000800000000AD
:1000200000000000000000000000000031D80008BF
:1000300031D800080000000031D8000839D100088C
:1000400031D8000831D8000831D8000831D800086C
:1000500031D8000831D8000831D8000831D800085C
:1000600031D8000831D8000831D8000831D800084C
:1000700031D8000831D8000831D8000831D800083C
:1000800031D8000801A6000831D8000831D800088E
:1000900031D8000831D8000831D8000831D800081C
:1000A00031D8000831D8000831D80008F91C000800
:1000B00061210008192300089D25000831D8000897
:1000C00031D8000831D8000831D8000831D80008EC
:1000D00031D8000859D2000845D0000831D80008AE
:1000E00031D8000831D800080000000031D80008DD
:1000F00031D8000831D8000831D8000831D80008BC
:1001000031D8000831D800082DD2000831D80008B5
:1001100031D8000831D8000831D8000831D800089B
:1001200031D8000831D8000831D8000831D800088B
:1001300010B5054C237833B9044B13B10448AFF321
:1001400000800123237010BD880200200000000001
:100150008CE1000808B5034B1BB103490348AFF31A
:10016000008008BD000000008C0200208CE1000827
:1001700081F0004102E000BF83F0004330B54FEA58
:1001800041044FEA430594EA050F08BF90EA020FC5
:100190001FBF54EA000C55EA020C7FEA645C7FEA58
:1001A000655C00F0E2804FEA5454D4EB5555B8BF7B
:1001B0006D420CDD2C4480EA020281EA030382EAEC
:1001C000000083EA010180EA020281EA0303362D7E
:1001D00088BF30BD11F0004F4FEA01314FF4801C51
:1001E0004CEA113102D0404261EB410113F0004F63
:1001F0004FEA03334CEA133302D0524263EB43031A
:1002000094EA050F00F0A780A4F10104D5F1200EB7
:100210000DDB02FA0EFC22FA05F2801841F1000112
:1002200003FA0EF2801843FA05F359410EE0A5F1E6
:1002300020050EF1200E012A03FA0EFC28BF4CF017
:10024000020C43FA05F3C01851EBE37101F00045CD
:1002500007D54FF0000EDCF1000C7EEB00006EEBDA
:100260000101B1F5801F1BD3B1F5001F0CD3490864
:100270005FEA30004FEA3C0C04F101044FEA4452BB
:1002800012F5800F80F09A80BCF1004F08BF5FEA42
:10029000500C50F1000041EB045141EA050130BD22
:1002A0005FEA4C0C404141EB0101013C28BFB1F534
:1002B000801FE9D291F0000F04BF01460020B1FA7F
:1002C00081F308BF2033A3F10B03B3F120020CDA52
:1002D0000C3208DD02F1140CC2F10C0201FA0CF030
:1002E00021FA02F10CE002F11402D8BFC2F1200C95
:1002F00001FA02F120FA0CFCDCBF41EA0C0190404B
:10030000E41AA2BF01EB0451294330BD6FEA040493
:100310001F3C1CDA0C340EDC04F11404C4F120027E
:1003200020FA04F001FA02F340EA030021FA04F390
:1003300045EA030130BDC4F10C04C4F1200220FAE7
:1003400002F001FA04F340EA0300294630BD21FA25
:1003500004F0294630BD94F0000F83F4801306BFEB
:1003600081F480110134013D4EE77FEA645C18BFDF
:100370007FEA655C29D094EA050F08BF90EA020F76
:1003800005D054EA000C04BF1946104630BD91EA6E
:10039000030F1EBF0021002030BD5FEA545C05D171
:1003A0004000494128BF41F0004130BD14F58004B0
:1003B0003CBF01F5801130BD01F0004545F0FE4124
:1003C00041F470014FF0000030BD7FEA645C1ABF59
:1003D000194610467FEA655C1CBF0B46024650EA90
:1003E000013406BF52EA033591EA030F41F40021BC
:1003F00030BD00BF90F0000F04BF0021704730B542
:100400004FF4806404F132044FF000054FF0000116
:1004100050E700BF90F0000F04BF0021704730B5D7
:100420004FF4806404F1320410F0004548BF4042AC
:100430004FF000013EE700BF42004FEAE2014FEA01
:1004400031014FEA02701FBF12F07F4393F07F4FDC
:1004500081F06051704732F07F4208BF704793F0DF
:100460007F4F04BF41F40021704730B54FF46074F2
:1004700001F0004521F000411CE700BF50EA0102F5
:1004800008BF704730B54FF000050AE050EA01029E
:1004900008BF704730B511F0004502D5404261EB0E
:1004A00041014FF4806404F132045FEA915C3FF44F
:1004B000D8AE4FF003025FEADC0C18BF03325FEAEC
:1004C000DC0C18BF033202EBDC02C2F1200300FA9D
:1004D00003FC20FA02F001FA03FE40EA0E0021FAC2
:1004E00002F11444BDE600BF70B54FF0FF0C4CF4B0
:1004F000E06C1CEA11541DBF1CEA135594EA0C0F62
:1005000095EA0C0F00F0DEF82C4481EA030621EA9C
:100510004C5123EA4C5350EA013518BF52EA0335D7
:1005200041F4801143F4801338D0A0FB02CE4FF089
:100530000005E1FB02E506F00042E0FB03E54FF0B9
:100540000006E1FB03569CF0000F18BF4EF0010EB1
:10055000A4F1FF04B6F5007F64F5407404D25FEAAD
:100560004E0E6D4146EB060642EAC62141EA555160
:100570004FEAC52040EA5E504FEACE2EB4F1FD0CA2
:1005800088BFBCF5E06F1ED8BEF1004F08BF5FEA20
:10059000500E50F1000041EB045170BD06F00046D2
:1005A00046EA010140EA020081EA0301B4EB5C047F
:1005B000C2BFD4EB0C0541EA045170BD41F4801177
:1005C0004FF0000E013C00F3AB8014F1360FDEBF9C
:1005D000002001F0004170BDC4F10004203C35DA78
:1005E0000C341BDC04F11404C4F1200500FA05F3FB
:1005F00020FA04F001FA05F240EA020001F000429C
:1006000021F0004110EBD37021FA04F642EB060111
:100610005EEA430E08BF20EAD37070BDC4F10C043B
:10062000C4F1200500FA04F320FA05F001FA04F2FF
:1006300040EA020001F0004110EBD37041F10001EB
:100640005EEA430E08BF20EAD37070BDC4F12005F6
:1006500000FA05F24EEA020E20FA04F301FA05F25E
:1006600043EA020321FA04F001F0004121FA04F206
:1006700020EA020000EBD3705EEA430E08BF20EAD6
:10068000D37070BD94F0000F0FD101F00046400010
:1006900041EB010111F4801F08BF013CF7D041EA92
:1006A000060195F0000F18BF704703F00046520096
:1006B00043EB030313F4801F08BF013DF7D043EA67
:1006C0000603704794EA0C0F0CEA135518BF95EA1D
:1006D0000C0F0CD050EA410618BF52EA4306D1D1A4
:1006E00081EA030101F000414FF0000070BD50EAC3
:1006F000410606BF1046194652EA430619D094EA4D
:100700000C0F02D150EA013613D195EA0C0F05D136
:1007100052EA03361CBF104619460AD181EA03018A
:1007200001F0004141F0FE4141F470014FF0000042
:1007300070BD41F0FE4141F4780170BD70B54FF0DD
:10074000FF0C4CF4E06C1CEA11541DBF1CEA13555D
:1007500094EA0C0F95EA0C0F00F0A7F8A4EB05043F
:1007600081EA030E52EA03354FEA013100F0888036
:100770004FEA03334FF0805545EA131343EA1263FF
:100780004FEA022245EA111545EA10654FEA0026B4
:100790000EF000419D4208BF964244F1FD0404F56D
:1007A000407402D25B084FEA3202B61A65EB0305C9
:1007B0005B084FEA32024FF480104FF4002CB6EB86
:1007C000020E75EB030E22BFB61A754640EA0C0006
:1007D0005B084FEA3202B6EB020E75EB030E22BF46
:1007E000B61A754640EA5C005B084FEA3202B6EB87
:1007F000020E75EB030E22BFB61A754640EA9C0046
:100800005B084FEA3202B6EB020E75EB030E22BF15
:10081000B61A754640EADC0055EA060E18D04FEAD3
:10082000051545EA16754FEA06164FEAC30343EA73
:1008300052734FEAC2025FEA1C1CC0D111F4801F40
:100840000BD141EA00014FF000004FF0004CB6E739
:1008500011F4801F04BF01430020B4F1FD0C88BFD8
:10086000BCF5E06F3FF6AFAEB5EB030C04BFB6EBE3
:10087000020C5FEA500C50F1000041EB045170BDD6
:100880000EF0004E4EEA113114EB5C04C2BFD4EB03
:100890000C0541EA045170BD41F480114FF0000E87
:1008A000013C90E645EA060E8DE60CEA135594EA03
:1008B0000C0F08BF95EA0C0F3FF43BAF94EA0C0F06
:1008C0000AD150EA01347FF434AF95EA0C0F7FF47B
:1008D00025AF104619462CE795EA0C0F06D152EACF
:1008E00003353FF4FDAE1046194622E750EA4106B3
:1008F00018BF52EA43067FF4C5AE50EA41047FF4C4
:100900000DAF52EA43057FF4EBAE12E74FEA410226
:10091000B2F1E04324BFB3F5001CDCF1FE5C0DD95D
:1009200001F0004C4FEAC0024CEA5070B2F1004FA7
:1009300040EB830008BF20F00100704711F0804FAA
:1009400021D113F13872BCBF01F00040704741F46F
:1009500080114FEA5252C2F11802C2F1200C10FA73
:100960000CF320FA02F018BF40F001004FEAC12357
:100970004FEAD32303FA0CFC40EA0C0023FA02F3FB
:100980004FEA4303CCE77FEA625307D150EA0133D1
:100990001EBF4FF0FE4040F44000704701F00040A1
:1009A00040F0FE4040F40000704700BF80F000407F
:1009B00002E000BF81F0004142001FBF5FEA410337
:1009C00092EA030F7FEA226C7FEA236C6AD04FEA37
:1009D0001262D2EB1363C1BFD2184140484041407C
:1009E000B8BF5B42192B88BF704710F0004F40F42E
:1009F000000020F07F4018BF404211F0004F41F44A
:100A0000000121F07F4118BF494292EA030F3FD015
:100A1000A2F1010241FA03FC10EB0C00C3F1200328
:100A200001FA03F100F0004302D5494260EB4000B7
:100A3000B0F5000F13D3B0F1807F06D340084FEA22
:100A4000310102F10102FE2A51D2B1F1004F40EB17
:100A5000C25008BF20F0010040EA0300704749007F
:100A600040EB0000013A28BFB0F5000FEDD2B0FA1C
:100A700080FCACF1080CB2EB0C0200FA0CF0AABF3F
:100A800000EBC25052421843BCBFD04018437047DD
:100A900092F0000F81F4000106BF80F400000132E3
:100AA000013BB5E74FEA41037FEA226C18BF7FEABA
:100AB000236C21D092EA030F04D092F0000F08BFFC
:100AC0000846704790EA010F1CBF0020704712F0E3
:100AD0007F4F04D1400028BF40F00040704712F122
:100AE00000723CBF00F50000704700F0004343F087
:100AF000FE4040F4000070477FEA226216BF0846BD
:100B00007FEA23630146420206BF5FEA412390EA7F
:100B1000010F40F4800070474FF0000304E000BF75
:100B200010F0004348BF40425FEA000C08BF704726
:100B300043F0964301464FF000001CE050EA0102EA
:100B400008BF70474FF000030AE000BF50EA0102FF
:100B500008BF704711F0004302D5404261EB4101EC
:100B60005FEA010C02BF84460146002043F0B64311
:100B700008BFA3F18053A3F50003BCFA8CF2083A36
:100B8000A3EBC25310DB01FA02FC634400FA02FC3F
:100B9000C2F12002BCF1004F20FA02F243EB020046
:100BA00008BF20F00100704702F1200201FA02FCA8
:100BB000C2F1200250EA4C0021FA02F243EB02009B
:100BC00008BF20EADC7070474FF0FF0C1CEAD052DF
:100BD0001EBF1CEAD15392EA0C0F93EA0C0F6FD0A0
:100BE0001A4480EA010C400218BF5FEA41211ED07E
:100BF0004FF0006343EA501043EA5111A0FB01316A
:100C00000CF00040B1F5000F3EBF490041EAD3713E
:100C10005B0040EA010062F17F02FD2A1DD8B3F1BA
:100C2000004F40EBC25008BF20F00100704790F029
:100C3000000F0CF0004C08BF49024CEA502040EA7B
:100C400051207F3AC2BFD2F1FF0340EAC250704741
:100C500040F400004FF00003013A5DDC12F1190F7F
:100C6000DCBF00F000407047C2F10002410021FAF1
:100C700002F1C2F1200200FA02FC5FEA310040F109
:100C8000000053EA4C0308BF20EADC70704792F082
:100C9000000F00F0004C02BF400010F4000F013ABA
:100CA000F9D040EA0C0093F0000F01F0004C02BFB5
:100CB000490011F4000F013BF9D041EA0C018FE724
:100CC0000CEAD15392EA0C0F18BF93EA0C0F0AD02A
:100CD00030F0004C18BF31F0004CD8D180EA010050
:100CE00000F00040704790F0000F17BF90F0004FE9
:100CF000084691F0000F91F0004F14D092EA0C0FCB
:100D000001D142020FD193EA0C0F03D14B0218BF5D
:100D1000084608D180EA010000F0004040F0FE40A3
:100D200040F40000704740F0FE4040F4400070473F
:100D30004FF0FF0C1CEAD0521EBF1CEAD15392EABE
:100D40000C0F93EA0C0F69D0A2EB030280EA010CAE
:100D500049024FEA402037D04FF0805343EA111147
:100D600043EA10130CF000408B4238BF5B0042F1A5
:100D70007D024FF4000C8B4224BF5B1A40EA0C004A
:100D8000B3EB510F24BFA3EB510340EA5C00B3EB7C
:100D9000910F24BFA3EB910340EA9C00B3EBD10F6A
:100DA00024BFA3EBD10340EADC001B0118BF5FEABC
:100DB0001C1CE0D1FD2A3FF650AF8B4240EBC250E5
:100DC00008BF20F0010070470CF0004C4CEA5020A6
:100DD0007F32C2BFD2F1FF0340EAC250704740F4F5
:100DE00000004FF00003013A37E792F0000F00F0E7
:100DF000004C02BF400010F4000F013AF9D040EA65
:100E00000C0093F0000F01F0004C02BF490011F4F8
:100E1000000F013BF9D041EA0C0195E70CEAD153F0
:100E200092EA0C0F08D142027FF47DAF93EA0C0FD7
:100E30007FF470AF084676E793EA0C0F04D14B02BB
:100E40003FF44CAF08466EE730F0004C18BF31F06D
:100E5000004CCAD130F000427FF45CAF31F0004367
:100E60007FF43CAF5FE700BF4FF0FF3C06E000BF00
:100E70004FF0010C02E000BF4FF0010C4DF804CD23
:100E80004FEA40024FEA41037FEA226C18BF7FEA33
:100E9000236C11D001B052EA530C18BF90EA010F35
:100EA00058BFB2EB030088BFC81738BF6FEAE170C4
:100EB00018BF40F0010070477FEA226C02D15FEA60
:100EC000402C05D17FEA236CE4D15FEA412CE1D0CC
:100ED0005DF8040B704700BF844608466146FFE793
:100EE0000FB5FFF7C9FF002848BF10F1000F0FBD75
:100EF0004DF808EDFFF7F4FF0CBF012000205DF86E
:100F000008FB00BF4DF808EDFFF7EAFF34BF0120F2
:100F100000205DF808FB00BF4DF808EDFFF7E0FF8B
:100F200094BF012000205DF808FB00BF4DF808EDDC
:100F3000FFF7D2FF94BF012000205DF808FB00BF3F
:100F40004DF808EDFFF7C8FF34BF012000205DF821
:100F500008FB00BF42000ED2B2F1FE4F0BD34FF0A0
:100F60009E03B3EB126209D44FEA002343F000431F
:100F700023FA02F070474FF00000704712F1610F42
:100F800001D1420202D14FF0FF3070474FF0000014
:100F9000704700BF80B582B000AF0023FB7109E04D
:100FA000FB79244ADB0213441C3300221A70FB79BC
:100FB0000133FB71FB79032BF2D908F015FF09F01F
:100FC00061F909F047FE09F0F9FE09F0A9FF06F002
:100FD000ADFD09F09FF8174B1522A3F81E28154BFD
:100FE0001A88144BDA83134B03F580531522A3F8A8
:100FF0001E28104B03F580531522DA83002000F0E1
:10100000ABFA012000F0A8FA022000F0A5FA0320B4
:1010100000F0A2FA002000F02BFA012000F028FADC
:10102000022000F025FA032000F022FA00BF083762
:10103000BD4680BDA402002080B582B000AF03464B
:101040003A60FB710B46BB7100F084FBBA79FB7907
:101050001146184609F040F8FB790B4ADB021344AD
:1010600002331A78FB791146184608F06FFFFB79B6
:10107000184600F045FAFB793968184600F006F882
:1010800000BF0837BD4680BDA402002080B586B0F1
:1010900000AF03463960FB71FB79644ADB021344FD
:1010A00018333A681A60FB79184600F0A3FC03462F
:1010B000FB74FB795D4ADB0213441E331B881A461E
:1010C000FB7C02FB03F3FB60FB79002B02D1F923CD
:1010D0007B6110E0FB79012B02D163237B610AE085
:1010E000FB79022B02D163237B6104E0FB79032BA4
:1010F00001D163237B617B695B003A689A4203D22A
:101100003B685B08023B7B61FB79484ADB02134486
:1011100008331A88FB791146184600F0C5FCFB79A4
:10112000424ADB02134420331B887B81FB793F4A10
:10113000DB02134410337A691A60FB793B4ADB0205
:10114000134418331968FB79384ADB02134410330F
:101150001A68FB798A1A3549DB020B4414331A608A
:10116000FB79324ADB0213441C3301221A70FB79EB
:101170002E4ADB02134403F2EE7300221A80FB793D
:10118000032B3ED801A252F823F000BF9D110008A6
:10119000B5110008D3110008EB110008244B002200
:1011A0001A60244A7B89D362224BDB6A214A5B089E
:1011B000536326E04FF080427B89D3624FF0804337
:1011C000DB6A4FF080425B0853631B4B00221A60BE
:1011D00017E01A4A7B89D362184BDB6A174A5B080F
:1011E000D363174B00221A600BE0164A7B89D36247
:1011F000144BDB6A134A5B085363134B00221A60DB
:1012000000BFFB79094ADB02134418333A681A60BD
:10121000FB790121184608F069FEFB790B4A52F868
:101220002330984700BF1837BD4680BDA402002078
:10123000C43D0020002C0140283E00200004004056
:101240006C3E002000080040B03E0020E804010889
:1012500090B585B000AF03463A60FB710B46BB7199
:101260003B68002B37D000F075FAFB79184600F088
:10127000C1FB0346FB733868FFF74EFC0346184971
:101280001846FFF755FD03461C46FB79154ADB025D
:1012900013441E331B881846FFF742FC03461946C9
:1012A0002046FFF791FC03461C46FB7B1846FFF7E0
:1012B00037FC034619462046FFF786FC03461846CE
:1012C000FFF748FE0346BB60B979FB79BA68184658
:1012D000FFF7B2FE00E000BF1437BD4690BD00BF6F
:1012E0000000C842A402002080B582B000AF0346CF
:1012F0000A46FB711346BB71BA79FB791146184651
:1013000008F0F4FD00BF0837BD4680BD80B582B04F
:1013100000AF0023FB7112E0FB790D4A52F8233035
:101320009847FB790B4ADB0213441C3300221A70E6
:10133000FB79184600F010F9FB790133FB71FB795A
:10134000032BE9D900BF00BF0837BD4680BD00BFF1
:10135000D8040108A402002080B582B000AF0023A9
:10136000FB7117E0FB790F4A52F823309847FB795D
:101370000D4ADB0213441C3300221A70FB79184615
:1013800000F0EAF8FB790021184608F0AFFDFB7980
:101390000133FB71FB79032BE4D900BF00BF083791
:1013A000BD4680BDD8040108A402002090B585B0D8
:1013B00000AF0346FB71FB79032B1BD801A252F847
:1013C00023F000BFD5130008DD130008E513000863
:1013D000ED130008204B1B68FB600BE01F4B1B68E4
:1013E000FB6007E01E4B1B68FB6003E01D4B1B68A6
:1013F000FB6000BFFB79184600F0FCFA0346FB7265
:10140000F868FFF789FB0446FB79174ADB021344AF
:101410001E331B881846FFF783FB034619462046F8
:10142000FFF786FC03461C46FB7A1846FFF778FB5D
:10143000034619462046FFF77BFC03460B49184636
:10144000FFF7C2FB03461846FFF784FD03469BB235
:1014500018461437BD4690BDC43D0020283E0020EC
:101460006C3E0020B03E0020A40200200000C842D4
:1014700080B582B000AF0346FB71FB79094A52F890
:1014800023309847FB79084ADB0213441C330022BF
:101490001A70FB79184600F05FF800BF0837BD46A8
:1014A00080BD00BFD8040108A402002080B483B02E
:1014B00000AF0346FB71FB79054ADB0213441C3382
:1014C00003221A7000BF0C37BD4680BC704700BFB6
:1014D000A402002080B582B000AF0346FB71FB7907
:1014E000064ADB02134402331A78FB791146184688
:1014F00008F02CFD00BF0837BD4680BDA4020020C7
:1015000080B584B000AF0346FB71FB790F4ADB0264
:1015100013441B881846FFF703FB03460C49184683
:10152000FFF752FB0346FB600A49F868FFF708FD26
:101530000346002B01D0074BFB60FB79F968184686
:1015400006F056FB00BF1037BD4680BDA402002048
:101550005839343C0000504080B584B000AF034699
:10156000FB71FB79012B14D1FB791D4ADB0213447B
:101570001B881846FFF7D4FA03461A491846FFF7A6
:1015800023FB034618491846FFF71EFB0346FB6082
:1015900013E0FB79124ADB0213441B881846FFF75D
:1015A000BFFA034611491846FFF70EFB03460E49E2
:1015B0001846FFF709FB0346FB600D49F868FFF783
:1015C000BFFC0346002B01D0094BFB60FB79F96897
:1015D000184606F00DFB00BF1037BD4680BD00BFAA
:1015E000A40200209A99193F5839343CCDCCCC3E06
:1015F0000000504080B582B000AF0346FB71FB791C
:101600000A3B072B00F2A08001A252F823F000BF92
:1016100031160008511600087116000893160008CC
:10162000B5160008DB16000801170008251700088A
:10163000FB799BB203F5A0439BB2184603F0E0FC94
:1016400003461A46424B1A800020FFF759FF7BE001
:10165000FB799BB203F5A0439BB2184603F0D0FC84
:101660000346DAB23A4B9A700020FFF733FF6BE083
:10167000FB799BB203F5A0439BB2184603F0C0FC74
:1016800003461A46324BA3F800280120FFF738FF23
:101690005AE0FB799BB203F5A0439BB2184603F0D6
:1016A000AFFC0346DAB22A4B83F802280120FFF789
:1016B00011FF49E0FB799BB203F5A0439BB21846AA
:1016C00003F09EFC03461A46214B03F58053A3F812
:1016D00000280320FFF714FF36E0FB799BB203F5E7
:1016E000A0439BB2184603F08BFC0346DAB2184BBA
:1016F00003F5805383F802280320FFF7EBFE23E075
:10170000FB799BB203F5A0439BB2184603F078FC2B
:1017100003461A460E4B03F580531A800220FFF74A
:10172000EFFE11E0FB799BB203F5A0439BB2184694
:1017300003F066FC0346DAB2054B03F580539A705A
:101740000220FFF7C7FE00BF00BF0837BD4680BDBF
:10175000A402002098B500AF45F20B0003F050FC46
:101760000346DAB29F4B9A7045F20D0003F048FC35
:101770000346DAB29B4B83F8022845F20F0003F0D0
:101780003FFC0346DAB2974B03F5805383F80228F7
:1017900045F2110003F034FC0346DAB2914B03F535
:1017A00080539A7045F20A0003F02AFC03461A4659
:1017B0008C4B1A8045F20C0003F022FC03461A46BB
:1017C000884BA3F8002845F20E0003F019FC0346ED
:1017D0001A46844B03F58053A3F8002845F2100005
:1017E00003F00EFC03461A467E4B03F580531A8025
:1017F0007C4B1A887B4BDA837B4B93F83530DBB21A
:10180000012B34D145F2080003F0FAFB03461846D9
:10181000FFF786F9034675491846FFF7D5F90346E1
:101820001C46704BDB8B1846FFF77AF903461946C6
:101830002046FFF7C9F903466D491846FFF7C4F97A
:1018400003461C46002000F0D5F803461846FFF773
:1018500067F9034619462046FFF7B6F903461846CE
:10186000FFF778FB03469AB25E4B1A8133E04FF4E0
:10187000A04003F0C5FB03461846FFF751F90346A5
:101880005A491846FFF7A0F903461C46554BDB8B17
:101890001846FFF745F9034619462046FFF794F925
:1018A000034653491846FFF78FF903461C460020AC
:1018B00000F0A0F803461846FFF732F90346194630
:1018C0002046FFF781F903461846FFF743FB03461E
:1018D0009AB2444B1A8145F2020003F091FB034691
:1018E0001A46404BB3F81E3802FB03F31846FFF7C5
:1018F00017F903463E491846FFF766F903461C46AA
:10190000012000F077F803461846FFF709F903466F
:1019100019462046FFF758F903461846FFF71AFB09
:1019200003469AB22F4BA3F8082845F2060003F0AD
:1019300067FB03461A462B4B03F58053DB8B02FBF8
:1019400003F31846FFF7ECF8034629491846FFF75A
:101950003BF903461C46022000F04CF803461846AB
:10196000FFF7DEF8034619462046FFF72DF9034638
:101970001846FFF7EFFA03469AB21A4B03F5805365
:10198000A3F8082845F2040003F03AFB03461A4680
:10199000144B03F58053B3F81E3802FB03F31846CB
:1019A000FFF7BEF8034612491846FFF70DF9034644
:1019B0001C46032000F01EF803461846FFF7B0F857
:1019C000034619462046FFF7FFF803461846FFF77F
:1019D000C1FA03469AB2034B03F580531A8100BF44
:1019E00098BD00BFA4020020C03C00209A99993FF6
:1019F0000AD7233C80B485B000AF0346FB71FB7966
:101A0000144ADB02134402331B78013B032B17D823
:101A100001A252F823F000BF291A00082F1A00086B
:101A2000351A00083B1A00080123FB730BE0022360
:101A3000FB7308E00423FB7305E01023FB7302E053
:101A40000123FB7300BFFB7B18461437BD4680BCE7
:101A5000704700BFA402002080B582B000AF0F4BDA
:101A60001B78FB710E4B1B78BB710C4B00221A705C
:101A70000B4BC8221A700B4B93F82F30DBB2194670
:101A8000002000F079F8054AFB791370044ABB790D
:101A9000137000BF0837BD4680BD00BF243C002046
:101AA000083C0020C03C0020B0B584B000AF034625
:101AB0000A46FB711346BB80BB88B3F5167F34D949
:101AC000BB88A3F51673BB810023FB8127E0BB898C
:101AD0001846FFF725F80246FB89224951F82330C2
:101AE00019461046FFF770F803461F491846FEF7DF
:101AF00063FF034619461D48FFF71AF90346FD79AF
:101B0000FC891846FFF726FA034699B2184AAB0239
:101B10002344103322F81310FB890133FB81FB8926
:101B200040F2E6329342D2D918E00023FB8110E064
:101B3000BB88104A92FBF3F1FA79FB8988B20C4911
:101B4000920213441033024621F81320FB8901331B
:101B5000FB81FB8940F2E6329342E9D900BF10379E
:101B6000BD46B0BD38F5000800001644005043489B
:101B7000A4020020400D030080B582B000AF0346F0
:101B80000A46FB711346BB71FFF7E4FDBA79FB7996
:101B90001146184608F0A0FAFB794E4ADB021344BE
:101BA00002331A78FB791146184608F0CFF9FB7911
:101BB0001846FFF7A5FCFB79464ADB0213440833BD
:101BC0001A88FB7911461846FFF76EFFFB79032B45
:101BD00051D801A252F823F0E91B00080B1C0008A1
:101BE000331C0008551C00083B4B00221A60FB798F
:101BF000384ADB02134420331A88384BDA62374BF9
:101C0000DB6A364A5B08536335E0FB79314ADB0215
:101C1000134420331A884FF08043DA624FF0804338
:101C2000DB6A4FF080425B0853632D4B00221A6041
:101C300021E0FB79274ADB02134420331A88294B21
:101C4000DA62284BDB6A274A5B08D363264B002203
:101C50001A6010E0FB791F4ADB02134420331A8814
:101C6000224BDA62214BDB6A204A5B085363204B2C
:101C700000221A6000BFFB79164ADB02134403F20C
:101C8000EE7300221A80FB79124ADB0213441433EC
:101C90004FF0FF321A60FB790E4ADB0213441C330B
:101CA00004221A70FB790B4ADB02134403F5FE632E
:101CB0004FF0FF321A60FB790121184608F016F93F
:101CC000FB790C4A52F82330984700BF0837BD46CD
:101CD00080BD00BFA4020020C43D0020002C0140B4
:101CE000283E0020000400406C3E00200008004018
:101CF000B03E0020E804010880B500AF9F4B1B698F
:101D000003F00203022B40F024829D4B1B68013339
:101D10009B4A13609B4BDB7DDBB2012B04D0994BBC
:101D2000DB7DDBB20B2B53D1964BDB7FDBB2002B81
:101D300022D1944B93F84830DBB2012B1CD1032005
:101D400008F0D8FE0346002B16D18F4B1B780133C9
:101D5000DAB28D4B1A708C4B1B78042B0CD98A4B42
:101D600000221A70874B002283F84820854B0122FD
:101D7000DA77864B03221A77824BDB7FDBB2012BAB
:101D800005D0804B93F84830DBB2022B7AD1022089
:101D900008F0B0FE0346002B74D17B4B1B78013357
:101DA000DAB2794B1A70784B1B78042B6AD9764BD0
:101DB00000221A70754B00221A771E21744806F013
:101DC000CBF8704B0122DA77002005F079FDC0E1F5
:101DD0006C4B93F84830DBB2002B05D0694B93F87D
:101DE0004830DBB2042B20D1032008F083FE0346E9
:101DF000002B1AD1644B1B780133DAB2624B1A7094
:101E0000614B1B78042B10D95F4B00221A705F4B7B
:101E100000221A771E215F4806F09EF8594B0122D6
:101E2000DA77002005F04CFD93E1564B93F84830EB
:101E3000DBB2012B05D0534B93F84830DBB2032BB8
:101E400021D1022008F056FE0346002B1BD14E4B39
:101E50001B780133DAB24C4B1A704B4B1B78042BB6
:101E600011D9494B00221A70484B00221A771E21C3
:101E7000474806F071F8434B0122DA77002005F05D
:101E80001FFD66E100BF3F4B93F84830DBB2012BEA
:101E900033D1012008F02EFE0346002B4DD13E4BDE
:101EA0001B780133DAB23C4B1A703B4B1B78042B86
:101EB00043D9394B00221A70324B002283F8482054
:101EC000304BDB7FDBB2002B05D02E4B93F820305C
:101ED000DBB2002B0DD12D4B012283F8F427284BC8
:101EE0001A682A4BD3F8F8371344284AC2F8F8374F
:101EF0002FE1264B03221A771FE0224B93F848303C
:101F0000DBB2022B19D1012008F0F4FD0346012BAE
:101F100013D1214B1B780133DAB21F4B1A701E4BC1
:101F20001B78042B09D91C4B00221A70154B002278
:101F300083F84820154B03221A77144B1B7F062B7E
:101F400000F2018101A252F823F000BF47210008EE
:101F5000691F000823200008DB1F00083920000843
:101F600095200008A9200008084B1A69044B1B683B
:101F70009A4213D8054B02221A77EAE0002C01405E
:101F8000C43D0020C03C0020A6220020A402002066
:101F9000A4E10008C4E10008A42200206D4BB3F8BE
:101FA000EE3740F2E632934200F2C480694BB3F858
:101FB000EE37684A103332F81320674BDA62664B0B
:101FC000DB6A654A5B085363624BB3F8EE37043350
:101FD0009AB2604BA3F8EE27ACE05E4BB3F8EE3755
:101FE000032B07D85B4B0022A3F8EE270020FFF756
:101FF0003FFAAEE0574BB3F8EE37043B9AB2554B7D
:10200000A3F8EE27534BB3F8EE37524A103332F8A9
:102010001320514BDA62504BDB6A4F4A5B08536323
:1020200091E04C4B5A694D4B1B689A4200F28480F8
:10203000484B03221A777FE0464BB3F8EE3740F265
:10204000E632934215D8434BB3F8EE37414A10338A
:1020500032F81320404BDA623F4BDB6A3E4A5B08A2
:1020600053633C4BB3F8EE3704339AB2394BA3F8C1
:10207000EE27384BD3F8F037002B5FDD354BD3F824
:10208000F0371A46354B1B689A4257D2314B032220
:102090001A7753E02F4B9A69304B1B689A424FD8FE
:1020A0000020FFF7E5F94BE02A4BB3F8EE3740F29A
:1020B000E632934215D8274BB3F8EE37254A103352
:1020C00032F81320244BDA62234BDB6A224A5B0886
:1020D0005363204BB3F8EE3704339AB21D4BA3F889
:1020E000EE271C4B93F8F437002B0ED0194BD3F886
:1020F000F8271A4B1B689A4224D8164B03221A77EA
:10210000144B002283F8F4271CE0124BD3F8F0376D
:10211000002B17DD0F4BD3F8F0371A460F4B1B6817
:102120009A420FD20B4B012283F8FC27094B032262
:102130001A7707E000BF06E000BF04E000BF02E03E
:1021400000BF00E000BF044B1B69034A23F00203F9
:10215000136180BDA4020020002C0140C43D00207A
:1021600080B500AF4FF080431B6903F00103012BE2
:1021700040F0CC80664B1B680133654A1360654BA9
:1021800093F81C38062B00F2B98001A252F823F014
:10219000FD220008AD2100085B2200080B22000888
:1021A00073220008D9220008FD220008594BD3F8F9
:1021B0001028574B1B689A4204D8564B022283F8CA
:1021C0001C28A3E0534BB3F8EE3F40F2E6329342B3
:1021D00000F28D804F4BB3F8EE3F4E4A03F5826319
:1021E00032F813204FF08043DA624FF08043DB6A0D
:1021F0004FF080425B085363464BB3F8EE3F0A331F
:102200009AB2444BA3F8EE2F71E0424BB3F8EE3F85
:10221000092B07D83F4B0022A3F8EE2F0120FFF730
:1022200027F973E03B4BB3F8EE3F0A3B9AB2394BC8
:10223000A3F8EE2F374BB3F8EE3F364A03F582632F
:1022400032F813204FF08043DA624FF08043DB6AAC
:102250004FF080425B08536350E02E4BD3F81428B4
:102260002B4B1B689A4244D82A4B032283F81C2824
:102270003FE0284BB3F8EE3F40F2E632934219D8E4
:10228000244BB3F8EE3F234A03F5826332F8132060
:102290004FF08043DA624FF08043DB6A4FF08042B8
:1022A0005B0853631B4BB3F8EE3F0A339AB2194BEA
:1022B000A3F8EE2F174BD3F8F03F002B1BDD154B87
:1022C000D3F8F03F1A46124B1B689A4213D2114BB7
:1022D000032283F81C280EE00E4BD3F818280C4B71
:1022E0001B689A4209D80120FFF7C2F805E000BF39
:1022F00004E000BF02E000BF00E000BF4FF08043F9
:102300001B694FF0804223F00103136180BD00BFC1
:10231000283E0020A402002080B500AF9C4B1B6922
:1023200003F00103012B40F032819A4B1B6801330B
:10233000984A1360984B03F580531B7F062B00F2DD
:10234000208101A252F823F08325000865230008AC
:102350002F240008D12300084D2400089D240008E4
:10236000B52400088C4B03F580531A69894B1B6810
:102370009A4205D8884B03F5805302221A7706E16A
:10238000854B03F58053B3F8EE3740F2E6329342C3
:1023900000F2EE80804B03F58053B3F8EE377E4AAF
:1023A00003F5016332F81320794BDA62784BDB6A6C
:1023B000774A5B08D363784B03F58053B3F8EE3765
:1023C0000A339AB2744B03F58053A3F8EE27CFE09B
:1023D000714B03F58053B3F8EE37092B09D86E4BD8
:1023E00003F580530022A3F8EE270220FFF740F800
:1023F000CDE0694B03F58053B3F8EE370A3B9AB250
:10240000654B03F58053A3F8EE27634B03F5805328
:10241000B3F8EE37604A03F5016332F813205C4BE2
:10242000DA625B4BDB6A5A4A5B08D363A9E05A4B1A
:1024300003F580535A69574B1B689A4200F29A8001
:10244000554B03F5805303221A7793E0524B03F563
:102450008053B3F8EE3740F2E632934200F28C80BC
:102460004D4B03F58053B3F8EE374B4A03F5016348
:1024700032F81320464BDA62454BDB6A444A5B086C
:10248000D363454B03F58053B3F8EE370A339AB262
:10249000414B03F58053A3F8EE276DE03E4B03F567
:1024A00080539A693B4B1B689A4267D80220FEF71B
:1024B000DFFF63E0384B03F58053B3F8EE3740F2AB
:1024C000E63293421CD8344B03F58053B3F8EE3711
:1024D000314A03F5016332F813202D4BDA622C4B9D
:1024E000DB6A2B4A5B08D3632B4B03F58053B3F8AD
:1024F000EE370A339AB2284B03F58053A3F8EE2740
:10250000254B03F5805393F8F437002B13D0224B5F
:1025100003F58053D3F8F8271E4B1B689A420AD85C
:102520001D4B03F5805303221A771B4B03F5805391
:10253000002283F8F427184B03F58053D3F8F037C3
:10254000002B1DDD144B03F58053D3F8F0371A46EA
:10255000104B1B689A4213D20F4B03F58053012294
:1025600083F8FC270C4B03F5805303221A7707E00E
:1025700000BF06E000BF04E000BF02E000BF00E0D3
:1025800000BF034B1B69024A23F00103136180BDA6
:10259000000400406C3E0020A402002080B500AF83
:1025A0007E4B1B6903F00103012B40F0F6807C4B4E
:1025B0001B6801337A4A13607A4B93F84A30DBB2D6
:1025C000012B19D1062008F095FA0346002B13D1F0
:1025D000754B1B780133DAB2734B1A70724B1B7850
:1025E000042B09D9704B00221A706E4B002283F81D
:1025F0004A200320FEF73CFF6C4B03F5805393F811
:102600001C38062B00F2C38001A252F823F000BF51
:102610008F2700082D260008FB2600089D260008AD
:102620001B270008672700088F2700085F4B03F56A
:102630008053D3F810285A4B1B689A4206D85B4B3C
:1026400003F58053022283F81C28A6E0574B03F5BC
:102650008053B3F8EE3F40F2E632934200F29080AE
:10266000524B03F58053B3F8EE3F504A03F54163F4
:1026700032F81320494BDA62484BDB6A474A5B0861
:1026800053634A4B03F58053B3F8EE3F0A339AB2D3
:10269000464B03F58053A3F8EE2F71E0434B03F54F
:1026A0008053B3F8EE3F092B09D8404B03F5805314
:1026B0000022A3F8EE2F0320FEF7DAFE6DE03B4B7D
:1026C00003F58053B3F8EE3F0A3B9AB2374B03F55C
:1026D0008053A3F8EE2F354B03F58053B3F8EE3F4C
:1026E000324A03F5416332F813202C4BDA622B4B4C
:1026F000DB6A2A4A5B08536349E02C4B03F580539D
:10270000D3F81428264B1B689A423BD8274B03F575
:102710008053032283F81C2834E0244B03F58053B4
:10272000B3F8EE3FB3F57A7F2ED2204B03F58053FA
:10273000B3F8EE3F1D4A03F5416332F81320174BFF
:10274000DA62164BDB6A154A5B085363174B03F5D5
:102750008053B3F8EE3F0A339AB2144B03F580531B
:10276000A3F8EE2F10E0114B03F58053D3F818288F
:102770000B4B1B689A4209D80320FEF779FE05E04F
:1027800000BF04E000BF02E000BF00E000BF034B59
:102790001B69024A23F00103136180BD0008004059
:1027A000B03E0020C03C0020A5220020A402002052
:1027B00080B483B000AF78607B6800221A707B68B9
:1027C00000225A707B6801229A7000BF0C37BD4608
:1027D00080BC704784B080B584B000AF786007F1EA
:1027E0001C0080E80E000123FB7372B600BF7B68FB
:1027F0009B78002B20D07B685B781A46652302FB10
:1028000003F37A6813440333184607F11C03652267
:1028100019460BF039F87B685B780133DAB27B68D4
:102820005A707B685B7803F01F03DAB27B685A70DA
:102830007B6800229A7026E07B685A787B681B7858
:102840009A4203D162B600BF00231FE07B685B7829
:102850001A46652302FB03F37A68134403331846D0
:1028600007F11C03652219460BF00EF87B685B78B4
:102870000133DAB27B685A707B685B7803F01F0320
:10288000DAB27B685A7062B600BFFB7B184610371D
:10289000BD46BDE8804004B0704780B584B000AF4D
:1028A000786039600123FB7372B600BF7B689B7848
:1028B000002B03D062B600BF002326E07B681B78A4
:1028C0001A46652302FB03F37A6813440333652237
:1028D000194638680AF0D8FF7B681B780133DAB2F2
:1028E0007B681A707B681B7803F01F03DAB27B6881
:1028F0001A707B681A787B685B789A4202D17B6891
:1029000001229A7062B600BFFB7B18461037BD46A5
:1029100080BD000080B582B000AFA64B1B78002BB5
:1029200000F03685A34B00221A700821A24807F058
:102930007DFDA14B9B781B021AB29F4BDB781BB22B
:1029400013431BB2FB809C4B1B791B021AB29A4BA0
:102950005B791BB213431BB2BB80974B5B78032B95
:1029600000F05583062B40F01385FB8847F61812BC
:1029700093420ED1BB88012B05D1904B012283F8E5
:10298000242000F002BD8D4B002283F8242000F0AB
:10299000FCBCFB8847F61912934200F0F684FB88D2
:1029A00047F61A12934210D1844BDB7DDBB2002B29
:1029B00005D1824B012283F8342000F0E6BC1421BB
:1029C0007F4805F0E3FA00F0E0BCFB8847F61B12F5
:1029D000934228D1794BDB7DDBB2002B12D1BB882F
:1029E000012B05D1754B012283F8392000F0CDBCB5
:1029F000BB88022B40F0C984704B012283F83D2034
:102A000000F0C3BC6D4B5B7DDBB2002B05D12321F5
:102A10006C4805F081FA00F0B8BC23216A4805F043
:102A20007BFA00F0B2BCFB8847F61C12934228D117
:102A3000624BDB7DDBB2002B12D1BB88012B05D1B1
:102A40005E4B012283F8372000F09FBCBB88022B2D
:102A500040F09B84594B012283F83B2000F095BC49
:102A6000564B5B7DDBB2002B05D12321554805F089
:102A700053FA00F08ABC2321534805F04DFA00F0C8
:102A800084BCFB8847F61D12934217D14B4BDB7D6C
:102A9000DBB2002B40F07984484B9B7DDBB2002BEE
:102AA00000F07384454B1B7DDBB2012B40F06D843D
:102AB000424B022283F8222000F067BCFB8847F6D5
:102AC0001E1293423BD1414ABB8813803F4B1B8867
:102AD000B3F5FA7F05D33D4B1B8847F23052934242
:102AE00009D93B4B022283F8E5200821394807F039
:102AF0009DFC00F04DBC354B1B88194645F2130078
:102B000002F0DAFA314B1B881946362002F0B4FF86
:102B10002E4B1B881B0A9BB2DBB22C4A1288D2B206
:102B2000194645F2130006F049FC294B012283F8AF
:102B3000E5200821274807F079FC00F026BCFB8837
:102B400047F61F12934249D1204ABB8813801F4B7E
:102B50001B8842F20F72934209D91D4B022283F85F
:102B6000FD2008211C4807F061FC00F011BC174B48
:102B70001B88194645F2140002F09EFA134B1B887D
:102B80001946382002F078FF104B1B881B0A9BB2B5
:102B9000DBB20E4A1288D2B2194645F2140006F092
:102BA0000DFC0B4B012283F8FD2008210A4807F099
:102BB0003DFCEAE3EF3B0020F03B0020C03C00205E
:102BC000E4E1000804E200081CE20008043C0020E4
:102BD00008010020E801002000020020FB8847F6E1
:102BE000201293423CD1BB88012B18D10122002135
:102BF00047F2996006F0E2FB0022002147F29A605A
:102C000006F0DCFBA74B012283F83320012144208E
:102C100004F05EFF0821A44807F008FCB5E3BB8878
:102C2000022B18D10022002147F2996006F0C6FB62
:102C30000122002147F29A6006F0C0FB994B022264
:102C400083F833200221442004F042FF08219648F3
:102C500007F0ECFB99E30821944807F0E7FB94E3C5
:102C6000FB8847F62112934200F08F83FB8847F6DA
:102C70002212934200F08983FB8847F62312934285
:102C800005D1BB88DBB2184604F06AFD7DE3FB8802
:102C900047F62412934238D1854ABB881380844B6F
:102CA0001B88632B05D9824B1B8844F62062934214
:102CB00008D9804B022283F8C52008217E4807F0FE
:102CC000B5FBA3E17A4B1B8819464FF4A04002F0F4
:102CD000F3F9774B1B881946102002F0CDFE744B98
:102CE0001B881B0A9BB2DBB2714A1288D2B219460A
:102CF0004FF4A04006F062FB6E4B012283F8C52022
:102D000008216D4807F092FB3FE3FB8847F6251248
:102D1000934239D1664ABB881380654B1B88B3F553
:102D2000FA7F05D3624B1B8847F23052934208D991
:102D3000604B022283F8CD200821604807F076FB23
:102D400064E15B4B1B88194645F2010002F0B4F9BF
:102D5000574B1B881946122002F08EFE544B1B88DD
:102D60001B0A9BB2DBB2524A1288D2B2194645F214
:102D7000010006F023FB4F4B012283F8CD200821F0
:102D80004E4807F053FB00E3FB8847F626129342B8
:102D900034D1474ABB881380454B1B8847F23052D9
:102DA000934208D9434B022283F8CD20082143489F
:102DB00007F03CFBE9E23E4B1B88194645F2120046
:102DC00002F07AF93A4B1B881946342002F054FE7F
:102DD000374B1B881B0A9BB2DBB2354A1288D2B232
:102DE000194645F2120006F0E9FA324B012283F847
:102DF000CD200821314807F019FBC6E2FB8847F6D1
:102E00002712934238D12A4ABB881380284B1B884B
:102E1000632B05D9264B1B8842F21072934208D9C6
:102E2000244B022283F8DD200821254807F0FEFA12
:102E3000ECE01F4B1B88194645F2080002F03CF9F4
:102E40001B4B1B881946202002F016FE184B1B88CE
:102E50001B0A9BB2DBB2164A1288D2B2194645F25F
:102E6000080006F0ABFA134B012283F8DD2008219D
:102E7000134807F0DBFA88E2FB8847F628129342F2
:102E800045D10B4ABB881380094B1B88B3F57A7F69
:102E90001AD9084B022283F8D5200821094807F0E7
:102EA000C5FA72E2C03C00208001002078010020B9
:102EB000043C002008010020C8010020D0010020AF
:102EC000E0010020D8010020A14B1B88194645F2E3
:102ED000090002F0F1F89E4B1B881946222002F0EF
:102EE000CBFD9B4B1B881B0A9BB2DBB2984A128816
:102EF000D2B2194645F2090006F060FA954B01225C
:102F000083F8D5200821944807F090FA3DE2FB8829
:102F100047F62912934239D18D4ABB8813808C4BD6
:102F20001B88B3F5FA7F05D3894B1B8843F698229B
:102F3000934208D9874B022283F8ED200821874865
:102F400007F074FA62E0824B1B88194645F20600CE
:102F500002F0B2F87E4B1B8819461C2002F08CFD53
:102F60007B4B1B881B0A9BB2DBB2794A1288D2B218
:102F7000194645F2060006F021FA764B012283F845
:102F8000ED200821754807F051FAFEE1FB8847F66D
:102F90002A12934240F0F9816D4ABB8813806C4B32
:102FA0001B88B3F5FA7F05D3694B1B884CF250326E
:102FB000934208D9674B022283F8F520082168481C
:102FC00007F034FA22E0624B1B88194645F20700ED
:102FD00002F072F85E4B1B8819461E2002F04CFD71
:102FE0005B4B1B881B0A9BB2DBB2594A1288D2B2D8
:102FF000194645F2070006F0E1F9564B012283F825
:10300000F5200821564807F011FABEE1BDE1FB8822
:10301000B3F5FA4F0ED1534B9B7DDBB2002B04D19D
:103020000821514807F002FAB1E10821494807F0A8
:10303000FDF9ACE1FB8847F60152934200F0A7810D
:10304000FB8847F6025293420ED1464B9B7DDBB282
:10305000012B04D10821454807F0E8F997E1082140
:10306000434807F0E3F992E1FB8847F603529342A5
:1030700000F08D81FB8847F6045293420FD1394B03
:1030800093F83A30DBB2012B04D10821394807F01C
:10309000CDF97CE10821384807F0C8F977E1FB88D1
:1030A00047F6055293420FD12E4B93F83830DBB2DE
:1030B000012B04D10821314807F0B8F967E1082154
:1030C0002F4807F0B3F962E1FB8847F606529342B6
:1030D00000F05D81FB8847F60752934200F057816C
:1030E000FB8847F60852934200F05181FB8847F66F
:1030F0000952934200F04B81FB8847F60A529342F3
:103100000BD1184B93F84230DAB2124B83F8AD2052
:1031100008211C4807F08AF939E1FB8847F60B5271
:10312000934235D10F4B1B7DDBB2012B04D108211B
:10313000154807F07BF92AE10A4B1B7DDBB2022B15
:1031400040F025810821114807F070F91FE100BF08
:10315000043C002008010020D8010020F0010020DC
:10316000F8010020C03C00201001002030010020A8
:1031700028010020500100204801002060010020AB
:1031800058010020B0010020C0010020B80100203B
:10319000FB8847F60C52934216D14FF4A04001F041
:1031A0002FFF03467B807B881B0A9BB2DAB27A4BE7
:1031B00083F8C4207B88DAB2774B83F8C5200821D6
:1031C000764807F033F9E2E0FB8847F60D52934268
:1031D00033D1734B93F83330DBB2012B16D145F268
:1031E000010001F00DFF03467B807B881B0A9BB228
:1031F000DAB2694B83F8CC207B88DAB2664B83F86D
:10320000CD200821674807F011F9C0E045F212000F
:1032100001F0F6FE03467B807B881B0A9BB2DAB284
:103220005D4B83F8CC207B88DAB25B4B83F8CD20F2
:1032300008215C4807F0FAF8A9E0FB8847F60E522F
:10324000934216D145F2090001F0DAFE03467B8075
:103250007B881B0A9BB2DAB24F4B83F8D4207B8861
:10326000DAB24D4B83F8D52008214F4807F0DEF83D
:103270008DE0FB8847F60F52934216D145F20800C5
:1032800001F0BEFE03467B807B881B0A9BB2DAB24C
:10329000414B83F8DC207B88DAB23F4B83F8DD209A
:1032A0000821424807F0C2F871E0FB8847F6105247
:1032B000934216D145F2130001F0A2FE03467B8033
:1032C0007B881B0A9BB2DAB2334B83F8E4207B88FD
:1032D000DAB2314B83F8E5200821354807F0A6F82B
:1032E00055E0FB8847F61152934216D145F206008D
:1032F00001F086FE03467B807B881B0A9BB2DAB214
:10330000254B83F8EC207B88DAB2234B83F8ED2041
:103310000821284807F08AF839E0FB8847F612525E
:10332000934216D145F2070001F06AFE03467B8006
:103330007B881B0A9BB2DAB2174B83F8F4207B8898
:10334000DAB2154B83F8F52008211B4807F06EF818
:103350001DE0FB8847F61352934218D145F2140042
:1033600001F04EFE03467B807B881B0A9BB2DAB2DB
:10337000094B83F8FC207B88DAB2074B83F8FD20E9
:1033800008210E4807F052F801E000BF00E000BF3E
:103390000837BD4680BD00BF08010020C8010020DD
:1033A000C03C0020D0010020D8010020E001002016
:1033B000E8010020F0010020F801002000020020B8
:1033C00080B483B000AF7860034B1B7DDBB2002B71
:1033D0000C37BD4680BC7047C03C002080B584B02F
:1033E00000AF78607B681B78012B02D0042B2DD0B6
:1033F00031E01A4B1B7DDBB2012B13D00023FB7392
:1034000006E0FB7B1846FEF733F8FB7B0133FB73CA
:10341000FB7B032BF5D9002006F0B0F8002003F069
:103420000DFF18E00D4B5B7DDBB2002B04D120219A
:103430000B4804F071FD0DE0084B5B7DDBB2012B06
:1034400008D12021074804F067FD03E0002003F0C5
:1034500041FE00E000BF1037BD4680BDC03C0020EB
:1034600040E2000854E2000880B584B000AF786004
:103470004FF4E04001F0C4FD0346FB60FB681B0411
:10348000FB6047F2010001F0BBFD03461A46FB68F2
:103490001344FB60834B1B78DBB2002B14D1814BB0
:1034A0005B7DDBB2002B04D10C217F4804F034FD9E
:1034B000F1E07C4B5B7DDBB2012B40F0EC80132113
:1034C0007A4804F029FDE6E0764B5B78DBB2002B0E
:1034D00014D1744B5B7DDBB2002B04D10C217448FA
:1034E00004F01AFDD9E06F4B5B7DDBB2012B40F09D
:1034F000D48016216F4804F00FFDCEE0694B1B7895
:10350000DBB2012B02D0022B47D0BDE0F9680020CE
:1035100001F06AFC0346002B25D0624B1B7DDBB219
:10352000022B03D0202004F0EFFB02E0002004F087
:10353000EBFB0622604947F2055004F02DFC062201
:103540005D494FF4EA4004F027FC564B1B78DBB290
:103550000A33DAB2534B1A700822584947F2106006
:1035600004F01AFC8DE00622534947F2055004F09E
:1035700013FC4C4B5B7DDBB2002B04D1082150487F
:1035800004F0CAFC7DE0474B5B7DDBB2012B78D1B8
:103590000F214C4804F0C0FC73E0F968012001F0F1
:1035A00023FC0346002B25D03E4B1B7DDBB2022BB8
:1035B00003D0202004F0A8FB02E0002004F0A4FBCC
:1035C00006223D4947F2055004F0E6FB06223A493F
:1035D0004FF4EA4004F0E0FB324B1B78DBB20A33D5
:1035E000DAB2304B1A700822374947F2106004F003
:1035F000D3FB48E0F968022001F0F6FB0346002BFC
:1036000025D0284B1B7DDBB2022B03D0202004F0F9
:103610007BFB02E0002004F077FB0622264947F2FC
:10362000055004F0B9FB062223494FF4EA4004F0A8
:10363000B3FB1C4B1B78DBB21433DAB2194B1A7094
:103640000822224947F2106004F0A6FB1BE0062284
:10365000194947F2055004F09FFB124B5B7DDBB22A
:10366000002B04D10821164804F056FC0BE00D4B4A
:103670005B7DDBB2012B06D10F21124804F04CFC1C
:1036800001E000BF00E000BF064B00225A70104B63
:1036900000225A7002E000BF00E000BF1037BD46B4
:1036A00080BD00BFC03C002078E2000888E200082E
:1036B0009CE20008ACE20008C4E20008CCE200088A
:1036C000D8E20008E4E20008F4E2000800E30008A1
:1036D000403C002080B582B000AF78600E4B5B7D2F
:1036E000DBB2002B04D10D4B1B88184604F00CFBF9
:1036F000094B5B7DDBB2012B06D1084B1B88323BAB
:103700009BB2184604F000FB054B00229A7000BFE4
:103710000837BD4680BD00BFC03C0020683D00208A
:10372000403C002080B582B000AF7860134B00228F
:10373000DA707B681B78012B02D0022B0AD013E0D1
:1037400006220F494FF4EA4004F026FB0D4B0122FC
:103750001A7009E006220C494FF4EA4004F01CFB01
:10376000084B02221A7000BF0622084947F2055092
:1037700004F012FB00BF0837BD4680BD403C00206E
:103780000CE30008C03C002014E30008C4E2000879
:1037900080B582B000AF7860244B00225A710622B7
:1037A00023494FF4EA4004F0F7FA0622204947F291
:1037B000055004F0F1FA1F4B00221A701D4B5B7D7F
:1037C000DBB2002B04D109211B4804F0A5FB08E063
:1037D000184B5B7DDBB2012B03D10E21174804F09F
:1037E0009BFB4FF4FA7006F034FF124B5B7DDBB2AB
:1037F000002B04D10A21124804F08EFB08E00D4B87
:103800005B7DDBB2012B03D10B210E4804F084FB5E
:10381000022006F01EFF08220B4947F2106004F058
:103820001BFB00BF0837BD4680BD00BF403C0020E9
:10383000C4E20008C03C00201CE3000828E30008A4
:1038400038E3000844E3000850E3000880B588B07E
:1038500000AF7860894B00229A71894B1B78DBB2EC
:10386000002B14D1864B5B7DDBB2002B04D10C21E5
:10387000844804F051FBCDE1814B5B7DDBB2012B31
:1038800040F0C8811321804804F046FBC2E17C4B24
:103890005B78DBB2002B14D1794B5B7DDBB2002B64
:1038A00004D10E21794804F037FBB5E1744B5B7D00
:1038B000DBB2012B40F0B0811A21754804F02CFBDB
:1038C000AAE16F4B5B78DBB2012B14D86C4B5B7DAC
:1038D000DBB2002B04D10E216E4804F01DFB9DE1EC
:1038E000674B5B7DDBB2012B40F098811A216A485F
:1038F00004F012FB92E1624B5B78DBB2022B14D82E
:103900005F4B5B7DDBB2002B04D11221634804F0D6
:1039100003FB85E15A4B5B7DDBB2012B40F08081DC
:1039200027215F4804F0F8FA7AE14FF4E04001F013
:1039300067FB0346FB61FB691B04FB6147F2010067
:1039400001F05EFB03461A46FB691344FB614C4BD6
:103950001B78DBB20A2B06D9494B1B78DBB20A3B3A
:10396000DAB2474B1A70464B1B78DBB2012B40F0A2
:10397000A380F969002001F037FA0346002B00F01C
:103980009B8047F2020001F03BFB0346BB61BB6931
:103990001B04BB6147F2030001F032FB03461A46E9
:1039A000BB691344BB6147F2040001F029FB0346E5
:1039B0007B617B691B047B6147F2050001F020FB02
:1039C00003461A467B6913447B61BA697B699A4254
:1039D0002DD1B969002001F075FC002002F00CF82F
:1039E0000622304947F2055004F0D6F906222D4947
:1039F00047F2205004F0D0F906222A4947F223501A
:103A000004F0CAF91E4B5B7DDBB2002B04D10A2106
:103A1000254804F081FA05E1194B5B7DDBB2012BEF
:103A200040F000811A21214804F076FAFAE00622DB
:103A30001C4947F2055004F0AFF90622194947F234
:103A4000205004F0A9F90622164947F2235004F049
:103A5000A3F90B4B5B7DDBB2002B04D10A21144888
:103A600004F05AFADEE0064B5B7DDBB2012B40F03E
:103A7000D9801F210F4804F04FFAD3E0403C0020CA
:103A8000C03C002078E2000888E200085CE30008FF
:103A90006CE3000888E3000898E30008B4E300083A
:103AA000C8E30008C4E20008F0E3000800E40008EE
:103AB0001CE4000828E400085D4B1B78DBB2022BF5
:103AC00040F08280F969012001F08EF90346002B55
:103AD0007AD047F2020001F093FA03463B613B695A
:103AE0001B043B6147F2030001F08AFA03461A46C1
:103AF0003B6913443B6147F2040001F081FA03463D
:103B0000FB60FB681B04FB6047F2050001F078FADC
:103B100003461A46FB681344FB603A69FB689A4205
:103B20002CD13969012001F0CDFB012001F064FFA7
:103B30000622404947F2055004F02EF906223D497D
:103B400047F2205004F028F906223A4947F2235060
:103B500004F022F9364B5B7DDBB2002B04D10A2145
:103B6000354804F0D9F95FE0314B5B7DDBB2012BC6
:103B70005AD11721314804F0CFF955E006222D49DA
:103B800047F2055004F008F906222A4947F220506E
:103B900004F002F90622274947F2235004F0FCF80A
:103BA000234B5B7DDBB2002B04D10A21244804F0B7
:103BB000B3F939E01E4B5B7DDBB2012B34D11F2101
:103BC000204804F0A9F92FE006221A4947F20550CF
:103BD00004F0E2F80622174947F2205004F0DCF81E
:103BE0000622144947F2235004F0D6F8104B5B7DAF
:103BF000DBB2002B04D10821134804F08DF914E046
:103C00000B4B5B7DDBB2012B0FD10F210F4804F072
:103C100083F90AE000BF08E000BF06E000BF04E04F
:103C200000BF02E000BF00E000BF2037BD4680BDFE
:103C3000C03C0020C4E20008F0E3000848E40008AB
:103C40001CE4000828E40008D8E20008E4E20008C8
:103C500080B582B000AF78606C4B00221A717B682F
:103C60001B78013B072B00F2CE8001A252F823F013
:103C7000913C0008C33C0008F53C00083D3D0008AD
:103C8000533D0008693D00089B3D0008C73D000802
:103C9000002001F03DF95E4B002283F844205C4B8C
:103CA0001B78DBB2092B04D9594B1B7DDBB2012BEE
:103CB00003D1202004F028F8A5E0002004F024F827
:103CC000A1E0002001F024F9514B012283F84420A7
:103CD0004F4B1B78DBB2092B04D94D4B1B7DDBB25C
:103CE000012B03D11E2004F00FF88CE0012004F01A
:103CF0000BF888E0464B1B7DDBB2012B13D1444B04
:103D00005B7DDBB2002B04D12021424804F004F992
:103D100078E03F4B5B7DDBB2012B73D120213E4825
:103D200004F0FAF86EE03A4B022283F844200020B7
:103D300001F0EEF8022003F0E7FF64E0344B0322C9
:103D400083F84420012001F0E3F8032003F0DCFFB6
:103D500059E02F4B042283F84420002001F0D8F8CA
:103D6000042003F0D1FF4EE0002001F0D1F8284BF1
:103D7000052283F84420264B1B78DBB20B2B04D999
:103D8000234B1B7DDBB2012B03D11F2003F0BCFFB3
:103D900039E0052003F0B8FF35E0002001F0B8F865
:103DA00006221E4947F2055003F0F6FF06221B4982
:103DB0004FF4EA4003F0F0FF154B00225A70072041
:103DC00003F0A2FF1FE0062214494FF4EA4003F07B
:103DD000E3FF0622114947F2055003F0DDFF0622FA
:103DE0000E4947F2205003F0D7FF06220B4947F255
:103DF000235003F0D1FF064B00225A70082003F035
:103E000083FF00E000BF0837BD4680BD403C002076
:103E1000C03C002040E2000854E20008C4E2000870
:103E200080B582B000AF78607B681B78032B65D0CB
:103E3000032B00F3B380012B02D0022B3CD0ADE06A
:103E4000584B1B7DDBB2032B19D1564B9B7DDBB24C
:103E5000012B14D1534B5B7DDBB2002B04D110211D
:103E6000514804F059F892E04E4B5B7DDBB2012BD8
:103E700040F08D8016214D4804F04EF887E0494B04
:103E8000DB7DDBB2002B13D0464B5B7DDBB2002B1E
:103E900004D12321464804F03FF87AE0414B5B7D92
:103EA000DBB2012B75D12321424804F035F870E0D4
:103EB000012003F055FC71E03A4B1B7DDBB2032B74
:103EC00018D1384B9B7DDBB2012B13D1354B5B7D79
:103ED000DBB2002B04D11021334804F01DF85AE066
:103EE000304B5B7DDBB2012B55D116212F4804F0FE
:103EF00013F850E0002003F033FC4FE0294B9B7D8A
:103F0000DBB2012B13D1274B5B7DDBB2002B04D13D
:103F10001321294804F000F83FE0224B5B7DDBB21F
:103F2000012B3AD11321254803F0F6FF35E001209B
:103F300003F028FA022003F025FA042003F022FA05
:103F4000052003F01FFA174B5B7DDBB2002B04D179
:103F50000F211B4804F000F808E0124B5B7DDBB238
:103F6000012B03D11521174803F0F6FF0D4B032257
:103F70001A750C4B1B7DDBB21946462003F0A8FDD9
:103F8000084B1B7DDBB2184605F0ACFA06E000BF1B
:103F900004E000BF02E000BF00E000BF0837BD46FC
:103FA00080BD00BFC03C002064E4000878E4000845
:103FB00090E40008A8E40008CCE40008D8E4000875
:103FC000ECE40008FCE4000880B582B000AF786043
:103FD000054B002283F823200020FDF767FA00BF7D
:103FE0000837BD4680BD00BF403C002080B582B090
:103FF00000AF7860054B002283F824200120FDF7F4
:1040000055FA00BF0837BD4680BD00BF403C0020C8
:1040100080B582B000AF7860054B002283F8252080
:104020000220FDF743FA00BF0837BD4680BD00BF40
:10403000403C002080B582B000AF7860054B002284
:1040400083F826200320FDF731FA00BF0837BD466C
:1040500080BD00BF403C002080B582B000AF7860DA
:10406000074B00229A74074B93F82F30DBB21946A6
:104070000020FDF781FD00BF0837BD4680BD00BFB1
:10408000403C0020C03C002080B582B000AF78608A
:10409000094B0022DA74094B93F82F30DBB2002B66
:1040A0000CBF01230023DBB219460020FDF764FD9D
:1040B00000BF0837BD4680BD403C0020C03C00200A
:1040C00080B582B000AF7860074B00221A75074BAD
:1040D00093F83030DBB219460120FDF74DFD00BFEB
:1040E0000837BD4680BD00BF403C0020C03C0020DA
:1040F00080B582B000AF7860094B00225A75094B39
:1041000093F83030DBB2002B0CBF01230023DBB26D
:1041100019460120FDF730FD00BF0837BD4680BDC0
:10412000403C0020C03C002080B582B000AF7860E9
:10413000074B00229A75074B93F83130DBB21946D2
:104140000220FDF719FD00BF0837BD4680BD00BF46
:10415000403C0020C03C002080B582B000AF7860B9
:10416000094B0022DA75094B93F83130DBB2002B92
:104170000CBF01230023DBB219460220FDF7FCFC33
:1041800000BF0837BD4680BD403C0020C03C002039
:1041900080B582B000AF7860074B00221A76074BDB
:1041A00093F83230DBB219460320FDF7E5FC00BF7F
:1041B0000837BD4680BD00BF403C0020C03C002009
:1041C00080B582B000AF7860094B00225A76094B67
:1041D00093F83230DBB2002B0CBF01230023DBB29B
:1041E00019460320FDF7C8FC00BF0837BD4680BD57
:1041F000403C0020C03C002080B582B000AF786019
:10420000254B00229A76254B1B7DDBB2012B0ED16C
:10421000224B5B7DDBB2002B04D12021204803F030
:104220007BFE35E020211E4803F076FE30E01B4B7C
:104230001B7DDBB2032B13D1184B9B7DDBB2012B13
:104240000ED1164B5B7DDBB2002B04D12621154825
:1042500003F062FE1CE02621124803F05DFE17E029
:104260000E4BDB7DDBB2002B04D10C4B012283F81B
:1042700034200DE0094B5B7DDBB2002B04D1232100
:10428000094803F049FE03E02321084803F044FEF7
:104290000837BD4680BD00BF403C0020C03C002028
:1042A00040E2000860E5000890E40008A8E4000887
:1042B00080B582B000AF78602C4B00229A722C4BF4
:1042C0001B7DDBB2032B0ED1294B5B7DDBB2002BB8
:1042D00004D12621274803F01FFE44E01E21264872
:1042E00003F01AFE3FE0224B1B7DDBB2012B0ED107
:1042F0001F4B5B7DDBB2002B04D120211F4803F054
:104300000BFE30E020211E4803F006FE2BE0184B88
:104310009B7DDBB2002B0ED1154B5B7DDBB2002BFE
:1043200004D11821174803F0F7FD1CE018211648A6
:1043300003F0F2FD17E00E4BDB7DDBB2002B04D166
:104340000B4B012283F839200DE0094B5B7DDBB27A
:10435000002B04D123210D4803F0DEFD03E02321CF
:104360000B4803F0D9FD0837BD4680BD403C002016
:10437000C03C002060E5000874E5000840E2000849
:1043800054E2000814E5000828E5000890E400085D
:10439000A8E4000880B582B000AF78602C4B002202
:1043A000DA722C4B1B7DDBB2032B0ED1294B5B7DCC
:1043B000DBB2002B04D12621274803F0ADFD44E0F9
:1043C0001E21264803F0A8FD3FE0224B1B7DDBB2F7
:1043D000012B0ED11F4B5B7DDBB2002B04D12021C2
:1043E0001F4803F099FD30E020211E4803F094FDA2
:1043F0002BE0184B9B7DDBB2002B0ED1154B5B7D68
:10440000DBB2002B04D11821174803F085FD1CE016
:104410001821164803F080FD17E00E4BDB7DDBB260
:10442000002B04D10B4B012283F837200DE0094B00
:104430005B7DDBB2002B04D123210D4803F06CFD22
:1044400003E023210B4803F067FD0837BD4680BD1C
:10445000403C0020C03C002060E5000874E50008F6
:1044600040E2000854E2000814E5000828E50008CE
:1044700090E40008A8E4000880B582B000AF78603E
:10448000254B00229A76254B9B7DDBB2002B0ED16B
:10449000224B5B7DDBB2002B04D11821204803F0B6
:1044A0003BFD35E018211F4803F036FD30E01B4B83
:1044B000DB7DDBB2002B0ED0184B5B7DDBB2002B1B
:1044C00004D12321184803F027FD21E023211748B8
:1044D00003F022FD1CE07B681B78012B02D0022B2D
:1044E00005D015E00D4B012283F8392010E00021A2
:1044F000032006F0CBFA0121042006F0C7FA0021C0
:10450000022005F07BF80121032005F077F800BFB9
:104510000837BD4680BD00BF403C0020C03C0020A5
:1045200014E5000828E5000890E40008A8E4000865
:1045300080B582B000AF7860254B0022DA76254B3B
:104540009B7DDBB2002B0ED1224B5B7DDBB2002BBF
:1045500004D11821204803F0DFFC35E018211F4862
:1045600003F0DAFC30E01B4BDB7DDBB2002B0ED01E
:10457000184B5B7DDBB2002B04D12321184803F0DC
:10458000CBFC21E02321174803F0C6FC1CE07B682C
:104590001B78012B02D0022B05D015E00D4B012218
:1045A00083F8372010E00121032006F06FFA002184
:1045B000042006F06BFA0121022005F01FF800210B
:1045C000032005F01BF800BF0837BD4680BD00BFC3
:1045D000403C0020C03C002014E5000828E500080D
:1045E00090E40008A8E4000880B584B000AF7860CB
:1045F000264B00221A777B681B78012B02D0022BF6
:104600001CD03FE0224B03F5805393F81C38002B5D
:1046100037D1204BDB791B021F4AD2791343FB6051
:104620001E4B012283F84A201C4B93F83130DBB239
:10463000FA6819460320FCF70BFE22E0184B1B78A2
:10464000002B06D0164B00221A700320FCF710FF37
:104650000EE0134B01221A70104B002283F84A20FF
:104660000E4B93F83130DBB219460320FDF784FA84
:104670000B4B1B781A46002147F2906004F09EFE17
:1046800000E000BF00BF1037BD4680BD403C0020A9
:10469000A4020020243C0020083C0020C03C002054
:1046A000063C002080B582B000AF7860484B002205
:1046B0005A777B681B78013B042B00F2858001A2AE
:1046C00052F823F0D9460008094700083947000886
:1046D0006947000899470008012006F02DFA0346B3
:1046E000012B08D10021012006F0D0F90021002083
:1046F00004F084FF68E00121012006F0C7F90121E0
:10470000002004F07BFF5FE0022006F015FA03466C
:10471000012B08D10021022006F0B8F90021012068
:1047200004F06CFF50E00121022006F0AFF90121F6
:10473000012004F063FF47E0032006F0FDF9034683
:10474000012B08D10021032006F0A0F9002102204E
:1047500004F054FF38E00121032006F097F901210D
:10476000022004F04BFF2FE0042006F0E5F9034699
:10477000012B08D10021042006F088F90021032034
:1047800004F03CFF20E00121042006F07FF9012124
:10479000032004F033FF17E0052006F0CDF90346AF
:1047A000012B08D10021052006F070F9002104201A
:1047B00004F024FF07E00121052006F067F901213C
:1047C000042004F01BFF00BF00BF0837BD4680BDBA
:1047D000403C002080B582B000AF78601C4B93F85D
:1047E0002C30012B02D0022B15D029E00122002110
:1047F00047F2996004F0E2FD0022002147F29A603E
:1048000004F0DCFD134B012283F833200121442006
:1048100003F05EF914E00022002147F2996004F0F1
:10482000CDFD0122002147F29A6004F0C7FD094B3B
:10483000022283F833200221442003F049F900BF0B
:10484000034B002283F82C2000BF0837BD4680BDF3
:10485000403C0020C03C002080B582B000AF7860B2
:104860001A4B5B7DDBB2002B0DD1184B01225A7520
:104870000121482003F02CF92221154803F06CFB9C
:1048800004F0DCF911E0114B5B7DDBB2012B0CD1A4
:104890000E4B00225A750021482003F019F90F2110
:1048A0000C4803F059FB04F0C9F9084B1B7DDBB23F
:1048B000022B03D0202003F027FA02E0002003F0AF
:1048C00023FA00BF0837BD4680BD00BFC03C0020B2
:1048D00094E50008B8E5000880B582B000AF7860C4
:1048E0002A4B002283F82E201422294947F208502F
:1048F00003F052FA274B5B7DDBB2002B06D113226B
:10490000254947F2085003F047FA0AE0214B5B7D46
:10491000DBB2012B05D11F22204947F2085003F0DA
:104920003BFA1F4B0C221A800C2003F0EDF9194BB7
:104930001B78DBB20B2B02D101F0F4F801E000F0A0
:1049400061FF144B00221A702E22114947F20850C1
:1049500003F022FA0F4B5B7DDBB2002B06D118224D
:10496000104947F2085003F017FA0AE0094B5B7D43
:10497000DBB2012B05D11D220B4947F2085003F091
:104980000BFA00BF0837BD4680BD00BF403C002089
:10499000C8E50008C03C0020E0E50008F4E5000898
:1049A000683D002014E600082CE6000880B582B0BF
:1049B00000AF78607B681B78013B162B00F20D82FC
:1049C00001A252F823F000BF254A0008FD4A000862
:1049D000454B00088D4B0008D54B00081D4C0008C6
:1049E000654C0008DB4D0008F54C0008494D0008F7
:1049F000DB4D0008DB4D0008DB4D0008DB4D0008F7
:104A0000DB4D0008DB4D0008DB4D0008DB4D0008E6
:104A1000DB4D0008AD4C0008DB4D0008DB4D000805
:104A2000914D0008C54B93F82730DBB2002B32D0F4
:104A3000C24B002283F827200022002147F62010D5
:104A400004F0BCFC0021702003F042F8BB4B5B7DFE
:104A5000DBB2002B0CD11622B94947F6700003F0E7
:104A6000FBF91622B6494FF4F14003F0F5F9B3E132
:104A7000B24B5B7DDBB2012B40F0AE811622B14917
:104A800047F6700003F0E8F91622AE494FF4F14002
:104A900003F0E2F9A0E1A94B012283F827200122CB
:104AA000002147F6201004F089FC0121702003F05A
:104AB0000FF8A24B5B7DDBB2002B0CD11622A04974
:104AC00047F6700003F0C8F916229D494FF4F140F3
:104AD00003F0C2F980E1994B5B7DDBB2012B40F022
:104AE0007B811622974947F6700003F0B5F916222C
:104AF00094494FF4F14003F0AFF96DE18F4B93F817
:104B00002830DBB2002B0ED08C4B002283F82820FB
:104B10000022002147F6211004F050FC00217120F2
:104B200002F0D6FF59E1854B012283F828200122AB
:104B3000002147F6211004F041FC0121712002F010
:104B4000C7FF4AE17D4B93F82A30DBB2002B0ED031
:104B50007A4B002283F82A200022002147F62210F7
:104B600004F02CFC0021722002F0B2FF35E1734BFF
:104B7000012283F82A200122002147F6221004F0A6
:104B80001DFC0121722002F0A3FF26E16B4B93F87C
:104B90002E30DBB2002B0ED0684B002283F82E2083
:104BA0000022002147F6231004F008FC00217320A6
:104BB00002F08EFF11E1614B012283F82E200122C9
:104BC000002147F6231004F0F9FB0121732002F0C5
:104BD0007FFF02E1594B93F82B30DBB2002B0ED054
:104BE000564B002283F82B200022002147F6241088
:104BF00004F0E4FB0021742002F06AFFEDE04F4B6B
:104C0000012283F82B200122002147F6241004F012
:104C1000D5FB0121742002F05BFFDEE0474B93F8E7
:104C20002C30DBB2002B0ED0444B002283F82C201A
:104C30000022002147F6251004F0C0FB002175205A
:104C400002F046FFC9E03D4B012283F82C200122EF
:104C5000002147F6251004F0B1FB0121752002F078
:104C600037FFBAE0354B93F82D30DBB2002B0ED076
:104C7000324B002283F82D200022002147F6261017
:104C800004F09CFB0021762002F022FFA5E02B4BD4
:104C9000012283F82D200122002147F6261004F07E
:104CA0008DFB0121762002F013FF96E0234B93F851
:104CB0002F30DBB2002B0ED0204B002283F82F20A8
:104CC0000022002147F6401004F078FB00218020EC
:104CD00002F0FEFE81E0194B012283F82F20012211
:104CE000002147F6401004F069FB0121802002F00A
:104CF000EFFE72E0114B93F83030DBB2002B0ED098
:104D00000E4B002283F830200022002147F62810A5
:104D100004F054FB0021812002F0DAFE5DE0074B35
:104D2000012283F830200122002147F6281004F0E8
:104D300045FB0121812002F0CBFE4EE0C03C00206B
:104D40004CE6000854E60008264B93F83130DBB2FD
:104D5000002B0ED0234B002283F8312000220021AB
:104D600047F6291004F02AFB0021822002F0B0FE51
:104D700033E01C4B012283F831200122002147F649
:104D8000291004F01BFB0121822002F0A1FE24E087
:104D9000144B93F83230DBB2002B0ED0114B0022B3
:104DA00083F832200022002147F6431004F006FB6E
:104DB0000021832002F08CFE0FE00A4B012283F8D1
:104DC00032200122002147F6431004F0F7FA0121B6
:104DD000832002F07DFE00E000BF00BF0837BD4623
:104DE00080BD00BFC03C002080B485B000AF03464A
:104DF0003960FB710123FB73FB79022B56D0022B28
:104E00007CDC002B02D0012B28D077E00623BB737B
:104E100020E039683C4BA3FB0123DA0813469B00D2
:104E200013445B00CA1A02F13003BA7B013A3749D6
:104E30000A449278D2B2934203D00023FB7300BF9E
:104E40005CE03B68304AA2FB0323DB083B60BB7B92
:104E5000013BBB73BB7B002BDBD14FE00623BB7355
:104E600020E03968284BA3FB0123DA0813469B0096
:104E700013445B00CA1A02F13003BA7B013A23499A
:104E80000A44127AD2B2934203D00023FB7300BFCC
:104E900034E03B681C4AA2FB0323DB083B60BB7B7E
:104EA000013BBB73BB7B002BDBD127E00623BB732D
:104EB00020E03968144BA3FB0123DA0813469B005A
:104EC00013445B00CA1A02F13003BA7B013A0F495E
:104ED0000A44927BD2B2934203D00023FB7300BFFB
:104EE0000BE03B68084AA2FB0323DB083B60BB7B6B
:104EF000013BBB73BB7B002BDBD100BFFB7B1846A8
:104F00001437BD4680BC7047CDCCCCCCC03C002013
:104F100080B483B000AF0346FB71FB79002B08D04F
:104F2000012B0DD1094B1B68084A43F001031360A4
:104F300006E0064B1B68054A23F00103136000BF1F
:104F400000BF0C37BD4680BC704700BF000C00405E
:104F500080B584B000AF78600123FB7313E0FB7B66
:104F6000184605F0C7FD0346BB73FB7B9BB203F5F8
:104F7000EB437F339BB2BA7B0021184604F01EFA44
:104F8000FB7B0133FB73FB7B0C2BE8D90023FB730A
:104F900013E0FB7B184605F063FC0346BB73FB7B09
:104FA0009BB203F5EC430C339BB2BA7B002118464D
:104FB00004F004FAFB7B0133FB73FB7B032BE8D982
:104FC0000423FB7313E0FB7B184605F049FC034602
:104FD000BB73FB7B9BB203F5F0431E339BB2BA7BE2
:104FE0000021184604F0EAF9FB7B0133FB73FB7BDD
:104FF000072BE8D900BF00BF1037BD4680BD0000B9
:1050000080B485B000AF0346FB80FB88B3F5A04FAA
:1050100040D3FB8845F69912934210D8FB88A3F53C
:10502000A043FB80FB881E4AD35C1B021AB2FB889C
:105030001C49CB5C1BB213431BB2FB812AE0FB88EB
:1050400046F69912934210D8FB88A3F5C043FB8023
:10505000FB88154AD35C1B021AB2FB881349CB5C50
:105060001BB213431BB2FB8114E0FB8847F6991275
:1050700093420FD8FB88A3F5E043FB80FB880C4AE2
:10508000D35C1B021AB2FB880A49CB5C1BB21343E8
:105090001BB2FB81FB8918461437BD4680BC7047A4
:1050A000243C0020083C0020783C0020403C0020AC
:1050B000B83C0020B03C002080B483B000AF034671
:1050C0000A46FB801346BB80FB88B3F5A04F40D354
:1050D000FB8845F69912934210D8FB88A3F5A043AC
:1050E000FB80BB881B0A9AB2FB88D1B21B4AD15401
:1050F000FB88BA88D1B21A4AD1542AE0FB8846F616
:105100009912934210D8FB88A3F5C043FB80BB885B
:105110001B0A9AB2FB88D1B2124AD154FB88BA88D2
:10512000D1B2114AD15414E0FB8847F69912934248
:105130000FD8FB88A3F5E043FB80BB881B0A9AB21B
:10514000FB88D1B2094AD154FB88BA88D1B2084A47
:10515000D15400BF0C37BD4680BC7047243C0020B2
:10516000083C0020783C0020403C0020B83C002057
:10517000B03C002080B582B000AF0346FB800B46F8
:105180007B7113463B71FB88B3F5A04F39D3FB8885
:1051900045F69912934211D8FB88A3F5A043FB80F2
:1051A000FB881A497A79CA54FB8819493A79CA5452
:1051B000FB88DBB21846FCF71DFA22E0FB8846F6B6
:1051C000991293420CD8FB88A3F5C043FB80FB885F
:1051D00010497A79CA54FB880F493A79CA5410E0C9
:1051E000FB8847F6991293420BD8FB88A3F5E0435E
:1051F000FB80FB8809497A79CA54FB8808493A79C7
:10520000CA5400BF0837BD4680BD00BF243C002003
:10521000083C0020783C0020403C0020B83C0020A6
:10522000B03C002080B485B000AF03463960FB710C
:10523000FB79022B2CD0022B3DDC002B02D0012B62
:1052400013D038E00023FB730BE0FB7B3A681A4471
:10525000FB7B11781A4A13440A469A70FB7B013390
:10526000FB73FB7B052BF0D925E00023FB730BE0E0
:10527000FB7B3A681A44FB7B1178114A13440A46B7
:105280001A72FB7B0133FB73FB7B052BF0D912E019
:105290000023FB730BE0FB7B3A681A44FB7B11781D
:1052A000074A13440A469A73FB7B0133FB73FB7B6B
:1052B000052BF0D900BF00BF1437BD4680BC704736
:1052C000C03C002080B485B000AF03463960FB715C
:1052D000FB79002B02D0012B23D045E00623FB7382
:1052E0001BE03968234BA3FB0123DA0813469B001C
:1052F00013445B00CA1AD2B2FB7B013B3032D1B2FD
:105300001D4A13440A469A703B681A4AA2FB0323BB
:10531000DB083B60FB7B013BFB73FB7B002BE0D19D
:1053200022E00623FB731BE03968124BA3FB012329
:10533000DA0813469B0013445B00CA1AD2B2FB7B07
:10534000013B3032D1B20C4A13440A461A723B6810
:10535000084AA2FB0323DB083B60FB7B013BFB739A
:10536000FB7B002BE0D100BF00BF1437BD4680BCE3
:10537000704700BFCDCCCCCCC03C002080B582B003
:1053800000AF5A21002002F0A3FB002002F070FBC6
:1053900003465A2B02D10123FB7101E00023FB716C
:1053A000FB7918460837BD4680BD80B582B000AF96
:1053B000012002F05DFB0346372B02D10123FB7174
:1053C00001E00023FB71FB7918460837BD4680BD1C
:1053D00090B583B000AF4FF4A043FB8010237B71E6
:1053E0008649002000F0ACFA8549012000F0A8FAB7
:1053F0001AE07B799BB201339BB2184602F038FB6E
:1054000003461C467B799BB2184602F031FB0346EB
:105410001A46FB8821461846FFF7ACFEFB8801338D
:10542000FB807B7902337B717B79382BE1D90023B8
:105430003B7144E03B799BB29B009BB251339BB2E2
:10544000184602F015FB03461B021CB23B799BB2C7
:105450009B009BB250339BB2184602F009FB0346F7
:105460001BB223431AB23B7991B2664ADB02134462
:1054700004330A461A803B799BB29B009BB253339C
:105480009BB2184602F0F4FA03461B021CB23B79A9
:105490009BB29B009BB252339BB2184602F0E8FAD3
:1054A00003461BB223431AB23B7991B2554ADB0241
:1054B000134406330A461A803B7901333B713B792A
:1054C000032BB7D9442002F0D3FA03461A464E4BB9
:1054D00083F83320452002F0CBFA03461A464A4BA4
:1054E0009A76462002F0C4FA03461A46464B1A75CD
:1054F000482002F0BDFA03461A46434B5A75424B08
:105500005B7DDBB2002B04D13F4B5B7DDBB2012B1B
:1055100009D03D4B00225A753B4B5B7DDBB21946EF
:10552000482002F0D5FA702002F0A2FA03461A468B
:10553000354B83F82720712002F09AFA03461A4669
:10554000314B83F82820722002F092FA03461A4663
:105550002D4B83F82A20732002F08AFA03461A465C
:10556000294B83F82E20742002F082FA03461A4653
:10557000254B83F82B20752002F07AFA03461A4651
:10558000214B83F82C20762002F072FA03461A464B
:105590001D4B83F82D20802002F06AFA03461A463C
:1055A000194B83F82F20812002F062FA03461A4635
:1055B000154B83F83020822002F05AFA03461A462F
:1055C000114B83F83120832002F052FA03461A4629
:1055D0000D4B83F83220352002F04AFA03461C4670
:1055E000342002F045FA03461A46214645F21200DD
:1055F000FFF7C0FD00BF0C37BD4690BDC23C002088
:10560000C83C0020A4020020C03C002080B582B02D
:1056100000AF1023FB710023BB711AE0FB799AB233
:10562000BB797449CB5C1946104602F051FAFB79FC
:105630000133FB71FB799AB2BB796F49CB5C194698
:10564000104602F045FAFB790133FB71BB79013357
:10565000BB71BB79182BE1D90023BB714AE0BB7940
:105660009BB29B009BB250339AB2BB796349DB0279
:105670000B4404331B88DBB21946104602F028FAAB
:10568000BB799BB29B009BB251339AB2BB795B4909
:10569000DB020B4404331B881B0A9BB2DBB21946A6
:1056A000104602F015FABB799BB29B009BB25233B5
:1056B0009AB2BB795149DB020B4406331B88DBB23B
:1056C0001946104602F004FABB799BB29B009BB2CC
:1056D00053339AB2BB794949DB020B4406331B882A
:1056E0001B0A9BB2DBB21946104602F0F1F9BB79F6
:1056F0000133BB71BB79032BB1D93E4B1B7B1946E0
:10570000432002F0E5F93E4B5B7DDBB219464820B1
:1057100002F0DEF93A4B93F83330DBB219464420FD
:1057200002F0D6F9364B9B7EDBB21946452002F0DB
:10573000CFF9334B93F82730DBB21946702002F0D3
:10574000C7F92F4B93F82830DBB21946712002F0CD
:10575000BFF92B4B93F82A30DBB21946722002F0C6
:10576000B7F9274B93F82E30DBB21946732002F0BD
:10577000AFF9234B93F82D30DBB21946742002F0B9
:10578000A7F91F4B93F82C30DBB21946752002F0B5
:105790009FF91B4B93F82D30DBB21946762002F0AF
:1057A00097F9174B93F82F30DBB21946802002F09F
:1057B0008FF9134B93F83030DBB21946812002F099
:1057C00087F90F4B93F83130DBB21946822002F093
:1057D0007FF90B4B93F83230DBB21946832002F08D
:1057E00077F93721012002F073F900BF0837BD4671
:1057F00080BD00BF083C0020243C0020A402002003
:10580000C03C002080B582B000AF0023FB710FE0E8
:10581000FB799BB203F5A0439AB2FB79334931F887
:10582000133019461046FFF747FCFB790133FB7133
:10583000FB79182BECD92E4B01221A702D4B02222A
:105840001A752C4B01229A762A4B01225A76294B43
:10585000012283F83320274B00225A75254B002262
:1058600083F82720234B002283F82820214B002295
:1058700083F829201F4B012283F82A201D4B012287
:1058800083F82E201B4B002283F82B20194B00227B
:1058900083F82C20174B002283F82D20154B002273
:1058A00083F82F20134B002283F83020114B002265
:1058B00083F831200F4B002283F832200E4900205C
:1058C000FFF7B0FC0D490120FFF7ACFC0A490020AE
:1058D00000F064F80949012000F060F800F0EEF8EB
:1058E000FFF794FE00BF0837BD4680BDF8040108ED
:1058F000A7220020C03C00205CE6000864E6000807
:1059000080B500AF0D490220FFF78CFC02F0AAF829
:10591000FFF734FD0346002B02D1FFF773FF09E0C8
:10592000FFF743FD0346002B02D1FFF76BFF01E0B9
:10593000FFF74EFD00F0C2F800BF80BD6CE6000826
:1059400090B585B000AF03463960FB71FB79002B41
:1059500002D0012B03D005E00223BB7302E0082331
:10596000BB7300BF0023FB7310E0BB7B9AB2FB7BD1
:105970009BB2134499B2FB7B3A68D418084602F0F4
:1059800077F803462370FB7B0133FB73FB7B052B0E
:10599000EBD900BF00BF1437BD4690BD80B584B0C1
:1059A00000AF03463960FB71FB79002B02D0012B5D
:1059B00003D005E00223BB7302E00823BB7300BFE2
:1059C0000023FB730FE0BB7B9AB2FB7B9BB21344BB
:1059D00098B2FB7B3A6813441B78194602F078F8BA
:1059E000FB7B0133FB73FB7B052BECD900BF00BFB6
:1059F0001037BD4680BD000080B584B000AF0346BF
:105A0000FB71FB79002B02D0012B17D02DE0002376
:105A1000FB730FE0FB7B9BB202339AB2FB7B154911
:105A20000B449B78DBB21946104602F051F8FB7B21
:105A30000133FB73FB7B052BECD916E00023FB73D2
:105A40000FE0FB7B9BB208339AB2FB7B09490B4406
:105A50001B7ADBB21946104602F03AF8FB7B0133A1
:105A6000FB73FB7B052BECD900BF00BF1037BD4695
:105A700080BD00BFC03C002080B584B000AF0346AD
:105A80000A46FB711346BB80BB88FB73FB799BB254
:105A9000FA7B1146184602F01BF8BB881B0A9BB222
:105AA000FB73FB799BB201339BB2FA7B114618461C
:105AB00002F00EF800BF1037BD4680BD80B400AFC5
:105AC000174B4FF496729A80154B4FF47A72DA8026
:105AD000134B4FF4FA72A3F80428114B4FF47A7267
