:020000040800F2
:1000000000000120B943010809440108094401081E
:1000100009440108094401080944010800000000DE
:10002000000000000000000000000000094401087A
:1000300009440108000000000944010831370108A3
:100040000944010809440108094401080944010858
:1000500009440108094401089D340108C13401081C
:10006000F13401082D3501086535010809440108FE
:100070000944010809440108094401080944010828
:10008000094401084D09010809440108094401080F
:100090000944010809440108094401080944010808
:1000A000094401080944010809440108D123000852
:1000B000812800086D2B0008112F00080944010851
:1000C00009440108094401080944010809440108D8
:1000D00009440108C53801083D36010809440108F2
:1000E00081350108094401080000000009440108A5
:1000F00009440108094401080944010809440108A8
:100100000944010809440108993801080944010813
:100110000944010809440108094401080944010887
:100120000944010809440108094401080944010877
:1001300010B5054C237833B9044B13B10448AFF321
:1001400000800123237010BD880300200000000000
:10015000644D010808B5034B1BB103490348AFF3D5
:10016000008008BD000000008C030020644D0108E1
:1001700081F0004102E000BF83F0004330B54FEA58
:1001800041044FEA430594EA050F08BF90EA020FC5
:100190001FBF54EA000C55EA020C7FEA645C7FEA58
:1001A000655C00F0E2804FEA5454D4EB5555B8BF7B
:1001B0006D420CDD2C4480EA020281EA030382EAEC
:1001C000000083EA010180EA020281EA0303362D7E
:1001D00088BF30BD11F0004F4FEA01314FF4801C51
:1001E0004CEA113102D0404261EB410113F0004F63
:1001F0004FEA03334CEA133302D0524263EB43031A
:1002000094EA050F00F0A780A4F10104D5F1200EB7
:100210000DDB02FA0EFC22FA05F2801841F1000112
:1002200003FA0EF2801843FA05F359410EE0A5F1E6
:1002300020050EF1200E012A03FA0EFC28BF4CF017
:10024000020C43FA05F3C01851EBE37101F00045CD
:1002500007D54FF0000EDCF1000C7EEB00006EEBDA
:100260000101B1F5801F1BD3B1F5001F0CD3490864
:100270005FEA30004FEA3C0C04F101044FEA4452BB
:1002800012F5800F80F09A80BCF1004F08BF5FEA42
:10029000500C50F1000041EB045141EA050130BD22
:1002A0005FEA4C0C404141EB0101013C28BFB1F534
:1002B000801FE9D291F0000F04BF01460020B1FA7F
:1002C00081F308BF2033A3F10B03B3F120020CDA52
:1002D0000C3208DD02F1140CC2F10C0201FA0CF030
:1002E00021FA02F10CE002F11402D8BFC2F1200C95
:1002F00001FA02F120FA0CFCDCBF41EA0C0190404B
:10030000E41AA2BF01EB0451294330BD6FEA040493
:100310001F3C1CDA0C340EDC04F11404C4F120027E
:1003200020FA04F001FA02F340EA030021FA04F390
:1003300045EA030130BDC4F10C04C4F1200220FAE7
:1003400002F001FA04F340EA0300294630BD21FA25
:1003500004F0294630BD94F0000F83F4801306BFEB
:1003600081F480110134013D4EE77FEA645C18BFDF
:100370007FEA655C29D094EA050F08BF90EA020F76
:1003800005D054EA000C04BF1946104630BD91EA6E
:10039000030F1EBF0021002030BD5FEA545C05D171
:1003A0004000494128BF41F0004130BD14F58004B0
:1003B0003CBF01F5801130BD01F0004545F0FE4124
:1003C00041F470014FF0000030BD7FEA645C1ABF59
:1003D000194610467FEA655C1CBF0B46024650EA90
:1003E000013406BF52EA033591EA030F41F40021BC
:1003F00030BD00BF90F0000F04BF0021704730B542
:100400004FF4806404F132044FF000054FF0000116
:1004100050E700BF90F0000F04BF0021704730B5D7
:100420004FF4806404F1320410F0004548BF4042AC
:100430004FF000013EE700BF42004FEAE2014FEA01
:1004400031014FEA02701FBF12F07F4393F07F4FDC
:1004500081F06051704732F07F4208BF704793F0DF
:100460007F4F04BF41F40021704730B54FF46074F2
:1004700001F0004521F000411CE700BF50EA0102F5
:1004800008BF704730B54FF000050AE050EA01029E
:1004900008BF704730B511F0004502D5404261EB0E
:1004A00041014FF4806404F132045FEA915C3FF44F
:1004B000D8AE4FF003025FEADC0C18BF03325FEAEC
:1004C000DC0C18BF033202EBDC02C2F1200300FA9D
:1004D00003FC20FA02F001FA03FE40EA0E0021FAC2
:1004E00002F11444BDE600BF70B54FF0FF0C4CF4B0
:1004F000E06C1CEA11541DBF1CEA135594EA0C0F62
:1005000095EA0C0F00F0DEF82C4481EA030621EA9C
:100510004C5123EA4C5350EA013518BF52EA0335D7
:1005200041F4801143F4801338D0A0FB02CE4FF089
:100530000005E1FB02E506F00042E0FB03E54FF0B9
:100540000006E1FB03569CF0000F18BF4EF0010EB1
:10055000A4F1FF04B6F5007F64F5407404D25FEAAD
:100560004E0E6D4146EB060642EAC62141EA555160
:100570004FEAC52040EA5E504FEACE2EB4F1FD0CA2
:1005800088BFBCF5E06F1ED8BEF1004F08BF5FEA20
:10059000500E50F1000041EB045170BD06F00046D2
:1005A00046EA010140EA020081EA0301B4EB5C047F
:1005B000C2BFD4EB0C0541EA045170BD41F4801177
:1005C0004FF0000E013C00F3AB8014F1360FDEBF9C
:1005D000002001F0004170BDC4F10004203C35DA78
:1005E0000C341BDC04F11404C4F1200500FA05F3FB
:1005F00020FA04F001FA05F240EA020001F000429C
:1006000021F0004110EBD37021FA04F642EB060111
:100610005EEA430E08BF20EAD37070BDC4F10C043B
:10062000C4F1200500FA04F320FA05F001FA04F2FF
:1006300040EA020001F0004110EBD37041F10001EB
:100640005EEA430E08BF20EAD37070BDC4F12005F6
:1006500000FA05F24EEA020E20FA04F301FA05F25E
:1006600043EA020321FA04F001F0004121FA04F206
:1006700020EA020000EBD3705EEA430E08BF20EAD6
:10068000D37070BD94F0000F0FD101F00046400010
:1006900041EB010111F4801F08BF013CF7D041EA92
:1006A000060195F0000F18BF704703F00046520096
:1006B00043EB030313F4801F08BF013DF7D043EA67
:1006C0000603704794EA0C0F0CEA135518BF95EA1D
:1006D0000C0F0CD050EA410618BF52EA4306D1D1A4
:1006E00081EA030101F000414FF0000070BD50EAC3
:1006F000410606BF1046194652EA430619D094EA4D
:100700000C0F02D150EA013613D195EA0C0F05D136
:1007100052EA03361CBF104619460AD181EA03018A
:1007200001F0004141F0FE4141F470014FF0000042
:1007300070BD41F0FE4141F4780170BD70B54FF0DD
:10074000FF0C4CF4E06C1CEA11541DBF1CEA13555D
:1007500094EA0C0F95EA0C0F00F0A7F8A4EB05043F
:1007600081EA030E52EA03354FEA013100F0888036
:100770004FEA03334FF0805545EA131343EA1263FF
:100780004FEA022245EA111545EA10654FEA0026B4
:100790000EF000419D4208BF964244F1FD0404F56D
:1007A000407402D25B084FEA3202B61A65EB0305C9
:1007B0005B084FEA32024FF480104FF4002CB6EB86
:1007C000020E75EB030E22BFB61A754640EA0C0006
:1007D0005B084FEA3202B6EB020E75EB030E22BF46
:1007E000B61A754640EA5C005B084FEA3202B6EB87
:1007F000020E75EB030E22BFB61A754640EA9C0046
:100800005B084FEA3202B6EB020E75EB030E22BF15
:10081000B61A754640EADC0055EA060E18D04FEAD3
:10082000051545EA16754FEA06164FEAC30343EA73
:1008300052734FEAC2025FEA1C1CC0D111F4801F40
:100840000BD141EA00014FF000004FF0004CB6E739
:1008500011F4801F04BF01430020B4F1FD0C88BFD8
:10086000BCF5E06F3FF6AFAEB5EB030C04BFB6EBE3
:10087000020C5FEA500C50F1000041EB045170BDD6
:100880000EF0004E4EEA113114EB5C04C2BFD4EB03
:100890000C0541EA045170BD41F480114FF0000E87
:1008A000013C90E645EA060E8DE60CEA135594EA03
:1008B0000C0F08BF95EA0C0F3FF43BAF94EA0C0F06
:1008C0000AD150EA01347FF434AF95EA0C0F7FF47B
:1008D00025AF104619462CE795EA0C0F06D152EACF
:1008E00003353FF4FDAE1046194622E750EA4106B3
:1008F00018BF52EA43067FF4C5AE50EA41047FF4C4
:100900000DAF52EA43057FF4EBAE12E74A0011D275
:1009100012F5001211D20DD56FF47873B3EB625259
:100920000ED44FEAC12343F0004343EA505323FA65
:1009300002F070474FF00000704750EA013002D1DA
:100940004FF0FF3070474FF0000070474FEA410210
:10095000B2F1E04324BFB3F5001CDCF1FE5C0DD91D
:1009600001F0004C4FEAC0024CEA5070B2F1004F67
:1009700040EB830008BF20F00100704711F0804F6A
:1009800021D113F13872BCBF01F00040704741F42F
:1009900080114FEA5252C2F11802C2F1200C10FA33
:1009A0000CF320FA02F018BF40F001004FEAC12317
:1009B0004FEAD32303FA0CFC40EA0C0023FA02F3BB
:1009C0004FEA4303CCE77FEA625307D150EA013391
:1009D0001EBF4FF0FE4040F44000704701F0004061
:1009E00040F0FE4040F40000704700BF80F000403F
:1009F00002E000BF81F0004142001FBF5FEA4103F7
:100A000092EA030F7FEA226C7FEA236C6AD04FEAF6
:100A10001262D2EB1363C1BFD2184140484041403B
:100A2000B8BF5B42192B88BF704710F0004F40F4ED
:100A3000000020F07F4018BF404211F0004F41F409
:100A4000000121F07F4118BF494292EA030F3FD0D5
:100A5000A2F1010241FA03FC10EB0C00C3F12003E8
:100A600001FA03F100F0004302D5494260EB400077
:100A7000B0F5000F13D3B0F1807F06D340084FEAE2
:100A8000310102F10102FE2A51D2B1F1004F40EBD7
:100A9000C25008BF20F0010040EA0300704749003F
:100AA00040EB0000013A28BFB0F5000FEDD2B0FADC
:100AB00080FCACF1080CB2EB0C0200FA0CF0AABFFF
:100AC00000EBC25052421843BCBFD040184370479D
:100AD00092F0000F81F4000106BF80F400000132A3
:100AE000013BB5E74FEA41037FEA226C18BF7FEA7A
:100AF000236C21D092EA030F04D092F0000F08BFBC
:100B00000846704790EA010F1CBF0020704712F0A2
:100B10007F4F04D1400028BF40F00040704712F1E1
:100B200000723CBF00F50000704700F0004343F046
:100B3000FE4040F4000070477FEA226216BF08467C
:100B40007FEA23630146420206BF5FEA412390EA3F
:100B5000010F40F4800070474FF0000304E000BF35
:100B600010F0004348BF40425FEA000C08BF7047E6
:100B700043F0964301464FF000001CE050EA0102AA
:100B800008BF70474FF000030AE000BF50EA0102BF
:100B900008BF704711F0004302D5404261EB4101AC
:100BA0005FEA010C02BF84460146002043F0B643D1
:100BB00008BFA3F18053A3F50003BCFA8CF2083AF6
:100BC000A3EBC25310DB01FA02FC634400FA02FCFF
:100BD000C2F12002BCF1004F20FA02F243EB020006
:100BE00008BF20F00100704702F1200201FA02FC68
:100BF000C2F1200250EA4C0021FA02F243EB02005B
:100C000008BF20EADC7070474FF0FF0C1CEAD0529E
:100C10001EBF1CEAD15392EA0C0F93EA0C0F6FD05F
:100C20001A4480EA010C400218BF5FEA41211ED03D
:100C30004FF0006343EA501043EA5111A0FB013129
:100C40000CF00040B1F5000F3EBF490041EAD371FE
:100C50005B0040EA010062F17F02FD2A1DD8B3F17A
:100C6000004F40EBC25008BF20F00100704790F0E9
:100C7000000F0CF0004C08BF49024CEA502040EA3B
:100C800051207F3AC2BFD2F1FF0340EAC250704701
:100C900040F400004FF00003013A5DDC12F1190F3F
:100CA000DCBF00F000407047C2F10002410021FAB1
:100CB00002F1C2F1200200FA02FC5FEA310040F1C9
:100CC000000053EA4C0308BF20EADC70704792F042
:100CD000000F00F0004C02BF400010F4000F013A7A
:100CE000F9D040EA0C0093F0000F01F0004C02BF75
:100CF000490011F4000F013BF9D041EA0C018FE7E4
:100D00000CEAD15392EA0C0F18BF93EA0C0F0AD0E9
:100D100030F0004C18BF31F0004CD8D180EA01000F
:100D200000F00040704790F0000F17BF90F0004FA8
:100D3000084691F0000F91F0004F14D092EA0C0F8A
:100D400001D142020FD193EA0C0F03D14B0218BF1D
:100D5000084608D180EA010000F0004040F0FE4063
:100D600040F40000704740F0FE4040F440007047FF
:100D70004FF0FF0C1CEAD0521EBF1CEAD15392EA7E
:100D80000C0F93EA0C0F69D0A2EB030280EA010C6E
:100D900049024FEA402037D04FF0805343EA111107
:100DA00043EA10130CF000408B4238BF5B0042F165
:100DB0007D024FF4000C8B4224BF5B1A40EA0C000A
:100DC000B3EB510F24BFA3EB510340EA5C00B3EB3C
:100DD000910F24BFA3EB910340EA9C00B3EBD10F2A
:100DE00024BFA3EBD10340EADC001B0118BF5FEA7C
:100DF0001C1CE0D1FD2A3FF650AF8B4240EBC250A5
:100E000008BF20F0010070470CF0004C4CEA502065
:100E10007F32C2BFD2F1FF0340EAC250704740F4B4
:100E200000004FF00003013A37E792F0000F00F0A6
:100E3000004C02BF400010F4000F013AF9D040EA24
:100E40000C0093F0000F01F0004C02BF490011F4B8
:100E5000000F013BF9D041EA0C0195E70CEAD153B0
:100E600092EA0C0F08D142027FF47DAF93EA0C0F97
:100E70007FF470AF084676E793EA0C0F04D14B027B
:100E80003FF44CAF08466EE730F0004C18BF31F02D
:100E9000004CCAD130F000427FF45CAF31F0004327
:100EA0007FF43CAF5FE700BF4FF0FF3C06E000BFC0
:100EB0004FF0010C02E000BF4FF0010C4DF804CDE3
:100EC0004FEA40024FEA41037FEA226C18BF7FEAF3
:100ED000236C11D001B052EA530C18BF90EA010FF5
:100EE00058BFB2EB030088BFC81738BF6FEAE17084
:100EF00018BF40F0010070477FEA226C02D15FEA20
:100F0000402C05D17FEA236CE4D15FEA412CE1D08B
:100F10005DF8040B704700BF844608466146FFE752
:100F20000FB5FFF7C9FF002848BF10F1000F0FBD34
:100F30004DF808EDFFF7F4FF0CBF012000205DF82D
:100F400008FB00BF4DF808EDFFF7EAFF34BF0120B2
:100F500000205DF808FB00BF4DF808EDFFF7E0FF4B
:100F600094BF012000205DF808FB00BF4DF808ED9C
:100F7000FFF7D2FF94BF012000205DF808FB00BFFF
:100F80004DF808EDFFF7C8FF34BF012000205DF8E1
:100F900008FB00BF42000ED2B2F1FE4F0BD34FF060
:100FA0009E03B3EB126209D44FEA002343F00043DF
:100FB00023FA02F070474FF00000704712F1610F02
:100FC00001D1420202D14FF0FF3070474FF00000D4
:100FD000704700BF80B582B000AF0023FB710CE00A
:100FE000FA79244913465B0213449B000B441C33DB
:100FF00000221A70FB790133FB71FB79032BEFD9C7
:101000000FF04EF80FF0E4FA10F02CF810F0DCF8C6
:1010100010F08AF90CF028FB0FF0E8F9154B1A884C
:10102000144BDA83134B1422A3F82228114B03F537
:1010300080531A890F4B03F58053DA840D4B03F567
:1010400080531422A3F82A28012000F0BBFA0320C1
:1010500000F0B8FA002000F035FA012000F032FA72
:10106000022000F02FFA032000F02CFA00BF08370E
:10107000BD4680BDA403002080B586B000AFB96036
:101080007B600346FB731346BB7300237B617B6865
:10109000002B40D0FB7BB968184600F0C9FAFB7BF7
:1010A000012B02D0FB7B032B03D1FB7B184600F006
:1010B000F5FCBA7BFB7B114618460FF079F9FB7BF8
:1010C000184600F0B9FD0346FB74FA7B1449134639
:1010D0005B0213449B000B441E331B881A467B683B
:1010E00002FB03F3FA7C02FB03F37B61FA7B0C49FE
:1010F00013465B0213449B000B4408331A68FB7BC6
:101100001146184600F0D6FEB97BFB7B7A6918467B
:1011100000F008F800E000BF1837BD4680BD00BFF2
:10112000A403002080B582B000AF03463A60FB7193
:101130000B46BB71BA79FB79114618460FF038F9A6
:10114000FA790D4913465B0213449B000B440233AA
:101150001A78FB79114618460FF064F8FB791846A7
:1011600000F000FAFB793968184600F007F800BF74
:101170000837BD4680BD00BFA403002080B584B001
:1011800000AF03463960FB71FB79002B02D1C82305
:10119000FB6010E0FB79012B02D1C823FB600AE061
:1011A000FB79022B02D1C823FB6004E0FB79032BFF
:1011B00001D1C823FB60FB685B003A689A4203D800
:1011C0003B685B08023BFB60FA794E4913465B02C1
:1011D00013449B000B4418333A681A60FB790121D1
:1011E00018460EF0EFFFFA79464913465B021344A6
:1011F0009B000B4420331B887B81FA7941491346BD
:101200005B0213449B000B441033FA681A60FA79AE
:101210003C4913465B0213449B000B441833196886
:10122000FA79384813465B0213449B000344103399
:101230001B68FA79C91A334813465B0213449B00B2
:10124000034414331960FA792E4913465B021344A0
:101250009B000B441C3301221A70FA79294913466A
:101260005B0213449B000B4403F5FE6300221A80CB
:10127000FB79032B3DD801A252F823F08D12000810
:10128000A5120008C3120008DB1200081E4B002242
:101290001A601E4A7B89D3621C4BDB6A1B4A5B08BF
:1012A000536326E04FF080427B89D3624FF0804346
:1012B000DB6A4FF080425B085363154B00221A60D3
:1012C00017E0144A7B89D362124BDB6A114A5B0830
:1012D000D363114B00221A600BE0104A7B89D36262
:1012E0000E4BDB6A0D4A5B0853630D4B00221A60FC
:1012F00000BFFB790B4A52F82330984700BF1037E4
:10130000BD4680BDA40300201C360020002C0140F7
:101310008036002000040040C43600200008004051
:1013200008370020DC7B010880B582B000AF03469F
:101330000A46FB711346BB71BA79FB791146184610
:101340000EF040FF00BF0837BD4680BD80B582B0BB
:1013500000AF0023FB7115E0FB790E4A52F82330F1
:101360009847FA790C4913465B0213449B000B44DF
:101370001C3300221A70FB79184600F023F9FB7920
:101380000133FB71FB79032BE6D900BF00BF08379F
:10139000BD4680BDCC7B0108A403002080B582B08F
:1013A00000AF0023FB711AE0FB79114A52F8233099
:1013B0009847FA790F4913465B0213449B000B448C
:1013C0001C3300221A70FB79184600F0FBF8FB79F9
:1013D000002118460EF0F6FEFB790133FB71FB7914
:1013E000032BE1D900BF00BF0837BD4680BD00BF59
:1013F000CC7B0108A403002090B585B000AF034664
:10140000FB71FB79032B1BD801A252F823F000BF1C
:1014100021140008291400083114000839140008A8
:10142000224B1B68FB600BE0214B1B68FB6007E055
:10143000204B1B68FB6003E01F4B1B68FB6000BF79
:10144000FB79184600F0F8FB0346FB72F868FFF7DB
:1014500083FB0446FA79194913465B0213449B0047
:101460000B441E331B881846FFF77AFB03461946C8
:101470002046FFF77DFC03461C46FB7A1846FFF723
:101480006FFB034619462046FFF772FC03460C49E2
:101490001846FFF7B9FB03461846FFF77BFD0346E6
:1014A0009BB218461437BD4690BD00BF1C360020C5
:1014B00080360020C436002008370020A403002016
:1014C0000000C84280B582B000AF0346FB71FB79D3
:1014D0000A4A52F823309847FA79094913465B02C1
:1014E00013449B000B441C3300221A70FB791846EE
:1014F00000F068F800BF0837BD4680BDCC7B01080E
:10150000A403002080B483B000AF0346FB71FA79D6
:10151000064913465B0213449B000B441C33032211
:101520001A7000BF0C37BD4680BC7047A403002072
:1015300080B582B000AF0346FB71FA7908491346C3
:101540005B0213449B000B4402331A78FB7911466B
:1015500018460EF067FE00BF0837BD4680BD00BFCD
:10156000A403002080B584B000AF0346FB71FA7974
:10157000114913465B0213449B000B441B88184619
:10158000FFF7EEFA03460D491846FFF73DFB034609
:10159000FB600B49F868FFF7F3FC0346002B01D012
:1015A000074BFB60FB79F96818460CF0C1F800BFE7
:1015B0001037BD4680BD00BFA40300205839343C1D
:1015C0000000504080B584B000AF0346FB71FA794B
:1015D000144913465B0213449B000B441B881846B6
:1015E000FFF7BEFA03464FF07C511846FFF70CFB9D
:1015F00003460D491846FFF707FB0346FB600B49FE
:10160000F868FFF7BDFC0346002B01D0074BFB60D9
:10161000FB79F96818460CF08BF800BF1037BD460F
:1016200080BD00BFA40300205839343C0000504066
:1016300090B583B000AF03463960FB71FB79022B94
:1016400039D13868FFF788FA03464FF07F511846C2
:10165000FFF7DAFA03461C46FA79274913465B027C
:1016600013449B000B441E331B881846FFF778FA7F
:10167000034619462046FFF7C7FA03461C46FB7986
:10168000184600F0D9FA03461846FFF769FA0346F0
:1016900019462046FFF7B8FA0346FC791846FFF7CB
:1016A00079FC0246144923465B0223449B000B4409
:1016B00008331A601CE0FA790F4913465B021344A1
:1016C0009B000B441E331B881A463B6803FB02F445
:1016D000FB79184600F0B0FA0346FA7903FB04F1EF
:1016E000054813465B0213449B000344083319600A
:1016F00000BF0C37BD4690BDA403002080B500AFED
:1017000045F20B0006F0C2FA0346DAB2B84B9A7003
:1017100045F20D0006F0BAFA0346DAB2B44B83F88C
:10172000062845F20F0006F0B1FA0346DAB2B04BD4
:1017300003F580539A7245F2110006F0A7FA0346AA
:10174000DAB2AB4B03F5805383F80E2845F20A005A
:1017500006F09CFA03461A46A54B1A8045F20C0087
:1017600006F094FA03461A46A14BA3F8042845F262
:101770000E0006F08BFA03461A469D4B03F5805384
:101780001A8145F2100006F081FA03461A46984B7A
:1017900003F58053A3F80C28954B1A88944BDA83F1
:1017A000934B1422A3F82228914B03F580531A89F6
:1017B0008F4B03F58053DA848D4B03F5805314224D
:1017C000A3F82A284FF4A04006F060FA0346184612
:1017D000FFF7C6F9034687491846FFF715FA03468F
:1017E0001A46854B1A6045F2010006F04FFA03468F
:1017F0001846FFF7B5F9034680491846FFF704FA83
:1018000003461A467C4B5A607B4B5B6819460020A6
:1018100000F0B8FA03461A46774B9A6045F2170073
:1018200006F034FA03461846FFF79AF90346714961
:101830001846FFF7E9F903461A466F4BDA6045F29E
:10184000160006F023FA03461846FFF789F9034607
:1018500068491846FFF7D8F903461A46664B1A61DD
:10186000654B1B691946002000F08CFA03461A46A6
:10187000614B5A6145F2120006F008FA0346184619
:10188000FFF76EF903465B491846FFF7BDF90346BB
:101890001A46594B9A61584B9B691946002000F033
:1018A00071FA03461A46544BDA6145F2020006F01B
:1018B000EDF903461846FFF753F903464D4918461C
:1018C000FFF7A2F903461A464B4B1A6245F2030092
:1018D00006F0DCF903461846FFF742F9034647498C
:1018E0001846FFF791F903461A46434B5A6245F2F0
:1018F000040006F0CBF903461846FFF731F903461A
:101900003C491846FFF780F903461A463A4B9A625B
:1019100045F2050006F0BAF903461846FFF720F92C
:10192000034634491846FFF76FF903461A46324B0F
:101930005A6345F2190006F0A9F903461846FFF765
:101940000FF903462B491846FFF75EF903461A467E
:10195000294BDA6245F2150006F098F9034618465D
:10196000FFF7FEF8034623491846FFF74DF90346F3
:101970001A46214B1A6345F2130006F087F9034615
:101980001846FFF7EDF803461A491846FFF73CF9E9
:1019900003461A46184B9A6345F2180006F076F98A
:1019A00003461846FFF7DCF8034612491846FFF7CE
:1019B0002BF903461A46104BDA6345F2060006F08F
:1019C00065F903461846FFF7CBF803460949184660
:1019D000FFF71AF903461A46074B1A6445F2070047
:1019E00006F054F903461846FFF7BAF8034607E035
:1019F000A40300200AD7233CBC340020CDCCCC3D2E
:101A000023491846FFF700F903461A46214B5A644A
:101A100045F2080006F03AF903461846FFF7A0F829
:101A200003461D491846FFF7EFF803461A46194BBF
:101A30009A6445F2090006F029F903461846FFF7B3
:101A40008FF8034614491846FFF7DEF803461A4696
:101A5000104BDA640F4BDB6C1946022000F092F950
:101A600003461A460B4B1A6545F2140006F00EF9B0
:101A700003461846FFF774F8034607491846FFF770
:101A8000C3F803461A46034B5A6500BF80BD00BF2A
:101A9000CDCCCC3DBC3400200AD7233C80B582B0ED
:101AA00000AF0346FB71FA790A4913465B021344FF
:101AB0009B000B4402331A78FB79114618460EF04E
:101AC000B1FBFB791846FFF74DFD00BF0837BD4657
:101AD00080BD00BFA403002080B582B000AF0346E4
:101AE000FB71FB790A3B072B00F2A08001A252F8A0
:101AF00023F000BF151B0008351B0008551B00080C
:101B0000771B0008991B0008BD1B0008E11B00089B
:101B1000071C0008FB799BB203F5A0439BB2184653
:101B200006F0B4F803461A46424B1A800020FFF72D
:101B300019FD7BE0FB799BB203F5A0439BB21846ED
:101B400006F0A4F80346DAB23A4B9A700020FFF789
:101B5000EFFC6BE0FB799BB203F5A0439BB2184608
:101B600006F094F803461A46324BA3F804280120E5
:101B7000FFF7F8FC5AE0FB799BB203F5A0439BB258
:101B8000184606F083F80346DAB22A4B83F8062893
:101B90000120FFF7CDFC49E0FB799BB203F5A043A0
:101BA0009BB2184606F072F803461A46214B03F51D
:101BB00080531A810220FFF7D5FC37E0FB799BB2F6
:101BC00003F5A0439BB2184606F060F80346DAB26C
:101BD000184B03F580539A720220FFF7A9FC25E009
:101BE000FB799BB203F5A0439BB2184606F04EF872
:101BF00003461A460F4B03F58053A3F80C28032025
:101C0000FFF7B0FC12E0FB799BB203F5A0439BB257
:101C1000184606F03BF80346DAB2064B03F580534C
:101C200083F80E280320FFF783FC00BF00BF0837AE
:101C3000BD4680BDA403002080B485B000AF03463C
:101C4000FB71FA79194913465B0213449B000B445C
:101C500002331B78013B032B1FD801A252F823F05B
:101C6000711C0008771C00087D1C0008831C0008FC
:101C70000123FB7314E00223FB7311E00423FB73C5
:101C80000EE0FB79002B02D0FB79022B02D1082356
:101C9000FB7305E01023FB7302E00123FB7300BF1D
:101CA000FB7B18461437BD4680BC7047A403002058
:101CB00080B500AF0BF048FC0346012B1FD001207C
:101CC0000FF0E6F80346002B02D101200BF076F866
:101CD00002200FF0DDF80346002B02D001200BF0AC
:101CE00079F9084B1B7F002B0AD1074B93F83B3047
:101CF000DBB21A460A21002000F048F900E000BFDC
:101D000080BD00BFA40300206034002080B582B0F5
:101D100000AF03463960FB710BF016FC0346012B44
:101D20000AD0074B1B7F002B07D1FA793B680A21A9
:101D30000020FFF7A1F900E000BF0837BD4680BDD5
:101D4000A403002080B582B000AF03463960FB7168
:101D50000BF0FAFB0346012B0DD0094B03F5805322
:101D600093F82430002B07D1FA793B680A2102202E
:101D7000FFF782F900E000BF0837BD4680BD00BF15
:101D8000A403002090B585B000AF03463960FB7115
:101D90004FF000013868FFF7CBF80346002B01D065
:101DA000002328E0FB791846FFF746FF0346FB7344
:101DB000FA79134913465B0213449B000B441E330C
:101DC0001B881846FEF7CCFE034639681846FEF716
:101DD0001BFF03461C46FB7B1846FEF7C1FE03466D
:101DE00019462046FEF710FF03461846FFF7D2F8C3
:101DF0000346BB60BB6818461437BD4690BD00BFA4
:101E0000A403002000000000B0B584B000AF03467A
:101E10003960FB714FF000013868FFF789F803461D
:101E2000002B01D000233AE0FB791846FFF704FFAE
:101E30000346FB733868FEF7FFFA1BA3D3E90023C0
:101E4000FEF752FB02460B4614461D46FA79184926
:101E500013465B0213449B000B441E331B88184639
:101E6000FEF7D8FA02460B4620462946FEF73CFB11
:101E700002460B4614461D46FB7B1846FEF7CAFA7F
:101E800002460B4620462946FEF72EFB02460B462D
:101E900010461946FEF73AFD0346BB60BB6818467C
:101EA0001037BD46B0BD00BF7B14AE47E17A843F1A
:101EB000A4030020B0B584B000AF03463960FB71C5
:101EC0003B68B3F5167F36D93B68A3F51673BB6044
:101ED0000023FB8129E0B868FEF73EFE0246FB893D
:101EE000254951F8233019461046FEF78DFE03466A
:101EF00022491846FEF780FD034619462048FEF7A2
:101F000037FF0346FC79FD891846FFF743F803467F
:101F100099B21C4A23465B0223445B002B441033D6
:101F200022F81310FB890133FB81FB8940F2E63272
:101F30009342D0D91BE00023FB8113E0124A3B6897
:101F4000B2FBF3F3FA79F9899CB20E4813465B02AF
:101F500013445B000B441033224620F81320FB8906
:101F60000133FB81FB8940F2E6329342E6D900BFA0
:101F70001037BD46B0BD00BF2C6C010800001644F0
:101F80000024F449A403002080841E0080B582B0A0
:101F900000AF03463960FB711346BB71FB793968AA
:101FA0001846FFF745FBFB79012B02D0FB79032B89
:101FB00003D1FB791846FFF771FDBA79FB79114619
:101FC00018460EF0F5F9FA795D4913465B021344A1
:101FD0009B000B4402331A78FB79114618460EF029
:101FE00021F9FB791846FFF7BDFAFA7954491346EF
:101FF0005B0213449B000B4408331A68FB791146BB
:102000001846FFF757FFFB79032B5ED801A252F861
:1020100023F000BF252000084D2000087B20000889
:10202000A3200008474B00221A60FA79444913465E
:102030005B0213449B000B4420331A88424BDA6244
:10204000414BDB6A404A5B0853633EE0FA793C4906
:1020500013465B0213449B000B4420331A884FF055
:102060008043DA624FF08043DB6A4FF080425B08C6
:102070005363364B00221A6027E0FA793049134641
:102080005B0213449B000B4420331A88304BDA6206
:102090002F4BDB6A2E4A5B08D3632E4B00221A605B
:1020A00013E0FA79264913465B0213449B000B4464
:1020B00020331A88284BDA62274BDB6A264A5B08F2
:1020C0005363264B00221A6000BFFA791C4913465D
:1020D0005B0213449B000B4403F5FE6300221A804D
:1020E000FA79174913465B0213449B000B441433DF
:1020F0004FF0FF321A60FA79114913465B0213441C
:102100009B000B441C3304221A70FA790C491346C5
:102110005B0213449B000B4403F2F4734FF0FF3255
:102120001A60FB79012118460EF04CF8FB790C4A35
:1021300052F82330984700BF0837BD4680BD00BF26
:10214000A40300201C360020002C01408036002013
:1021500000040040C436002000080040083700207A
:10216000DC7B010880B586B000AFB9607B600346B8
:10217000FB731346BB73FB7BB9681846FFF758FA2D
:10218000BA7BFB7B114618460EF012F9FB7B01214E
:1021900018460EF017F8FA7B844913465B02134485
:1021A0009B000B4408331A68FB7B11461846FFF767
:1021B00081FEFB7B012B02D0FB7B032B03D1FB7B3E
:1021C0001846FFF76BFCFB7B002B02D1C8237B6119
:1021D00010E0FB7B012B02D1C8237B610AE0FB7B73
:1021E000022B02D1C8237B6104E0FB7B032B01D1CE
:1021F000C8237B613A6A7B699A4202D83B6A5B08D2
:102200007B61FB7B032B5ED801A252F823F000BF59
:102210002122000849220008772200089F22000896
:10222000634B00221A60FA7B604913465B02134439
:102230009B000B4420331A885E4BDA625D4BDB6AED
:102240005C4A5B0853633EE0FA7B584913465B02E5
:1022500013449B000B4420331A884FF08043DA620A
:102260004FF08043DB6A4FF080425B085363524B70
:1022700000221A6027E0FA7B4C4913465B021344A4
:102280009B000B4420331A884C4BDA624B4BDB6AC1
:102290004A4A5B08D3634A4B00221A6013E0FA7B78
:1022A000424913465B0213449B000B4420331A88B7
:1022B000444BDA62434BDB6A424A5B085363424B4E
:1022C00000221A6000BFFA7B384913465B021344B0
:1022D0009B000B4403F5006300221A70FA7B33491C
:1022E00013465B0213449B000B4403F5FE6300227C
:1022F0001A80FA7B2D4913465B0213449B000B4462
:102300001C3306221A70FA7B396A284813465B028E
:1023100013449B00034403F2F4731960FA7B2349CE
:1023200013465B0213449B000B4410337A691A6016
:10233000FA7B1E4913465B0213449B000B4403F2D5
:10234000F4731B681846FA7B184913465B02134462
:102350009B000B4410331B68FA7BC11A13481346C9
:102360005B0213449B00034414331960FA7B0F494A
:1023700013465B0213449B000B4403F5FF630022EA
:102380001A70FA7B094913465B0213449B000B4405
:1023900003F2FC737A681A60FB7B0C4A52F8233014
:1023A000984700BF1837BD4680BD00BFA40300207A
:1023B0001C360020002C0140803600200004004024
:1023C000C43600200008004008370020DC7B0108EC
:1023D00080B500AF984B1B6903F00203022B40F05D
:1023E0004882964B1B680133944A1360944B93F8D0
:1023F0003730DBB2002B11D0924B1B780133DAB2AD
:10240000904B1A708F4B1B78042B07D90C200EF0C1
:102410001DFD0346002B01D0FEF7C0FF874B1B6854
:10242000642B1CD9864B93F83330DBB2002B16D0CB
:10243000854B1B780133DAB2834B1A70824B1B78C1
:10244000132B0CD904200EF001FD0346002B06D0FF
:102450007D4B00221A707A4B002283F85020784B73
:1024600093F84C30DBB2012B05D0754B93F84C3010
:10247000DBB20A2B7FD1754B1B780133DAB2734B79
:102480001A70724B1B78012B23D96D4B5B7EDBB22C
:10249000012B1ED102200EF0D9FC0346002B05D0E3
:1024A00003200EF0D3FC0346002B12D1674B002211
:1024B0001A70634B002283F84C20654B012283F88D
:1024C000F827634B06221A77614B002283F8002815
:1024D0009BE05B4B5B7EDBB2022B40F09680584B5F
:1024E00093F84F30DBB2002B22D0584B1B780133CE
:1024F000DAB2564B1A70554B1B78312B0DD903208D
:102500000EF0A4FC0346002B07D0504B00221A709B
:102510004B4B002283F84F20ABE14C4B1B78012B37
:1025200073D94A4B1B78013BDAB2484B1A706CE006
:10253000464B1B780133DAB2444B1A70434B1B787D
:10254000042B62D903200EF081FC0346002B5CD1E2
:102550003E4B00221A703A4B002283F84C203C4B31
:10256000012283F8F8273A4B06221A77384B0022CB
:1025700083F8002849E0324B93F84C30DBB2022B51
:1025800044D1324B1B780133DAB2304B1A702F4BE7
:102590001B78042B13D903200EF058FC0346002BA4
:1025A0000DD12A4B00221A70254B002283F84C20B3
:1025B000234B012283F83A20254B03221A77254B1F
:1025C0001B780133DAB2234B1A70224B1B78042B91
:1025D0001CD902200EF03AFC0346002B05D0032044
:1025E0000EF034FC0346002B10D11A4B00221A7057
:1025F000134B002283F84C20114B022283F83A201F
:10260000134B012283F8F82700E000BF104B1B7F1B
:10261000062B00F2288101A252F823F06728000857
:102620005926000819270008A92600082F270008A6
:102630007127000885270008002C01401C36002067
:1026400060340020B5230020B6230020B7230020EB
:10265000A4030020B8230020864BB3F9F0371946B5
:10266000844B1A6913469B001344994218D2814B3C
:10267000B3F9F0377F4A103332F813207E4BDA6219
:102680007D4BDB6A7C4A5B0853637A4BB3F9F037C6
:102690009BB205339BB21AB2764BA3F8F027E2E067
:1026A000744B02221A77DEE0724B9A69734B1B68F7
:1026B0009A4229D96F4BB3F9F037052B40F3CA8002
:1026C0006C4BB3F9F037B3F57A7F04DD694B4FF407
:1026D0007A72A3F8F027674BB3F9F0379BB2053B4A
:1026E0009BB21AB2634BA3F8F027624BB3F9F037F1
:1026F000604A103332F813205F4BDA625E4BDB6ABC
:102700005D4A5B085363A5E00020FEF7DBFE594BF2
:102710000022A3F8F0279DE0564B5A69574B1B68DF
:102720009A4280F09980534B03221A7794E0514BE0
:10273000B3F9F03740F2E232934200F38F804D4B11
:10274000B3F9F0374B4A103332F813204A4BDA62B0
:10275000494BDB6A484A5B085363464BB3F9F03791
:102760009BB205339BB21AB2424BA3F8F02775E037
:10277000404B9A69414B1B689A4271D80020FEF782
:10278000A1FE6DE03B4BB3F9F0371946394B1A699E
:1027900013469B001344994217D2364BB3F9F037D6
:1027A000344A103332F81320334BDA62324BDB6A8F
:1027B000314A5B0853632F4BB3F9F0379BB20533B3
:1027C0009BB21AB22B4BA3F8F0272A4B93F8F83799
:1027D000002B2CD0274B002283F8F827254BD3F869
:1027E000FC37C72B16D9234BD3F8FC27234B1B6888
:1027F000134414331F4A93611E4BC8221A611D4BA8
:102800009A691C4B1B69D31A1A4A5361194B02224D
:102810001A7727E0174BD3F8FC27184B1B68134493
:102820001433144A9361134B03221A771AE0114BA5
:10283000D3F8F437002B15DD0E4B5A690F4B1B688C
:102840009A420FD80B4B012283F80028094B032230
:102850001A7707E000BF06E000BF04E000BF02E017
:1028600000BF00E000BF044B1B69034A23F00203D2
:10287000136180BDA4030020002C01401C36002001
:1028800080B500AF4FF080431B6903F00103012BBB
:1028900040F05F81B04B1B680133AF4A1360AF4B10
:1028A00093F83730DBB2002B11D0AD4B1B780133DE
:1028B000DAB2AB4B1A70AA4B1B78042B07D90C2049
:1028C0000EF0C4FA0346002B01D0FEF767FDA34BC0
:1028D00093F84D30DBB2012B1AD1A24B1B78013398
:1028E000DAB2A04B1A709F4B1B78042B10D908202A
:1028F0000EF0ACFA0346002B0AD19A4B00221A7054
:10290000964B002283F84D20974B032283F8202812
:10291000954B93F82038062B00F2138101A252F850
:1029200023F000BF432B000841290008F1290008CB
:102930009D2900080B2A0008552A00086B2A000868
:10294000894BB3F9F43F1946874BD3F81428134643
:102950009B00134499421CD2834BB3F9F43F824A43
:1029600003F2124332F813204FF08043DA624FF043
:102970008043DB6A4FF080425B0853637A4BB3F9C4
:10298000F43F9BB205339BB21AB2774BA3F8F42FF6
:10299000D7E0754B022283F82028D2E0724BB3F9BE
:1029A000F43F052B1CDD704BB3F9F43F9BB2053BA4
:1029B0009BB21AB26C4BA3F8F42F6B4BB3F9F43FF4
:1029C000694A03F2124332F813204FF08043DA626F
:1029D0004FF08043DB6A4FF080425B085363B0E006
:1029E0000120FEF76FFD604B0022A3F8F42FA8E052
:1029F0005D4BD3F81828584B1B689A4280F09A8098
:102A0000594B032283F8202894E0574BB3F9F43F45
:102A100040F2E232934200F38F80534BB3F9F43F1C
:102A2000514A03F2124332F813204FF08043DA6226
:102A30004FF08043DB6A4FF080425B0853634A4BA0
:102A4000B3F9F43F9BB205339BB21AB2464BA3F8DD
:102A5000F42F71E0444BD3F81C283F4B1B689A427B
:102A60006CD80120FEF72EFD68E03F4BB3F9F43F30
:102A700019463D4BD3F8142813469B001344994242
:102A80001BD2394BB3F9F43F374A03F2124332F801
:102A900013204FF08043DA624FF08043DB6A4FF03F
:102AA00080425B085363304BB3F9F43F9BB205336C
:102AB0009BB21AB22C4BA3F8F42F2B4B93F8FC3F8C
:102AC000002B20D0284B03F580531A68224B1B683B
:102AD0009A4218D8244B03F58053B3F9F83740F2E3
:102AE000E232934206DC204B03F5805340F2E3329E
:102AF000A3F8F8271C4B032283F820281A4B002246
:102B000083F8FC2F1CE0184BD3F8F83F002B17DD9F
:102B1000154BD3F8F83F1A460F4B1B689A420FD853
:102B2000114B03F5805301221A710F4B032283F8D6
:102B3000202805E000BF04E000BF02E000BF00E085
:102B400000BF4FF080431B694FF0804223F0010328
:102B5000136100BF80BD00BF8036002060340020BC
:102B6000B9230020BA230020A403002080B500AFC1
:102B7000984B1B6903F00103012B40F0C081964B79
:102B80001B680133944A1360944B93F83730DBB2DF
:102B9000002B11D0924B1B780133DAB2904B1A7094
:102BA0008F4B1B78042B07D90C200EF04FF90346EE
:102BB000002B01D0FEF7F2FB884B93F84B30DBB2D1
:102BC000012B1DD1874B1B780133DAB2854B1A706C
:102BD000844B1B78042B13D901200EF037F90346E0
:102BE000002B0DD17F4B00221A707C4B002283F802
:102BF0004B207D4B03F58053012283F8002822E00F
:102C0000764B93F84B30DBB2022B1CD1774B1B7801
:102C10000133DAB2754B1A70744B1B78042B12D93E
:102C200001200EF013F90346002B0CD06F4B00224D
:102C30001A706A4B002283F84B206B4B03F58053CC
:102C4000032283F82420684B03F5805393F8243043
:102C5000062B00F24E8101A252F823F0F32E000859
:102C6000792C0008472D0008E52C0008672D000886
:102C7000BB2D0008F12D00085B4B03F58053B3F921
:102C8000F8371946584B03F580539A6913469B0051
:102C9000134499421FD2544B03F58053B3F9F837CC
:102CA000514A03F6140332F813204A4BDA62494BB7
:102CB000DB6A484A5B08D3634B4B03F58053B3F997
:102CC000F8379BB205339BB21AB2474B03F58053DA
:102CD000A3F8F8270DE1444B03F58053022283F853
:102CE000242006E1404B03F58053B3F9F837052B58
:102CF0001FDD3D4B03F58053B3F9F8379BB2053B1D
:102D00009BB21AB2384B03F58053A3F8F827364B21
:102D100003F58053B3F9F837334A03F6140332F856
:102D200013202C4BDA622B4BDB6A2A4A5B08D363F5
:102D3000DFE00220FEF7C6FB2B4B03F58053002299
:102D4000A3F8F827D5E0284B03F58053DA69224B26
:102D50001B689A4200F2C680234B03F5805303227E
:102D600083F82420BEE0204B03F58053B3F9F837F5
:102D700040F2E232934240F3B7801B4B03F580539D
:102D8000B3F9F837184A03F6140332F81320114B3D
:102D9000DA62104BDB6A0F4A5B08D363124B03F510
:102DA0008053B3F9F8379BB205339BB21AB20E4B7E
:102DB00003F58053A3F8F82796E00B4B03F58053F7
:102DC0001A6A054B1B689A4200F290800220FEF7B7
:102DD00079FB8BE000040040C43600206034002002
:102DE000BB230020BC230020A4030020BD2300201F
:102DF000444B03F58053B3F9F8371946414B03F5BB
:102E000080539A6913469B00134499421ED23D4B4E
:102E100003F58053B3F9F8373A4A03F6140332F84E
:102E20001320394BDA62384BDB6A374A5B08D363CD
:102E3000344B03F58053B3F9F8379BB205339BB29B
:102E40001AB2304B03F58053A3F8F8272D4B03F546
:102E5000805393F80038002B28D02A4B03F5805379
:102E6000002283F80028274B03F58053D3F8042869
:102E7000264B1B681344234A02F58052D361214B31
:102E800003F58053B3F9F83740F2E232934206DC9F
:102E90001C4B03F5805340F2E332A3F8F827194B9B
:102EA00003F58053022283F8242021E0154B03F51B
:102EB0008053D3F8FC37002B1ADD124B03F58053F7
:102EC000DA69124B1B689A4212D80E4B03F58053F5
:102ED000012283F808280B4B03F58053032283F863
:102EE000242005E000BF04E000BF02E000BF00E0D6
:102EF00000BF054B1B69044A23F00103136100BFA7
:102F000080BD00BFA403002000040040C4360020A0
:102F100080B500AFB44B1B6903F00103012B40F0F7
:102F20009781B24B1B680133B04A1360B04B93F8E2
:102F30003730DBB2002B11D0AE4B1B780133DAB245
:102F4000AC4B1A70AB4B1B78042B07D90C200DF03F
:102F50007DFF0346002B01D0FEF720FAA44B93F827
:102F60004E30DBB2012B1CD1A34B1B780133DAB2FC
:102F7000A14B1A70A04B1B78042B12D906200DF020
:102F800065FF0346002B0CD19B4B00221A70984B17
:102F9000002283F84E20994B03F58053032283F8D7
:102FA0002828964B03F5805393F82838062B00F217
:102FB000498101A252F823F045320008D52F0008BC
:102FC000A530000843300008C73000081B31000856
:102FD00037310008894B03F58053B3F9FC3F19469C
:102FE000864B03F58053D3F81C2813469B001344EB
:102FF00099421FD2814B03F58053B3F9FC3F7F4ABE
:1030000003F6164332F81320774BDA62764BDB6A0D
:10301000754A5B085363794B03F58053B3F9FC3F62
:103020009BB205339BB21AB2744B03F58053A3F8DD
:10303000FC2F07E1714B03F58053022283F8282807
:1030400000E16E4B03F58053B3F9FC3F052B1FDD08
:103050006A4B03F58053B3F9FC3F9BB2053B9BB22F
:103060001AB2664B03F58053A3F8FC2F634B03F5AC
:103070008053B3F9FC3F614A03F6164332F813203C
:10308000594BDA62584BDB6A574A5B085363D9E005
:103090000320FEF717FA594B03F580530022A3F8DB
:1030A000FC2FCFE0554B03F58053D3F820284F4B2E
:1030B0001B689A4200F2BF80504B03F580530322F5
:1030C00083F82828B7E04D4B03F58053B3F9FC3F54
:1030D00040F2E232934200F3B080484B03F5805354
:1030E000B3F9FC3F454A03F6164332F813203E4B32
:1030F000DA623D4BDB6A3C4A5B0853633F4B03F5A6
:103100008053B3F9FC3F9BB205339BB21AB23B4BE1
:1031100003F58053A3F8FC2F8FE0384B03F5805361
:10312000D3F82428314B1B689A4200F28880032090
:10313000FEF7C8F983E0314B03F58053B3F9FC3F48
:1031400019462E4B03F58053D3F81C2813469B00D9
:10315000134499421ED2294B03F58053B3F9FC3F27
:10316000264A03F6164332F813201F4BDA621E4B31
:10317000DB6A1D4A5B085363204B03F58053B3F9A8
:10318000FC3F9BB205339BB21AB21C4B03F5805334
:10319000A3F8FC2F194B03F500531B79002B2FD0FC
:1031A000164B03F500539A68104B1B689A4227D8B8
:1031B000124B03F58053B3F9F83740F2E2329342F1
:1031C00006DC0E4B03F5805340F2E332A3F8F827F8
:1031D0000A4B03F58053032283F82828074B03F595
:1031E000005300221A712CE000080040083700202C
:1031F00060340020BE230020BF230020A403002051
:10320000144B03F500531B68002B1ADD114B03F51B
:103210008053D3F82028104B1B689A4211D80D4BCD
:1032200003F5005301221A730A4B03F5805303225E
:1032300083F8282805E000BF04E000BF02E000BFDB
:1032400000E000BF054B1B69044A23F00103136132
:1032500000BF80BDA4030020083700200008004004
:1032600080B483B000AF78607B6800221A707B68FE
:1032700000225A707B6801229A7000BF0C37BD464D
:1032800080BC704784B080B584B000AF786007F12F
:103290001C0080E80E000023FB7372B600BF7B6841
:1032A0005B785A1C194B83FB0213D910D317C91A28
:1032B0000B469B000B449B00D11ACAB2144B1A70E8
:1032C0007B681A78124B1B789A4215D07B685B7822
:1032D0001A46652302FB03F37A6813440333184646
:1032E00007F11C036522194611F0BAF8084B1A7849
:1032F0007B685A700123FB7362B600BFFB7B1846E4
:103300001037BD46BDE8804004B07047676666660A
:103310008F33002080B584B000AF7860396000231F
:10332000FB733B68002B02D07B68002B01D100238C
:103330002BE072B600BF7B681A787B685B789A4294
:1033400020D07B681B781A46652302FB03F37A685A
:103350001344033365221946386811F081F87B68FD
:103360001B785A1C0B4B83FB0213D910D317C91AB5
:103370000B469B000B449B00D11ACAB27B681A70A3
:103380000123FB7362B600BFFB7B18461037BD46B6
:1033900080BD00BF6766666680B582B000AF00235F
:1033A000FB80A34B1B78002B01F09781A04B0022E0
:1033B0001A7008219F480DF0DFF99E4B9B781B0285
:1033C0001AB29C4BDB781BB213431BB2BB80994BE8
:1033D0001B791B021AB2974B5B791BB213431BB2CA
:1033E0007B80944B5B78032B00F04B86062B41F0DF
:1033F0007981BB8847F6181293420BD18E4B9B7D87
:10340000DBB2002B01F06B818B4B012283F825206E
:1034100001F065B9BB8847F61912934201F05F814C
:10342000BB8847F61A1293420BD1834BDB7DDBB28C
:10343000002B41F05481804B012283F83F2001F0A2
:103440004EB9BB8847F61B12934211D17A4BDB7DF4
:10345000DBB2002B41F04381774B9B7DDBB2002B2D
:1034600001F03D81744B012283F8232001F037B92C
:10347000BB8847F61C12934212D16F4BDB7DDBB247
:10348000002B41F02C816C4B9B7DDBB2002B01F0BB
:103490002681694B5B7EDAB2674BDA7601F01FB9A1
:1034A000BB8847F61D12934211D1634BDB7DDBB223
:1034B000002B41F01481604B9B7DDBB2002B01F0AF
:1034C0000E815D4B012283F8202001F008B9BB88F2
:1034D00047F61E12934217D1574BDB7DDBB2002B10
:1034E00041F0FD80544B012283F826207B88002B7D
:1034F00004D0524A7B88138001F0F1B84F4B40F65C
:10350000B8321A8001F0EBB8BB8847F61F1293421D
:103510000AD1494B93F83B30DBB27A881146184602
:1035200009F010FF01F0DBB8BB8847F62012934288
:103530000AD1414B93F83D30DBB27A8811461846E8
:1035400009F058FF01F0CBB8BB8847F6211293422F
:1035500001F0C580BB8847F62212934201F0BF807C
:10356000BB8847F62312934206D17B88DBB218460C
:1035700009F02CFE01F0B3B8BB8847F62412934241
:103580003AD12F4A7B8813802D4B1B88632B05D99A
:103590002B4B1B8844F62062934209D9294BFF220A
:1035A00083F8D520082128480DF0E6F800F068BD22
:1035B000234B1B8819464FF4A04004F0C3FB204B5B
:1035C0001B881946102005F067F91D4B1B881B0A44
:1035D0009BB2DBB21A4A1288D2B219464FF4A0400D
:1035E0000BF0F6FF174B012283F8D520082116486F
:1035F0000DF0C2F801F073B8BB8847F6251293426C
:103600004AD10F4A7B8813800D4B1B88632B05D949
:103610000B4B1B8844F62062934219D9094BFF22B9
:1036200083F8DD20082109480DF0A6F800F028BD38
:103630009033002094330020603400204635002071
:103640004435002000000020D0000020D8000020D9
:10365000AD4B1B88194645F2010004F073FBAA4BE1
:103660001B881946122005F017F9A74B1B881B0A67
:103670009BB2DBB2A44A1288D2B2194645F20100CD
:103680000BF0A6FFA14B012283F8DD200821A04802
:103690000DF072F801F023B8BB8847F6261293426A
:1036A00036D1994A7B881380974B1B8840F6B832F5
:1036B000934209D9954BFF2283F8E52008219548CC
:1036C0000DF05AF801F00BB88F4B1B88194645F2E4
:1036D000120004F037FB8C4B1B881946342005F090
:1036E000DBF8894B1B881B0A9BB2DBB2864A128827
:1036F000D2B2194645F212000BF06AFF834B012249
:1037000083F8E520082183480DF036F800F0E7BF84
:10371000BB8847F62712934236D17B4A7B881380B9
:10372000794B1B884CF25032934209D9774BFF22D8
:1037300083F8ED20082178480DF01EF800F0CFBF87
:10374000714B1B88194645F2160004F0FBFA6E4BCC
:103750001B8819463C2005F09FF86B4B1B881B0A01
:103760009BB2DBB2684A1288D2B2194645F2160003
:103770000BF02EFF654BFF2283F8ED2008216648F1
:103780000CF0FAFF00F0ABBFBB8847F6281293425B
:103790003AD15D4A7B8813805B4B1B88632B05D92C
:1037A000594B1B8842F21072934209D9574BFF22A2
:1037B00083F8F520082159480CF0DEFF00F060BCCA
:1037C000514B1B88194645F2170004F0BBFA4E4BCB
:1037D0001B8819463E2005F05FF84B4B1B881B0ADF
:1037E0009BB2DBB2484A1288D2B2194645F21700A2
:1037F0000BF0EEFE454B012283F8F52008214748E7
:103800000CF0BAFF00F06BBFBB8847F62912934259
:103810003AD13D4A7B8813803B4B1B88632B05D9EB
:10382000394B1B8844F62062934209D9374BFF225B
:1038300083F8FD2008213A480CF09EFF00F020BCE0
:10384000314B1B88194645F2040004F07BFA2E4BDD
:103850001B881946182005F01FF82B4B1B881B0AE4
:103860009BB2DBB2284A1288D2B2194645F2040054
:103870000BF0AEFE254B012283F8FD2008212848DD
:103880000CF07AFF00F02BBFBB8847F62A12934258
:103890004AD11D4A7B8813801B4B1B88632B05D99B
:1038A000194B1B8844F62062934208D9174BFF221C
:1038B00083F8052108211B480CF05EFFE0E3124B62
:1038C0001B88194645F2150004F03CFA0E4B1B8884
:1038D00019463A2004F0E0FF0B4B1B881B0A9BB2F1
:1038E000DBB2094A1288D2B2194645F215000BF034
:1038F0006FFE064B012283F80521082109480CF0D0
:103900003BFF00F0ECBE00BF44350020000000206B
:10391000D8000020E0000020E8000020F000002097
:10392000F800002000010020BB8847F62B129342CC
:1039300036D1B24A7B881380B04B1B884CF2503290
:10394000934209D9AE4BFF2283F80D210821AD48DF
:103950000CF012FF00F0C3BEA84B1B88194645F2BD
:10396000050004F0EFF9A54B1B8819461A2004F056
:1039700093FFA24B1B881B0A9BB2DBB29F4A1288A3
:10398000D2B2194645F205000BF022FE9C4B0122F3
:1039900083F80D2108219B480CF0EEFE00F09FBE3D
:1039A000BB8847F62C12934236D1944A7B88138009
:1039B000924B1B884CF25032934209D9904BFF2214
:1039C00083F81521082190480CF0D6FE00F087BE40
:1039D0008A4B1B88194645F2130004F0B3F9874B54
:1039E0001B881946362004F057FF844B1B881B0A9E
:1039F0009BB2DBB2814A1288D2B2194645F213005B
:103A00000BF0E6FD7E4B012283F8152108217E484C
:103A10000CF0B2FE00F063BEBB8847F62D12934255
:103A200036D1764A7B881380744B1B884CF2503217
:103A3000934209D9724BFF2283F81D210821734854
:103A40000CF09AFE00F04BBE6C4B1B88194645F2F9
:103A5000180004F077F9694B1B881946402004F0E0
:103A60001BFF664B1B881B0A9BB2DBB2634A1288A2
:103A7000D2B2194645F218000BF0AAFD604B0122A4
:103A800083F81D21082161480CF076FE00F027BE66
:103A9000BB8847F62E12934238D1584A7B88138050
:103AA000564B1B884CF25032934209D9544BFF229B
:103AB00083F82521082156480CF05EFE00F00FBE69
:103AC0004E4B1B88194645F2190004F03BF94B4B4D
:103AD0001B881946422004F0DFFE484B1B881B0A56
:103AE0009BB2DBB2454A1288D2B2194645F21900A0
:103AF0000BF06EFD424B03F58053012283F8252A1B
:103B0000082143480CF038FE00F0E9BDBB8847F6B9
:103B10002F12934236D1394A7B881380374B1B884A
:103B20004CF25032934209D9354BFF2283F82D21B4
:103B3000082138480CF020FE00F0D1BD2F4B1B8827
:103B4000194645F2020004F0FDF82C4B1B8819467B
:103B5000142004F0A1FE294B1B881B0A9BB2DBB288
:103B6000264A1288D2B2194645F202000BF030FD07
:103B7000234B012283F82D21082126480CF0FCFD5F
:103B800000F0ADBDBB8847F63012934246D11B4AC8
:103B90007B881380194B1B884CF25032934209D911
:103BA000174BFF2283F8352108211B480CF0E4FD58
:103BB00000F095BD114B1B88194645F2030004F037
:103BC000C1F80E4B1B881946162004F065FE0B4BFE
:103BD0001B881B0A9BB2DBB2084A1288D2B2194674
:103BE00045F203000BF0F4FC054B012283F835216C
:103BF000082109480CF0C0FD00F071BD44350020DB
:103C00000000002008010020100100201801002001
:103C1000200100202801002030010020BB8847F649
:103C20003112934236D1B74A7B881380B54B1B883B
:103C30004CF25032934209D9B34BFF2283F83D2115
:103C40000821B2480CF098FD00F049BDAD4B1B882F
:103C5000194645F2060004F075F8AA4B1B88194670
:103C60001C2004F019FEA74B1B881B0A9BB2DBB279
:103C7000A44A1288D2B2194645F206000BF0A8FCFD
:103C8000A14B012283F83D210821A0480CF074FDCE
:103C900000F025BDBB8847F63212934236D1994ACF
:103CA0007B881380974B1B884CF25032934209D982
:103CB000954BFF2283F84521082195480CF05CFDC7
:103CC00000F00DBD8F4B1B88194645F2070004F02C
:103CD00039F88C4B1B8819461E2004F0DDFD894BFA
:103CE0001B881B0A9BB2DBB2864A1288D2B21946E5
:103CF00045F207000BF06CFC834B012283F8452151
:103D0000082183480CF038FD00F0E9BCBB8847F679
:103D10003312934240F008817B88012B43D101226A
:103D2000002147F299600BF053FC0022002147F27A
:103D30009A600BF04DFC0022002147F29D600BF0D1
:103D400047FC744B01225A760121442009F05EFCA5
:103D50006D4B012283F84D2108216F480CF00CFDBA
:103D60006C4B9B7EDBB2022B40F0B9840122002118
:103D700047F29B600BF02CFC0022002147F29C6074
:103D80000BF026FC634B01229A760121452009F0B5
:103D90003DFC5D4B012283F85D2108215F480CF05A
:103DA000EBFC00F09CBC7B88022B61D1594B93F853
:103DB0003530DBB2002B1CD0564B5B7DDBB2002BC9
:103DC00004D11E21564809F047FE08E0514B5B7DA7
:103DD000DBB2012B03D12421524809F03DFE4A4BAE
:103DE000FF2283F84D2108214B480CF0C5FC00F060
:103DF00079BC0022002147F299600BF0E9FB012217
:103E0000002147F29A600BF0E3FB0022002147F209
:103E10009D600BF0DDFB3F4B02225A7602214420CD
:103E200009F0F4FB384B022283F84D2108213A486F
:103E30000CF0A2FC374B002283F82C20002200213A
:103E400047F623100BF0C4FB0021732009F0DEFBC2
:103E5000304B002283F831200022002147F6261043
:103E60000BF0B6FB0021762009F0D0FB00F037BC48
:103E70007B88032B3DD10022002147F299600BF093
:103E8000A7FB0022002147F29A600BF0A1FB012260
:103E9000002147F29D600BF09BFB1E4B03225A76DC
:103EA0000321442009F0B2FB174B032283F84D2174
:103EB000082119480CF060FC164B002283F82C20D6
:103EC0000022002147F623100BF082FB0021732013
:103ED00009F09CFB0F4B002283F8312000220021C7
:103EE00047F626100BF074FB0021762009F08EFBBC
:103EF000F5E3054BFF2283F84D21082106480CF01D
:103F00003BFCECE344350020000000203801002099
:103F100040010020603400204801002058010020AA
:103F20007C4D0108AC4D0108BB8847F63412934222
:103F300067D17B88012B1BD10122002147F29B60B6
:103F40000BF046FB0022002147F29C600BF040FB87
:103F5000AC4B01229A760121452009F057FBAA4B70
:103F6000012283F85D210821A8480CF005FCB6E386
:103F70007B88022B3CD1A34B5B7EDBB2012B1BD198
:103F8000A04B5B7DDBB2002B04D11E21A04809F0C1
:103F900063FD08E09B4B5B7DDBB2012B03D1282145
:103FA0009C4809F059FD984B032283F85D210821B4
:103FB00096480CF0E1FB95E30022002147F29B605C
:103FC0000BF006FB0122002147F29C600BF000FB86
:103FD0008C4B02229A760221452009F017FB8A4B6E
:103FE000022283F85D21082188480CF0C5FB76E3A6
:103FF000854BFF2283F85D21082184480CF0BCFB2F
:104000006DE3BB8847F63512934240F06883824ADD
:104010007B881380804B1B88632B05D97E4B1B88C4
:1040200047F23052934208D9774BFF2283F86D2034
:1040300008217A480CF0A0FB22E0774B1B88194638
:1040400045F2140003F07EFE734B1B88194638209E
:1040500004F022FC704B1B881B0A9BB2DBB26E4A39
:104060001288D2B2194645F214000BF0B1FA664B31
:10407000012283F86D20082168480CF07DFB2EE3B7
:104080002DE3BB88B3F5FA4F14D15E4B9B7DDBB2B9
:10409000012B04D108215C480CF06EFB21E3594B45
:1040A0009B7DDBB2002B40F01C8308215C480CF0A8
:1040B00063FB16E3BB8847F60152934200F011837D
:1040C000BB8847F6025293420ED14E4B9B7DDBB22A
:1040D000012B04D1082153480CF04EFB01E30821C9
:1040E00051480CF049FBFCE2BB8847F6035293426F
:1040F0000FD1444B93F82430DBB2012B04D10821BB
:104100004A480CF039FBECE2082149480CF034FB3A
:10411000E7E2BB8847F6045293420ED1394B5B7FEE
:10412000DBB2012B04D1082142480CF025FBD8E278
:10413000082141480CF020FBD3E2BB8847F605522A
:1041400093420FD12F4B93F82130DBB2012B04D1D6
:1041500008213A480CF010FBC3E2082138480CF063
:104160000BFBBEE2BB8847F6065293420FD1254BAC
:1041700093F85530DBB2012B04D1082127480CF00D
:10418000FBFAAEE208212F480CF0F6FAA9E2BB8850
:1041900047F60752934217D11A4B93F85630DBB2C9
:1041A000012B04D1082128480CF0E6FA99E2164BBD
:1041B000002283F87520082123480CF0DDFA124B09
:1041C000012283F875208CE2BB8847F6085293429F
:1041D0003ED10C4B93F85630DBB2012B04D10821B1
:1041E0001A480CF0C9FA7CE2074B002283F88520BC
:1041F000082116480CF0C0FA034B012283F88520F1
:104200006FE200BF60340020000000205801002051
:10421000D44D0108004E01084435002068000020FC
:104220000800002028000020200000203800002086
:1042300030000020480000204000002058000020EE
:10424000500000206000002070000020800000204E
:10425000BB8847F60952934200F04382BB8847F679
:104260000A52934200F03D82BB8847F60B529342BC
:104270000BD1AD4B93F84530DAB2AC4B83F8BD208F
:104280000821AB480CF078FA2BE2BB8847F60C52B9
:10429000934214D1A44B1B7DDBB2012B04D1082126
:1042A000A4480CF069FA1CE29F4B1B7DDBB2022B89
:1042B00040F017820821A0480CF05EFA11E2BB889A
:1042C00047F60D52934216D14FF4A04003F0DEFCA6
:1042D0000346FB80FB881B0A9BB2DAB2934B83F840
:1042E000D420FB88DAB2914B83F8D520082193487B
:1042F0000CF042FAF5E1BB8847F60E52934216D114
:1043000045F2010003F0C2FC0346FB80FB881B0A58
:104310009BB2DAB2854B83F8DC20FB88DAB2834BA0
:1043200083F8DD20082186480CF026FAD9E1BB8805
:1043300047F60F52934216D145F2120003F0A6FC45
:104340000346FB80FB881B0A9BB2DAB2774B83F8EB
:10435000E420FB88DAB2754B83F8E5200821794820
:104360000CF00AFABDE1BB8847F61052934216D111
:1043700045F2160003F08AFC0346FB80FB881B0A0B
:104380009BB2DAB2694B83F8EC20FB88DAB2674B58
:1043900083F8ED2008216C480CF0EEF9A1E1BB8810
:1043A00047F61152934216D145F2170003F06EFC06
:1043B0000346FB80FB881B0A9BB2DAB25B4B83F897
:1043C000F420FB88DAB2594B83F8F52008215F48C6
:1043D0000CF0D2F985E1BB8847F61252934216D110
:1043E00045F2040003F052FC0346FB80FB881B0AE5
:1043F0009BB2DAB24D4B83F8FC20FB88DAB24B4B10
:1044000083F8FD20082152480CF0B6F969E1BB8819
:1044100047F61352934216D145F2150003F036FCCD
:104420000346FB80FB881B0A9BB2DAB23F4B83F842
:104430000421FB88DAB23D4B83F805210821454869
:104440000CF09AF94DE1BB8847F61452934216D10D
:1044500045F2050003F01AFC0346FB80FB881B0AAB
:104460009BB2DAB2314B83F80C21FB88DAB22F4BC6
:1044700083F80D21082138480CF07EF931E1BB8822
:1044800047F61552934216D145F2130003F0FEFB96
:104490000346FB80FB881B0A9BB2DAB2234B83F8EE
:1044A0001421FB88DAB2214B83F8152108212B480F
:1044B0000CF062F915E1BB8847F61652934216D10B
:1044C00045F2180003F0E2FB0346FB80FB881B0A61
:1044D0009BB2DAB2154B83F81C21FB88DAB2134B7E
:1044E00083F81D2108211E480CF046F9F9E0BB882D
:1044F00047F61752934237D145F2190003F0C6FB35
:104500000346FB80FB881B0A9BB2DAB2074B83F899
:104510002421FB88DAB2054B83F8252108211148B4
:104520000CF02AF9DDE000BF60340020000000201C
:10453000B8000020C8000020C0000020D0000020EB
:10454000D8000020E0000020E8000020F00000205B
:10455000F8000020000100200801002010010020C8
:104560001801002020010020BB8847F61852934212
:1045700016D145F2020003F089FB0346FB80FB885D
:104580001B0A9BB2DAB2594B83F82C21FB88DAB2B2
:10459000564B83F82D21082155480CF0EDF8A0E08A
:1045A000BB8847F61952934216D145F2030003F037
:1045B0006DFB0346FB80FB881B0A9BB2DAB24B4BB8
:1045C00083F83421FB88DAB2484B83F8352108217F
:1045D00048480CF0D1F884E0BB8847F61A52934261
:1045E00016D145F2060003F051FB0346FB80FB8821
:1045F0001B0A9BB2DAB23D4B83F83C21FB88DAB24E
:104600003A4B83F83D2108213B480CF0B5F868E0AF
:10461000BB8847F61B52934216D145F2070003F0C0
:1046200035FB0346FB80FB881B0A9BB2DAB22F4B9B
:1046300083F84421FB88DAB22C4B83F8452108210A
:104640002E480CF099F84CE0BB8847F61C52934278
:104650000ED12B4B5B7EDAB2244B83F84D2108211F
:1046600028480CF089F8214B012283F84D2138E0CD
:10467000BB8847F61D52934213D1214B9B7EDBB280
:10468000012B04D1082120480CF076F829E01C4BBE
:104690009B7EDBB2022B24D108211C480CF06CF865
:1046A0001FE0BB8847F61E5293421AD145F2140010
:1046B00003F0ECFA0346FB80FB881B0A9BB2DAB2DC
:1046C0000A4B83F86C21FB88DAB2084B83F86D2122
:1046D00008210F480CF050F803E000BF02E000BFD3
:1046E00000E000BF00BF0837BD4680BD00000020CD
:1046F0002801002030010020380100204001002066
:104700006034002048010020580100206001002092
:104710006801002080B483B000AF7860034B1B7D3C
:10472000DBB2002B0C37BD4680BC704760340020E4
:1047300080B582B000AF78607B681B78012B02D017
:10474000042B1DD021E0124B1B7DDBB2012B03D0CB
:10475000002008F049F918E00D4B5B7DDBB2002B1F
:1047600004D120210B4809F077F90DE0084B5B7D5F
:10477000DBB2012B08D12021074809F06DF903E0D5
:10478000002008F07BF800E000BF0837BD4680BD80
:10479000603400202C4E0108404E010880B584B0E2
:1047A00000AF78604FF4E04003F070FA0346FB601E
:1047B000FB681B04FB6047F2010003F067FA034645
:1047C0001A46FB681344FB608D4B1B78DBB2002B51
:1047D00014D18B4B5B7DDBB2002B04D10C218948BB
:1047E00009F03AF906E1864B5B7DDBB2012B40F024
:1047F00001811321844809F02FF9FBE0804B5B789D
:10480000DBB2002B14D17E4B5B7DDBB2002B04D1DD
:104810000C217E4809F020F9EEE0794B5B7DDBB29C
:10482000012B40F0E9801621794809F015F9E3E001
:10483000734B1B78DBB2012B02D0022B48D0D2E0A5
:10484000F968002000F0F4F80346002B25D06C4BEB
:104850001B7DDBB2012B03D1202008F0F5FF02E025
:10486000002008F0F1FF06226A4947F2055009F0DE
:1048700033F8062267494FF4EA4009F02DF8604BFF
:104880001B78DBB20A33DAB25D4B1A700822624938
:1048900047F2106009F020F8A2E006225D4947F2D5
:1048A000055009F019F8564B5B7DDBB2002B04D1A3
:1048B00008215A4809F0D0F892E0514B5B7DDBB2F9
:1048C000012B40F08D800F21554809F0C5F887E095
:1048D000F968012000F0ACF80346002B2FD0484BBC
:1048E0001B7DDBB2012B09D0454B1B7DDBB2032BBB
:1048F00008D1434B9B7DDBB2002B03D0202008F076
:10490000A3FF02E0002008F09FFF0622414947F282
:10491000055008F0E1FF06223E494FF4EA4008F056
:10492000DBFF374B1B78DBB20A33DAB2344B1A7039
:1049300008223C4947F2106008F0CEFF52E0F968C7
:10494000022000F075F80346002B2FD02C4B1B7D66
:10495000DBB2012B09D02A4B1B7DDBB2032B08D124
:10496000274B9B7DDBB2002B03D0202008F06CFF8F
:1049700002E0002008F068FF0622264947F20550B1
:1049800008F0AAFF062223494FF4EA4008F0A4FFEA
:104990001B4B1B78DBB21433DAB2194B1A700822A6
:1049A000214947F2106008F097FF1BE006221949E1
:1049B00047F2055008F090FF114B5B7DDBB2002BF6
:1049C00004D10821154809F047F80BE00C4B5B7D3A
:1049D000DBB2012B06D10F21114809F03DF801E0AF
:1049E00000BF00E000BF064B00225A700F4B0022B0
:1049F0005A7002E000BF00E000BF1037BD4680BD26
:104A000060340020644E0108744E0108884E01088D
:104A1000984E0108B04E0108B84E0108C44E010876
:104A2000D04E0108E04E0108EC4E0108E8330020AA
:104A300080B485B000AF03463960FB710123FB737E
:104A4000FB79022B56D0022B7CDC002B02D0012BF1
:104A500028D077E00623BB7320E039683C4BA3FBEA
:104A60000123DA0813469B0013445B00CA1A02F1C3
:104A70003003BA7B013A37490A449278D2B2934262
:104A800003D00023FB7300BF5CE03B68304AA2FB0D
:104A90000323DB083B60BB7B013BBB73BB7B002B71
:104AA000DBD14FE00623BB7320E03968284BA3FB22
:104AB0000123DA0813469B0013445B00CA1A02F173
:104AC0003003BA7B013A23490A44127AD2B29342A4
:104AD00003D00023FB7300BF34E03B681C4AA2FBF9
:104AE0000323DB083B60BB7B013BBB73BB7B002B21
:104AF000DBD127E00623BB7320E03968144BA3FB0E
:104B00000123DA0813469B0013445B00CA1A02F122
:104B10003003BA7B013A0F490A44927BD2B29342E6
:104B200003D00023FB7300BF0BE03B68084AA2FBE5
:104B30000323DB083B60BB7B013BBB73BB7B002BD0
:104B4000DBD100BFFB7B18461437BD4680BC7047E5
:104B5000CDCCCCCC6034002080B582B000AF786082
:104B60000E4B5B7DDBB2002B04D10D4B1B8818462E
:104B700008F06AFE094B5B7DDBB2012B06D1084BC6
:104B80001B88323B9BB2184608F05EFE054B0022A4
:104B90009A7000BF0837BD4680BD00BF603400205A
:104BA000B0350020E833002080B582B000AF7860D7
:104BB000134B0022DA707B681B78012B02D0022B8A
:104BC0000AD013E006220F494FF4EA4008F084FEB1
:104BD0000D4B01221A7009E006220C494FF4EA40FD
:104BE00008F07AFE084B02221A7000BF062208491C
:104BF00047F2055008F070FE00BF0837BD4680BD83
:104C0000E8330020F84E010860340020004F01080E
:104C1000B04E010880B582B000AF78602C4B002206
:104C20005A7106222B494FF4EA4008F055FE06223D
:104C3000284947F2055008F04FFE274B00221A7012
:104C4000254B5B7DDBB2002B04D10921234808F002
:104C500003FF08E0204B5B7DDBB2012B03D10E216B
:104C60001F4808F0F9FE4FF4FA700BF098FE1A4B4B
:104C70005B7DDBB2002B04D10A211A4808F0ECFE60
:104C800008E0154B5B7DDBB2012B03D10B211648ED
:104C900008F0E2FE02200BF082FE0F4B5B7DDBB2E0
:104CA000002B06D10A22114947F2106008F074FE69
:104CB0000AE0094B5B7DDBB2012B05D10A220C49CE
:104CC00047F2106008F068FE00BF0837BD4680BD9F
:104CD000E8330020B04E010860340020084F01087E
:104CE000144F0108244F0108304F01083C4F0108C0
:104CF000484F010880B588B000AF7860894B00222A
:104D00009A71894B1B78DBB2002B14D1864B5B7DEB
:104D1000DBB2002B04D10C21844808F09DFECDE1CC
:104D2000814B5B7DDBB2012B40F0C88113218048B1
:104D300008F092FEC2E17C4B5B78DBB2002B14D111
:104D4000794B5B7DDBB2002B04D10E21794808F052
:104D500083FEB5E1744B5B7DDBB2012B40F0B0818B
:104D60001A21754808F078FEAAE16F4B5B78DBB238
:104D7000012B14D86C4B5B7DDBB2002B04D10E21D0
:104D80006E4808F069FE9DE1674B5B7DDBB2012B4D
:104D900040F098811A216A4808F05EFE92E1624B69
:104DA0005B78DBB2022B14D85F4B5B7DDBB2002B50
:104DB00004D11221634808F04FFE85E15A4B5B7D18
:104DC000DBB2012B40F0808127215F4808F044FED0
:104DD0007AE14FF4E04002F059FF0346FB61FB69C2
:104DE0001B04FB6147F2010002F050FF03461A4624
:104DF000FB691344FB614C4B1B78DBB20A2B06D9D1
:104E0000494B1B78DBB20A3BDAB2474B1A70464B70
:104E10001B78DBB2012B40F0A380F9690020FFF77B
:104E200007FE0346002B00F09B8047F2020002F0D1
:104E30002DFF0346BB61BB691B04BB6147F2030046
:104E400002F024FF03461A46BB691344BB6147F2D4
:104E5000040002F01BFF03467B617B691B047B613E
:104E600047F2050002F012FF03461A467B6913441D
:104E70007B61BA697B699A422DD1B969002003F040
:104E800067F8002003F0C8FC0622304947F20550BD
:104E900008F022FD06222D4947F2205008F01CFDA3
:104EA00006222A4947F2235008F016FD1E4B5B7D6F
:104EB000DBB2002B04D10A21254808F0CDFD05E125
:104EC000194B5B7DDBB2012B40F000811A21214898
:104ED00008F0C2FDFAE006221C4947F2055008F02E
:104EE000FBFC0622194947F2205008F0F5FC062287
:104EF000164947F2235008F0EFFC0B4B5B7DDBB209
:104F0000002B04D10A21144808F0A6FDDEE0064B70
:104F10005B7DDBB2012B40F0D9801F210F4808F0E8
:104F20009BFDD3E0E833002060340020644E01088C
:104F3000744E0108544F0108644F0108804F010866
:104F4000904F0108AC4F0108C04F0108B04E010856
:104F5000E84F0108F84F01081450010820500108DB
:104F60005D4B1B78DBB2022B40F08280F969012097
:104F7000FFF75EFD0346002B7AD047F2020002F0F5
:104F800085FE03463B613B691B043B6147F203001E
:104F900002F07CFE03461A463B6913443B6147F22C
:104FA000040002F073FE0346FB60FB681B04FB6019
:104FB00047F2050002F06AFE03461A46FB681344F6
:104FC000FB603A69FB689A422CD13969012002F0F2
:104FD000BFFF012003F020FC0622404947F20550A4
:104FE00008F07AFC06223D4947F2205008F074FC94
:104FF00006223A4947F2235008F06EFC364B5B7D9F
:10500000DBB2002B04D10A21354808F025FD5FE012
:10501000314B5B7DDBB2012B5AD11721314808F0AF
:105020001BFD55E006222D4947F2055008F054FCBF
:1050300006222A4947F2205008F04EFC0622274952
:1050400047F2235008F048FC234B5B7DDBB2002B7A
:1050500004D10A21244808F0FFFC39E01E4B5B7D97
:10506000DBB2012B34D11F21204808F0F5FC2FE0E2
:1050700006221A4947F2055008F02EFC062217496D
:1050800047F2205008F028FC0622144947F223502A
:1050900008F022FC104B5B7DDBB2002B04D1082111
:1050A000134808F0D9FC14E00B4B5B7DDBB2012BFD
:1050B0000FD10F210F4808F0CFFC0AE000BF08E035
:1050C00000BF06E000BF04E000BF02E000BF00E058
:1050D00000BF2037BD4680BD60340020B04E0108BF
:1050E000E84F010840500108145001082050010801
:1050F000C44E0108D04E010880B582B000AF786080
:10510000904B00221A717B681B78013B072B00F241
:10511000168101A252F823F0395100088751000886
:10512000CD5100085D5200087352000889520008F2
:10513000CF520008FB520008002002F0AFFC824B67
:10514000002283F84720804B002283F852207E4BB8
:105150001B78DBB2092B0ED97B4B1B7DDBB2012BFD
:1051600009D0794B1B7DDBB2032B08D1764B9B7D9D
:10517000DBB2002B03D0202008F066FBDFE000202C
:1051800008F062FBDBE0002002F088FC6E4B01229D
:1051900083F847206C4B1B78DBB2092B0ED96A4B86
:1051A0001B7DDBB2012B09D0674B1B7DDBB2032BD0
:1051B00008D1654B9B7DDBB2002B03D01E2008F08D
:1051C00043FBBCE0012008F03FFBB8E05E4B1B7DD9
:1051D000DBB2012B14D15C4B5B7DDBB2002B04D125
:1051E00020215A4808F038FCA6E0574B5B7DDBB223
:1051F000012B40F0A1802021554808F02DFC9BE0B8
:10520000514B1B7DDBB2032B19D14F4B9B7DDBB286
:10521000002B14D04C4B5B7DDBB2002B04D1102152
:105220004C4808F019FC89E0474B5B7DDBB2012B51
:1052300040F084801621484808F00EFC7EE0424B86
:10524000022283F84720404B012283F8522000209D
:1052500002F024FC022008F0F7FA70E03A4B032237
:1052600083F84720012002F019FC032008F0ECFA33
:1052700065E0354B042283F84720002002F00EFC45
:10528000042008F0E1FA5AE0002002F007FC2E4B5F
:10529000052283F847202C4B1B78DBB20B2B0ED951
:1052A000294B1B7DDBB2012B09D0274B1B7DDBB2C9
:1052B000032B08D1244B9B7DDBB2002B03D01F2096
:1052C00008F0C2FA3BE0052008F0BEFA37E0002003
:1052D00002F0E4FB0622214947F2055008F0FCFAEF
:1052E00006221E494FF4EA4008F0F6FA164B002257
:1052F0005A70072008F0A8FA21E0062217494FF457
:10530000EA4008F0E9FA0622144947F2055008F08D
:10531000E3FA0622114947F2205008F0DDFA06228E
:105320000E4947F2235008F0D7FA074B00225A7073
:10533000082008F089FA02E000BF00E000BF08374B
:10534000BD4680BDE8330020603400202C4E0108AB
:10535000404E01085C50010870500108B04E010831
:1053600080B582B000AF78607B681B78032B65D076
:10537000032B00F3AC80012B02D0022B3CD0A6E023
:10538000544B1B7DDBB2032B19D1524B9B7DDBB2FF
:10539000002B14D04F4B5B7DDBB2002B04D11021CE
:1053A0004D4808F059FB8BE04A4B5B7DDBB2012B8B
:1053B00040F086801621494808F04EFB80E0454BBE
:1053C000DB7DDBB2002B13D0424B5B7DDBB2002BCD
:1053D00004D12321424808F03FFB73E03D4B5B7D45
:1053E000DBB2012B6ED123213E4808F035FB69E08A
:1053F000012007F0EBFE6AE0364B1B7DDBB2032B8E
:1054000018D1344B9B7DDBB2012B13D1314B5B7D2B
:10541000DBB2002B04D110212F4808F01DFB53E014
:105420002C4B5B7DDBB2012B4ED116212B4808F0B3
:1054300013FB49E0002007F0C9FE48E0254B9B7DA7
:10544000DBB2012B13D1234B5B7DDBB2002B04D1EC
:105450000A21254808F000FB38E01E4B5B7DDBB2DB
:10546000012B33D11321214808F0F6FA2EE0012058
:1054700007F0DAFB022007F0D7FB042007F0D4FB8B
:10548000052007F0D1FB134B5B7DDBB2002B04D171
:105490000F21174808F000FB08E00E4B5B7DDBB2E4
:1054A000012B03D11521134808F0F6FA094B03220A
:1054B0001A75084B1B7DDBB218460AF01DF906E091
:1054C00000BF04E000BF02E000BF00E000BF0837FB
:1054D000BD4680BD603400205C500108705001085A
:1054E00088500108A0500108C4500108D05001089C
:1054F000E4500108F450010880B582B000AF786034
:1055000008F022F80346012B00F0C6807B681B7868
:10551000013B232B00F2C18001A252F823F000BF0F
:10552000B1550008B9550008C1550008C955000813
:105530009B5600089B5600089B5600089B56000887
:105540009B5600089B5600089B5600089B56000877
:105550009B5600089B5600089B5600089B56000867
:10556000D1550008E5550008F95500080D5600080A
:105570009B5600089B5600089B5600089B56000847
:105580009B5600089B5600089B5600089B56000837
:105590009B5600089B5600089B5600089B56000827
:1055A000215600083F5600085D5600087B5600084B
:1055B0000020FBF787FF70E00120FBF7A3FF6CE002
:1055C0000220FBF79FFF68E00320FBF79BFF64E0EE
:1055D000334B93F83B30DBB21A460A210020FCF72C
:1055E000D5FC5AE02E4B93F83C30DBB21A460A2128
:1055F0000120FCF7CBFC50E0294B93F83D30DBB2A7
:105600001A460A210220FCF7C1FC46E0244B93F81D
:105610003E30DBB21A460A210320FCF7B7FC3CE01F
:105620001F4B93F83B30DBB2002B0CBF0123002350
:10563000DBB21A460A210020FCF7A8FC2DE0184B2B
:1056400093F83C30DBB2002B0CBF01230023DBB20C
:105650001A460A210120FCF799FC1EE0104B93F832
:105660003D30DBB2002B0CBF01230023DBB21A4616
:105670000A210220FCF78AFC0FE0094B93F83E3028
:10568000DBB2002B0CBF01230023DBB21A460A2138
:105690000320FCF77BFC00E000BF0837BD4680BD5F
:1056A0006034002080B582B000AF786007F04CFF16
:1056B0000346012B00F007818B4B93F83230DBB2AD
:1056C000002B14D0884B5B7DDBB2002B04D1102162
:1056D000864808F0E1F9F8E0834B5B7DDBB2012BF3
:1056E00040F0F3801D21824808F0D6F9EDE07E4BB2
:1056F000DB7DDBB2002B40F0D2807B681B78032B74
:1057000000F09E80032B00F3EB80012B02D0022BD4
:1057100045D0E5E0774B5B6B764A926B11461846B5
:10572000FBF76AF903464FF000011846FBF714FC3B
:105730000346002B14D06C4B5B7DDBB2002B04D1F5
:105740001B216D4808F0A8F9C1E0674B5B7DDBB217
:10575000012B40F0BC802121684808F09DF9B6E09B
:10576000614B93F82430DBB2002B14D15E4B5B7D90
:10577000DBB2002B04D10A21614808F06DF9A8E0E2
:10578000594B5B7DDBB2012B40F0A38013215D48B8
:1057900008F062F99DE0544B01229A77A0E0524B49
:1057A000DB7DDBB2002B40F0968001200BF04EFB3E
:1057B0000346002B28D14C4B93F82130DBB2002B51
:1057C00022D14C4B5B6B4FF000011846FBF7C4FB3A
:1057D0000346002B13D0444B5B7DDBB2002B04D17E
:1057E0001B21454808F038F977E03F4B5B7DDBB281
:1057F000012B72D12121414808F02EF96DE03A4B7E
:10580000012283F8202066E0374B93F82130DBB289
:10581000002B60D0374B9B6B4FF000011846FBF715
:10582000AFFB0346002B00D155E02F4B93F82230FD
:10583000DBB2002B4FD12C4B022283F820204AE010
:10584000294B93F82130DBB2002B23D0294B9B6BE3
:105850004FF000011846FBF793FB0346002B19D0CD
:10586000214B93F82230DBB2002B13D11E4B5B7D12
:10587000DBB2002B04D11021234808F0EDF82EE014
:10588000194B5B7DDBB2012B29D122211F4808F087
:10589000E3F824E0144B012283F8232020E0124B8C
:1058A0005B7DDBB2002B04D12321194808F0D4F82A
:1058B00016E00D4B5B7DDBB2012B11D12321154886
:1058C00008F0CAF80CE000BF0AE000BF08E000BF23
:1058D00006E000BF04E000BF02E000BF00E000BF40
:1058E0000837BD4680BD00BF603400200C51010860
:1058F00020510108BC340020405101085C510108CE
:10590000805101088C510108A0510108B4510108CF
:1059100088500108A0500108B0B582B000AF78608F
:1059200007F012FE0346012B5ED001200BF0B0FA07
:105930000346002B02D1012007F040FA02200BF0B1
:10594000A7FA0346002B02D0012007F043FB7B6837
:105950001B78012B02D0022B1CD046E0244B1B6885
:105960001846FBF717FB0446224B93F83B30DBB29B
:10597000002B0CBF01230023DBB21D461C4B5B68D0
:105980001846FBF707FB03462A4621460020FBF793
:1059900073FB2AE0184B1B78002B06D00020FBF786
:1059A00091FD154B00221A7015E0114B1B6818462B
:1059B000FBF7F0FA01460F4B93F83B30DBB2002BBC
:1059C0000CBF01230023DBB21A460020FCF7DEFAED
:1059D000094B01221A70084B1B781A46002147F622
:1059E000141009F0F5FD00E000BF0837BD46B0BD5A
:1059F000BC34002060340020A8330020B0B582B051
:105A000000AF78602F4B0022DA7207F09DFD03464D
:105A1000012B50D07B681B78012B02D0022B25D0A4
:105A20004CE0294B93F82038002B46D108200BF08E
:105A30000DFA0346002B40D0244B012283F84D2061
:105A4000234B1B6A1846FBF7A5FA05461F4B93F834
:105A50003C30DCB21E4B5B6A1846FBF79BFA0346F0
:105A6000224629460120FBF707FB26E0194B1B784D
:105A7000002B06D00120FBF745FD164B00221A70C3
:105A800010E0134B1B6A1846FBF784FA01460F4BD4
:105A900093F83C30DBB21A460120FCF777FA0D4B45
:105AA00001221A700B4B1B781A46002147F6111081
:105AB00009F08EFD02E000BF00E000BF0837BD46E0
:105AC000B0BD00BFE8330020A403002060340020F4
:105AD000BC340020A9330020B0B582B000AF78609C
