:020000040800F2
:10000000F03F0020A1010008615A00083D4A0008A5
:1000100099510008E50700089984000800000000D5
:10002000000000000000000000000000395D000832
:10003000BD10000800000000915C0008735D00081E
:10004000BB010008BB010008BB010008BB010008A0
:10005000BB010008BB010008BB010008BB01000890
:10006000BB01000891110008BB010008BB0100089A
:10007000BB010008BB010008BB010008BB01000870
:10008000BB010008BB010008B1060008F507000825
:10009000E9070008BB010008BB010008BB0100081C
:1000A000BB010008BB010008BB010008BB01000840
:1000B000BB010008215E0008BB010008BB0100086D
:1000C000BB010008BB010008BB010008BB01000820
:1000D000BB010008BB010008BB010008BB01000810
:1000E000BB010008BB010008BB010008BB01000800
:1000F000BB010008BB010008BB010008BB010008F0
:10010000BB010008BB010008BB010008BB010008DF
:10011000BB010008BB0100082D5E0008BB01000800
:10012000BB010008BB010008BB010008BB010008BF
:10013000BB010008BB010008BB010008BB010008AF
:10014000BB010008BB010008BB010008655A00089C
:10015000BB010008BB010008BB010008BB0100088F
:10016000BB010008BB010008BB010008BB0100087F
:10017000BB010008BB010008BB0100080000000033
:10018000BB010008BB010008DFF810D000F040FA06
:1001900000480047F5890008AFF30080F03F0020D9
:1001A0000648804706480047FEE7FEE7FEE7FEE711
:1001B000FEE7FEE7FEE7FEE7FEE7FEE7115E00086A
:1001C000890100082DE9F05F0546002092469B4614
:1001D00088460646814640241BE02846414647465D
:1001E000224600F07BF953465A46C01A914110D37B
:1001F00011461846224600F062F92D1A67EB0108F5
:100200004F4622460120002100F059F917EB000962
:100210004E41201EA4F10104DFDC484631462A4647
:100220004346BDE8F09F2DE9F0410024061B25461A
:1002300071F1000605DA01240027D0EB070067EB17
:100240000101161E73F1000605DA0027D2EB070242
:10025000012567EB0303FFF7B5FF86460E461746F9
:100260009C46AC4204D00025D0EB050E65EB0106A0
:1002700024B10020D2EB000760EB030C704631463E
:100280003A466346BDE8F08140EA01039B0703D08C
:1002900009E008C9121F08C0042AFAD203E011F8C5
:1002A000013B00F8013B521EF9D27047D2B201E087
:1002B00000F8012B491EFBD270470022F6E710B56B
:1002C00013460A4604461946FFF7F0FF204610BDC4
:1002D00010B5044604E00B7800F8013B03B1491C5B
:1002E000521EF8D2204610BD10B5002200E0521C6C
:1002F000835C8C5CA34201D1002BF8D1D8B2E1B26F
:10030000401A10BD70B50F4D00B92868002412E0E6
:100310000A4602E09E4203D0521C1378002BF9D10A
:10032000DAB2224305D02BB124B1002100F8011B21
:1003300004E00446401C0678002EE9D128602046DF
:1003400070BD0000041300202DE9F04791460F46D0
:1003500080460446002614F8015B2DB100F0CEF86B
:100360000068405DC007F6D12B2D02D02D2D18D08E
:10037000641E4A463946204600F0C4F827B1396861
:10038000A14201D1C7F8008071054FF002040BD5DE
:100390004042002803DD08F0DDF80460A007BDE856
:1003A000F08746F48066E4E70028F8DA08F0D2F82F
:1003B00004606FF00040F2E72DE9F05F93460F46CE
:1003C00080460446002608F0C5F8D0F80090824622
:1003D00014F8015B2DB100F091F80068405DC00792
:1003E000F6D12B2D02D02D2D1AD0641E0021CAF873
:1003F00000105A463946204600F084F8014627B1DD
:100400003868A04201D1C7F80080DAF8000002285D
:1004100009D0CAF80090700505D54842BDE8F09FA4
:1004200046F48066E2E70846F8E7F0B4CA17CB0F57
:1004300050405140C61841F100054FEAC3723146A1
:1004400028004FF0960303D0B623F0BC00F0B2B8FA
:1004500030460021F9E710B500F0004420F00040DC
:10046000C20DC0F3160040F400007F2A02DA00201B
:10047000014610BD0021962A03DCC2F19602D0404D
:1004800002E0963A00F01BF8002CF2D00023D0EBEB
:10049000030063EB010110BD00F0004230F00040AA
:1004A0000AD0C10D01F56071C0F3160042EA015196
:1004B000C208400711437047002001467047202AB8
:1004C00004DB203A00FA02F1002070479140C2F1AB
:1004D000200320FA03F3194390407047202A04DBDD
:1004E000203A21FA02F00021704721FA02F3D040AD
:1004F000C2F12002914008431946704700487047F6
:10050000189A00082DE9F05F82460078002715460A
:100510008B460AF10104B946302801D09DB113E0A1
:1005200014F8010B0127782803D0582801D045B1D1
:100530000AE00DB1102D07D10027102514F8010B8A
:1005400002E0082500E00A250026B0460EE005FB83
:10055000080005FB06F1012701EB10461FFA80F8A1
:10056000B6F5803F00D3B94614F8010B294600F0D8
:1005700061F80028EBDABBF1000F05D00FB1641E63
:1005800000E05446CBF80040B9F1000F06D007F068
:10059000E1FF02210160C81EBDE8F09F48EA064065
:1005A000FAE70029A8BF7047401C490008BF20F0A7
:1005B0000100704710B4B0FA80FC00FA0CF050EA69
:1005C000010404BF10BC704749B1CCF1200421FAEA
:1005D00004F411FA0CF118BF012121430843A3EBE5
:1005E0000C01CB1D4FEA00614FEA102042BF0020F2
:1005F00010BC704700EBC35010440029A4BF10BCCE
:100600007047401C490008BF20F0010010BC704733
:10061000064C074D06E0E06840F0010394E807004F
:1006200098471034AC42F6D3FFF7B2FD1C9A00088D
:100630003C9A00083A2800D2303820F02002412AA3
:1006400001D3A2F13700884201D34FF0FF30704749
:1006500070B58D1810F8014B14F0030201D110F899
:10066000012B231106D110F8013B03E010F8016BB8
:1006700001F8016B521EF9D1ABB110F8012B04F057
:100680000C048A1A0C2C03D0A2EB84129B1C08E0E9
:1006900010F8014BA2EB0422F8E712F8014B01F825
:1006A000014B5B1EF9D5A942D4D3002070BD0000D8
:1006B000014801F034B8000048130020464910B545
:1006C0004A6822F440324A604A6843681A434A60E2
:1006D00001684A6822F480724A6001684A680369C6
:1006E00042EA03224A6001684A6822F040724A6086
:1006F00001684A6883681A434A6001688A6822F47C
:1007000000628A6001688A68C3681A438A60816AE5
:100710006FF07062D14201688A6822F070628A606C
:1007200001688A680CD0836A1A438A6001688A6803
:1007300022F040528A6001688A68C36A1A4301E065
:1007400022F040528A6001688A6822F002028A60C0
:1007500001688A68037E42EA43028A6090F82010AA
:10076000002901684A680FD042F400624A600168BB
:100770004A6822F460424A6001684A68174C436A3A
:1007800004EB43331A4301E022F400624A6001683B
:10079000CA6A22F47002CA620168CA6A838B104C6A
:1007A00004EB03531A43CA6201688A6822F4007298
:1007B0008A6001688A6890F8303042EA43228A6091
:1007C00001688A6822F480628A6001688A684069E8
:1007D00042EA8020886010BD0023014000E0FFFF56
:1007E0000000F0FFFEE70000014801F010BB000030
:1007F00090130020014801F00ABB00009013002074
:10080000F0B52B4A4FF00001A2F5AE7092F92040EE
:1008100082F82140958B4FF001032E0602D5062267
:10082000427605E06E0702D5EE43360706D04176E4
:1008300081768183C1830184418436E0032C23D0F7
:10084000012C33D1002405F0F006EF060BD4202E46
:1008500009D0302E07D0402E05D0502E03D041F2C3
:100860003F06AE4322D1124D168BED6A1EB16424B1
:100870006C4394FBF6F4437605268676B4F5004F78
:1008800008DB47F6FF7609E043768376128E828393
:10089000C283D0E7074EB44200DB26B2C683948EF3
:1008A0000484128F4284456281830376F0BD000088
:1008B000AC3B00200080FFFFB0B10C490A7E9AB12A
:1008C0000A7E02704A7E42708A7E82708A8B8280A3
:1008D000CA8BC2800A8C02814A8C42814A6AC260F9
:1008E000002008760120704700207047503A002011
:1008F0002DE9F0410188314C0A04120C217901F5EF
:10090000007701F5407601F5806501F5A06301F5FA
:10091000C06C09D004F5AE74BA4229D1016902292C
:1009200018D3808BA0833EE0427F0AB18A4211D166
:10093000007F012810D0022811D07F25802811D0F7
:10094000812807D11E4804F028FC0020607100F0C7
:100950007BFA6571BDE8F08105206071FAE704203B
:10096000607100E06571BDE8F041154804F015BC08
:1009700000F11E01B24201D0AA4209D10269062A41
:10098000E8D3808BA083084600F020FAE0620AE0FA
:100990009A420CD10269062ADCD3808BA0830846D8
:1009A00000F014FA2063BDE8F041FFF729BF62456B
:1009B000D0D1BDE8F04100F005B80000503A002069
:1009C000683900202DE9FC414FF000080546CDF8BC
:1009D0000080CDF80480006908286FD300F056F934
:1009E000B5F81D30297FEE7F5F4AA3F580501C4685
:1009F000183801D1300012D05FF0000000EB400742
:100A000032F827C09C450FD102EB870797F802C048
:100A1000B44509D100EB400002EB800008E05248E9
:100A2000001FD0611C3003E0401C1928E6D340466B
:100A300001234E4F4FF0430C402903D1B4F5805FA2
:100A400000D1DEB14FF00208494AB8EB511F29D15D
:100A500098B3017AC1F104014CEA81018DF80010CC
:100A6000697F8DF80110A97F8DF802108DF8036061
:100A7000027A416801A8FFF707FC6CE08DF800C01E
:100A80008DF8018010218DF8021092218DF804104C
:100A90008DF8053004218DF806108DF803808DF84F
:100AA000078058E0DFF8CCC0B3EB511F04D120B170
:100AB000427A22B18A0704D4624619E01CE02E4A29
:100AC00016E0C1F38101027AC1F104018A4201D02A
:100AD0002A4A0DE046F2600844450FD176B995F9EF
:100AE000201001290AD0032908D0062906D0244A5B
:100AF0003146204600F0BCF9BDE8FC81406805F1B4
:100B00002001FFF7C1FBA4F5C040403815D0444593
:100B100013D0A4F5C0407A380FD046F28100844249
:100B20000BD0A4F5C040833807D0A4F5C04084386A
:100B300003D0A4F5C040FF3802D10EB9FFF760FE24
:100B400060208DF80000687F8DF80100A87F8DF887
:100B500002008DF8036038790822694600F5B0601C
:100B600000F0A8F9C8E70000D8110020503A002092
:100B7000000002060100040502000106100007063D
:100B80003000090670B50D4606468AB04FF4AE71C6
:100B90002148FFF792FB00F041F81F4C05F00700D9
:100BA000266020717F26667101F074FCA06001F060
:100BB00071FC206128216846FFF77FFB002501209A
:100BC000CDE9065003950890059504950E200095F3
:100BD0000195029509906946206801F01DF808B159
:100BE00000F062FB206801F0FFFA08B100F05CFB46
:100BF0000221206800F090FF08B100F055FB6571FC
:100C000000F022F9667101F045FCA06001F042FCA1
:100C100020610AB070BD0000503A002010B5442198
:100C20001748FFF74AFB16481649C82240F8081B28
:100C300040F2313102C04FF4014140F80C1B4FF437
:100C4000807140F8081C002140F8041C20F8022B99
:100C5000012220F8162940220183428303220277D1
:100C600042774FF496728162C0E90B1240F6B832B7
:100C700042638263022282870348416210BD000002
:100C8000AC3B002092010400503A0020104800784C
:100C900008B1012100E000210E4800F8041F017F87
:100CA0004177828A0C4900EE102AD1ED060AB8EE8F
:100CB000400A20EE800ABDEEC00A80ED080A91EDE0
:100CC000090ABDEEC00A80ED090A00F053B9000020
:100CD00003000020AC3B00201013002010B50028BA
:100CE0000BD0002909D000F079F8002805D103487D
:100CF000D0F84C11491CC0F84C1110BD503A0020DE
:100D000070B58CB001F0C6FB0546FFF7BFFF2D4C58
:100D1000684694F84A11C9B194F84911242201EBAC
:100D2000C10104EB81012831FFF7AEFA94F84901C3
:100D3000401C00F0070084F8490194F84A01401E65
:100D400084F84A016846FFF7D3FDE1E7A068002672
:100D5000281AB0F57A7F02D3A56000F075F82069F3
:100D6000281A64282BD3256100F0DAF809960A9630
:100D7000FFF78CFF144D09A8E98B00F035F90DF150
:100D80002600696A00F028F92079062209A900F5F1
:100D9000207000F08FF809960A96FFF777FFE98B2D
:100DA00009A800F021F90DF12600A96A00F014F954
:100DB0002079062209A900F5906000F07BF80CB0BC
:100DC00070BD0000503A0020AC3B002082780188C2
:100DD000C07862F31F4141EA006070472DE9F0419D
:100DE000184D07460E4695F84A01082802D3002000
:100DF000BDE8F08195F848011C2200EBC00005EB2E
:100E0000800404F128003946FFF73EFA3A7C082AAC
:100E100000D9082204F144003146FFF735FA95F86D
:100E20004801401C00F0070085F8480195F84A0188
:100E3000401C85F84A01D5F85801401CC5F85801F6
:100E40000120D5E7503A002038B5084C0122694608
:100E500060798DF80000207900F5E06000F02AF854
:100E6000002802D1E168491CE16038BD503A0020F9
:100E70001CB580238DF800308DF80100000A8DF834
:100E800002008DF80420100A8DF80500100C8DF872
:100E90000600100E8DF8070005488DF80310082293
:100EA0000079694600F5B06000F004F81CBD000050
:100EB000503A002030B589B00023184C06930793B0
:100EC00025680DB1082A07D9D4F85401401CC4F88C
:100ED0005401012009B030BDC0F30A00CDE9000380
:100EE0000293CDE903328DF8143019B112B106A87E
:100EF000FFF7CAF908AB06AA6946206800F01EFE93
:100F000028B1D4F85411491CC4F85411E2E7D4F8BC
:100F10005011491CC4F85011DCE70000503A002081
:100F200038B500200090FFF7B1FE0948C18B684634
:100F300000F05AF8074C02226946207900F5C0708B
:100F4000FFF7B8FF002802D16169491C616138BD13
:100F5000AC3B0020503A0020C82801D2C82004E051
:100F60004FF44841884200D9084601490883704738
:100F7000AC3B002070B5134D0020297FC943090701
:100F800000D101201049097809B1082005E018B105
:100F90000E484079052808D0432040F408740C48D6
:100FA00004F052F90B4910B105E00720F5E7087885
:100FB00008B944F48064087808B124F48064EC83B0
:100FC00070BD0000AC3B002003000020503A002020
:100FD000683900200400002001700A0A42700A0CDF
:100FE0008270090EC17070470170090A4170704724
:100FF000002070470020704710B5002204490548C2
:1010000005F0CAFA0449034805F0B9FA002010BDFA
:101010008C220020201500208C1A00202DE9F0479A
:1010200000240F468146DFF850802646134D16E017
:1010300019F804000D2809D00A2807D0298A7F2929
:101040000BD208F80100491C298207E0288A28B140
:1010500008F80060084806F013F92E82641C38680E
:10106000A042E5D84946064805F089FA044805F04B
:101070005FFA0020BDE8F0870C1A0020060100206E
:101080002015002010B507F041FA002010BD000027
:10109000094A10B5D2F8BC22D2F814220AB10120B4
:1010A00010BD0A460146044805F076FABDE8104036
:1010B000014805F0EBBA0000201500207047000041
:1010C0002DE9F04104004FF0000558D04FF40067BF
:1010D00039462D4800F086F900B901252B4E8021B4
:1010E000304600F07FF908B945F002054FF48071F1
:1010F000304600F077F908B945F0040525704FF443
:101100000071304600F06EF950B1002060704FF46D
:101110008061304600F066F9012803D0012002E02A
:101120000120F3E70020A0703946304600F05AF95C
:1011300048B10020E07000254FF48051304600F0A7
:1011400051F910B102E00120F4E701254FF40051FC
:10115000304600F047F908B945F002054FF48041E8
:10116000304600F03FF908B945F0040525714FF409
:101170000041304600F036F918B100206071BDE83A
:10118000F0810120FAE70000000402400010024054
:10119000082001F071B810B501464FF47A62D1E928
:1011A00004010023FFF73FF8100001D502F57A6033
:1011B00010BD00000021016041608160C0E90411A0
:1011C0009FED050A80ED060A80ED070A80ED080A0A
:1011D00080ED090A704700000000000070B50D4660
:1011E00004463C21284602F0D9FC296800204862C8
:1011F0006060C4E9040070BD70B504462DED028B3B
:10120000B0EE408A0868406A61686060411A4D42E9
:10121000A5602060D4E90401401941EBE571C4E9FF
:101220000401FFF702F900EE900A9FED110A80EE2B
:10123000801A00EE905A84ED061AB8EEE01AC1EE5C
:10124000000A9FED0D1A80EE880ADFED0A0A84ED90
:10125000070A60EE200AC4ED080A94ED090A70EE50
:10126000C00A00EE810A84ED090ABDEC028B70BD54
:1012700000007A4500007042CDCC4C3D0968002248
:101280004A62426002608260C0E904229FED050A62
:1012900080ED060A80ED070A80ED080A80ED090A54
:1012A000704700000000000072B6FEE710B503F0C2
:1012B000ADFB03F0B1FB03F0B5FBBDE8104003F05C
:1012C000B7BB000019480068C06A0021401C80B20A
:1012D00000EE100A1648F7EE000AB8EE400A0122A6
:1012E00080ED000AB3EE080A80ED010A80ED020AE3
:1012F0009FED100A80ED030A80ED040A80ED050AD7
:1013000080ED060AC18380ED090AC0ED0A0ADFED0F
:101310000A0A80ED0B0AC0ED0C0A80ED0D0A80F878
:10132000382041878187FFF7C1BF0000B813002034
:10133000B8310020000000006666663F80ED010ABB
:101340009FED050A002180ED030AC0ED040A80ED3F
:101350000B1AC183FFF7AABF0000000000280ED0BF
:1013600000290CD0D1E90421C0E9002100218160CD
:1013700000F10C02012182EC050A80F82010704770
:1013800070B5040015460E466FF001001BD0002E0C
:1013900019D0002D17D094F82010002913D0A1687F
:1013A0002046491C07F0E2F904F1100C02469CECBF
:1013B000040A0B462946304603F0B0FF002802D14C
:1013C000A168491CA16070BD00280AD0002908D07E
:1013D000D1E90421C0E9002100218160012180F8C8
:1013E0002010704770B50D46064601F049F80446D6
:1013F0000A2000F02DFF2946304601F041F88442D2
:1014000000D1204670BD000070B590F83C20694DB9
:10141000012A19D0012280F83C200A6807230468B9
:10142000092A13D9E6680A3A02EB420293409E4326
:10143000E6600A788B680A3A02EB4202934002683F
:10144000D4682343D36010E0022070BD266902EB0C
:10145000420293409E4326610A788B6802EB420267
:10146000934002681469234313610268936B23F469
:10147000401393630268936B0C8A4F4E06EB04543F
:10148000234393630A790B7CD21AD21C02EB8202AB
:101490001F2393400268946B9C4394630A790B7CEE
:1014A000D21AD21C02EB82030A8892B29A400368D5
:1014B0009C6B22439A638A69AA420268936823F468
:1014C00070239360026893680CD08C692343936007
:1014D0000268936823F44013936002689368CC69B0
:1014E000234301E023F4401393604A7D002A0268FD
:1014F000536802D043F4806301E023F480635360B7
:101500000A7D002A0268536802D043F4805301E048
:1015100023F4805353604A68012A16D0022A1FD050
:10152000032A026827D0136A6FF30B031362026861
:10153000136ACC6823431362214B04681F4A9C4200
:1015400027D10C68122C20D023E0026853696FF376
:101550000B03536102685369CC6823435361EBE783
:10156000026893696FF30B03936102689369CC6817
:1015700023439361E0E7D3696FF30B03D361026800
:10158000D369CC682343D361D6E7546844F480041C
:10159000546004689C4208D10968102901D01129BF
:1015A00003D1516841F400015160002180F83C10E2
:1015B000084670BD01000F000000F0FF002301404D
:1015C000002001407047000078B50024009490F896
:1015D0003C20012A19D0012280F83C200A68072308
:1015E0000568092A13D9EE680A3A02EB42029340D1
:1015F0009E43EE600B788A680A3B03EB43039A40F4
:101600000368DD682A43DA6010E0022078BD2E69A5
:1016100002EB420293409E432E610B788A6803EBF3
:1016200043039A4003681D692A431A614A681F23CD
:10163000072A13D205686E6B521E02EB820293409A
:101640009E436E630B790A885B1E92B203EB8303A1
:101650009A4003685D6B2A435A6327E005680D2AA8
:1016600012D22E6BD21F02EB820293409E432E6356
:101670000B790A88DB1F92B203EB83039A4003685D
:101680001D6B2A431A6311E0EE6A0D3A02EB8202E7
:1016900093409E43EE620B790A880D3B92B203EBB6
:1016A00083039A400368DD6A2A43DA62164B0568B1
:1016B000144A9D4206D10D68122D03D1556845F498
:1016C0008005556005689D4218D10B68102B01D02C
:1016D000112B13D1536843F4000353600968102998
:1016E0000CD10A490A4A0968B1FBF2F101EB810108
:1016F000490000E0491E00910029FBD180F83C40E0
:10170000002078BD00230140002001403801002066
:1017100040420F00704770470068C06C704770B55A
:10172000044600680668456816F0020F05F02001BF
:101730002AD049B3216CC90603D4216C41F400714D
:101740002164816811F0405F17D1217EA9B9C16A77
:1017500011F4700F02D0816849050ED4416821F060
:1017600020014160206C20F480702064206CC00453
:1017700003D4206C40F0010020642046FFF7CAFF2C
:1017800021686FF01200086016F0040F05F0800168
:1017900032D089B3206CC00603D4206C40F40050D2
:1017A00020642068816811F4401F1ED1816B11F400
:1017B000401F02D08168490517D44168490514D4F7
:1017C000816811F0405F10D1217E71B9416821F02C
:1017D00080014160206C20F480502064206CC005A2
:1017E00003D4206C40F0010020642046FFF7EAFE9D
:1017F00021686FF00C00086016F0010F05F0400141
:101800000FD071B120680068C0070AD0206C40F486
:1018100080302064204600F043F821686FF001001A
:10182000086016F0200F05F080610ED000290CD062
:10183000606C40F00200606420686FF02005056075
:101840002046FFF768FF2068056070BD70B5040092
:101850004FF0000503D0206C002610B107E00120F6
:1018600070BD204600F01EF8666484F83C60206C71
:10187000C00610D4206C20F4885040F00200206490
:101880002046FEF71BFF6664206C20F0020040F04B
:101890000100206400E0012584F83C60284670BD0A
:1018A0007047000030B587B0044614216846FEF743
:1018B00004FD1C492068884232D11B48002501687C
:1018C00041F480710160006800F480700590164852
:1018D0001438016841F004010160016801F004015D
:1018E0000591016841F0020101600068032400F0E5
:1018F0000200059030208DE8310069460B4800F069
:10190000C7FC009469460A48CDE9014500F0C0FCD7
:1019100000220421122000F02BFE122000F01AFEFB
:1019200007B030BD002001404438024000080240AA
:10193000000402402DE9F041044600680D4681682C
:101940004FF0000749050BD58068C00508D5206C0D
:1019500040F02000206484F83C700120BDE8F08154
:1019600000F098FD064613E0681C11D025B100F088
:1019700091FD801BA8420BD920680068800707D41E
:10198000206C40F00400206484F83C700320E5E7FC
:10199000206800688007E7D521686FF012000860B2
:1019A000206C40F4007020642068816811F0405F72
:1019B00013D1217E89B9C16A11F4700F02D08068F9
:1019C00040050AD4206C20F480702064206CC00490
:1019D00003D4206C40F0010020640020BEE700002A
:1019E00018B50021009190F83C20012A07D001226F
:1019F00080F83C2002689368DB0702D011E00220E7
:101A000018BD936843F0010393602E4A2E4B126871
:101A1000B2FBF3F202EB420200E0521E0092002AF7
:101A2000FBD102689368DB0742D0036C40F201648B
:101A3000A34343F48073036453685B0505D5036CCB
:101A400023F4005343F480530364036CDB0404D594
:101A5000436C23F00603436400E0416480F83C10CB
:101A60001A496FF02203136049680068CA061849D2
:101A700006D0884224D1816811F0405F13D01FE066
:101A80008842F8D0134A904203D1D1F80423D206F9
:101A9000F1D0114A904213D1D1F8041301F01F0183
:101AA0001029E8D30CE0816841F08041816007E0B3
:101AB000016C41F010010164416C41F0010141648D
:101AC000002018BD3801002040420F0000230140D3
:101AD00000200140002101400022014090F83C100C
:101AE00001290CD0012180F83C1001688A6822F09D
:101AF00001028A6001688968C90702D007E00220F4
:101B00007047016C21F4885141F00101016400210A
:101B100080F83C100846704790F82020012A07D032
:101B2000022A05D0416A41F48021416201207047B8
:101B3000006842690A43426100207047F0B590F89E
:101B400020500468A468012D05D0022D03D0416AFD
:101B500041F480215DE014F0406F01D1E50055D5DE
:101B6000C4F30164022C03D9416A41F4000150E03E
:101B70000125A5401D608D684FF4C0739DB1CE68EE
:101B800035434E6845EAC605066803EB0417F55170
:101B90004FF4C275076805EB04150E697E51097D87
:101BA000012905D009E00E88CD6845EA4655EBE7E6
:101BB00001684E5946F480764E511179D57956799F
:101BC00041EA056195792D0445EA062529434FF43C
:101BD000C676056806EB0416A9511178D57841EA56
:101BE0000561957852782D0445EA022211434FF49D
:101BF000C475026805EB04155151006803EB04112C
:101C0000425842F0010242500020F0BD416A41F4C6
:101C1000001141620120F0BD10B590F82020012A8A
:101C200007D0022A05D0416A41F480214162012097
:101C300010BD3B48D0F8002242F00102C0F800225B
:101C4000D0F8002222F47C52C0F80022D0F8002202
:101C50004B6A42EA0322C0F800220A7D02F01F0309
:101C600001229A40D0F81C329343C0F81C32CB6951
:101C7000B3B9D0F80C329343C0F80C328C894B685E
:101C800064F31F434C6900EBC404C4F840320C8970
:101C90000B6864F31F434C6900EBC404C4F844327E
:101CA000CB69012B16D1D0F80C321343C0F80C329B
:101CB0000C884B6864F31F434C6900EBC404C4F800
:101CC00040320C89CB6864F31F434C6900EBC404B9
:101CD000C4F844328B69002BD0F804320ED0134381
:101CE000C0F804320B69002BD0F8143208D013432B
:101CF000C0F81432096A012904D008E09343EFE7E1
:101D00009343F5E7D0F81C121143C0F81C12D0F829
:101D1000001221F00101C0F80012002010BD0000E7
:101D200000640040704730B590F82040012C05D089
:101D3000022C03D0416A41F480215DE0046800294F
:101D400055D02469A40754D04FF4D874056804EB27
:101D500001142D5915F00405956005682D594ED0D4
:101D6000ED08556005682C5904F00204D4604FF466
:101D7000DA74056804EB01142D5905F00F0515619F
:101D800005682D59C5F30725956105682C59240C64
:101D900054614FF4DC72046802EB0112A4581C7009
:101DA0000468A458240A5C700468A458240C9C702D
:101DB0000468A258120EDA704FF4DE72046802EB67
:101DC0000112A4581C710468A458240A5C710468A8
:101DD000A458240C9C710468A258120EDA71006891
:101DE00081B1016941F020010161002030BDE4684A
:101DF000A8E7416A41F400114162012030BD6D0D38
:101E00001560AFE7C16841F02001C160EDE72DE941
:101E1000F05F0546006800244669D0F804908768A2
:101E2000D0F80CB0D0F810A0D0F81880F10748D046
:101E3000F90714D001218160B80703D5284600F0C6
:101E400000FA0CE0780702D54FF4006407E0380789
:101E500002D54FF4805402E0284600F0F1F9F8056D
:101E600016D529684FF480708860B80503D52846D8
:101E700000F0E9F90CE0780502D544F4005407E0DD
:101E8000380502D544F4804402E0284600F0DAF92F
:101E9000F80316D529684FF480308860B80303D55D
:101EA000284600F0D2F90CE0780302D544F400444F
:101EB00007E0380302D544F4803402E0284600F0FD
:101EC000C3F9300707D55FEACB6004D52968102035
:101ED00044F40074C86070074FF0080707D55FEA44
:101EE0000B7004D52868C760284600F061F9B00778
:101EF00006D52868C068800702D0284600F05AF945
:101F0000700607D55FEACA6004D52968102044F43A
:101F100080640861B00607D55FEA0A7004D52868B6
:101F20000761284600F05CF9F00606D528680069CC
:101F3000800702D0284600F054F9B00308D55FEAC4
:101F4000C96005D5296810204860284600F04AF984
:101F5000F00307D55FEA097004D528684760284672
:101F600000F074F9300446D55FEA497040D5F005B9
:101F700004D55FEAC87001D044F00104B00504D56F
:101F80005FEA887001D544F00204700504D55FEA69
:101F9000487001D544F00404300529D518F0700FBD
:101FA00026D008F07000402815D006DC102809D093
:101FB00020280AD0302816D10AE050280ED06028F8
:101FC00011D10EE044F008040DE044F010040AE0E2
:101FD00044F0200407E044F0400404E044F08004AE
:101FE00001E044F480742868816921F07001816106
:101FF000296804204860002C05D0686A2043686284
:102000002846FFF78FFEBDE8F09F70B5040003D0AF
:1020100094F8200010B104E0012070BD204600F0CB
:1020200081F82068016841F00101016000F032FA96
:102030000546052604E000F02DFA401B0A2811D8B9
:1020400020684068C007F6D02068016821F00201CE
:10205000016000F01FFA05460BE000F01BFA401B80
:102060000A2806D9606A40F40030606284F8206073
:10207000D2E7206840688007EFD4207E01282068DE
:1020800001683DD021F080010160607E0128206858
:10209000016838D021F040010160A07E012820684D
:1020A000016833D021F020010160E07E0128206822
:1020B00001682ED041F010010160207F01282068C6
:1020C000016829D021F008010160607F01282068A3
:1020D000016824D021F004010160D4E90201084321
:1020E000D4E90412114308436168491E084321687A
:1020F000C86100206062012084F82000002070BDCB
:1021000041F08001C0E741F04001C5E741F0200106
:10211000CAE721F01001CFE741F00801D4E741F010
:102120000401D9E710B586B0044614216846FEF7CD
:10213000C4F81C492068884231D11B48002102683C
:1021400042F000720260006800F0007005901648CE
:102150001038026842F002020260006800F00200DB
:1021600005904FF4407000900220CDE9010103205A
:1021700003900920049069460C4800F089F8002279
:102180000521132000F0F4F9132000F0E3F90022F8
:102190000521142000F0ECF9142000F0DBF906B062
:1021A00010BD0000006400404038024000040240BE
:1021B0007047000000B5094A016889B091420AD110
:1021C00007AB6A460021FFF7AEFD002803D107A93F
:1021D0006846FEF783FD09B000BD000000640040C2
:1021E000704770477047000070B5044690F82000B3
:1021F000012804D0606A40F40020606218E00220E8
:1022000084F820002068016821F00101016000F0DD
:1022100041F905460EE000BF00F03CF9401B0A28DA
:1022200008D9606A40F400306062052084F820001C
:10223000012070BD20684068C007EDD1606270BDAC
:10224000704770477047704770477047704700008D
:1022500070B5044600F01EF90546601C02D0044823
:102260000078044400F016F9401BA042FAD370BD78
:102270002C01002070470000044910B50A68024292
:1022800002D00860FFF7F6FF10BD0000143C0140CB
:102290002DE9F84FDFF8BCA10022012503264FF0FD
:1022A0000F090AF1040BAAF1040E00BF0B6805FA2E
:1022B00002F42340A34270D10F7907F00307012FE6
:1022C00001D0022F16D187684FEA420806FA08FCAF
:1022D00027EA0C07D1F80CC00CFA08FC4CEA070CF2
:1022E000C0F808C04768A7430C79C4F300149440B1
:1022F0003C4344600C79E443A4070AD0C4684FEA25
:10230000420C06FA0CF7BC438F6807FA0CF7274318
:10231000C7600C7904F00304022C12D1D40800EB3E
:10232000840CDCF820405707FF0E09FA07F824EA6E
:102330000804D1F8108008FA07F848EA0408CCF835
:10234000208004684FEA420C06FA0CF7BC430F7970
:1023500007F0030707FA0CF7274307604C6814F4EB
:10236000403F70D03C4C276847F480472760246882
:1023700022F0030704F480440094384C07EB040C6B
:10238000DCF8084897074FEA177809FA08F7BC43C2
:10239000334FB84202D1002724E054E0314FB84215
:1023A00001D101271EE0304FB84201D1022719E0C8
:1023B0002E4FB84201D1032714E02D4FB84201D16E
:1023C00004270FE02B4FB84201D105270AE02A4F1E
:1023D000B84201D1062705E0284FB84201D10727AE
:1023E00000E0082707FA08F72743CCF80878DAF85E
:1023F00000405746D1F804C09C435FEACC2C00D57E
:102400001C433C60DBF800405F46D1F804C09C43AD
:102410005FEA8C2C00D51C433C60DEF80040774618
:10242000D1F804C09C435FEA8C3C00D51C433C605F
:10243000084F083F3C68D1F804C09C435FEACC3C9D
:1024400000D51C433C60521C102AFFF42FAFBDE89E
:10245000F88F0000083C0140443802400030014041
:10246000000002400004024000080240000C02404C
:10247000001002400014024000180240001C0240FC
:102480000069084000D0012070470AB1816170479F
:102490000904FBE701488068704700002C01002018
:1024A0000248816802781144816070472C01002045
:1024B0000B4810B5016841F400710160016841F4F6
:1024C00080610160016841F480710160032000F0C7
:1024D0006FF80F2000F006F800F024F8002010BD7F
:1024E000003C024070B50D4D04464FF47A712878D7
:1024F000B1FBF0F00A490968B1FBF0F001F02AF8ED
:1025000048B9102C07D200222146501E00F030F8A6
:1025100000206C6070BD012070BD00002C01002007
:10252000380100200A4808B5016841F48041016083
:10253000006800F4804000900548001F016841F0E9
:1025400080510160006800F08050009008BD0000DC
:1025500044380240002809DB00F01F0201219140AD
:102560004009800000F1E020C0F800117047000031
:10257000F0B40E4B1B680C46C3F30223C3F10705EE
:10258000042D00D90425191D072901D2002300E0DC
:10259000DB1E012606FA05F1491E214099409E40A6
:1025A000761E16403143F0BC05F0C4BF0CED00E0D0
:1025B000064900F0070208684FF6FF03184040EA9A
:1025C0000220034A10430860704700000CED00E051
:1025D0000000FA0570470068416200207047F0B5BE
:1025E0000368586A39B19C6A4FF4827600EB144450
:1025F00000204D1E0AE040EA024098620FE006EB20
:102600008007DF59401C04EB1744C0B2A842F6D340
:1026100044EA02404FF4807202EB810158500020DE
:10262000F0BDD0F8080504F0B7BA01EBC10200EB29
:102630008202D0F80805D26C04F00CBA01EBC1029A
:1026400000EB8202D0F80805D2F88C2204F05DBAC3
:10265000D0F8080504F0A2BA0A0601F00F0101EB58
:10266000C10100EB810101D53C3101E001F51F7191
:10267000006805F059BD70B504460B0601F00F0067
:1026800000EBC00104EB81014FF001024FF00005A7
:1026900003D581F83D203C3103E081F87D5201F5FE
:1026A0001F71087094F8BC04012808D084F8BC2479
:1026B000206805F0F3F984F8BC54002070BD0220B6
:1026C00070BD70B5044601F00F006268904201D9F8
:1026D000012070BD0B0601F00F0101EBC10104EBFD
:1026E00081014FF001024FF0000503D581F83D2034
:1026F0003C3103E081F87D5201F51F718D70087047
:1027000094F8BC04012808D084F8BC24206805F0A3
:10271000C1FB84F8BC54002070BD022070BD01F0E4
:102720000F0101EBC10100EB8100D0F89C02704762
:102730002DE9F04104460F0601F00F0000EBC00147
:1027400004EB81014FF001064FF0000503D581F83D
:102750003D603C3103E081F87D5201F51F71087046
:10276000CA600B714A7802B10881022B00D14D7109
:1027700094F8BC04012809D084F8BC64206805F0F2
:10278000E5F8284684F8BC54BDE8F0810220FBE758
:1027900070B50C4601F00F0505EBC50100EB81019A
:1027A000C1F89432C1F88C220023C1F89C3281F820
:1027B0007D3281F87C52036901F51F71012B00D134
:1027C0004A612207027C006803D005F0BBFB0020B1
:1027D00070BD05F0A5FAFAE770B504460D4601F0A4
:1027E0000F006168884201D9012070BD29064FF0B1
:1027F00000064FF0010207D500EBC00104EB810198
:1028000081F83D203C3107E005EBC50104EB810177
:1028100081F87D6201F51F718A70087094F8BC041C
:10282000012807D084F8BC24206805F05FFB280746
:1028300002D007E0022070BD217C04F2C44220686F
:1028400005F0FCFA84F8BC64002070BD70B50C463D
:1028500001F00F0505EBC50100EB81014B65CA6472
:102860000023CB65012381F83D3001F83C5F03690B
:10287000012B00D14A612207027C006803D005F0D9
:1028800061FB002070BD05F04BFAFAE72DE9FC5F13
:1028900005680446284605F0E8FC00287DD120683C
:1028A00005F00FFD002878D0D5F80808C0F30D20FA
:1028B000C4F8FC04206805F004FD800704D52068F6
:1028C000416901F002014161206805F0FAFCC1068E
:1028D00004F2C440009034D52068816921F01001D1
:1028E00081612F6A07F00F0000EBC00004EB800647
:1028F000C7F3434006F51F76022802D0062811D000
:102900001AE047F6F070074216D0C7F30A121746CE
:102910002846316905F0D9FC306938443061306AA5
:10292000384408E008222846009905F0CEFC306AB9
:10293000C7F30A11084430622068816941F0100130
:102940008161206805F0BDFC00034FF0080B4FF0DB
:10295000000A4FF001097CD50026206805F090FCA4
:10296000074674E0F80770D0F1B2206805F0A1FCCA
:102970008046C00707D005EB4611C1F8089B3146D9
:10298000204603F075F85FEA087024D505EB461180
:10299000C1F808BB2068016C00E025E200EB46109E
:1029A0000191D0F8082BFC4B994205D9110403D5AD
:1029B0004FF40041C0F8081B204600F005FBF64923
:1029C0000198884207D92069012804D12068012193
:1029D000009A05F033FA5FEAC86004D505EB4611AA
:1029E0001020C1F8080B5FEA88701DD568690006E1
:1029F00005D5D5F8040840F48061C5F8041806EB45
:102A0000C60004EB800090F87F1200F51F700129CA
:102A100005D180F803A0F1B2204600F0EBF905EBF8
:102A200046110220C1F8080B5FEA886004D505EB67
:102A300046102021C0F8081B5FEA884005D505EB49
:102A400046104FF40051C0F8081B7F08761C002F79
:102A500088D1206805F035FC40036FD5206805F06B
:102A600008FC0746002667E0F80763D0F1B220684B
:102A700005F00DFC8046C00723D006F00F0209FACE
:102A800002F0D5F834288243C5F8342805EB461007
:102A9000C0F80899206901280FD106EBC60004EBA5
:102AA0008000D0E912211144C16436B9606D20B9AB
:102AB00020680121009A05F0C1F9F1B22046FFF724
:102AC000B4FD5FEA087003D505EB4611C1F808B9FB
:102AD0005FEAC86004D505EB46111020C1F808096B
:102AE0005FEA486004D505EB46104021C0F808199C
:102AF0005FEA887017D53146284605F089FB06EB5A
:102B0000C60004EB800090F83F103C30012905D14D
:102B100080F803A0F1B2204600F068F905EB4611F9
:102B20000220C1F808095FEA086003D53146204653
:102B300003F004F87F08761C002F95D1206805F07B
:102B4000C0FB002811DAD5F8040820F00101C5F80F
:102B5000041894F8F40401282BD0204600F018FA49
:102B60002068416901F000414161206805F0A9FB3E
:102B700000050BD5D5F80808C00702D0204600F0A4
:102B80004BFA2068416901F400614161206805F059
:102B900098FBC00466D5D5F8040820F00100C5F8FC
:102BA00004081021206805F033FB00214FF67F3226
:102BB0001FE084F8F4A400212046FFF70BFDCFE7C7
:102BC00005EB4110C0F80829D0F8003923F40013B0
:102BD000C0F80039C0F8082BD0F8003B23F40013EC
:102BE000C0F8003BD0F8003B43F00063C0F8003B66
:102BF000491C60688842E3D8D5F81C0840F00111F0
:102C0000C5F81C18206B002828460DD0D0F8840881
:102C100040F00B01C5F88418D5F8440840F00B01CA
:102C20002846C5F844180DE0D0F8140842F22B01EC
:102C30000843C5F81408D5F8100840F00B012846E1
:102C4000C5F81018D0F8000820F4FE61C5F8001887
:102C5000217C2068009A05F0F1F82068416901F4B0
:102C600080514161206805F02CFB800415D5206857
:102C700004F0ACFE206805F0EBFAE06000F07EFAAC
:102C80000146227B206805F07FFB204600F06AF9B0
:102C90002068416901F400514161206805F011FB91
:102CA000000707D5204600F077F92068416901F058
:102CB00008014161206805F004FB000616D5A869EB
:102CC00020F08000A86101260DE000BF06EBC600E1
:102CD00004EB800090F87F02012803D1F1B2204676
:102CE000FFF7BAFC761C6068B042EFD8206805F0A8
:102CF000E8FAC00221D501264F4616E005EB461042
:102D0000D0F8001906EBC60004EB800090F84020D4
:102D1000012A09D1002907DA80F83F70F0B240F0AB
:102D200080012046FFF798FC761C6068B042E5D829
:102D30002068416901F480114161206805F0C1FA01
:102D4000800234D501204B4629E000BF05EB40113D
:102D5000D1F8001B00EBC00204EB820696F880223B
:102D6000012A1BD1002919DA94F8FC2401F48031DE
:102D700002F00102914211D186F87F32A96941F037
:102D80008002AA616969090608D4D5F8040840F4EC
:102D90000070C5F8040805E00A30544F401C616813
:102DA0008142D3D82068416901F400114161206853
:102DB00005F087FA400007D52046FFF732FC20686F
:102DC000416901F080414161206805F07AFA4007CD
:102DD0000AD520684568680702D52046FFF738FC09
:102DE0002068416829434160BDE8FC9FD0F8080590
:102DF00003F028BFD0F8080503F038BF2DE9F041F3
:102E00008AB0040005D094F8BD042668002520B1DE
:102E100008E001200AB0BDE8F08184F8BC542046E7
:102E200000F05EF8032084F8BD04F06BC00500D408
:102E30002561206804F06EFF04F110012822884605
:102E40006846FDF721FA94E80F0004F0CDFD022654
:102E5000C8BB0021206805F057FA002001270EE0CA
:102E600000EBC00104EB810181F83D7001F83C0FDB
:102E700008810D71CD600D61401CC0B28D6161682B
:102E80008142EDD8002011E000EBC00104EB81018C
:102E900081F87D5281F87C0281F88052C1F8885215
:102EA000C1F88C52401CC0B2C1F894526168814292
:102EB000EAD8282241466846FDF7E6F994E80F0073
:102EC00004F06EFE10B184F8BD64A2E784F83850B7
:102ED00084F8BD74206804F055FE00209AE70000D5
:102EE00010B586B0044614216846FDF7E6F920685F
:102EF000B0F1A04F2FD119480021026842F0010221
:102F00000260006800F0010005904FF4C05000908E
:102F10000220CDE90101032003900A2004906946B4
:102F20000F48FFF7B5F90D48001D016841F0800119
:102F300001600A481430016841F480410160006872
:102F4000002200F48040059007214320FFF710FB8A
:102F50004320FFF7FFFA06B010BD000030380240F2
:102F60000000024070B50446C068012570B1022817
:102F700001D0FEF799F92946D4F8080503F0E4FEDC
:102F8000D4F80805BDE8704003F099BE0025F2E7CB
:102F9000D0F8080503F0C1BED0F8080503F0C7BE9D
:102FA00010B5044690F8BC0401280BD0012084F829
:102FB000BC0484F83810206805F0D4F9002084F8A7
:102FC000BC0410BD022010BDD0F8082500F2C44199
:102FD000104603F0C5BE10B50446006894F8BC1452
:102FE000012906D0012184F8BC14A16A012902D06C
:102FF00008E0022010BDA169012903D0816B41F4D2
:1030000080318163206805F0DEF8206804F0ACFDB3
:10301000002084F8BC0410BD10B50446D0F80805A3
:1030200003F0E0FE2068D0F8001E41F00101C0F876
:10303000001E206A002804D00248016841F0060101
:10304000016010BD10ED00E02DE9F0470E460500CF
:1030500065D0DFF81481D8F80000F7B200F007005F
:10306000B04207D288F80070D8F8000000F00700DE
:10307000B04254D128683D4C810712D5400703D592
:10308000206840F4E05020602878000703D52068CD
:1030900040F4604020602068A96820F0F0000843F8
:1030A00020602878C0072DD0304968680839012889
:1030B00012D0022813D0032811D0096889070029EB
:1030C0002DDA216821F0030101432160FFF7E2F9C5
:1030D000814641F2883A0EE009688903EFE7096802
:1030E0008901ECE7FFF7D6F9A0EB0901514502D9B8
:1030F0000320BDE8F0872068696800F00C00B0EBA1
:10310000810FEFD1D8F80010404601F00701B1421D
:1031100007D90770006800F00700B04201D0012015
:10312000E7E72878400705D52068E96820F4E050F3
:10313000084320602878000706D52068296920F414
:10314000604040EAC100206000F01EF82168084A93
:10315000C1F30311515CC840064908600648006885
:10316000FFF7C0F90020C4E7003C024008380240E5
:10317000449900083801002030010020014800680F
:103180007047000038010020154810B5006810F0A5
:103190000C02144813D04110042A0FD0082A0ED173
:1031A0000F4C241F2268236802F03F025B0207D500
:1031B0002068C0F38810A0FB010106E0084610BD9E
:1031C0002168C1F38811A1FB00010023FCF7FAFF7D
:1031D0002168C1F30141491C4900B0FBF1F010BD69
:1031E000083802400024F4002DE9F84F04006ED0A6
:1031F0002078DFF84C93C007A9F104054AD009F103
:1032000004000168C1F38101012908D00068C0F3FE
:10321000810002280AD1D9F80000400206D52868AA
:10322000800337D560680028E1D033E06068B0F5EE
:10323000803F10D0B0F5A02F286810D020F4803047
:103240002860286820F4802028606068A8B1FFF713
:1032500021F906460DE0286840F48030F4E740F498
:1032600080202860F7E700BFFFF714F9801B64286F
:1032700073D828688003F7D50CE0FFF70BF90646F2
:1032800005E000BFFFF706F9801B6428F0D8286826
:103290008003F7D42078DFF8AC8280074FF0000A73
:1032A0003ED5A748001D016811F00C0F08D000683A
:1032B000C0F3810002280BD1D9F80000400207D4E6
:1032C0002868800716D5E068012800D112E033E1B4
:1032D000E068B8B10120C8F80000FFF7DBF8064647
:1032E00005E000BFFFF7D6F8801B0228C0D8286889
:1032F0008007F7D52868216920F0F80040EAC1006E
:1033000028600DE0C8F800A0FFF7C4F8064604E006
:10331000FFF7C0F8801B02281FD828688007F7D461
:103320002078000722D5864F87486169703771B1D0
:1033300001210160FFF7AEF8064604E0FFF7AAF8A6
:10334000801B022809D838688007F7D50EE0C0F83E
:1033500000A0FFF79FF8064605E082E0FFF79AF825
:10336000801B02287DD838688007F7D42078400772
:1033700068D5DFF8CCB100270BF13C0BDBF800007F
:10338000C0000BD4DBF8001041F08051CBF80010E6
:10339000DBF80000012700F0805000906B4E306891
:1033A000C00510D4306840F480703060FFF772F8C8
:1033B000009005E0FFF76EF80099401A022850D8F7
:1033C0003068C005F6D55E4EA0686C3601280FD077
:1033D0000528306810D020F001003060306820F0FF
:1033E00004003060A068B8B1FFF754F800900FE017
:1033F000306840F00100F4E740F004003060F7E787
:10340000FFF748F80099411A41F28830814266D8A6
:1034100030688007F4D50EE0FFF73CF8009007E035
:10342000FFF738F80099411A41F28830814256D8A6
:1034300030688007F4D42FB1DBF8001021F0805100
:10344000CBF80010A069C8B33D49091D0968C1F354
:10345000810102294AD00228504607D0C8F86000EE
:1034600000E03CE0FFF716F804463BE04746C8F8AA
:103470006000FFF70FF8064605E000BFFFF70AF807
:10348000801B02282BD828688001F7D4D4E90701D3
:103490000843A16A2E4A490802EB0141626A41EAE7
:1034A0008211084394F82C1040EA0161C9F8001019
:1034B00001203866FEF7EEFF044606E03EE000BF5E
:1034C000FEF7E8FF001B022809D828688001F7D51D
:1034D00034E000BFFEF7DEFF001B022802D9032004
:1034E000BDE8F88F28688001F4D427E00128F7D0E0
:1034F000D9F80000E26900F4800191421CD1226AEF
:1035000000F03F01914217D147F6C071626A014055
:10351000B1EB821F10D1A26A4FF0FF3300F44031AB
:1035200003EB5202B1EB024F06D194F82C1000F0DD
:103530007060B0EB016F01D00120D1E70020CFE730
:103540000438024000004742800E474200700040AD
:103550000000FFFF10B5401EB0F1807F01D30120B5
:1035600010BD4FF0E02460610F21601704F0E2FF0E
:103570000020A06107202061002010BD7047704727
:1035800010B590F83C20012A22D0012280F83C207E
:10359000CA688C6822F4407222434C6822F480622C
:1035A00022430C6822F4006222430C6922F4805208
:1035B00022434C6922F400522243C969002322F4B9
:1035C00080420A4301684A6480F83C30002010BD04
:1035D000022010BD70B590F83C20012A32D00124A1
:1035E00080F83C40022280F83D2003685A689D68BC
:1035F00022F070060A6832435A60134B02689A42FE
:1036000014D0B2F1804F11D0104B9A420ED0104B13
:103610009A420BD00F4B9A4208D00F4B9A4205D0DA
:103620000E4B9A4202D00E4B9A4204D1496825F0C3
:1036300080031943916080F83D40002180F83C10E0
:10364000084670BD022070BD00000140000400402B
:1036500000080040000C0040000401400040014010
:103660000018004010B50446022249B104290ED0CA
:10367000082913D094F84500012816D0012010BD68
:1036800094F842000128F9D184F842200FE094F820
:1036900043000128F2D184F8432008E094F8440064
:1036A0000128EBD184F8442001E084F8452004226D
:1036B000206802F032FC2068416C41F40041416412
:1036C00011492068884214D0B0F1804F11D00F49C1
:1036D00088420ED00E4988420BD00E49884208D04D
:1036E0000D49884205D00D49884202D00C498842D4
:1036F00004D1816801F00701062903D0016841F077
:1037000001010160002010BD0000014000040040E4
:1037100000080040000C004000040140004001404F
:103720000018004070B504460D460068002202F003
:10373000F4FB2068036A41F211110B4240F244424B
:1037400006D1036A134203D1436C23F4004343645C
:103750002068036A0B4206D1016A114203D1016855
:1037600021F00101016001203DB1042D08D0082D98
:1037700009D084F84500002070BD84F84200FAE7C3
:1037800084F84300F7E784F84400F4E710B5040038
:1037900003D094F83D0010B107E0012010BD0020D7
:1037A00084F83C00204600F01FF8022084F83D0019
:1037B000211D206802F040FB012084F8460084F8B7
:1037C0003E0084F83F0084F8400084F8410084F80B
:1037D000420084F8430084F8440084F8450084F8EB
:1037E0003D00002010BD000070B586B004461421D5
:1037F0006846FCF762FD2D4824682B4E00222B49B9
:10380000143802250123B44218D10C6844F0010495
:103810000C60096801F001010591016841F00201A5
:1038200001600068CDE9023200F002000590180343
:10383000CDE90005694604931D4832E01D4EB442AF
:1038400013D11A48001F016841F01001016000689F
:10385000002200F01000059005213620FEF788FEBA
:103860003620FEF777FE06B070BD134EB442FAD193
:103870000C6844F002040C60096801F00201059133
:10388000016841F0010101600068029300F001004D
:1038900005904020CDE900050320CDE903206946CD
:1038A0000648FEF7F5FCDEE7000001404438024020
:1038B00000040240001000400004014000000240EB
:1038C00090F83D10012901D001207047022180F8B5
:1038D0003D1000681149884214D0B0F1804F11D0DA
:1038E0000F4988420ED00F4988420BD00E498842BA
:1038F00008D00E49884205D00D49884202D00D49B2
:10390000884204D1816801F00701062903D00168CB
:1039100041F00101016000207047000000000140FB
:103920000004004000080040000C0040000401407A
:10393000004001400018004090F83D10012901D0DE
:1039400001207047022180F83D100168CA6842F0EA
:103950000102CA6000681149884214D0B0F1804F5A
:1039600011D00F4988420ED00E4988420BD00E4923
:10397000884208D00D49884205D00D49884202D0BE
:103980000C49884204D1816801F00701062903D05F
:10399000016841F001010160002070470000014012
:1039A0000004004000080040000C004000040140FA
:1039B000004001400018004070B5044690F83C00FB
:1039C0000025012817D0012684F83C60022084F8E5
:1039D0003D002068826822F0770222F47F428260F4
:1039E0000868502838D00DDC20284FD005DC90B373
:1039F000102811D14AE0022070BD302846D040285E
:103A00000AD13BE060282FD070280DD0B0F5805F40
:103A100003D0B0F5005F12D0012584F83D6000208E
:103A200084F83C00284670BDCB68D1E901212068AC
:103A300002F080FA2068816841F0770109E0CB68E4
:103A4000D1E90121206802F075FA2068816841F40B
:103A500080418160E1E719E0CA684968206802F0A6
:103A60003DFB5021206806E0CA684968206802F0E2
:103A700087FB6021206802F067FACEE7CA684968D0
:103A8000206802F02BFB40212068F4E72268014601
:103A90001046F0E72DE9F0410D46040003D094F8FC
:103AA0003D0018B108E00120BDE8F081002084F855
:103AB0003C00204600F040F8022084F83D002068D9
:103AC000816844F2070291438160211D206802F061
:103AD000B3F9226890689169166A2B68AF6903434D
:103AE00040F20330814341EA0721A868EF690843A7
:103AF0004FF6FC418843E96840EA07200143286902
:103B00002F6A000140EA0730084369686D6926F0B2
:103B1000AA0646EA0515294393602268906154F885
:103B2000460B0162012004F81F09E0752076E0765B
:103B30002077A0750020B7E710B586B004461421A1
:103B40006846FCF7BAFB2068B0F1804F1FD11148DE
:103B50000021026842F001020260006800F00100EA
:103B600005900C481038026842F0010202600068BB
:103B700000F001000590032000900220CDE9010132
:103B800003900120049069460348FEF781FB06B0CC
:103B900010BD0000403802400000024070B590F8AF
:103BA0003E60044690F83F5090F8423090F8432031
:103BB000022021B104290ED0012E1BD114E0012EC8
:103BC00018D1012B16D184F83E0084F8420001225E
:103BD0000021206820E0012D0CD1012A0AD184F8AF
:103BE0003F0084F8430014E0012D03D1012B01D1E3
:103BF000012A01D0012070BD84F83E0084F83F0006
:103C000084F8420084F8430001220021206802F079
:103C100077F901220421206802F072F92068016816
:103C200041F001010160002070BD70472DE9F041B5
:103C3000054690F83C0000260C46012810D00120D3
:103C400085F83C0072B1042A1CD0082A2CD00C2A1A
:103C500050D00126002085F83C003046BDE8F081B8
:103C60000220FBE7D4E90012E368286802F048FA72
:103C70002868816921F00C01816128688169A26846
:103C800011430FE0D4E90012E368286802F08AFAD1
:103C90002868816921F44061816128688169A2688E
:103CA00041EA02218161D5E72868D4E9002C277B0D
:103CB000016A21F480710162C169036A21F0030184
:103CC00041EA0C0121F0F00C39074FF420674CEA6F
:103CD000116123F4206307EA02221A43C1610262E0
:103CE0002868C16921F00C01C1612868C169A26816
:103CF000114328E02868D4E90027E168036A23F427
:103D000080530362D0F81CC0036A2CF4407C4CEA58
:103D100007274FF6FF7C27F470470CEA013139433F
:103D20004FF4204723F4204307EA02321A43C161CB
:103D300002622868C16921F44061C1612868C169D3
:103D4000A26841EA0221C16184E710B5040003D0F2
:103D500094F83D0010B107E0012010BD002084F868
:103D60003C00204600F01EF8022084F83D00211D92
:103D7000206802F061F8012084F8460084F83E00D3
:103D800084F83F0084F8400084F8410084F8420041
:103D900084F8430084F8440084F8450084F83D002A
:103DA000002010BD10B586B0044614216846FCF70B
:103DB00084FA16492068884226D1154800210268F5
:103DC00042F002020260006800F002000590104814
:103DD0001038026842F004020260006800F004003B
:103DE0000590802000900220CDE90101CDE903106B
:103DF00069460848FEF74CFA002206211D20FEF70E
:103E0000B7FB1D20FEF7A6FB06B010BD0004004066
:103E1000403802400008024010B5044651B1042960
:103E20000DD0082910D094F8410094F845200128BD
:103E300011D10EE094F83E0094F84220F7E794F890
:103E40003F0094F84320F2E794F8400094F84420AF
:103E5000EDE7012A01D0012010BD022079B3042929
:103E600033D0082936D084F8410084F84500012277
:103E7000206802F045F81A492068884214D0B0F151
:103E8000804F11D0174988420ED0174988420BD075
:103E90001649884208D01649884205D015498842FB
:103EA00002D01549884204D1816801F00701062932
:103EB00003D0016841F001010160002010BDFFE75F
:103EC00084F83E0084F84200D1E784F83F0084F88B
:103ED0004300CCE784F8400084F84400C7E70000C2
:103EE000000001400004004000080040000C0040B9
:103EF00000040140004001400018004070B5044635
:103F0000006801694FF00005C943890715D4C168ED
:103F1000C943890711D4E91E016101202077206877
:103F200080698007204602D0FFF77FFE04E000F0A2
:103F3000FFF8204600F091F9257720680169C94310
:103F4000490717D4C168C943490713D46FF0040166
:103F50000161022020772068806910F4407F2046AC
:103F600002D0FFF762FE04E000F0E2F8204600F025
:103F700074F9257720680169C943090716D4C16817
:103F8000C943090712D46FF00801016104202077AA
:103F90002068C0698007204602D0FFF746FE04E093
:103FA00000F0C6F8204600F058F92577206801692E
:103FB000C943C90617D4C168C943C90613D46FF0F1
:103FC00010010161082020772068C06910F4407F4B
:103FD000204602D0FFF729FE04E000F0A9F82046B1
:103FE00000F03BF9257720680169C943C90708D16A
:103FF000C168C943C90704D1891E0161204600F088
:10400000CFF920680169C943090609D4C168C943C9
:10401000090605D46FF0800101612046FFF7AEFA72
:1040200020680169C943490609D4C168C9434906E2
:1040300005D46FF040010161204600F0E5FC2068E6
:104040000169C94389060BD4C168C943890607D4ED
:104050006FF0200101612046BDE87040FFF78FBA84
:1040600070BD0000F0B587B0044614216846FCF727
:1040700024F9294A2168002528480224284E914223
:1040800021D1016841F002010160016801F00201E3
:104090000591016841F0010101600068012700F00D
:1040A000010005904FF460408DE83100CDE90357E1
:1040B00069461C48FEF7ECF84FF4E0608DE83100EB
:1040C0006946304621E0184A914222D1016841F008
:1040D00001010160016801F001010591016841F0F1
:1040E000040101600068032700F0040005908020AF
:1040F0008DE83100CDE9035769463046FEF7C8F830
:1041000040208DE8310009486946CDE90357FEF7A4
:10411000BFF807B0F0BD0000000001403038024099
:104120000000024000040240000401400008024078
:10413000704770B5044690F83C0000260D460128F3
:104140000FD0012084F83C006AB1042A1DD0082A4F
:104150002FD00C2A3FD00126002084F83C003046A6
:1041600070BD022070BD206801F0F6FE20688169F4
:1041700041F0080181612068816921F004018161B9
:10418000206881692A69114311E0206801F014FF59
:104190002068816941F4006181612068816921F4AE
:1041A00080618161206881692A6941EA0221816117
:1041B000D2E7206801F036FF2068C16941F00801AC
:1041C000C1612068C16921F00401C1612068C16931
:1041D0002A69114311E0206801F058FF2068C16985
:1041E00041F40061C1612068C16921F48061C1614D
:1041F0002068C1692A6941EA0221C161ACE710B5B2
:10420000040003D094F83D0010B107E0012010BD78
:10421000002084F83C00204600F01EF8022084F8BC
:104220003D00211D206801F007FE012084F84600B2
:1042300084F83E0084F83F0084F8400084F8410090
:1042400084F8420084F8430084F8440084F8450070
:1042500084F83D00002010BD7047704710B504463B
:10426000022249B104290ED0082913D094F8410044
:10427000012816D0012010BD94F83E000128F9D184
:1042800084F83E200FE094F83F000128F2D184F832
:104290003F2008E094F840000128EBD184F840204A
:1042A00001E084F841200122206801F029FE16492E
:1042B0002068164A884201D0904203D1436C43F4EF
:1042C000004343642068884213D0B0F1804F10D07F
:1042D0000F4988420DD00F4988420AD00E498842C2
:1042E00007D0904205D00D49884202D00C4988423F
:1042F00004D1816801F00701062903D0016841F06B
:1043000001010160002010BD0000014000040140D7
:104310000004004000080040000C00400040014044
:104320000018004030B504460D460068002201F038
:10433000E7FD194B41F2111120688A10984202D012
:10434000164B984209D1036A0B4206D1036A134205
:1043500003D1436C23F4004343642068036A0B4297
:1043600006D1016A114203D1016821F00101016007
:1043700001203DB1042D08D0082D09D084F841005A
:10438000002030BD84F83E00FAE784F83F00F7E7EC
:1043900084F84000F4E70000000001400004014000
:1043A0002DE9F05FFB492DED068B0068884267D14F
:1043B000F94CB1EE00AAA0799FEDF80ADFF8E0A36E
:1043C000DFF8E0B3DFEDF89A9FEDF89AF84EF94D7B
:1043D00004F180084FF000099FEDF78AF74F00289D
:1043E0007DD0207938B100BFB0EE480A87ED040ACD
:1043F00087ED03AAF1E2A07BDFEDF11A9FEDF11A40
:10440000EB490328D1ED010A41D1607BB8B3E07AD2
:10441000A8B3226DD8F804104046511AC8F80420F9
:1044200002D080ED028A05E090ED022A32EE000A09
:1044300080ED020AA28AD4ED112A00EE102AB8EE0D
:10444000400A20EE0A2A81EE020A02EE101AB8EEA5
:10445000C22A42EE002A02EE101AB8EEC22AC4EDB9
:10446000112A22EE000A84ED130AA16C491CA164F2
:10447000D8F80800504504DB84ED068A55E006E0D4
:1044800098E0C4ED061A49E0C4ED060A4DE07078E4
:10449000022802D085ED038AEEE796ED020A85ED4B
:1044A000030A9FEDC92A20EE022A84ED132A94ED17
:1044B000112AD4ED132A32EE222A84ED112AA06C9F
:1044C000401CA0649BF80000B0B1C048B0F90000E7
:1044D00000EE100AB8EEC00A20EE290A00E06DE0F6
:1044E00084ED060A94ED060AB5EEC00AF1EE10FA64
:1044F00014D284ED068A11E0B0EEC00A10EE100A64
:1045000020EE092AB0F17E5F84ED062A06DD94EDE7
:10451000060AAF4910EE100A8842B2DB94ED060A93
:10452000F4EEC00AF1EE10FAAED384ED078A4FF034
:10453000894105E094ED110A30EE410A84ED110A3B
:1045400094ED110A10EE100A8842F3DA06E000BF7B
:1045500094ED110A30EE010A84ED110A94ED110A6E
:10456000B5EEC00AF1EE10FAF2D394ED060A9948BE
:1045700087ED040A94ED070A87ED030A94ED060A15
:10458000B0EEC00A10EE101A81420BDA94ED070A61
:10459000B0EEC00A10EE101A814203DAFCF786FE74
:1045A000484606E094ED110A844804F0F9F897F8BB
:1045B0003800E071BDEC068BBDE8F09F8649874866
:1045C000FCF71AFE85497D4801F0BCFB834991ED5B
:1045D000090A85ED040A2078401C207020780A28FA
:1045E0007DD3484684F80090A27BDFED7D8A032AC4
:1045F0007FD1627BEAB3E27ADAB394ED180AD4EDA4
:10460000160A70EE200A91ED060AC4ED1E0A30EE7D
:10461000C00A84ED1F0A226D616E6266511AA26E95
:104620000A44A26694ED1B0A30EE280A84ED1B0AA8
:1046300002D084ED1C8A05E0D4ED1C0A70EEA80AB5
:10464000C4ED1C0A10EE101A664B99421FDB00EEF7
:10465000902A616DB8EEE01A00EE901AF8EE601A3A
:10466000C1EE210A80EE801A9FED5F0A61EE000A1A
:1046700000E03EE094ED1D0A70EEC00A9FED5B1A6B
:1046800000EE810A84ED1D0AA06684ED1B8A226F6C
:10469000022152450ADB84ED1D8AA06684ED1B8A47
:1046A0007170B0EE480A86ED028A1FE094ED1D0A93
:1046B0004F4A10EE100A904202DD9FED4E0A06E0CE
:1046C00010EE100A4C4A904201D99FED4C0A7170CD
:1046D00094F90500B0EEC01A00EE900A00E030E058
:1046E000F8EEE00A61EE200AC6ED020A88ED000A43
:1046F00039E084ED1F8A88ED008AA066804684ED4B
:104700001B8A84ED1D8AF0EE680A34493C4800F0AB
:1047100031FFA07B03280DD0394800F099FD48B146
:1047200086F8018086ED028A85ED038A214801F032
:1047300069FA02E07078022815D084ED068A84EDCB
:10474000078A207900287FF44FAE2E4800784FF476
:104750008063E8B12C48B0F9000094F905100029F5
:104760007EDA4042E4E095ED030AD6ED020AB4EEAB
:10477000E00AF1EE10FA49DD96ED031A01EE680A3F
:1047800085ED030AB4EEE00AF1EE10FA4AD34BE0ED
:10479000D8E00000001000400000002017B751389A
:1047A0000AD7A33D090100200AD7233C96430B3CBE
:1047B000143A0020F039002000000000B831002039
:1047C0009A99993E000080443EC32E3D0E01002080
:1047D0009A99993E6F12833A00140020101300201A
:1047E0006E12033A8FC2F53C00007042CDCC4C3EB5
:1047F0000000964400009644000096C4000096C451
:1048000068390020080100200C0100200CD296ED30
:10481000031A01EE280A85ED030AB4EEE00AF1EE70
:1048200010FA01DDC5ED030A9BF8000030B36E48B5
:10483000B0F9000000EE100AB8EEC00A20EE290A16
:1048400084ED060A96ED010AD4ED060AB4EEE00AFC
:10485000F1EE10FA02D200BF84ED060A634800E0D0
:1048600067E0B0F9000000EE100AB8EEC00ADFED14
:10487000600A20EE200A84ED070A62E795ED030A3C
:10488000D5ED040AB5EEC00A70EE608AF1EE10FABA
:1048900002DBF7EE00AA01E0FFEE00AAB0EEC00ACC
:1048A000544860EE099A95ED059AB0EE680A01F059
:1048B000B3F94AEE809AD6ED010AB0EE690AF4EE39
:1048C000C00AF1EE10FA09D2B0EE600A6AEEA80A48
:1048D000F5EEC00AF1EE10FA0EDC0FE0B5EEC00AFC
:1048E000F1EE10FA0AD26AEEA80AB0EE480AF5EE26
:1048F000C00AF1EE10FA01D285ED059AD4ED060A50
:104900009FED3D1A70EE601AF4EEC11AF1EE10FA46
:1049100002DD30EE810A9FE79FED382AF4EEC21ADD
:10492000F1EE10FA98D230EEC10A95E700F58060FA
:1049300000B20028FADB02E0A0F5806000B29842E5
:10494000FADA30E095ED030AC8202D4DB0EEC00A2A
:10495000002100BF01EB410205EB8202D2ED000A0B
:10496000F4EEC00AF1EE10FA09D8D2ED010AF4EE25
:10497000C00AF1EE10FA02DDB2F9080002E0491CAB
:104980000F29E7D394F90510002904DA404201E029
:1049900000F5806000B20028FADB02E0A0F580603C
:1049A00000B29842FADA788494F90500D4ED060A48
:1049B00000EE100AB8EEC00A20EE800A87ED040A65
:1049C00094ED070A87ED030AF88B798C0844C0F34D
:1049D000090000EE100AB8EE400ABDEC068BBDE8F7
:1049E000F05F084803F0DCBE0E010020100100203B
:1049F0000AD723BCF0390020CCCCCC3DCCCCCCBDEC
:104A000090980008B831002070470000002101484C
:104A100003F080BFB81300200421014803F07ABFDF
:104A2000B81300200821014803F074BFB813002018
:104A30000021014803F06EBFD8140020FEE70000FB
:104A4000F0B500230A24302537261F4611E000BFA9
:104A5000B4EB107F02D905EB107C01E006EB107C73
:104A600001F813C001EB430C00015B1C8CF80170D2
:104A7000DBB29342ECD3F0BD10B5064C01221021FD
:104A80002046FDF702FD20460022BDE8104020210F
:104A9000FDF7FBBC001002402DE9F047234C0E4609
:104AA00007004FF4967940F2DC584FF0000515D01E
:104AB000DFF87CA0012220215046FDF7E6FCA0781B
:104AC00090B1012210215046FDF7DFFC6068311AD9
:104AD000414521D3A570257065701CE0FFF7CCFF20
:104AE00025706570A57016E06068301A484513D3CC
:104AF000666060784FF0010880B1012210215046B5
:104B0000FDF7C3FC65702078401CC0B22070B8422D
:104B100002D384F802806660BDE8F087002210218D
:104B20005046FDF7B2FC84F80180F5E7CC11002077
:104B300000100240FFF7A0BF70B5304D01282DEDE9
:104B4000028B0DD02F4C9FED2E8A0228A17912D016
:104B5000032822D000269FED2C8A04284AD132E077
:104B6000022068709FED290A00F07EFE85ED020AA2
:104B7000BDEC028B70BD0029FAD1B3EE040A00F03F
:104B800073FEF0EE480ABDEC028B9FED211ABDE8E2
:104B900070402049204800F097BB0029E8D1B3EECF
:104BA000040A00F061FEB0EE481ABDEC028BF0EE94
:104BB000080ADFED1A1ABDE87040B0EE612A154907
:104BC000154800F04FBB0029D2D101206070A670BB
:104BD000FDF760FC20624FF47A70606284ED0A8A0F
:104BE00084ED0B8A84ED0C8A84ED0D8A09490C480A
:104BF000FCF7EAFB6E7085ED028AB9E7143A0020F3
:104C000000007A4400000020000000000000204264
:104C100000409C451013002068390020CDCC4C3E4C
:104C2000283A002070B58CB00024089409940A94A6
:104C3000202168460B94FBF740FB254801252349BA
:104C400005614FF480368460C0E90016047680F870
:104C500020402049C0E90A14C561C46080F8304092
:104C60004461FCF7F3FD08B1FCF71EFB0820CDE919
:104C7000080504200A9008A91548FCF7A5FC08B10E
:104C8000FCF712FB0E20CDE900050225032002905F
:104C9000E804CDE906608DF8154004958DF81440C0
:104CA00069460B480394FCF7AFFB08B1FCF7FCFA2C
:104CB0000F20CDE9000569460548FCF7A5FB002853
:104CC00001D0FCF7F1FA0CB070BD000000200140EB
:104CD000481300200100000F104810B50E49016074
:104CE0000621416000214FF420228160C0E90312B7
:104CF0004FF4801242610176012242768176C276BB
:104D000001774177FDF781F9002803D0BDE8104015
:104D1000FCF7CABA10BD00000064004090130020E8
:104D20002DE9F04186B014216846FBF7C6FA4348E6
:104D30000024016841F010010160016801F01001D8
:104D40000591016841F080010160016801F0800176
:104D50000591016841F001010160016801F0010164
:104D60000591016841F004010160016801F004014E
:104D70000591016841F002010160016801F0020142
:104D80000591016841F00801016000682C4F00F0B6
:104D900008000590012230213846FDF776FBDFF848
:104DA000A48001220F214046FDF76FFB0F26CDE9BD
:104DB0000064694638460294FDF76AFA01253020FE
:104DC000CDE90005CDE9025469463846FDF760FAA1
:104DD000082000904FF48810CDE9010469461A4874
:104DE000FDF756FA4FF680708DE831006946384677
:104DF000FDF74EFAE8028DE8310069461348FDF7E9
:104E000047FA4FF44070CDE9000469461048029417
:104E1000FDF73EFA0096CDE90154694640460394F9
:104E2000FDF736FA002206210920FDF7A1FB092033
:104E3000FDF790FB06B0BDE8F0810000303802407D
:104E400000100240000C024000000240000402403A
:104E50000008024070B596B000240F94109411948D
:104E6000129413941C2168461494FBF726FA20210F
:104E700007A8FBF722FA3948374901605321C0E9F6
:104E800001146321C0E9031444618461FEF77EFCD0
:104E900008B1FCF709FA4FF480550FA92F480F9578
:104EA000FEF78AFD08B1FCF7FFF92C48FFF7A7F9D8
:104EB00008B1FCF7F9F97026CDE9136413A9274866
:104EC000FEF788FB08B1FCF7EFF960200090312075
:104ED000CDE901040820CDE903044001CDE9050432
:104EE000002269461D48FFF724F908B1FCF7DCF9F8
:104EF000042269461948FFF71CF908B1FCF7D4F9F8
:104F0000082269461548FFF714F908B1FCF7CCF9F7
:104F100032200594CDE900600C2269460F48FFF766
:104F200008F908B1FCF7C0F94FF400600790401091
:104F3000CDE9080400010E90CDE90A4507A90C94BB
:104F40000648FEF71DFB08B1FCF7AEF90348FFF772
:104F500089F816B070BD000000000140B8130020B1
:104F600010B58CB024216846FBF7A7F9002415483A
:104F700009944FF080410A94C0E90014611EC0E911
:104F80000241046184610320CDE900040120CDE9E0
:104F9000020406210491CDE90540CDE907416946A7
:104FA0000848FEF777FD08B1FCF77EF9099409A9D6
:104FB00004480A94FEF70EFB002801D0FCF774F9B0
:104FC0000CB010BD0014002010B586B000241848A5
:104FD0000594049400940194029414490394C0E944
:104FE00000144FF6FF71C0E9024104618461FEF7CD
:104FF000ACFE08B1FCF758F9049404A90C480594D8
:10500000FEF7E8FA08B1FCF74FF90120CDE90040BE
:1050100002940422694606480394FEF707FE00281E
:1050200001D0FCF741F906B010BD000000040040BB
:10503000481400201CB500240E4800940C4901942B
:1050400001605321C0E9011431218461C160FEF780
:105050009DFB08B1FCF728F90094694605480194C6
:10506000FEF7B8FA002801D0FCF71EF91CBD0000BD
:10507000001000409014002030B595B000240F942B
:1050800010941194129413941C2108A81494FBF703
:1050900014F920216846FBF710F9294827490160D7
:1050A0005321C0E901146321C0E903144461846100
:1050B000FEF76CFB08B1FCF7F7F84FF480550FA929
:1050C0001F480F95FEF778FC08B1FCF7EDF81C4877
:1050D000FFF795F808B1FCF7E7F8139413A91848FF
:1050E0001494FEF777FA08B1FCF7DEF86020CDE9FA
:1050F00008040820CDE90A404001CDE90C40002217
:1051000008A90F480E94FFF714F808B1FCF7CCF883
:105110004FF4006000904010CDE90104CDE9034553
:105120000594694606480794FEF72AFA08B1FCF789
:10513000BBF80348FEF796FF15B030BD00040140F0
:10514000D814002010B500220F49104801F05DFC72
:1051500008B1FCF7A9F80E490C4801F06BFE08B144
:10516000FCF7A2F80B49094801F0FEF908B1FCF779
:105170009BF8064801F0E2FE002803D0BDE810408D
:10518000FCF792B810BD0000B800002020150020E8
:105190009401002018010020FEE7002805D000211E
:1051A00081700421417004F0DFB97047002843D0BA
:1051B0000021017041708170C17001210171417144
:1051C0000022C0E90222C0E90422C0E90622C0E9A7
:1051D0000822DFED1A0AB5EE000AC0ED0A0AC0ED9A
:1051E0000B0AC0ED0C0AC0ED0D0AC0ED0E0AC0EDB1
:1051F0000F0AC0ED100AC0ED110AC0ED120AC0ED91
:10520000130AC0ED140AC0ED150A80ED160A80EDF0
:10521000170AC0ED180AC0E91A221422C0E91C219D
:105220009FED070A80ED1E0A9FED060A80ED1F0A1A
:10523000B0EE080A80ED200A704700000000000070
:105240000000484400002042002800D080787047C9
:10525000002803D04078032801D0002070470120A7
:105260007047000070B50C462DED048BB0EE428AFD
:10527000F0EE618AB0EE419AF0EE609A05001CD023
:10528000DCB1DFED100A20EE200A10EE100AFBF769
:10529000E2F8D4E904238218F0EE481AB0EE681A56
:1052A000F0EE490AB0EE690ABDEC048B4B41214691
:1052B0002846BDE8704000F031B8BDEC048B6FF0BB
:1052C000010070BD00007A4570B50C462DED028BD3
:1052D000B0EE418AF0EE608A050018D0BCB1DFED77
:1052E0000E0A20EE200A10EE100AFBF7B4F8D4E9FB
:1052F00004238218F0EE480AB0EE680A4B41BDEC78
:10530000028B21462846BDE8704000F0AFB8BDECE6
:10531000028B6FF0010070BD00007A452DE9F0416D
:1053200015462DED048BF0EE618AB0EE419AF0EE59
:10533000609AB0EE408A98460E4604006FF001076E
:105340006BD0E6B3A07820B17810BDEC048BBDE83B
:10535000F081B5EEC08AF1EE10FA5ED9F5EEC09A92
:10536000F1EE10FA59D9B5EEC09AF1EE10FA54D90F
:10537000F5EEC08AF1EE10FA4FD939EE280A10EE98
:10538000100AB0F17E5F48DAD6E90412694088EA73
:105390000200014341D02046FFF708FF02202070A1
:1053A00084ED0B8AC4ED0C9A84ED169AC4ED178A2D
:1053B0002A4643463146204604F08AF800E02CE0B5
:1053C00094ED0A0A03F0FEFFB0EE402A29EE080A27
:1053D00068EE881A234810EE101A78EE400A8142CF
:1053E00030EEE11A16DD11EE901A814212DDB5EEB3
:1053F000C01AF1EE10FA0DD3F6EE000AF0EE412AD3
:1054000040EE202A41EEA02A62EE800A10EE901AA9
:10541000814204DC204604F04DF8384695E7C2EEA0
:10542000201A9FED112A61EE800A61EE821A60EE69
:10543000820AC4ED0F1AC4ED0E0A84ED100A30EE94
:10544000010AF4EEE90AF1EE10FA84ED110A84ED96
:10545000128A05DD204604F02DF86FF0020074E793
:10546000002072E7BD378635000070422DE9F0411B
:1054700004002DED068BB0EE608AB0EE409A154622
:105480001E460F466FF0010004D0002F02D0A17815
:1054900021B14010BDEC068BBDE8F081B5EEC09A9D
:1054A000F1EE10FAF6D9B5EEC08AF1EE10FAF1D9A4
:1054B000D7E90412694072401143EBD02046FFF750
:1054C00075FE012020709FED290A2A4684ED0B0A03
:1054D00084ED0C9A84ED0D8A33463946204603F05C
:1054E000F7FF94ED0A0A03F06DFF9FED21AAF6EE97
:1054F000001AF0EE009A89EE0A1AC8EE0A8AC1EE86
:10550000280A68EEA11A61EEA01A61EEA01A21EE37
:10551000A92AB4EEC02AF1EE10FA10D201EEE90A7F
:1055200084ED0E9A84ED0F8AC4ED100AC0EE011AC4
:1055300030EEA10A84ED110A30EE200A11E020EECF
:10554000280A03F0C1F8C0EE280A20EE0A0A84ED0A
:105550000E0A84ED0F8AC4ED100A20EEA90AC4EDEC
:10556000110A002084ED120A94E7000000000000F8
:10557000000070422DE9D04F04002DED028BB0EEFB
:10558000608A72D0002970D0A07800286DD0B5EE66
:10559000C08AF1EE10FA01D89FED748AD4E904278D
:1055A000D1E90401B2EB000967EB0107C4E91A97DE
:1055B00048463946FAF739FF00EE900A9FED6C1A1B
:1055C00080EE810A84ED180A94F905C0BCF1000F41
:1055D00007DD4FF00002B2EB090072EB07014DDA74
:1055E00002E001DA002F49DA94F80480DFF884A1A0
:1055F0004FF0020BB8F1000F02D06078012803D001
:105600006078022810D040E0206F4A46C117002F72
:1056100001DB3B4603E00023524263EB0703801AA1
:10562000994132DB84F801B0D4ED1E0A60EE800AA5
:1056300094ED1F0AB1EE401AF4EEC10AF1EE10FA31
:1056400002D2B0EE410A06E0F4EEC00AF1EE10FA22
:1056500001DCB0EE600A84ED150A8AED020A606F83
:10566000C117002F02DB4E4605E02CE00022D9F1E5
:10567000000662EB0707801BB94124DBBDEC028BFF
:105680002046BDE8D04F03F00FBF94ED130A30EE73
:10569000080A9FED398A84ED130AD4ED120AB4EE9C
:1056A000E00AF1EE10FA18DBC4ED130A94ED0A0AD1
:1056B000012084ED140A84ED158AE070B8F1000F22
:1056C00005D084F801B0BDEC028BBDE8D08F2B482B
:1056D0008AED028A80ED038AD0E7B5EEC00AF1EECA
:1056E00010FA39D9D4ED101AB0EE401AF4EEC11AFE
:1056F000F1EE10FA06DD94ED0F1AF0EE400A61EEBD
:10570000200A23E094ED111AF0EE401AB4EEE11AEB
:10571000F1EE10FA02DDD4ED0E0A17E0F0EE401AB9
:10572000F4EEE10AF1EE10FA0EDDF0EE401AD4EDDF
:105730000E0A31EEC11A94ED0F2A42EE410AF5EE3F
:10574000C00AF1EE10FA01D2F0EE480A01EE10CADA
:10575000B8EEC11A21EE208A204603F03BFE84ED0C
:10576000158A84ED140A8AED028AACE76F12033AB7
:1057700000007A45143A002000000000F0390020B3
:1057800070B5154C2179002924D0216C401AB0F550
:10579000FA6F1FD311491248FBF770FD10491148E9
:1057A000FBF712FE00F076FA00252571E5709FEDFB
:1057B0000E0A0E4884ED060A84ED070A80ED040AFD
:1057C00080ED030A0A4800F01DFA6582BDE87040CA
:1057D000FFF752B970BD0000000000200014002047
:1057E00010130020283A002000000000B8310020EB
:1057F000F039002070B51A4C051E4FF0010601D09B
:10580000A87801E04FF00000A0714FF0010005D032
:10581000287800F0070006FA00F080B2A082C821C4
:1058200048436065606DFBF797FB206D00EE100A42
:10583000606DF8EEC00A00EE100A0A490020B8EECA
:10584000400A80EE801A84ED161A15B16A78012A92
:1058500003D0FF226271488470BD6671FBE70000CF
:1058600000000020B8310020044890F9050000EE47
:10587000900AF8EEE00A20EE200A704700000020AF
:1058800070B5134A148BACB14FF47A63A0FB036577
:1058900001FB0351002200FB02154FF00003002D15
:1058A0004FF002022046194607DBFAF7BCFC8019CC
:1058B000694107E00020014670BDFAF7B4FC301AD8
:1058C00065EB010122460023FAF7ADFC70BD000034
:1058D000AC3B002009490A4AC86B904201D9042018
:1058E0007047084A904201DD03207047886B0649E3
:1058F000884201DD02207047002070470000002030
:105900000000C8C20000C8420000A0420448C0789D
:10591000052802D06FF0130070476FF01D0070472C
:105920000000002010B54FF480510648FCF7A8FD98
:1059300030B140210448FCF7A3FD08B1002010BDA0
:10594000012010BD000402400000024010B50F48C5
:105950002DED028BFFF721FC0D4C00206070A07034
:1059600020710C4960739FED0C8A48700B4881EDE3
:10597000028A80ED038A00F045F984ED068A84ED01
:10598000078A84ED118ABDEC028B10BD68390020B6
:1059900000000020143A002000000000F039002030
:1059A00070B506461748A0F18004C168711A142921
:1059B00002D2E078D8B970BDC66002F077FF84EDFE
:1059C0000E0A02F02FFF84ED0F0AFFF783FF050098
:1059D00009D0E07808B1207920B100F015F86FF017
:1059E00013006082E570E07808B9207928B1E0788A
:1059F0003146BDE87040FFF74FB8BDE87040FFF793
:105A00003BB800008000002070B510482DED028BDF
:105A1000FFF7C3FB0E4C00256570A57025710D487E
:105A20006573A5739FED0C8A457080ED028A0B4863
:105A300080ED038A00F0E6F884ED068A84ED078A9B
:105A400084ED118A2572BDEC028B70BD683900208F
:105A500000000020143A002000000000F03900206F
:105A6000FEE700000148FCF711BF0000AC2C00204D
:105A70002DE9F04103680D4604461E6C03EB451109
:105A8000D1F8080BD4F810E04FF400474FF0200C89
:105A900004F2C442BEF1010F09D0DFF898E0764568
:105AA00039D1020432D500BFC1F8087B3FE0224B58
:105AB0005FEA007E04D59E4239D90004F4D436E072
:105AC0005FEA806E02D5C1F808CB30E010F0280FF5
:105AD0002DD19E4201D90004E6D405EBC50004EBAC
