:020000040800F2
:10000000B82A0020A1010008234500082540000867
:1000100021450008250C0008096D000800000000BB
:100020000000000000000000000000008D4C0008EF
:100030009D0E00080000000069470008AD4D000853
:10004000BB010008BB010008BB010008BB010008A0
:10005000BB010008BB010008BB010008BB01000890
:10006000BB0100089F0E0008BB010008BB0100088F
:10007000BB010008BB010008BB010008BB01000870
:10008000BB010008BB010008F10A0008BB01000821
:10009000BB010008BB010008BB010008BB01000850
:1000A000BB010008BB010008BB010008BB01000840
:1000B000BB010008BB010008BB010008BB01000830
:1000C000BB010008BB010008BB010008BB01000820
:1000D000BB010008BB010008BB010008BB01000810
:1000E000BB010008BB010008BB010008BB01000800
:1000F000BB010008BB010008BB010008BB010008F0
:10010000BB010008BB010008BB010008BB010008DF
:10011000BB010008BB010008594E0008BB010008E4
:10012000BB010008BB010008BB010008BB010008BF
:10013000BB010008BB010008BB010008BB010008AF
:10014000BB010008BB010008BB01000825450008F1
:10015000BB010008BB010008BB010008BB0100088F
:10016000BB010008BB010008BB010008BB0100087F
:10017000BB010008BB010008BB0100080000000033
:10018000BB010008BB010008DFF810D000F01EFA28
:1001900000480047317A0008AFF30080B82A0020F9
:1001A0000648804706480047FEE7FEE7FEE7FEE711
:1001B000FEE7FEE7FEE7FEE7FEE7FEE7494E000842
:1001C000890100082DE9F05F0546002092469B4614
:1001D00088460646814640241BE02846414647465D
:1001E000224600F07CF853465A46C01A914110D37B
:1001F00011461846224600F063F82D1A67EB0108F5
:100200004F4622460120002100F05AF817EB000962
:100210004E41201EA4F10104DFDC484631462A4647
:100220004346BDE8F09F40EA01039B0703D009E085
:1002300008C9121F08C0042AFAD203E011F8013BD2
:1002400000F8013B521EF9D27047D2B201E000F82B
:10025000012B491EFBD270470022F6E710B513466A
:100260000A4604461946FFF7F0FF204610BD30B598
:1002700004460020034600E05B1C934203D2E05C8E
:10028000CD5C401BF8D030BD01F0004330B421F00C
:10029000004150EA010206D00A0DA2F56072C1F3D6
:1002A0001301002A02DC30BC00207047440F44EAEE
:1002B000C104C100E01830BC00EBC25000F06EB8C1
:1002C000202A04DB203A00FA02F100207047914016
:1002D000C2F1200320FA03F3194390407047202A0B
:1002E00004DB203A21FA02F00021704721FA02F3E0
:1002F000D040C2F1200291400843194670470000E7
:100300000FB4002300B589B00CA900910B996FF0D0
:100310000042CB601E4B06931E4B07930423CDE98E
:1003200001321D4A089202466B46002000F0FAF99D
:1003300009B05DF814FB70B586B006464FF0FF308B
:100340000091CDE90101002015460C46049032468B
:10035000694604A8FFF7D4FF02460498211825B186
:1003600008B1084600E020462860049800280DD017
:10037000002A02DD0098884208D0081B0094CDE9CD
:1003800001043246694604A8FFF7BAFF06B070BD03
:100390005D0900087B090008F10500080029A8BFD5
:1003A0007047401C490008BF20F00100704710B49E
:1003B000B0FA80FC00FA0CF050EA010404BF10BC53
:1003C000704749B1CCF1200421FA04F411FA0CF180
:1003D00018BF012121430843A3EB0C01CB1D4FEAB9
:1003E00000614FEA102042BF002010BC704700EBB4
:1003F000C35010440029A4BF10BC7047401C4900E2
:1004000008BF20F0010010BC70472DE9FE4F81EAC3
:10041000030404F0004421F0004100944FF0000B6D
:1004200023F0004350EA01045ED052EA03045BD09B
:10043000C3F30A54C1F30A552C44A4F2F3340194D3
:10044000A0FB0254C1F3130141F48011C3F3130361
:1004500043F4801301FB024400FB034E840A970A15
:1004600044EA815447EA8357A4FB076802958D0A42
:1004700005FB07854FEA932C04FB0C542705029DCE
:100480004FEA065847EA1637B5EB08056EEB070C3E
:10049000870E920E47EA811742EA8312A7FB0201F8
:1004A000B6EB0B0164EB00042B0D43EA0C335E1832
:1004B00044EB1C50DA465146E7FB0201C5F3130436
:1004C0004FEA0B3343EA14534FEA0432019C43EAE8
:1004D0000603A4F10C040294009CCDE900B400F0E2
:1004E0006CFA03B0BDE8F08F00200146F9E72DE972
:1004F000F04D81EA030404F0004B21F0004514465E
:100500004FF0000A23F0004150EA050220D054EADF
:1005100001021DD0C5F30A570246C5F31303C1F308
:100520001300C1F30A5640F4801543F48013A7EB7F
:100530000608101BD64608F2FD3873EB050002D3FF
:1005400008F1010801E092185B41B8F1000F03DAED
:1005500000200146BDE8F08D00204FF480110646D2
:1005600084460EE0171B73EB050705D3121B63EBE4
:10057000050306434CEA010C49084FEA3000921883
:100580005B4150EA0107EDD152EA030012D082EA42
:10059000040083EA0501084305D0101BAB4106D2D5
:1005A0000122002306E000224FF0004302E06FF03A
:1005B000010253101AEB06004CEB085110EB0A0035
:1005C00041EB0B01BDE8F04D00F0E8B9064C074DDA
:1005D00006E0E06840F0010394E807009847103413
:1005E000AC42F6D3FFF7D4FDD0820008F0820008B9
:1005F000C0B24FF4F05100F02FBA00002DE9FF4FC8
:10060000087883B09946FF2805D0491C2D2804D0CE
:100610000024002008E000200BE00124F9E700EBB3
:10062000800003EB4000491C0B78FF2BF7D104B18D
:10063000404200230293147819461D462D2C01D008
:100640002B2C04D1521C2D2C13D000240294AA462A
:100650001478FF2C0FD00A25A3FB057801FB058138
:100660004FF0000C03FB0C11521CE3194AEB010183
:10067000EEE70124EAE7814453EA010002D019F5CC
:10068000C87F06DA03980021C0E9001107B0BDE871
:10069000F08F0025AE4E2F46DFF8B882184600F0E6
:1006A000EFF9CDE90001B9F1000002DAC9F1000467
:1006B00000E004460023A74A1AEB030B42EB045A5E
:1006C00012E0E00707D02A46334638464146FFF796
:1006D0009CFE074688462A46334610461946FFF7D1
:1006E00094FE05460E466410002CEAD1DDE90001B7
:1006F000B9F1000F5A46534606DAFFF7F8FE3A46BC
:100700004346FFF7F4FE05E0FFF77FFE3A46434617
:10071000FFF77BFE029A0AB181F00041039AC2E919
:100720000001B3E72DE9FF4F1F468DB0D7E9014621
:100730004FF0FF382E2045464FF000090B90B96965
:100740006D1C0E988847396A824688470028F6D182
:10075000BAF1FF3F0AD024F4D064002E11DDBAF1C3
:100760002B0F08D0BAF12D0F0BD102E0404611B08B
:100770008DE744F48064B9696D1C0E988847824601
:10078000761E6946600501D52D2000E02B208DF8EE
:10079000000001F1010B0DF1200809E0B9696D1CA1
:1007A0000E98884782460F9844F40074761E0560C0
:1007B000002E02DDBAF1300FF0D00B998A453ED100
:1007C00044F0800406E00F99681CA9F1010944F483
:1007D00000740860B9696D1C761E0E9888478246C1
:1007E0003028F0D02BE00B998A4505D1200603D4A0
:1007F00044F08004761E18E0504606F00FFE08B361
:100800000DF11301761E44F400748B4508D2AAF151
:1008100030000BF8010B200607D5A9F1010003E019
:10082000200602D409F101008146A00502D50F99E6
:10083000681C0860B9696D1C0E9888478246002EB6
:10084000D1DC53E0002E51DDBAF1650F02D0BAF1D0
:10085000450F4BD1A00549D5B9696D1C24F44074EE
:10086000761E0E9888478246002E0CDD2B2804D079
:10087000BAF12D0F07D144F48074B9696D1C0E983C
:1008800088478246761EE00501D52D2100E02B2108
:1008900008F8011BCDF82C8021E00DF12901761E0E
:1008A00044F4007488450CD2AAF1300010F0FF0027
:1008B00088F8000002D10B99884509D908F1010890
:1008C00006E0E00501D5244801E042F20F708146C0
:1008D000B9696D1C0E98884782460F980560002EF6
:1008E00004DD504606F09AFD0028D6D1F9690E982D
:1008F0008847FF208BF8000088F800000020069051
:1009000007904B466A4608A906A8FFF777FEA005A0
:1009100002D46FF001002AE714F0240F0AD0E00798
:1009200014D1DDE906123868031D3B600068C0E998
:1009300000120BE0DDE90601FFF7A6FC0146E00727
:1009400004D13868021D3A600068016028460EE74D
:10095000000014400000F03FF1D8FFFF426842B1B0
:10096000016811F8013B23B1521EC0E9001218467C
:1009700070470121C160881E704742685AB1C36840
:10098000016843B983688B4205D0491E521CC0E9F7
:100990000012002070474FF0FF30704710B5141E52
:1009A00073F1000408DA401C41F1000192185B4128
:1009B0001A4301D120F0010010BD2DE9F04D9246FF
:1009C0009B4611B1B1FA81F202E0B0FA80F2203216
:1009D0009046FFF775FC04460F4640EA0A0041EADC
:1009E0000B0153465A46084313D0114653EA0100FF
:1009F00019D0C8F140025046FFF771FC05460E467B
:100A0000504659464246FFF75BFC084305D001209B
:100A100004E020463946BDE8F08D0020054346EA53
:100A2000E0762C4337430A986305E40AA0EB0800FC
:100A30000022FD0A44EA47540A3002D5002001464C
:100A4000E9E7010510196941DDE908450019694127
:100A5000BDE8F04DA2E700007F2801D9002208E0A0
:100A6000064A02EB5002C007127800D1120902F0C8
:100A70000F0201209040084070470000908200085B
:100A80000EB540F2334202920022CDE90022134615
:100A9000FFF793FF03B000BD70B58C1810F8015B31
:100AA00015F0070301D110F8013B2A1106D110F807
:100AB000012B03E010F8016B01F8016B5B1EF9D10B
:100AC0002B0705D40023521E0DD401F8013BFAE791
:100AD00010F8013BCB1A921C03E013F8015B01F8FC
:100AE000015B521EF9D5A142D8D3002070BD000091
:100AF000014800F06CBF000074010020464910B5A9
:100B00004A6822F440324A604A6843681A434A609D
:100B100001684A6822F480724A6001684A68036981
:100B200042EA03224A6001684A6822F040724A6041
:100B300001684A6883681A434A6001688A6822F437
:100B400000628A6001688A68C3681A438A60816AA1
:100B50006FF07062D14201688A6822F070628A6028
:100B600001688A680CD0836A1A438A6001688A68BF
:100B700022F040528A6001688A68C36A1A4301E021
:100B800022F040528A6001688A6822F002028A607C
:100B900001688A68037E42EA43028A6090F8201066
:100BA000002901684A680FD042F400624A60016877
:100BB0004A6822F460424A6001684A68174C436AF6
:100BC00004EB43331A4301E022F400624A600168F7
:100BD000CA6A22F47002CA620168CA6A838B104C26
:100BE00004EB03531A43CA6201688A6822F4007254
:100BF0008A6001688A6890F8303042EA43228A604D
:100C000001688A6822F480628A6001688A684069A3
:100C100042EA8020886010BD0023014000E0FFFF11
:100C20000000F0FFFEE70020704700207047000042
:100C300010B500220449054804F068FC0449034843
:100C400004F057FC002010BD1010002034030020D9
:100C5000100800200548D0F8BC0220B1D0F81402DA
:100C600008B10120704700207047000034030020C5
:100C70002DE9F04790B05FEA000A53D00029FCD07C
:100C800008680028F9D004463F2800D33F242246B4
:100C900051466846FFF7C7FA00200126524FDFF899
:100CA0004C816D460DF804004FF00209052C05D368
:100CB00005224FA12846FFF7DAFA68B3042C0BD3BC
:100CC00004224DA16846FFF7D2FA38B304224CA1A2
:100CD0006846FFF7CCFA30B34B4F032C05D3032201
:100CE0004AA16846FFF7C3FAF8B1022C70D302227A
:100CF00047A16846FFF7BBFA10B3032C36D3032293
:100D000044A16846FFF7B3FAE0B1032242A1684666
:100D1000FFF7ADFA08B32BE03E700EE07E703A4864
:100D200007F0D4F954E0BE7052E0E81C06F050F829
:100D300051EC100BFFF7A8FAF86088F8009047E034
:100D4000A81C00E0E81C06F043F851EC100BFFF77C
:100D50009BFA786088F800603AE0E81C06F038F802
:100D600051EC100BFFF790FA386131E0022C2FD3D1
:100D700002222AA16846FFF77AFA294E70B1022CA6
:100D800026D3022227A16846FFF771FA78B1022222
:100D900025A16846FFF76BFA90B119E0A81C06F090
:100DA00017F851EC100BFFF76FFA306010E0A81C39
:100DB00006F00EF851EC100BFFF766FA706007E0D2
:100DC000A81C06F005F851EC100BFFF75DFAB060B7
:100DD0005146164804F08DFB144804F063FB10B034
:100DE0000020BDE8F0870000900000200E000020E9
:100DF000535441525400000053544F50000000001F
:100E00005A45524F00000000702300205350440008
:100E10005620000055512000414343004B50000034
:100E2000182300204B4900004B44000034030020ED
:100E300010B505F0A9FF002010BD00000A460A49C0
:100E400010B5D1F8BC1221B1D1F8141219B101209A
:100E500010BD032010BD0146034804F057FBBDE858
:100E60001040014804F0CCBB3403002008489FED3B
:100E7000091A0021D0ED010A4160F8EEE00A60EEA7
:100E8000810A80EE801A9FED040A21EE000A704765
:100E90004C0100200000803800007042704708209C
:100EA00001F050B80C490A884888101A00B2B0F511
:100EB000005F02DDA0F5804004E010F5005F02DA7B
:100EC00000F5804000B2054B1B8858434B6800B2C8
:100ED000184448604A8070474C0100205C010020A3
:100EE00072B6FEE7002229B101291AD002291BD0CF
:100EF0004FF440720E490B6823F440730B600B688B
:100F000013430B600A6822F0F8020A600A680223A1
:100F100003EBC00002430A60086840F480300860B8
:100F200070474FF48072E5E74FF40072E2E700008B
:100F3000103C02401348016889050FD5016821F46F
:100F400000710160016841F400610160016821F4F1
:100F500000610160016841F40071016001684905A8
:100F60000FD5016821F480610160016841F480516E
:100F70000160016821F480510160016841F48061E1
:100F800001607047003C024008490A6822F4407240
:100F90000A600A6842F004020A600A684FF480336B
:100FA00043EA002002430A6070470000103C024000
:100FB000064A136823F440731360136813601368C0
:100FC00043F001031360017070470000103C0240C1
:100FD000094910B50C6824F440740C600C6844F4A2
:100FE00040740C600C6844F001040C600260BFF3B4
:100FF0006F8F436010BD0000103C0240074A136829
:1010000023F440731360136843F480731360136810
:1010100043F001031360018070470000103C024060
:10102000074A136823F440731360136843F4007392
:101030001360136843F00103136001607047000000
:10104000103C024017490868C206174805D5C26916
:1010500042F01002C26110220A600A68920605D5A9
:10106000C26942F00802C26120220A600A68520680
:1010700005D5C26942F00402C26140220A600A68D2
:10108000120605D5C26942F00202C26180220A60DE
:101090000A68920705D5C26942F02002C2610220A7
:1010A000086070470C3C02403C1F002070B511499D
:1010B00004460020C86101F04FF806460E4D09E0D5
:1010C000601C07D024B101F047F8801BA04201D971
:1010D000032070BD2868C003F2D42868C00701D07F
:1010E00001202860286810F0F200F2D0FFF7AAFF74
:1010F000012070BD3C1F00200C3C024010B502F0E6
:1011000079FF02F07DFF02F081FFBDE8104002F0A0
:1011100083BF000010B5C82006F0C8FA0F490B289D
:1011200019D04FF0FF3000BF0860F6EE000A9FEDC7
:101130000C0A0C4806F0B2FE00210A4806F0BEFA7E
:10114000642000F041FE07494FF40270C860BDE81A
:10115000104006F011BB0120E6E700005C01002012
:1011600000000000EC20002010B5002305E000BFC7
:1011700030F8044B21F813405B1C9342F8D310BDA8
:101180002DE9F043ADF6240D89468046174640F61A
:1011900008016846FFF760F82A4D00206C4640F2CF
:1011A000022600BF55F8201044F82010401C80B2E1
:1011B000B042F7D3234900204942414408E000BF30
:1011C00039F8102000EB9103401C44F8232080B232
:1011D000B842F5D300F09EFE1B49F32008600020C2
:1011E000CDF81C08CDF808080220CDF818082846CC
:1011F00000F034F8CDF810080120CDF814080DF6F1
:101200001C010DF6080000F0F1FD4FF0FF3850B959
:101210005FF0000705EB870154F827200023022028
:1012200000F03AFE30B100F02DFE40460DF6240DE0
:10123000BDE8F0837F1CBFB2B742EBD300F022FEC3
:101240000020F3E7000006080C3C02400146C822DB
:101250000148FFF789BF00000000060812498842D4
:1012600001D2002070471149884201D20120704705
:101270000F49884201D2022070470E49884201D2AC
:10128000032070470C49884201D2042070470B4963
:10129000884201D2052070470949884201D20620C0
:1012A00070470720704700000040000800800008D9
:1012B00000C0000800000108000002080000040847
:1012C0000000060870B590F83C20694D012A19D03D
:1012D000012280F83C200A6807230468092A13D9F0
:1012E000E6680A3A02EB420293409E43E6600A78BF
:1012F0008B680A3A02EB420293400268D4682343A7
:10130000D36010E0022070BD266902EB42029340D8
:101310009E4326610A788B6802EB42029340026882
:101320001469234313610268936B23F4401393639E
:101330000268936B0C8A4F4E06EB0454234393636D
:101340000A790B7CD21AD21C02EB82021F23934033
:101350000268946B9C4394630A790B7CD21AD21C6A
:1013600002EB82030A8892B29A4003689C6B224384
:101370009A638A69AA420268936823F4702393608F
:10138000026893680CD08C69234393600268936869
:1013900023F44013936002689368CC69234301E00F
:1013A00023F4401393604A7D002A0268536802D0F8
:1013B00043F4806301E023F4806353600A7D002AD4
:1013C0000268536802D043F4805301E023F4805351
:1013D00053604A68012A16D0022A1FD0032A0268E5
:1013E00027D0136A6FF30B0313620268136ACC6889
:1013F00023431362214B04681F4A9C4227D10C6887
:10140000122C20D023E0026853696FF30B03536161
:1014100002685369CC6823435361EBE70268936920
:101420006FF30B03936102689369CC682343936164
:10143000E0E7D3696FF30B03D3610268D369CC682B
:101440002343D361D6E7546844F4800454600468AD
:101450009C4208D10968102901D0112903D1516893
:1014600041F400015160002180F83C10084670BD35
:1014700001000F000000F0FF0023014000200140A8
:101480002DE9F04139492DED048B884261D138486E
:10149000384F007830B103F069F9BCEEC00A10EEA5
:1014A000100A388034489FED359A9FED358A407890
:1014B000344DDFED358A354C002650B303282078B3
:1014C0004BD0E8BBFFF7EEFCE078401CC0B2E07008
:1014D00004280CD3E670B0EE490AFFF7C7FC20EEF3
:1014E000080AD5ED040A00EEA80A85ED040A03F007
:1014F000D3FB27480189828900781144BDEC048B15
:1015000001EB0020C0F30901BDE8F041204806F0DE
:10151000D5B805F08BFF03F029F9FCEEC00A10EEF8
:10152000900A3880FFF7BEFCE078401CC0B2E07043
:1015300004280ED3E670B0EE490AFFF797FC00E0EE
:101540000DE020EE080AD5ED040A00EEA80A85EDAC
:10155000040ABDEC048BBDE8F0810028F9D0BDEC95
:10156000048BBDE8F04105F061BF0000740100206C
:10157000580100204C0100207023002017B7D139FA
:10158000CDCCCC3D182300206666663F0C000020C1
:10159000EC20002008B5002200920368521F1A6058
:1015A000012911D002290CD0032906D0042901D029
:1015B000009808BD0068806C01E00068406C0090F5
:1015C00008BD0068006CFAE70068C06BF7E770B50B
:1015D0000D46044600F0C0FD064612E0681C10D01F
:1015E00025B100F0B9FD801BA8420AD92068006827
:1015F000400706D404202064002084F83C00032027
:1016000070BD206800684007E8D521686FF00C00C5
:101610000860206C40F4005020642068816811F458
:10162000401F1AD1816B11F4401F02D08168490517
:1016300013D44168490510D4806810F0405F0CD184
:10164000207E50B9206C20F480502064206CC005AE
:1016500003D4206C40F001002064002070BD000025
:1016600018B50021009190F83C20012A07D00122F2
:1016700080F83C2002689368DB0702D011E002206A
:1016800018BD936843F001039360284A284B126801
:10169000B2FBF3F202EB420200E0521E0092002A7B
:1016A000FBD102689368DB0735D0036C42F201047A
:1016B000A34343F480530364036CDB0500D441640B
:1016C00080F83C106FF0040111601A494968006805
:1016D000C906816801F440110FD0D1B100224168E0
:1016E000154B41F38021491C98421CD1DAB1D1B18C
:1016F000816841F48001816015E041B100214268B8
:1017000042F38022521C71B1002AF1D10BE0012179
:10171000F5E70122E3E7016C41F010010164416C3F
:1017200041F001014164002018BD0000A00000202C
:1017300040420F00002301400020014018B5002264
:10174000009290F83C10012907D0012180F83C104C
:1017500001688B68DB0702D011E0022018BD8B689E
:1017600043F001038B602A492A4B0968B1FBF3F16E
:1017700001EB410100E0491E00910029FBD1016805
:101780008B68DB073AD0036C42F20104A34343F4B5
:1017900080530364036CDB0500D4426480F83C2072
:1017A0006FF004020A6001684A6842F080024A60F1
:1017B000194949680068C906816801F440110FD0D1
:1017C000D1B100224168154B41F38021491C984258
:1017D0001CD1DAB1D1B1816841F48001816015E09A
:1017E00041B10021426842F38022521C71B1002AAB
:1017F000F1D10BE00121F5E70122E3E7016C41F0B3
:1018000010010164416C41F001014164002018BDE8
:10181000A000002040420F000023014000200140B2
:1018200090F83C200021012A12D0012280F83C20AF
:10183000026CD20515D4026853685B0511D4936815
:1018400023F00103936002689268D20702D00DE092
:1018500002207047026C22F4885242F001020264B6
:1018600004E0016C41F0200101640121002280F8B4
:101870003C2008467047000078B50024009490F89A
:101880003C20012A19D0012280F83C200A68072355
:101890000568092A13D9EE680A3A02EB420293401E
:1018A0009E43EE600B788A680A3B03EB43039A4041
:1018B0000368DD682A43DA6010E0022078BD2E69F3
:1018C00002EB420293409E432E610B788A6803EB41
:1018D00043039A4003681D692A431A614A681F231B
:1018E000072A13D205686E6B521E02EB82029340E8
:1018F0009E436E630B790A885B1E92B203EB8303EF
:101900009A4003685D6B2A435A6327E005680D2AF5
:1019100012D22E6BD21F02EB820293409E432E63A3
:101920000B790A88DB1F92B203EB83039A400368AA
:101930001D6B2A431A6311E0EE6A0D3A02EB820234
:1019400093409E43EE620B790A880D3B92B203EB03
:1019500083039A400368DD6A2A43DA62164B0568FE
:10196000144A9D4206D10D68122D03D1556845F4E5
:101970008005556005689D4218D10B68102B01D079
:10198000112B13D1536843F40003536009681029E5
:101990000CD10A490A4A0968B1FBF2F101EB810155
:1019A000490000E0491E00910029FBD180F83C402D
:1019B000002078BD0023014000200140A00000204D
:1019C00040420F00704770470068C06C704770B5A8
:1019D000044600680668456816F0020F05F020010D
:1019E0002AD049B3216CC90603D4216C41F400719B
:1019F0002164816811F0405F17D1217EA9B9C16AC5
:101A000011F4700F02D0816849050ED4416821F0AD
:101A100020014160206C20F480702064206CC004A0
:101A200003D4206C40F0010020642046FFF7CAFF79
:101A300021686FF01200086016F0040F05F08001B5
:101A400032D089B3206CC00603D4206C40F400501F
:101A500020642068816811F4401F1ED1816B11F44D
:101A6000401F02D08168490517D44168490514D444
:101A7000816811F0405F10D1217E71B9416821F079
:101A800080014160206C20F480502064206CC005EF
:101A900003D4206C40F0010020642046FFF7F0FCE6
:101AA00021686FF00C00086016F0010F05F040018E
:101AB0000FD071B120680068C0070AD0206C40F4D4
:101AC00080302064204600F043F821686FF0010068
:101AD000086016F0200F05F080610ED000290CD0B0
:101AE000606C40F00200606420686FF020050560C3
:101AF0002046FFF768FF2068056070BD70B50400E0
:101B00004FF0000503D0206C002610B107E0012043
:101B100070BD204600F01EF8666484F83C60206CBE
:101B2000C00610D4206C20F4885040F002002064DD
:101B30002046FEF7E3FF6664206C20F0020040F0D0
:101B40000100206400E0012584F83C60284670BD57
:101B50007047000030B587B0044614216846FEF790
:101B60007BFB1C492068884232D11B480025016854
:101B700041F480710160006800F48070059016489F
:101B80001438016841F004010160016801F00401AA
:101B90000591016841F0020101600068032400F032
:101BA0000200059030208DE8310069460B4800F0B6
:101BB000D5F9009469460A48CDE9014500F0CEF90F
:101BC00000220421122000F035FB122000F024FB3B
:101BD00007B030BD002001404438024000080240F8
:101BE000000402402DE9F041044600680D4681687A
:101BF0004FF0000749050BD58068C00508D5206C5B
:101C000040F02000206484F83C700120BDE8F081A1
:101C100000F0A2FA064613E0681C11D025B100F0CE
:101C20009BFA801BA8420BD920680068800707D464
:101C3000206C40F00400206484F83C700320E5E749
:101C4000206800688007E7D521686FF012000860FF
:101C5000206C40F4007020642068816811F0405FBF
:101C600013D1217E89B9C16A11F4700F02D0806846
:101C700040050AD4206C20F480702064206CC004DD
:101C800003D4206C40F0010020640020BEE7000077
:101C900018B50021009190F83C20012A07D00122BC
:101CA00080F83C2002689368DB0702D011E0022034
:101CB00018BD936843F0010393602E4A2E4B1268BF
:101CC000B2FBF3F202EB420200E0521E0092002A45
:101CD000FBD102689368DB0742D0036C40F20164D9
:101CE000A34343F48073036453685B0505D5036C19
:101CF00023F4005343F480530364036CDB0404D5E2
:101D0000436C23F00603436400E0416480F83C1018
:101D10001A496FF02203136049680068CA0618491F
:101D200006D0884224D1816811F0405F13D01FE0B3
:101D30008842F8D0134A904203D1D1F80423D20646
:101D4000F1D0114A904213D1D1F8041301F01F01D0
:101D50001029E8D30CE0816841F08041816007E000
:101D6000016C41F010010164416C41F001014164DA
:101D7000002018BDA000002040420F0000230140B9
:101D800000200140002101400022014090F83C1059
:101D900001290CD0012180F83C1001688A6822F0EA
:101DA00001028A6001688968C90702D007E0022041
:101DB0007047016C21F4885141F001010164002158
:101DC00080F83C100846704770B5044600F0C4F92E
:101DD0000546601C02D004480078044400F0BCF9B9
:101DE000401BA042FAD370BD940000202DE9F047BB
:101DF000044622480F46017E01290AD0012180466F
:101E000001764CF250394846FFF750F9020003D0F2
:101E10002FE00220BDE8F0874FF0FF3038602068E7
:101E2000174D012801D0A6681CE0207C6168FFF7EF
:101E3000ABF84846FFF73AF90246286820F004005C
:101E4000286014E0217C3046FFF74CF84846FFF745
:101E50002DF90200286820F0FA00286001D03E60C9
:101E600005E0761CD4E902100844B042EAD8FFF736
:101E700061F8002188F818101046CBE73C1F0020BD
:101E8000103C02400348016841F00041016000201D
:101E900070470000103C02402DE9F0471B4E0546FC
:101EA0001446307E1F468946012808D0012030762E
:101EB0004CF250384046FFF7F9F818B114E0022010
:101EC000BDE8F0879DB1012D16D0022D19D0224614
:101ED0003B464846FFF77CF84046FFF7E7F80C49D9
:101EE0000A6822F001020A6000213176E8E7E1B2D7
:101EF0004846FFF75DF8EFE7A1B24846FFF77EF8E6
:101F0000EAE721464846FFF78BF8E5E73C1F00204B
:101F1000103C0240074900200A68002A09DA054AF5
:101F2000054B0C3A1360054B13600968002900DA71
:101F300001207047103C024023016745AB89EFCD7B
:101F400070470000044910B50A68024202D00860D8
:101F5000FFF7F6FF10BD0000143C01402DE9F84FDB
:101F6000DFF8BCA10022012503264FF00F090AF17A
:101F7000040BAAF1040E00BF0B6805FA02F423401B
:101F8000A34270D10F7907F00307012F01D0022F70
:101F900016D187684FEA420806FA08FC27EA0C07C0
:101FA000D1F80CC00CFA08FC4CEA070CC0F808C0C9
:101FB0004768A7430C79C4F3001494403C43446041
:101FC0000C79E443A4070AD0C4684FEA420C06FA2D
:101FD0000CF7BC438F6807FA0CF72743C7600C79EE
:101FE00004F00304022C12D1D40800EB840CDCF8BA
:101FF00020405707FF0E09FA07F824EA0804D1F831
:10200000108008FA07F848EA0408CCF82080046831
:102010004FEA420C06FA0CF7BC430F7907F00307AE
:1020200007FA0CF7274307604C6814F4403F70D060
:102030003C4C276847F480472760246822F0030758
:1020400004F480440094384C07EB040CDCF8084896
:1020500097074FEA177809FA08F7BC43334FB8429D
:1020600002D1002724E054E0314FB84201D10127CA
:102070001EE0304FB84201D1022719E02E4FB8427E
:1020800001D1032714E02D4FB84201D104270FE0FE
:102090002B4FB84201D105270AE02A4FB84201D19F
:1020A000062705E0284FB84201D1072700E008279E
:1020B00007FA08F72743CCF80878DAF800405746C3
:1020C000D1F804C09C435FEACC2C00D51C433C6093
:1020D000DBF800405F46D1F804C09C435FEA8C2CDB
:1020E00000D51C433C60DEF800407746D1F804C0C0
:1020F0009C435FEA8C3C00D51C433C60084F083F82
:102100003C68D1F804C09C435FEACC3C00D51C433A
:102110003C60521C102AFFF42FAFBDE8F88F00007E
:10212000083C0140443802400030014000000240B9
:102130000004024000080240000C0240001002406F
:102140000014024000180240001C02400AB18161E4
:1021500070470904FBE700000148806870470000F1
:102160009400002002488168027811448160704721
:10217000940000200B4810B5016841F40071016023
:10218000016841F480610160016841F4807101607F
:10219000032000F06FF80F2000F006F800F024F89C
:1021A000002010BD003C024070B50D4D04464FF4B8
:1021B0007A712878B1FBF0F00A490968B1FBF0F0B8
:1021C00001F0BFF948B9102C07D200222146501E59
:1021D00000F030F800206C6070BD012070BD000080
:1021E00094000020A00000200A4808B5016841F4CE
:1021F00080410160006800F4804000900548001FA5
:10220000016841F080510160006800F0805000904A
:1022100008BD000044380240002809DB00F01F021E
:10222000012191404009800000F1E020C0F8001138
:1022300070470000F0B40E4B1B680C46C3F302233A
:10224000C3F10705042D00D90425191D072901D262
:10225000002300E0DB1E012606FA05F1491E21409D
:1022600099409E40761E16403143F0BC04F0A0BD5C
:102270000CED00E0064900F0070208684FF6FF0386
:10228000184040EA0220034A1043086070470000EB
:102290000CED00E00000FA05BFF34F8F0548016820
:1022A000054A01F4E06111430160BFF34F8F00BFA5
:1022B000FDE700000CED00E00400FA05704700683F
:1022C000416200207047F0B50368586A39B19C6AD2
:1022D0004FF4827600EB144400204D1E0AE040EAE1
:1022E000024098620FE006EB8007DF59401C04EBC8
:1022F0001744C0B2A842F6D344EA02404FF48072B9
:1023000002EB810158500020F0BDD0F8080503F021
:10231000FDBB01EBC10200EB8202D0F80805D26CD4
:1023200003F052BB01EBC10200EB8202D0F80805BA
:10233000D2F88C2203F0A3BBD0F8080503F0E8BB69
:102340000A0601F00F0101EBC10100EB810101D58B
:102350003C3101E001F51F71006804F01DBB70B550
:1023600004460B0601F00F0000EBC00104EB8101F5
:102370004FF001024FF0000503D581F83D203C31BC
:1023800003E081F87D5201F51F71087094F8BC04D8
:10239000012808D084F8BC24206803F0B7FF84F833
:1023A000BC54002070BD022070BD70B5044601F021
:1023B0000F006268904201D9012070BD0B0601F048
:1023C0000F0101EBC10104EB81014FF001024FF05D
:1023D000000503D581F83D203C3103E081F87D52B2
:1023E00001F51F718D70087094F8BC04012808D0A5
:1023F00084F8BC24206804F085F984F8BC540020DB
:1024000070BD022070BD01F00F0101EBC10100EBB6
:102410008100D0F89C0270472DE9F04104460F0678
:1024200001F00F0000EBC00104EB81014FF0010649
:102430004FF0000503D581F83D603C3103E081F8A1
:102440007D5201F51F710870CA600B714A7802B1A4
:102450000881022B00D14D7194F8BC04012809D0E9
:1024600084F8BC64206803F0A9FE284684F8BC54B4
:10247000BDE8F0810220FBE770B50C4601F00F05C6
:1024800005EBC50100EB8101C1F89432C1F88C2243
:102490000023C1F89C3281F87D3281F87C520369B7
:1024A00001F51F71012B00D14A612207027C0068EF
:1024B00003D004F07FF9002070BD04F069F8FAE75A
:1024C00070B504460D4601F00F006168884201D9DD
:1024D000012070BD29064FF000064FF0010207D51C
:1024E00000EBC00104EB810181F83D203C3107E0A5
:1024F00005EBC50104EB810181F87D6201F51F71D7
:102500008A70087094F8BC04012807D084F8BC24B1
:10251000206804F023F9280702D007E0022070BDEC
:10252000217C04F2C442206804F0C0F884F8BC6442
:10253000002070BD70B50C4601F00F0505EBC5011C
:1025400000EB81014B65CA640023CB65012381F850
:102550003D3001F83C5F0369012B00D14A6122073D
:10256000027C006803D004F025F9002070BD04F05F
:102570000FF8FAE72DE9FC5F05680446284604F0E9
:10258000ACFA00287DD1206804F0D3FA002878D076
:10259000D5F80808C0F30D20C4F8FC04206804F046
:1025A000C8FA800704D52068416901F00201416141
:1025B000206804F0BEFAC10604F2C440009034D58D
:1025C0002068816921F0100181612F6A07F00F00F6
:1025D00000EBC00004EB8006C7F3434006F51F760E
:1025E000022802D0062811D01AE047F6F070074200
:1025F00016D0C7F30A1217462846316904F09DFA2F
:10260000306938443061306A384408E0082228468E
:10261000009904F092FA306AC7F30A110844306254
:102620002068816941F010018161206804F081FA1D
:1026300000034FF0080B4FF0000A4FF001097CD562
:102640000026206804F054FA074674E0F80770D0BA
:10265000F1B2206804F065FA8046C00707D005EBA8
:102660004611C1F8089B3146204601F061FF5FEA40
:10267000087024D505EB4611C1F808BB2068016C31
:1026800000E025E200EB46100191D0F8082BFC4B4E
:10269000994205D9110403D54FF40041C0F8081B35
:1026A000204600F005FBF6490198884207D92069C9
:1026B000012804D120680121009A03F0F7FF5FEAA6
:1026C000C86004D505EB46111020C1F8080B5FEA7D
:1026D00088701DD56869000605D5D5F8040840F452
:1026E0008061C5F8041806EBC60004EB800090F882
:1026F0007F1200F51F70012905D180F803A0F1B207
:10270000204600F0EBF905EB46110220C1F8080B5A
:102710005FEA886004D505EB46102021C0F8081B4D
:102720005FEA884005D505EB46104FF40051C0F82C
:10273000081B7F08761C002F88D1206804F0F9F967
:1027400040036FD5206804F0CCF90746002667E007
:10275000F80763D0F1B2206804F0D1F98046C007D1
:1027600023D006F00F0209FA02F0D5F8342882438C
:10277000C5F8342805EB4610C0F8089920690128EF
:102780000FD106EBC60004EB8000D0E91221114402
:10279000C16436B9606D20B920680121009A03F048
:1027A00085FFF1B22046FFF7B4FD5FEA087003D55C
:1027B00005EB4611C1F808B95FEAC86004D505EB1E
:1027C00046111020C1F808095FEA486004D505EBFE
:1027D00046104021C0F808195FEA887017D53146C5
:1027E000284604F04DF906EBC60004EB800090F893
:1027F0003F103C30012905D180F803A0F1B22046FA
:1028000000F068F905EB46110220C1F808095FEAFB
:10281000086003D53146204601F0F0FE7F08761CA3
:10282000002F95D1206804F084F9002811DAD5F83A
:10283000040820F00101C5F8041894F8F4040128F4
:102840002BD0204600F018FA2068416901F00041C1
:102850004161206804F06DF900050BD5D5F8080832
:10286000C00702D0204600F04BFA2068416901F40D
:1028700000614161206804F05CF9C00466D5D5F8B8
:10288000040820F00100C5F804081021206804F0B5
:10289000F7F800214FF67F321FE084F8F4A40021FE
:1028A0002046FFF70BFDCFE705EB4110C0F80829E4
:1028B000D0F8003923F40013C0F80039C0F8082B11
:1028C000D0F8003B23F40013C0F8003BD0F8003BE5
:1028D00043F00063C0F8003B491C60688842E3D8BD
:1028E000D5F81C0840F00111C5F81C18206B002811
:1028F00028460DD0D0F8840840F00B01C5F88418A4
:10290000D5F8440840F00B012846C5F844180DE0FE
:10291000D0F8140842F22B010843C5F81408D5F882
:10292000100840F00B012846C5F81018D0F8000830
:1029300020F4FE61C5F80018217C2068009A03F09D
:10294000B5FE2068416901F480514161206804F0BE
:10295000F0F8800415D5206803F070FC206804F0BE
:10296000AFF8E06000F07EFA0146227B206804F0B8
:1029700043F9204600F06AF92068416901F40051EA
:102980004161206804F0D5F8000707D5204600F023
:1029900077F92068416901F008014161206804F07D
:1029A000C8F8000616D5A86920F08000A8610126A5
:1029B0000DE000BF06EBC60004EB800090F87F023C
:1029C000012803D1F1B22046FFF7BAFC761C6068FB
:1029D000B042EFD8206804F0ACF8C00221D501263F
:1029E0004F4616E005EB4610D0F8001906EBC6007E
:1029F00004EB800090F84020012A09D1002907DA71
:102A000080F83F70F0B240F080012046FFF798FC5C
:102A1000761C6068B042E5D82068416901F48011F5
:102A20004161206804F085F8800234D501204B46CE
:102A300029E000BF05EB4011D1F8001B00EBC002FC
:102A400004EB820696F88022012A1BD1002919DAAC
:102A500094F8FC2401F4803102F00102914211D17A
:102A600086F87F32A96941F08002AA616969090686
:102A700008D4D5F8040840F40070C5F8040805E04F
:102A80000A30544F401C61688142D3D820684169A4
:102A900001F400114161206804F04BF8400007D5B3
:102AA0002046FFF732FC2068416901F08041416116
:102AB000206804F03EF840070AD52068456868079A
:102AC00002D52046FFF738FC206841682943416061
:102AD000BDE8FC9FD0F8080503F06EB8D0F80805F3
:102AE00003F07EB82DE9F0418AB0040005D094F8D7
:102AF000BD042668002520B108E001200AB0BDE829
:102B0000F08184F8BC54204600F05EF8032084F87D
:102B1000BD04F06BC00500D42561206803F032FDD0
:102B200004F11001282288466846FDF77CFB94E8F2
:102B30000F0003F091FB0226C8BB0021206804F0BF
:102B40001BF8002001270EE000EBC00104EB81011F
:102B500081F83D7001F83C0F08810D71CD600D6169
:102B6000401CC0B28D6161688142EDD8002011E047
:102B700000EBC00104EB810181F87D5281F87C02F9
:102B800081F88052C1F88852C1F88C52401CC0B202
:102B9000C1F8945261688142EAD8282241466846C9
:102BA000FDF741FB94E80F0003F032FC10B184F80C
:102BB000BD64A2E784F8385084F8BD74206803F03F
:102BC00019FC00209AE7000010B586B004461421D5
:102BD0006846FDF741FB2068B0F1A04F2FD119489E
:102BE0000021026842F001020260006800F001006A
:102BF00005904FF4C05000900220CDE90101032060
:102C000003900A20049069460F48FFF7A7F90D4882
:102C1000001D016841F0800101600A48143001681C
:102C200041F4804101600068002200F4804005907A
:102C300007214320FFF7FEFA4320FFF7EDFA06B025
:102C400010BD0000303802400000024070B504465C
:102C5000C068012570B1022801D0FEF741F929466C
:102C6000D4F8080503F02AF8D4F80805BDE8704048
:102C700002F0DFBF0025F2E7D0F8080503F007B83F
:102C8000D0F8080503F00DB810B5044690F8BC0460
:102C900001280BD0012084F8BC0484F83810206887
:102CA00003F098FF002084F8BC0410BD022010BD82
:102CB000D0F8082500F2C441104603F00BB810B557
:102CC0000446006894F8BC14012906D0012184F858
:102CD000BC14A16A012902D008E0022010BDA1693C
:102CE000012903D0816B41F480318163206803F0B6
:102CF000A2FE206803F070FB002084F8BC0410BD25
:102D000010B50446D0F8080503F026F82068D0F87E
:102D1000001E41F00101C0F8001E206A002804D006
:102D20000248016841F00601016010BD10ED00E0AD
:102D30002DE9F0470E46050065D0DFF81481D8F87C
:102D40000000F7B200F00700B04207D288F8007028
:102D5000D8F8000000F00700B04254D128683D4C7C
:102D6000810712D5400703D5206840F4E050206069
:102D70002878000703D5206840F460402060206870
:102D8000A96820F0F000084320602878C0072DD003
:102D9000304968680839012812D0022813D0032866
:102DA00011D00968890700292DDA216821F0030173
:102DB00001432160FFF7D0F9814641F2883A0EE0E5
:102DC00009688903EFE709688901ECE7FFF7C4F9AF
:102DD000A0EB0901514502D90320BDE8F087206826
:102DE000696800F00C00B0EB810FEFD1D8F800104B
:102DF000404601F00701B14207D90770006800F0B2
:102E00000700B04201D00120E7E72878400705D548
:102E10002068E96820F4E050084320602878000723
:102E200006D52068296920F4604040EAC10020608E
:102E300000F01EF82168084AC1F30311515CC84034
:102E40000649086006480068FFF7AEF90020C4E7AD
:102E5000003C02400838024020820008A000002008
:102E6000980000200148006870470000A000002082
:102E7000154810B5006810F00C02144813D041102A
:102E8000042A0FD0082A0ED10F4C241F2268236871
:102E900002F03F025B0207D52068C0F38810A0FB58
:102EA000010106E0084610BD2168C1F38811A1FBAD
:102EB00000010023FDF786F92168C1F30141491C97
:102EC0004900B0FBF1F010BD083802400024F400C6
:102ED0002DE9F84F04006ED02078DFF84C93C0073E
:102EE000A9F104054AD009F104000168C1F3810188
:102EF000012908D00068C0F3810002280AD1D9F85E
:102F00000000400206D52868800337D56068002895
:102F1000E1D033E06068B0F5803F10D0B0F5A02F6D
:102F2000286810D020F480302860286820F48020A1
:102F300028606068A8B1FFF70FF906460DE0286821
:102F400040F48030F4E740F480202860F7E700BFC9
:102F5000FFF702F9801B642873D828688003F7D52F
:102F60000CE0FFF7F9F8064605E000BFFFF7F4F8BC
:102F7000801B6428F0D828688003F7D42078DFF815
:102F8000AC8280074FF0000A3ED5A748001D0168BB
:102F900011F00C0F08D00068C0F3810002280BD19B
:102FA000D9F80000400207D42868800716D5E068E9
:102FB000012800D112E033E1E068B8B10120C8F87F
:102FC0000000FFF7C9F8064605E000BFFFF7C4F8A8
:102FD000801B0228C0D828688007F7D52868216997
:102FE00020F0F80040EAC10028600DE0C8F800A019
:102FF000FFF7B2F8064604E0FFF7AEF8801B0228A0
:103000001FD828688007F7D42078000722D5864F7C
:1030100087486169703771B101210160FFF79CF841
:10302000064604E0FFF798F8801B022809D83868A4
:103030008007F7D50EE0C0F800A0FFF78DF8064630
:1030400005E082E0FFF788F8801B02287DD8386809
:103050008007F7D42078400768D5DFF8CCB1002787
:103060000BF13C0BDBF80000C0000BD4DBF80010C8
:1030700041F08051CBF80010DBF80000012700F090
:10308000805000906B4E3068C00510D4306840F41A
:1030900080703060FFF760F8009005E0FFF75CF8A3
:1030A0000099401A022850D83068C005F6D55E4E07
:1030B000A0686C3601280FD00528306810D020F0A9
:1030C00001003060306820F004003060A068B8B1C2
:1030D000FFF742F800900FE0306840F00100F4E79D
:1030E00040F004003060F7E7FFF736F80099411A26
:1030F00041F28830814266D830688007F4D50EE00E
:10310000FFF72AF8009007E0FFF726F80099411A28
:1031100041F28830814256D830688007F4D42FB10C
:10312000DBF8001021F08051CBF80010A069C8B383
:103130003D49091D0968C1F3810102294AD00228CD
:10314000504607D0C8F8600000E03CE0FFF704F804
:1031500004463BE04746C8F86000FEF7FDFF064620
:1031600005E000BFFEF7F8FF801B02282BD8286877
:103170008001F7D4D4E907010843A16A2E4A49081F
:1031800002EB0141626A41EA8211084394F82C1073
:1031900040EA0161C9F8001001203866FEF7DCFF43
:1031A000044606E03EE000BFFEF7D6FF001B022803
:1031B00009D828688001F7D534E000BFFEF7CCFFBE
:1031C000001B022802D90320BDE8F88F286880017F
:1031D000F4D427E00128F7D0D9F80000E26900F420
:1031E000800191421CD1226A00F03F01914217D127
:1031F00047F6C071626A0140B1EB821F10D1A26A2A
:103200004FF0FF3300F4403103EB5202B1EB024FB9
:1032100006D194F82C1000F07060B0EB016F01D073
:103220000120D1E70020CFE70438024000004742E8
:10323000800E4742007000400000FFFF70B50400A0
:1032400009D0606A002540B125616561A56294F8E6
:10325000510040B10CE0012070BD6068B0F5827F84
:10326000F4D0E561F2E784F85050204600F044F8CD
:10327000022084F851002068016821F040010160BB
:10328000A088218900F4827001F404410843A189D7
:1032900001F400610843217C01F002010843217D13
:1032A00001F001010843218B01F400710843217FE3
:1032B00001F03801084394F8201001F08001084320
:1032C000218D01F40051084321680860A0690421A0
:1032D00001EA104094F8241001F01001084321681D
:1032E00048602068C16921F40061C1616565012001
:1032F00084F85100002070BD10B586B0044614213A
:103300006846FCF7A9FF13492068884220D112487B
:103310000021026842F400420260006800F40040AC
:1033200005900D481038026842F002020260006801
:1033300000F002000590382000900220CDE9010144
:10334000032003900620049069460448FEF706FE19
:1033500006B010BD003C004040380240000402406E
:103360002DE9F84F044690F8500000270A9E1D46AC
:1033700092468B464FF0010901280ED0012084F8B7
:103380005000FEF7E9FE804694F85100616801287C
:103390000CD0B1F5827F07D102E00220BDE8F88FA2
:1033A000A16809B9042801D00227C2E0BBF1000FCF
:1033B00027D0BAF1000F24D01DB394F8510004288F
:1033C00002D0052084F8510000206065C4F838A0C0
:1033D000E587A587C4F830B0E586A58620646064DB
:1033E00020680168490603D4016841F0400101608A
:1033F000E068B0F5006F606805D0E8B3012D46D0F5
:103400007FE0012795E008B1012D39D1206B2168BB
:103410000088C860206B801C2063E08E401EE08620
:103420002EE02068816889070FD5E18E69B1B9F176
:10343000010F0AD1216B0988C160206B801C2063B9
:10344000E08E401EE0864FF0000920688168C907C1
:103450000CD0E18F51B1C068A16B0880A06B801CBB
:10346000A063E08F401EE0874FF00109FEF774FE75
:10347000A0EB0800B04200E009E001D3701C50D17D
:10348000E08E0028CDD1E08F0028CAD13FE0206B2C
:10349000216800780873206B401C2063E08E401E7A
:1034A000E0862EE02068816889070FD5E18E69B13A
:1034B000B9F1010F0AD1216B09780173206B401C0F
:1034C0002063E08E401EE0864FF00009206881688E
:1034D000C9070CD0E18F51B1C068A16B0870A06B17
:1034E000401CA063E08F401EE0874FF00109FEF70B
:1034F00033FEA0EB0800B04202D3701C01D010E0F4
:103500007EB1E08E0028CDD1E08F0028CAD142469E
:103510003146204601F032FB28B1012720206065AA
:1035200007E0032705E0A06818B92068C168806833
:103530000090012084F85100002084F850003846A3
:103540002CE710B5401EB0F1807F01D3012010BDE3
:103550004FF0E02460610F21601703F029FC002088
:10356000A06107202061002010BD7047704710B592
:1035700090F83C20012A22D0012280F83C20CA6821
:103580008C6822F4407222434C6822F48062224309
:103590000C6822F4006222430C6922F48052224318
:1035A0004C6922F400522243C969002322F480426C
:1035B0000A4301684A6480F83C30002010BD0220B4
:1035C00010BD000070B590F83C20012A32D00124D3
:1035D00080F83C40022280F83D2003685A689D68CC
:1035E00022F070060A6832435A60134B02689A420E
:1035F00014D0B2F1804F11D0104B9A420ED0104B24
:103600009A420BD00F4B9A4208D00F4B9A4205D0EA
:103610000E4B9A4202D00E4B9A4204D1496825F0D3
:1036200080031943916080F83D40002180F83C10F0
:10363000084670BD022070BD00000140000400403B
:1036400000080040000C0040000401400040014020
:103650000018004010B50446022249B104290ED0DA
:10366000082913D094F84500012816D0012010BD78
:1036700094F842000128F9D184F842200FE094F830
:1036800043000128F2D184F8432008E094F8440074
:103690000128EBD184F8442001E084F8452004227D
:1036A000206801F050FC2068416C41F40041416405
:1036B00011492068884214D0B0F1804F11D00F49D1
:1036C00088420ED00E4988420BD00E49884208D05D
:1036D0000D49884205D00D49884202D00C498842E4
:1036E00004D1816801F00701062903D0016841F087
:1036F00001010160002010BD0000014000040040F5
:1037000000080040000C004000040140004001405F
:103710000018004070B504460D460068002201F014
:1037200012FC2068036A41F211110B4240F244423C
:1037300006D1036A134203D1436C23F4004343646C
:103740002068036A0B4206D1016A114203D1016865
:1037500021F00101016001203DB1042D08D0082DA8
:1037600009D084F84500002070BD84F84200FAE7D3
:1037700084F84300F7E784F84400F4E710B5040048
:1037800003D094F83D0010B107E0012010BD0020E7
:1037900084F83C00204600F01FF8022084F83D0029
:1037A000211D206801F05EFB012084F8460084F8AA
:1037B0003E0084F83F0084F8400084F8410084F81B
:1037C000420084F8430084F8440084F8450084F8FB
:1037D0003D00002010BD000070B586B004461421E5
:1037E0006846FCF739FD2D4824682B4E00222B49F2
:1037F000143802250123B44218D10C6844F00104A6
:103800000C60096801F001010591016841F00201B5
:1038100001600068CDE9023200F002000590180353
:10382000CDE90005694604931D4832E01D4EB442BF
:1038300013D11A48001F016841F0100101600068AF
:10384000002200F01000059005213620FEF7F2FC62
:103850003620FEF7E1FC06B070BD134EB442FAD13B
:103860000C6844F002040C60096801F00201059143
:10387000016841F0010101600068029300F001005D
:1038800005904020CDE900050320CDE903206946DD
:103890000648FEF763FBDEE70000014044380240C3
:1038A00000040240001000400004014000000240FB
:1038B00090F83D10012901D001207047022180F8C5
:1038C0003D100168CA6842F00102CA6000681149EF
:1038D000884214D0B0F1804F11D00F4988420ED0E9
:1038E0000E4988420BD00E49884208D00D498842C3
:1038F00005D00D49884202D00C49884204D1816824
:1039000001F00701062903D0016841F001010160BF
:103910000020704700000140000400400008004003
:10392000000C00400004014000400140001800402D
:1039300070B5044690F83C000025012817D00126F8
:1039400084F83C60022084F83D002068826822F000
:10395000770222F47F4282600868502838D00DDC5C
:1039600020284FD005DC90B3102811D14AE0022066
:1039700070BD302846D040280AD13BE060282FD0C7
:1039800070280DD0B0F5805F03D0B0F5005F12D085
:10399000012584F83D60002084F83C00284670BD75
:1039A000CB68D1E90121206801F0DAFA206881684A
:1039B00041F0770109E0CB68D1E90121206801F0ED
:1039C000CFFA2068816841F480418160E1E719E025
:1039D000CA684968206801F097FB5021206806E01A
:1039E000CA684968206801F0A0FB6021206801F0E6
:1039F000C1FACEE7CA684968206801F085FB40211A
:103A00002068F4E7226801461046F0E72DE9F0410E
:103A10000D46040003D094F83D0018B108E00120E1
:103A2000BDE8F081002084F83C00204600F040F81A
:103A3000022084F83D002068816844F20702914327
:103A40008160211D206801F00DFA2268906891695B
:103A5000166A2B68AF69034340F20330814341EAA1
:103A60000721A868EF6908434FF6FC418843E968DD
:103A700040EA0720014328692F6A000140EA073025
:103A8000084369686D6926F0AA0646EA05152943C8
:103A900093602268906154F8460B0162012004F89B
:103AA0001F09E0752076E0762077A0750020B7E743
:103AB00010B586B0044614216846FCF7CDFB20689B
:103AC000B0F1804F1FD111480021026842F001027D
:103AD0000260006800F0010005900C481038026890
:103AE00042F001020260006800F00100059003202E
:103AF00000900220CDE90101039001200490694665
:103B00000348FEF72BFA06B010BD00004038024013
:103B100000000240704770B50446006801694FF02C
:103B20000005C943890715D4C168C943890711D461
:103B3000E91E016101202077206880698007204606
:103B400002D0FFF7E7FF04E000F0FEF8204600F0A7
:103B500090F9257720680169C943490717D4C168DE
:103B6000C943490713D46FF0040101610220207793
:103B70002068806910F4407F204602D0FFF7CAFF1A
:103B800004E000F0E1F8204600F073F925772068A2
:103B90000169C943090716D4C168C943090712D48A
:103BA0006FF008010161042020772068C069800758
:103BB000204602D0FFF7AEFF04E000F0C5F8204633
:103BC00000F057F9257720680169C943C90617D461
:103BD000C168C943C90613D46FF010010161082000
:103BE00020772068C06910F4407F204602D0FFF79C
:103BF00091FF04E000F0A8F8204600F03AF925779C
:103C000020680169C943C90708D1C168C943C90708
:103C100004D1891E0161204600F0CEF920680169B7
:103C2000C943090609D4C168C943090605D46FF020
:103C3000800101612046FFF798FC20680169C943B3
:103C4000490609D4C168C943490605D46FF040014B
:103C50000161204600F0CCF920680169C94389065A
:103C60000BD4C168C943890607D46FF020010161F4
:103C70002046BDE87040FFF779BC70BDF0B587B055
:103C8000044614216846FCF7E7FA294A2168002512
:103C900028480224284E914221D1016841F00201B6
:103CA0000160016801F002010591016841F0010124
:103CB00001600068012700F0010005904FF46040AA
:103CC0008DE83100CDE9035769461C48FEF746F9F7
:103CD0004FF4E0608DE831006946304621E0184A33
:103CE000914222D1016841F001010160016801F0B7
:103CF00001010591016841F004010160006803279A
:103D000000F00400059080208DE83100CDE90357D4
:103D100069463046FEF722F940208DE83100094817
:103D20006946CDE90357FEF719F907B0F0BD000069
:103D30000000014030380240000002400004024010
:103D40000004014000080240704770B5044690F836
:103D50003C0000260D4601280FD0012084F83C00CD
:103D60006AB1042A1DD0082A2FD00C2A3FD0012680
:103D7000002084F83C00304670BD022070BD2068F1
:103D800001F000F92068816941F008018161206833
:103D9000816921F004018161206881692A691143E8
:103DA00011E0206801F01EF92068816941F400618A
:103DB00081612068816921F4806181612068816965
:103DC0002A6941EA02218161D2E7206801F040F9C5
:103DD0002068C16941F00801C1612068C16921F012
:103DE0000401C1612068C1692A69114311E020689A
:103DF00001F062F92068C16941F40061C161206885
:103E0000C16921F48061C1612068C1692A6941EA00
:103E10000221C161ACE710B5040003D094F83D0065
:103E200010B107E0012010BD002084F83C002046BE
:103E300000F01EF8022084F83D00211D206801F0EA
:103E400011F8012084F8460084F83E0084F83F0011
:103E500084F8400084F8410084F8420084F843006C
:103E600084F8440084F8450084F83D00002010BD2B
:103E70007047704710B50446022249B104290ED09C
:103E8000082913D094F84100012816D0012010BD54
:103E900094F83E000128F9D184F83E200FE094F810
:103EA0003F000128F2D184F83F2008E094F8400058
:103EB0000128EBD184F8402001E084F84120012260
:103EC000206801F033F816492068164A884201D06C
:103ED000904203D1436C43F400434364206888421A
:103EE00013D0B0F1804F10D00F4988420DD00F4948
:103EF00088420AD00E49884207D0904205D00D4929
:103F0000884202D00C49884204D1816801F007013F
:103F1000062903D0016841F001010160002010BDB5
:103F2000000001400004014000040040000800407F
:103F3000000C0040004001400018004030B504462D
:103F40000D460068002200F0F1FF194B41F21111FB
:103F500020688A10984202D0164B984209D1036A11
:103F60000B4206D1036A134203D1436C23F400438E
:103F700043642068036A0B4206D1016A114203D1EF
:103F8000016821F00101016001203DB1042D08D03C
:103F9000082D09D084F84100002030BD84F83E008F
:103FA000FAE784F83F00F7E784F84000F4E7000000
:103FB000000001400004014010B500680949884232
:103FC0000FD10948FDF7BAFB08480179491CC9B26D
:103FD0000171052905D300210171BDE8104003F0EE
:103FE000A5BF10BD00100040740100200C0000208F
:103FF000704700000021014803F092BC1402002029
:104000000421014803F08CBC14020020082101485F
:1040100003F086BC140200200021014803F080BC9C
:10402000EC020020FEE70000F0B500230A24302552
:1040300037261F4611E000BFB4EB107F02D905EB15
:10404000107C01E006EB107C01F813C001EB430C7F
:1040500000015B1C8CF80170DBB29342ECD3F0BD25
:1040600030B58DB00024089409940A942021684644
:104070000B94FCF7F1F825482349012501604FF422
:1040800080310561C0E90114047680F820402049A0
:10409000C0E90A14C561C46080F830404561FDF78D
:1040A0002DFD08B1FCF71CFF0820CDE90805042010
:1040B0000A9008A91548FDF7DFFB08B1FCF710FFCF
:1040C0000E20CDE90005032002901248CDE9060438
:1040D00002258DF8154004958DF8144069460B486B
:1040E0000394FDF7EFF808B1FCF7FAFE0F20CDE9D5
:1040F000000569460548FDF7E5F8002801D0FCF702
:10410000EFFE0DB030BD0000002001407401002022
:104110000100000F01000F00F0B587B014216846C0
:10412000FCF79AF832480024016841F01001016060
:10413000016801F010010591016841F08001016002
:10414000016801F080010591016841F00101016001
:10415000016801F001010591016841F0040101606D
:10416000016801F004010591016841F0020101605C
:104170000068204E00F002000590012230213046F8
:10418000FDF7E4FF1C4F012210213846FDF7DEFF4A
:1041900001253020CDE90005CDE9025469463046BD
:1041A000FDF7DCFE4FF6C0708DE831006946304601
:1041B000FDF7D4FE082000904FF48810CDE90104EB
:1041C00069463846FDF7CAFE1020CDE900050220F9
:1041D000CDE9024069463846FDF7C0FE00220621BF
:1041E0000920FEF727F80920FEF716F807B0F0BD02
:1041F000303802400010024000000240114810B563
:104200000F4901604FF48271416000214FF4006258
:10421000C0E902120222026101224261520282615D
:104220001022C0E90721416281620A21C162FFF7C1
:1042300005F8002803D0BDE81040FCF751BE10BDC2
:10424000003C0040BC01002070B596B000240F94E3
:1042500010941194129413941C2168461494FBF743
:10426000FBFF202107A8FBF7F7FF3948374901601A
:104270005321C0E901146321C0E90314446184613E
:10428000FFF77CFA08B1FCF72BFE4FF480550FA91D
:104290002F480F95FFF74CFB08B1FCF721FE2C4887
:1042A000FFF7B9FD08B1FCF71BFE7026CDE91364DA
:1042B00013A92748FFF786F908B1FCF711FE602023
:1042C00000903120CDE901040820CDE9030440012C
:1042D000CDE90504002269461D48FFF736FD08B107
:1042E000FCF7FEFD042269461948FFF72EFD08B1D0
:1042F000FCF7F6FD082269461548FFF726FD08B1D0
:10430000FCF7EEFD32200594CDE900600C226946F1
:104310000F48FFF71AFD08B1FCF7E2FD4FF400600B
:1043200007904010CDE9080400010E90CDE90A4540
:1043300007A90C940648FFF71AF908B1FCF7D0FD5D
:104340000348FFF79BFC16B070BD00000000014061
:104350001402002010B58CB024216846FBF77CFFC6
:104360000024154809944FF080410A94C0E90014D4
:10437000611EC0E90241046184610320CDE90004AB
:104380000120CDE9020406210491CDE90540CDE9E3
:10439000074169460848FFF739FB08B1FCF7A0FD63
:1043A000099409A904480A94FFF70CF9002801D0E0
:1043B000FCF796FD0CB010BD5C0200201CB500247B
:1043C0000E4800940C49019401605321C0E9011486
:1043D00063218461C160FFF7D1F908B1FCF780FD6A
:1043E0000094694605480194FFF7ECF8002801D0D5
:1043F000FCF776FD1CBD000000100040A402002068
:1044000030B595B000240F94109411941294139425
:104410001C2108A81494FBF71FFF20216846FBF716
:104420001BFF2948274901605321C0E9011463217A
:10443000C0E9031444618461FFF7A0F908B1FCF7F7
:104440004FFD4FF480550FA91F480F95FFF770FAE5
:1044500008B1FCF745FD1C48FFF7DDFC08B1FCF78F
:104460003FFD139413A918481494FFF7ABF808B153
:10447000FCF736FD6020CDE908040820CDE90A40AC
:104480004001CDE90C40002208A90F480E94FFF727
:104490005CFC08B1FCF724FD4FF400600090401074
:1044A000CDE90104CDE90345059469460648079422
:1044B000FFF75DF808B1FCF713FD0348FFF7DEFBDB
:1044C00015B030BD00040140EC02002010B5002200
:1044D0000F49104801F053FA08B1FCF701FD0E49ED
:1044E0000C4801F061FC08B1FCF7FAFC0B490948E3
:1044F00000F0F4FF08B1FCF7F3FC064801F0D8FC2B
:10450000002803D0BDE81040FCF7EABC10BD000055
:104510002C00002034030020FC0000207C00002040
:10452000FEE7FEE70148FEF725B80000301A00203C
:104530002DE9F04103680D4604461E6C03EB45115E
:10454000D1F8080BD4F810E04FF400474FF0200CDE
:1045500004F2C442BEF1010F09D0DFF898E07645BD
:1045600039D1020432D500BFC1F8087B3FE0224BAD
:104570005FEA007E04D59E4239D90004F4D436E0C7
:104580005FEA806E02D5C1F808CB30E010F0280F4A
:104590002DD19E4201D90004E6D405EBC50004EB01
:1045A0008000D1F8101BD0F89832C1F31201591ACB
:1045B000C0F89C1200F51F70ADB983691BB1026988
:1045C000114401610FE0012120680AE080060AD54C
:1045D000C1F808CB07E035B9D4F8940218B9002126
:1045E000184602F063F8E9B22046FDF79BFE002072
:1045F000BDE8F0810A31544F0A30544F2DE9F84F8D
:104600000E4601EBC60100EB810481460568616D31
:10461000E06D3C34884202D90120BDE8F88F081AC9
:10462000E168814200D20846C01C870805EB4618A5
:104630001BE000BFA0EB010AE068504500D28246B3
:104640000AF10300870899F8100000901FFA8AF316
:10465000F2B22846216902F043FB216901EB0A000E
:104660002061216A01EB0A002062D8F8180980B2A3
:10467000B84205D3216AA069814201D20028D9D16C
:10468000216AA069884208D806F00F0101208840FD
:10469000D5F834188143C5F834180020BDE7000070
:1046A000C0ED051A12EE901A80EC030A9FED0D0A78
:1046B0000D4A80ED040A80ED030A80ED080A80EDC2
:1046C000090A914201DDF0EE042A12EE101A074A9F
:1046D000914201D9B8EE042A80ED072AC0ED062ADE
:1046E000704700000000000000002040000020C0D3
:1046F000B0EE401A90ED030AD0ED010A01EE200A57
:1047000080ED030AD0ED060AB4EEE00AF1EE10FAED
:1047100002DDC0ED030A08E0D0ED071AB4EEE10AAD
:10472000F1EE10FA01D2C0ED031A90ED030AD0EDBC
:10473000001A90ED082A01EE810A31EE422AD0EDEE
:10474000021A01EE820AF4EEC00AF1EE10FA06D364
:10475000D0ED070AF4EEC00AF1EE10FA01DDB0EE7A
:10476000600A80ED081A70477047000070B50B4D65
:10477000002400BF00F08EF948B108480C30408892
:10478000A5F8020000EE100AB8EE400A70BD641CE5
:10479000E4B20A2CEED36888F4E700005801002048
:1047A0002DE9F04FB34900202DED028BE5B00880D4
:1047B000488008714871A1F10C094FF4CA7189F859
:1047C00000006846FBF748FDAB48B3EE080AB6EEBA
:1047D000008A80ED080AB3EE040A80ED0E0AA748AD
:1047E0009FEDA70A90ED001AC0EE010A10EE900AA4
:1047F000B0F1814F02DDF1EE000A06E010EE900A02
:10480000B0F17C5F01DAF0EE480ADFED9E8A9A484B
:10481000B0EE680A03F042FB0021974802F04EFF19
:10482000C820FDF7D1FAFFF7A1FF4FF4807192483D
:1048300002F044FF1E20FDF7C7FAFFF797FFBCEE1A
:10484000C00A8C4C4FF4007110EE100A241F208017
:10485000894802F033FF1E20FDF7B6FAFFF786FF06
:104860004FF44071844802F029FF1E20FDF7ACFA96
:104870000021814802F022FF4FF47A70FDF7A4FA7C
:10488000FFF774FFBCEEC00A10EE100A80B2608021
:104890002188401A01B2002909DD40F69F7101FA12
:1048A00080F141F63E70814201D8012001E04FF0D5
:1048B000FF30754F0024C9F8040000BFFFF756FF12
:1048C000BCEEC00AB846002510EE100A04F003063C
:1048D00027F8140005EB062081B2674802F0EEFECF
:1048E0003C2000F05BFA6D1CADB2FF2DF2D9641CC8
:1048F000A4B2C82CE2D300215F4802F0DFFE4FF4DF
:10490000FA70FDF761FA614C002500BFFFF72EFF3A
:10491000BCEEC00A002610EE100A24F8150005F0BF
:1049200003004742C6EB072000F2FF3081B2524835
:1049300002F0C4FE3C2000F031FA761CB6B2FF2E25
:10494000F0D96D1CADB2C82DE0D3A3462488B8F8C9
:104950000030C82500206E001F1BC2461919EE4604
:1049600013E090B1C0F1C8083AF810203BF818C025
:10497000A2EB0C0805FA88F8B04577D9624564D9EE
:10498000C2F58048E04564DC68E005FA87F2B2428F
:1049900021D9A3420FD9C3F58042A2420FDC13E014
:1049A000B8EE400A20EE080ABCEEC00A10EE102A4B
:1049B000ADF800201EE0C4F580429A4204DD01F506
:1049C000804200EE102AEBE7A1F5804200EE102AAB
:1049D000B8EEC00AE6E700EE101AE1E700EE102A92
:1049E000B8EE400A20EE080ABCEEC00A10EE102A0B
:1049F0002EF81020401CC0B2C828B2D3B0EE680A0E
:104A00001D48F0EE400A03F049FA00211A4802F06E
:104A100055FED9F804004C46012829D05FF0160055
:104A2000ADF89001C92269461948FCF7A9FB4FF47B
:104A30007A70FDF7C9F90120207072B6FDF72CFCE1
:104A400065B0BDEC028BBDE8F08FCCF58048904599
:104A500004DD624402F58042C0E707E06244A2F54B
:104A6000804200EE102AB8EEC00ABBE76244B5E708
:104A70000B20D5E764010020EC200020140000206A
:104A80000000404200000000942300202425002064
:104A9000000006082DE9FE434FF40340ADF8040082
:104AA0004FF404404FF00008314D324CADF8060091
:104AB00005264FF001094746002210212846FDF740
:104AC00045FB012302AA01A92B480096FEF748FCEA
:104AD00030B1012210212846FDF738FB277142E052
:104AE000012210212846FDF731FB00221021284623
:104AF000FDF72CFB0DF10A020123111F1E48009641
:104B0000FEF72EFC0028E4D1012210212846FDF7F3
:104B10001DFBBDF80800BDF80A20C0B260F31F22DB
:104B20000021228008464B4603FA00FC12EA0C0FD3
:104B300001D0491CC9B2401CC0B21028F4D3C80728
:104B400008D008F1010000F0FF082771B8F1030F49
:104B5000B2D308E084F80490C2F38D006080C2F301
:104B60004000607110B10020BDE8FE830120FBE72A
:104B70000000024064010020BC01002038B504465A
:104B80001248134B0068B0FBF3F04FF47A735843AC
:104B900000906068B0F5827F0DD10B460092002234
:104BA0008021204600F016F870B1606D40F02000C2
:104BB0006065032038BD009830B1401E0090206829
:104BC0008068C0430006F6D5002038BDA000002054
:104BD00000366E012DE9F8431E469146884604468C
:104BE000089DFDF7B9FA401B351AFDF7B5FA0746DF
:104BF00025480068C0F3CB30684338E0701C37D0DC
:104C0000FDF7AAFAC01BA84203D215B1009860B301
:104C10002CE02068416821F0E00141606068B0F557
:104C2000827F0BD1A068B0F5004F02D0B0F5806F45
:104C300004D12068016821F040010160A06AB0F54C
:104C4000005F09D12068016821F4005101602068EB
:104C5000016841F400510160012084F851000020F6
:104C600084F850000320BDE8F8830025401E009022
:104C70002068816838EA010004D000214945BDD18F
:104C80000020F0E70121F9E7A0000020704701783B
:104C9000407841EA00207047F0B53B483C4AC827BD
:104CA00001885220B1FBF0F3384816680088C830FC
:104CB00006FB030090FBF7F207FB1205354B6C1E59
:104CC00003F5C8706D1C2EE004F1C80292FBF7FCDE
:104CD00007FB1C2202F1010C9CFBF7FE07FB1ECC1C
:104CE00033F812E033F81CC0012E06D0F44512D27E
:104CF0008E4517D38C4506D914E0F44505D98E4569
:104D000010D88C450ED302700FE00BD28E4509D817
:104D10000CF5804CF5E705D98E4503D301F5804E9F
:104D2000F445F0D9641CAC42CEDD02781A4C551C17
:104D3000B5FBF7FC34F9124007FB1C55446033F80F
:104D4000155033F81220754302FB06F39D4202DD35
:104D5000891A71430BE043F64873012E04D099423F
:104D6000A2EB01010CD802E0994205D9891A090287
:104D700091FBF4F10181F0BDC2F580421144F6E7E8
:104D8000090201F58001F3E74C0100203401002005
:104D90005C0100205C1F00206C210020C0EBC000E3
:104DA000800000E000BF401EFCD27047FDF7DAB97A
:104DB00030B593B030216846FBF74EFA14210CA8A9
:104DC000FBF74AFA1E480025016841F08051016056
:104DD000006800F0805011901A48016841F4804149
:104DE00001600068022400F48040119001200090CE
:104DF000000401908001CDE90640082008904FF49E
:104E0000A870CDE9090407200B906846FEF760F80A
:104E100008B172B6FEE70CA90F2081E831004FF40B
:104E2000A0500F904FF48050109005210CA8FDF772
:104E30007FFF002801D072B6FEE713B030BD00003E
:104E400040380240007000400248016841F470019F
:104E50000160704788ED00E00148FEF75CBE00008D
:104E6000A4020020F0B50268254C264D264E274F9F
:104E7000274B4FF0804CA04209D0604507D0A84294
:104E800005D0B04203D0B84201D0984204D122F0FC
:104E9000700E4A6842EA0E02A0421BD0604519D04B
:104EA000A84217D0B04215D0B84213D0984211D0C2
:104EB000184DA8420ED0184DA8420BD0174DA8424D
:104EC00008D0174DA84205D0164DA84202D0164D65
:104ED000A84203D122F44075CA682A434D6922F0E2
:104EE00080022A4302608A68C2620A688262A04223
:104EF00001D0984201D10969016301214161F0BDEE
:104F0000000001400004004000080040000C004088
:104F100000040140004001400044014000480140BD
:104F200000180040001C00400020004010B501F0B7
:104F30001F030121046A99408C430462016A9A406C
:104F40001143016210BD10B501F01F030421046A72
:104F500099408C430462016A9A401143016210BD7A
:104F600010B5846842EA032224F47F440A432243B2
:104F7000826010BD826822F070020A4342F007018D
:104F800081607047F0B5026A22F001020262036A92
:104F900042688469124E24F073050C682C4323F098
:104FA00002058B682B430D4DA84201D0B04205D1BC
:104FB00023F00807CB683B4323F00403A84201D049
:104FC000B04205D14D6922F4407215438A692A43E3
:104FD00042608461496841630362F0BD00000140A2
:104FE00000040140F0B5026A22F010020262026A77
:104FF000436884690D6824F4E64444EA05248D6816
:1050000022F0200242EA05120F4D104EA84201D0B4
:10501000B04206D1CF6822F0800242EA071222F0A5
:105020004002A84201D0B04207D14D6923F4406349
:1050300043EA85038D6943EA8503436084614968D7
:1050400081630262F0BD00000000014000040140E5
:10505000F0B5026A22F480720262026A4368C4698F
:1050600022F4007224F073050C68124E2C438D68F4
:1050700042EA05220E4DA84201D0B04206D1CF68C7
:1050800022F4006242EA072222F48062A84201D0A0
:10509000B04207D14D6923F4405343EA05138D69AB
:1050A00043EA05134360C4614968C1630262F0BD0D
:1050B000000001400004014030B5026A22F4805231
:1050C0000262046A4268C3690D6823F4E64343EA56
:1050D00005238D6824F4005444EA0534084DA842A1
:1050E00002D0084DA84204D14D6922F4804242EA20
:1050F00085124260C36149680164046230BD0000EA
:10510000000001400004014010B5036A046A24F065
:1051100001040462846924F0F00444EA021423F0D8
:105120000A020A438461026210BD10B5036A23F0CB
:10513000100303628369046A23F4704343EA023272
:1051400024F0A00343EA01118261016210BD2DE940
:10515000F0410C46D0F8D412D0F8C82200EB8101FF
:10516000D1F8C01229B304F00F0606EB860300EB5A
:1051700083050027AB694BB106EBC60602EB86023E
:10518000926CB3FBF2F602FB1632A2B1C1F81472B4
:10519000D0F8D42200EB8200D0F8C40203692BB10E
:1051A000D1F80802224601F5047198470020BDE8B5
:1051B000F0810320FBE700231A462146AF6100F08F
:1051C000D4FDF3E770B50546D0F8D40205EB8000B6
:1051D000D0F8C04294B1284600F0A9FCC4F80C02F3
:1051E000D5F8D412D4F8040205EB8101D1F8C41229
:1051F000CA6804F503719047002070BD032070BD9C
:1052000070B5224D0446297800F0D5FB2878002699
:1052100000F00F0000EB800004EB800086846978CA
:10522000204600F0C8FB687800F00F0000EB80001B
:1052300004EB8000A0F86461A978204600F0BBFB75
:10524000A87800F00F0000EB800004EB800086845B
:10525000C684D4F8D40204EB8000D0F8C01299B10F
:10526000D0F8C40240688047D4F8D40204EB800030
:10527000D0F8C00200F09DFFD4F8D40204EB800007
:10528000C0F8C062C4F8BC62002070BDA800002055
:1052900010B5D0F8D41200EB8100D0F8C04284B130
:1052A000D0F8C41259B194F80002FF2807D08B68D7
:1052B00094F8012221469847FF2084F8000200203C
:1052C00010BD032010BD00000A2101800048704776
:1052D000AC00002070B5064682210C4800F0FBFAB5
:1052E00005460121094800F0F6FA044681210748E5
:1052F00000F0F1FA0DB11021A971402104B1A18093
:1053000000B1818043203080004870BDB80000208B
:1053100070B5064682210D4800F0DDFA05460121F0
:105320000A4800F0D8FA04468121084800F0D3FA70
:105330000DB11021A9714FF4007104B1A18000B129
:10534000818043203080014870BD0000B8000020FB
:1053500070B5064682210C4800F0BDFA05460121D1
:10536000094800F0B8FA04468121074800F0B3FA72
:105370000DB11021A971402104B1A18000B181803B
:1053800043203080004870BDB80000202DE9F04770
:1053900004464FF40775284600F00CFF06004FF056
:1053A000000863D02946FAF757FFD4F8D4023C4DE1
:1053B00004EB80004FF01009C0F8C062C4F8BC6272
:1053C000207C4FF4007A0127F0B340230222297891
:1053D000204600F019FC2878402300F00F0000EB75
:1053E000800004EB8000878402226978204600F068
:1053F0000BFC6878082300F00F0000EB800004EB42
:1054000080000322A0F86471A978204601F00F0102
:1054100001EB810104EB8101A1F82690A97800F04D
:10542000F3FBA87800F00F0000EB800004EB800095
:105430008784C6F80482D4F8D402474604EB80007F
:10544000D0F8C402006800E018E006F50176804755
:105450003761776132687AB1207CF8B1402369788E
:10546000204600F0DDFB0020BDE8F087D4F8D41220
:1054700004EB8101C1F8C0820220F5E75346022205
:105480002978204600F0C0FB2878534600F00F0032
:1054900000EB800004EB80008784A5E75346DEE73D
:1054A000A800002010B5D0F8D41200EB8101D1F88B
:1054B000C01259B1027C084C002AD1F8042207D04E
:1054C0004023617800F0ACFB002010BD032010BD2C
:1054D0004FF40073F5E70000A800002039B1D0F8C0
:1054E000D42200EB8200C0F8C412002070470320D1
:1054F0007047D0F8D42200EB8200D0F8C00218B177
:10550000C0F804120020704703207047D0F8D4324E
:1055100000EB8300D0F8C00228B1C0F81022C0F818
:10552000081200207047032070472DE9FC41064611
:10553000D0F8D4020C4606EB80000021D0F8C072EF
:105540008DF80010ADF804100D4637B1217811F038
:1055500060022FD0202A4BD102E00320BDE8FC815D
:10556000E288F2B109060DD5D0F8C4026378394655
:10557000D0F808C01846E047E288072A00D9072279
:1055800039462DE0607887F80002E088402800D393
:105590004020C2B287F801223946304600F081F837
:1055A0002BE0D0F8C40263780022866821461846B2
:1055B000B04722E0607830B101281ED00A2809D017
:1055C0000B2815D110E096F89C02032810D1022276
:1055D00001A905E096F89C02032809D10122694639
:1055E000304600F078F808E096F89C02032804D0D2
:1055F0002146304600F04AF803252846AEE7000071
:1056000010B5D0F8D41200EB8101D1F8C0220121ED
:105610001AB1D2F8143213B116E0032010BD0121E3
:10562000C2F814120949D2F81032097801F00F04B7
:1056300004EB840400EB8404A361D2F81032D2F8A6
:10564000082200F092FB0021084610BDA8000020AF
:1056500010B5D0F8B82200245268904700B1032456
:10566000204610BD0020704700207047134610B53B
:105670000A46002100F0D4FA002010BD134610B5F0
:105680000A46002100F071FB002010BD10B5044651
:10569000802100F04FFB2046BDE81040002100F0C3
:1056A00049BB10B50323C0F89432C0F85821134603
:1056B000C0F85C210A46002100F0B2FA002010BDBB
:1056C00010B50521C0F8941200231A46194600F0BF
:1056D000A7FA002010BD10B50223C0F894328261F1
:1056E0001346C2610A46002100F03FFB002010BDB6
:1056F00010B50421C0F8941200231A46194600F090
:1057000034FB002010BD000010B50A46024903A07A
:1057100000F005F9004810BD100600204344432066
:10572000436F6E666967000012200880004870476A
:105730004C00002010B50A46024903A000F0EFF823
:10574000004810BD1006002043444320496E746594
:10575000726661636500000004200880004870479D
:105760004800002010B50A46024903A000F0D7F80F
:10577000004810BD1006002053544D6963726F65D8
:105780006C656374726F6E696373000010B50A46CE
:10579000024903A000F0C3F8004810BD1006002025
:1057A00053544D3332205669727475616C20436FC7
:1057B0006D506F727400000010B51A2008800A48FE
:1057C0000168001D0468001D0068081809D008223F
:1057D0000649FEF729FC0549042210312046FEF750
:1057E00023FC0248801E10BD107AFF1F62000020BB
:1057F000F8B504460020ADF8000048880D46010ABF
:1058000008295FD2DFE801F05E0409175E5E3C45BF
:10581000D4F8B412207C0A6819E0207C0226002803
:10582000D4F8B80205D0C16A684688470146467078
:1058300039E0816AF8E7C0B2062843D2DFE800F019
:10584000030A1014181CD4F8B402426805E0694633
:1058500090471CE0D4F8B402826892B3207CF6E74B
:10586000D4F8B402C268F8E7D4F8B4020269F4E7E5
:10587000D4F8B4024269F0E7D4F8B4028269ECE7E4
:10588000207CF0B9D4F8B802416B684688470146DD
:1058900009E0207CA8B9D4F8B802016B68468847B3
:1058A000014607204870EA888AB1BDF8000040B17F
:1058B000824200D90246ADF800202046FFF70BFFD8
:1058C000F8BDFFE729462046FFF7E0FEF8E720464F
:1058D000FFF70EFFF4E778B50E4642880178002501
:1058E00004468A4212D9ADF800100AE0694600F079
:1058F0000FF84178052904D181780546B14205D0D9
:1059000000256188BDF800209142EFD8284678BD77
:105910000A8803781A440A8001780844704770B5F1
:10592000002300281ED00025044602E06D1CEDB2C5
:10593000641C2678002EF9D1022404EB450414805F
:105940001278CA545B1C0322CA5400245B1C06E074
:10595000CA545B1CDAB28C54521CD3B2401C02787D
:10596000002AF5D170BD01004FF0000004D00129DC
:1059700001D0022901D0032070470120704778B17F
:105980000023C0F8B832C0F8C432C0F8D03209B130
:10599000C0F8B412012180F89C12027000F0CCB85B
:1059A0000320704710B5D0F8C802FCF7FEFCBDE834
:1059B0001040FFF7D8BF10B5D0F8C802FCF7CFFCF5
:1059C000BDE81040FFF7CFBF2DE9F0411746044670
:1059D000002521B194F89C02032842D04CE0D4F871
:1059E000941204F11400022935D1D0E902639E42D9
:1059F00006D9F21A826039462046FFF73FFE0FE0D3
:105A0000B34214D14068984211D3D4F89812884216
:105A10000DD2002211462046FFF730FEC4F89852FE
:105A200000231A461946204600F0FAF813E094F8CD
:105A30009C02032808D1D4F8B802C16821B1C4F887
:105A4000D452C168204688478021204600F072F970
:105A50002046FFF735FE94F8A00268B184F8A05202
:105A60000AE0D4F8B802426932B1C4F8D4524269AB
:105A700020469047002800D10020BDE8F08170B595
:105A800013460446002221B194F89C02032830D02A
:105A90003AE0D4F8941204F5AA70032934D1D0E97D
:105AA00002518D420AD96A1A82600846824200D3A6
:105AB000024619462046FFF7D9FD25E094F8AA02D0
:105AC00010F01F0003D0012802D0022800D00022CD
:105AD00094F89C02032808D1D4F8B802016921B1D6
