:020000040800F2
:10000000984E002061020008431E0008EB1B000808
:10001000411E00089D0B000865210008000000003B
:10002000000000000000000000000000A101000826
:100030009F0B000800000000FD010008491E000899
:100040007B0200087B0200087B0200087B0200089C
:100050007B0200087B0200087B0200087B0200088C
:100060007B0200087B0200087B0200087B0200087C
:100070007B0200087B0200087B0200087B0200086C
:100080007B0200087B0200087B0200087B0200085C
:100090007B0200087B0200087B0200087B0200084C
:1000A0007B0200087B0200087B0200087B0200083C
:1000B0007B0200087B0200080D1F00087B0200087D
:1000C0007B0200087B0200087B0200087B0200081C
:1000D0007B0200087B0200087B0200087B0200080C
:1000E0007B0200087B0200087B0200087B020008FC
:1000F0007B0200087B0200087B0200087B020008EC
:100100007B0200087B0200087B0200087B020008DB
:100110007B0200087B0200087B0200087B020008CB
:100120007B0200087B0200087B0200087B020008BB
:100130007B0200087B0200087B0200087B020008AB
:100140007B0200087B0200087B0200087B0200089B
:100150007B0200087B0200087B0200087B0200088B
:100160007B0200087B0200087B0200087B0200087B
:100170007B0200087B0200087B02000800000000F0
:100180007B0200087B020008DFF810D000F01AF9AB
:100190000048004735230008AFF30080984E002048
:1001A0002C4B19680868B0E8F04F80F30988BFF35A
:1001B0006F8F4FF0000080F311887047000000003F
:1001C00008480068006880F308884FF0000080F35A
:1001D000148862B661B6BFF34F8FBFF36F8F00DF35
:1001E00000BF00BF08ED00E0DFF80C00016841F43B
:1001F00070010160704700BF88ED00E0EFF30980F7
:10020000BFF36F8F134B1A681EF0100F08BF20ED5D
:10021000108A20E9F04F106009B44FF0500080F3CD
:100220001188BFF34F8FBFF36F8F02F05FFF4FF066
:10023000000080F3118809BC19680868B0E8F04F25
:100240001EF0100F08BFB0EC108A80F30988BFF3CE
:100250006F8F704714000020EFF305807047000097
:100260000648804706480047FEE7FEE7FEE7FEE750
:10027000FEE7FEE7FEE7FEE7FEE7FEE7FD1E0008FD
:10028000890100082DE9F05F0546002092469B4653
:1002900088460646814640241BE02846414647469C
:1002A000224600F07EF853465A46C01A914110D3B8
:1002B00011461846224600F065F82D1A67EB010832
:1002C0004F4622460120002100F05CF817EB0009A0
:1002D0004E41201EA4F10104DFDC484631462A4687
:1002E0004346BDE8F09F40EA01039B0703D009E0C5
:1002F00008C9121F08C0042AFAD203E011F8013B12
:1003000000F8013B521EF9D27047D2B201E000F86A
:10031000012B491EFBD270470022F6E710B51346A9
:100320000A4604461946FFF7F0FF204610BD421C5E
:1003300010F8011B0029FBD1801A704710B500226C
:1003400000E0521C835C8C5CA34201D1002BF8D1ED
:10035000D8B2E1B2401A10BD30B50B4601460020BC
:100360002022012409E021FA02F59D4205D303FA77
:1003700002F5491B04FA02F52844151EA2F10102F8
:10038000F1DC30BD202A04DB203A00FA02F1002023
:1003900070479140C2F1200320FA03F319439040C3
:1003A0007047202A04DB203A21FA02F0002170472E
:1003B00021FA02F3D040C2F12002914008431946CD
:1003C00070470000064C074D06E0E06840F001036E
:1003D00094E8070098471034AC42F6D3FFF7D8FEF4
:1003E000205F0008405F00082DE9F0470024DDF899
:1003F00020A091462546264688B383B35FEA0A02C9
:1004000040D0A44683F800C0674631E0C25D0D2AA3
:100410000FD00A2A0DD0022A28D0032A26D04D4513
:10042000A2F130081CD1B8F1090F0CD92C2A0AD03E
:100430001CE04D4501D106BB18E0BEB16D1C002685
:10044000EDB2344612E0AAF101081FFA88F8A0457F
:100450000CD91A55641CA4B203F804C005E011E0DD
:10046000B8F1090F01D92C2A00D101267F1CBFB297
:100470008F42CBD34D4505D126B103F804C00120EE
:10048000BDE8F0870020FBE7FEB50C2500230C46F5
:100490006F4619461E46D0B16D1E8DF8006005F0FE
:1004A000FF0C0AE02C2D14D0A34205D18C4503D9B2
:1004B0007D54491CC9B27E54401C0578002DF1D1F1
:1004C000A34204D111463846FFF738FF48B1002057
:1004D000FEBDA34201D17E54F4E75B1CDBB20021D8
:1004E000EAE70120FEBD000070B5AAB050240D4619
:1004F000064601AB00220094FFF776FF002856D095
:1005000015AB0122294630460094FFF76DFF002805
:100510004DD028A2012101A8FFF7B6FF002846D040
:1005200024A2022101A8FFF7AFFF00283FD022A29A
:10053000042101A8FFF7A8FF002838D01DA205213B
:1005400001A8FFF7A1FF002831D01AA2072101A8B6
:10055000FFF79AFF00282AD016A2092101A8FFF769
:1005600093FF002823D013A20A2101A8FFF78CFFD4
:1005700000281CD00FA20B2101A8FFF785FF00283F
:1005800015D00CA2022115A8FFF77EFF00280ED07F
:1005900008A2032115A8FFF777FF002807D005A2BE
:1005A000072115A8FFF770FF002800D001202AB00E
:1005B00070BD000030000000303030002DE9F843FD
:1005C00090460D460646002400F000FC0746002039
:1005D0008DF8000066B15DB1814630701248FFF7BA
:1005E000A6FE0146104800F023F86D1EADB212E0E1
:1005F0000020BDE8F8833223012269460B4801F050
:100600003BFA08B13CB10DE09DF800003055641C88
:10061000A4B206F8049000F0D9FBC11B414501D2F9
:10062000A542E8D82046E4E7943B0008F00000200B
:100630002DE9F0410E4607004FF0000414D0002EC3
:1006400012D04FF4FA68B4420ED2301B85B2802D1E
:1006500000D98025391943462A46044801F06CFA2E
:10066000002801D12C44EEE7BDE8F081F000002025
:1006700010B5040007D0FFF75AFE01462046BDE83A
:100680001040FFF7D5BF10BD0148FFF7F1BF0000D4
:10069000C03B00082DE9F043C1B08946064600F092
:1006A00095FB054600244FF448774FF4807816E018
:1006B0003A4641466846FFF781FF01000BD0684685
:1006C000FFF712FF38B1641CE4B2022C04D30120FE
:1006D00041B0BDE8F0830024484600F063FA00F022
:1006E00075FB401BB042E3D30020F1E7014880785E
:1006F000704700009400002070B54FF400410E4890
:1007000000F05AFB90B100200C4C0D4D08212070D8
:10071000284600F051FB58B1002060701021284697
:1007200000F04AFB30B10020A07070BD0120EBE763
:100730000120F2E70120F7E7000C024094000020BE
:100740000018024008B54FF000084446C2466FA0AA
:1007500001F00AFD74A001F007FD7EA001F004FD88
:1007600087A001F001FD0122D103934800F029FB8D
:10077000FFF7C2FFFFF7BAFF904E05461021304643
:1007800000F01AFB074615B18DA001F0EDFCB34651
:10079000FFF7B2FFFFF7AAFF06464FF0000910214E
:1007A000584600F009FBB8420BD01021584600F023
:1007B00003FB0746FFF79AFF024639468FA001F078
:1007C000D3FC54B3012C72D001220024D1037A4807
:1007D00000F0F7FA354601F0D8FDA0EB0800B0F5BF
:1007E000FA7F16D301F0D1FD80464FF400417248E4
:1007F00000F0E2FA0646FFF779FF814610215846DD
:1008000000F0DAFA02464B46214684A0009601F039
:10081000ABFC012001F0ACFDBAE700208DF8000030
:10082000034601226946874801F026F928B99DF858
:100830000000702805D0502803D0002ECAD035B152
:100840000AE04FF0010A80A001F08EFC07E04FF0B3
:10085000010985A001F088FCB9F1000FBAD01E2073
:1008600001F086FDFFF748FFFFF740FF10B9BAF12E
:10087000000F1DD0012686A001F076FC01224E4D0E
:10088000D4032146284600F09CFAFFF7FDFE4FF402
:10089000966001F06DFD87A001F066FC4FF4967143
:1008A00043F69820FFF7F6FE20B189A003E00EE0A2
:1008B00000268FE78CA001F057FC00222146284635
:1008C00000F07FFA95A001F04FFC012482E7BAF115
:1008D000000F0CD04FF47A7001F04AFD01224FF066
:1008E000000AD103344800F06CFA99A009E0FFF740
:1008F000FDFE0028DDD10122D1032F4800F061FA6E
:100900009BA001F031FC002464E700004170706C92
:1009100069636174696F6E207461736B20737461B5
:1009200072740D0A000000005052494E545F524547
:10093000513A2020504734202F20494E5055545FC3
:1009400030352C206C6F77206163746976650D0AF1
:10095000000000005052494E545F444F4E453A202B
:1009600050453135202F204F55545055545F30326B
:100970002C206C6F77206163746976650D0A000026
:100980004D616E75616C20746573743A2073656E89
:1009900064202770272066726F6D2073657269610D
:1009A0006C20746F6F6C20746F207072696E74208D
:1009B0006F6E63650D0A00000010024000180240CF
:1009C000506F776572206F6E20776974682072654A
:1009D0007175657374206163746976652C20776125
:1009E000697420726571756573742072656C6561D8
:1009F00073652066697273740D0A00005245515F79
:100A000050494E206368616E67656420746F2025CD
:100A1000642C205265713D25640D0A005374617485
:100A2000653D2564205245515F50494E3D25642067
:100A30005265713D256420446F6E654F75743D2588
:100A4000640D0A00340100204D616E75616C2070E8
:100A500072696E7420636F6D6D616E642072656380
:100A600065697665640D0A0045787465726E616C1F
:100A7000207072696E742066616C6C696E672065A7
:100A80006467652064657465637465640D0A0000BD
:100A90005072696E7420726571756573742061633C
:100AA000746976652C2073656E64205A504C0D0A6B
:100AB0000000000057616974207072696E7465727D
:100AC00020646F6E65206279207E48530D0A000015
:100AD0005072696E74657220646F6E65206465740F
:100AE00065637465640D0A005072696E74657220E6
:100AF000646F6E6520776169742074696D656F75C8
:100B0000742C20636865636B207072696E74657203
:100B10002073746174650D0A000000005072696EE4
:100B20007420646F6E65206F7574707574206163D6
:100B3000746976652C2077616974207265717565BA
:100B400073742072656C656173650D0A00000000A6
:100B50004D616E75616C207072696E7420646F6E89
:100B600065206F75747075742069646C650D0A007A
:100B70005072696E74207265717565737420726548
:100B80006C65617365642C20646F6E65206F75748D
:100B90007075742069646C650D0A0000FEE770478B
:100BA00072B6FEE770B5044600F010F90546601C09
:100BB00002D004480078044400F008F9401BA04229
:100BC000FAD370BD040000202DE9F84FDFF8BCA176
:100BD0000022012503264FF00F090AF1040BAAF1A8
:100BE000040E00BF0B6805FA02F42340A34270D143
:100BF0000F7907F00307012F01D0022F16D1876864
:100C00004FEA420806FA08FC27EA0C07D1F80CC0A4
:100C10000CFA08FC4CEA070CC0F808C04768A74368
:100C20000C79C4F3001494403C4344600C79E443D1
:100C3000A4070AD0C4684FEA420C06FA0CF7BC437A
:100C40008F6807FA0CF72743C7600C7904F0030498
:100C5000022C12D1D40800EB840CDCF8204057079A
:100C6000FF0E09FA07F824EA0804D1F8108008FA00
:100C700007F848EA0408CCF8208004684FEA420CE0
:100C800006FA0CF7BC430F7907F0030707FA0CF7D5
:100C9000274307604C6814F4403F70D03C4C2768F1
:100CA00047F480472760246822F0030704F4804457
:100CB0000094384C07EB040CDCF8084897074FEA1F
:100CC000177809FA08F7BC43334FB84202D100271E
:100CD00024E054E0314FB84201D101271EE0304FEB
:100CE000B84201D1022719E02E4FB84201D10327A3
:100CF00014E02D4FB84201D104270FE02B4FB8422A
:100D000001D105270AE02A4FB84201D1062705E0A4
:100D1000284FB84201D1072700E0082707FA08F753
:100D20002743CCF80878DAF800405746D1F804C0D9
:100D30009C435FEACC2C00D51C433C60DBF80040B0
:100D40005F46D1F804C09C435FEA8C2C00D51C435D
:100D50003C60DEF800407746D1F804C09C435FEA6F
:100D60008C3C00D51C433C60084F083F3C68D1F8E0
:100D700004C09C435FEACC3C00D51C433C60521C41
:100D8000102AFFF42FAFBDE8F88F0000083C0140A7
:100D9000443802400030014000000240000402409C
:100DA00000080240000C0240001002400014024003
:100DB00000180240001C02400069084000D00120D9
:100DC00070470AB1816170470904FBE701488068F8
:100DD000704700000400002070B5040025D094F88E
:100DE0003D00002520B984F83C50204600F0B8F8BA
:100DF000242084F83D002068016821F00101016091
:100E00002068016841F4004101602068016821F414
:100E10000041016000F05CFA4D4A6168914201D8DE
:100E20004C4900E04C49884201D2012070BD4B4939
:100E30002368B0FBF1F15E6826F03F060E435E606A
:100E40006368934206D94FF4967359434FF47A730B
:100E5000B1FBF3F12368491C1E6A26F03F063143BB
:100E600019626168914210D84900401EB0FBF1F24E
:100E7000521CC2F30B02042A01D2042022E0B0FB70
:100E8000F1F0401CC0F30B001CE0A268F2B301EBD0
:100E9000C10303EB0116431EB3FBF6F35B1C43F4E3
:100EA00080431B0549D092B301EBC10202EB011153
:100EB000401EB0FBF1F0401CC0F30B0040F480403A
:100EC00040F400402168CA694CF6FF739A4310430E
:100ED000C861D4E9071001432068026822F0C0020B
:100EE00011430160D4E9030101432068826848F29C
:100EF000FF339A4311438160D4E905010843216817
:100F0000CA6822F0FF021043C86001E00EE016E05C
:100F10002068016841F0010101602564202084F807
:100F20003D00256384F83E50002070BD01EB410672
:100F3000431EB3FBF6F35B1CB3E70120C2E701EBF2
:100F40004101401EB0FBF1F0401CC0F30B00B7E7BD
:100F5000A086010080841E0000093D0040420F0071
:100F600010B586B0044614216846FFF7D5F9134939
:100F7000206888421FD112480021026842F02002F6
:100F800002600068122200F0200005900320CDE9E5
:100F90000210CDE900020420049069460948FFF7D9
:100FA00013FE07481030016841F4800101600068B9
:100FB00000F48000059006B010BD0000005800400D
:100FC000303802400014024002488168027811441F
:100FD00081607047040000200B4810B5016841F49F
:100FE00000710160016841F480610160016841F4B1
:100FF00080710160032000F09FF80F2000F006F8D8
:1010000000F050F8002010BD003C024030B505460D
:101010001F4887B00024016841F0040101600068A6
:1010200006A900F00400009001A800F031F904982E
:10103000A8B100F04DF940001649174AB0FBF1F194
:101040001648491E026040F2E732C0E90324C0E9B5
:101050000114846100F044FB040003D015E000F0AB
:1010600037F9E9E70D4800F069FB04000DD11E20B7
:1010700000F034F8102D07D2002229461E2000F07F
:101080003BF80748056000E0012407B0204630BD6A
:101090004038024040420F00000800407801002024
:1010A000080000200C4882B0016841F480410160D2
:1010B000006800F4804000900748001F016841F07C
:1010C000805101600068002200F0805000900F21E4
:1010D000901E02B000F010B844380240002809DB2E
:1010E00000F01F02012191404009800000F1E02042
:1010F000C0F8001170470000F0B40E4B1B680C469E
:10110000C3F30223C3F10705042D00D90425191DDB
:10111000072901D2002300E0DB1E012606FA05F1B3
:10112000491E214099409E40761E16403143F0BC36
:1011300001F02AB80CED00E0064900F0070208684B
:101140004FF6FF03184040EA0220034A10430860AC
:10115000704700000CED00E00000FA052DE9F047B3
:101160000E46050065D0DFF81481D8F80000F7B20C
:1011700000F00700B04207D288F80070D8F80000ED
:1011800000F00700B04254D128683D4C810712D5C9
:10119000400703D5206840F4E0502060287800071D
:1011A00003D5206840F4604020602068A96820F0E2
:1011B000F000084320602878C0072DD030496868C7
:1011C0000839012812D0022813D0032811D0096849
:1011D000890700292DDA216821F0030101432160EC
:1011E000FFF7F4FD814641F2883A0EE00968890371
:1011F000EFE709688901ECE7FFF7E8FDA0EB0901DB
:10120000514502D90320BDE8F0872068696800F0E5
:101210000C00B0EB810FEFD1D8F80010404601F080
:101220000701B14207D90770006800F00700B0421B
:1012300001D00120E7E72878400705D52068E96854
:1012400020F4E050084320602878000706D5206885
:10125000296920F4604040EAC100206000F058F89D
:101260002168084AC1F30311515CC840064908606F
:1012700006480068FFF7CAFE0020C4E7003C0240B1
:10128000083802407C3B00081000002008000020C5
:101290000F2202600C4A136803F0030343601368D3
:1012A00003F0F0038360136803F4E053C360126833
:1012B0004FF4E05303EAD20202610448006800F0F0
:1012C000070008607047000008380240003C0240F8
:1012D0000448054900680968044AC1F38221515C49
:1012E000C840704710000020083802408C3B0008BE
:1012F0000448054900680968044AC1F34231515C59
:10130000C840704710000020083802408C3B00089D
:10131000154810B5006810F00C02144813D04110A5
:10132000042A0FD0082A0ED10F4C241F22682368EC
:1013300002F03F025B0207D52068C0F38810A0FBD3
:10134000010106E0084610BD2168C1F38811A1FB28
:1013500000010023FEF796FF2168C1F30141491CFB
:101360004900B0FBF1F010BD083802400024F40041
:101370002DE9F84F04006ED02078DFF84C93C007B9
:10138000A9F104054AD009F104000168C1F3810103
:10139000012908D00068C0F3810002280AD1D9F8D9
:1013A0000000400206D52868800337D56068002811
:1013B000E1D033E06068B0F5803F10D0B0F5A02FE9
:1013C000286810D020F480302860286820F480201D
:1013D00028606068A8B1FFF7F9FC06460DE02868B0
:1013E00040F48030F4E740F480202860F7E700BF45
:1013F000FFF7ECFC801B642873D828688003F7D5BE
:101400000CE0FFF7E3FC064605E000BFFFF7DEFC5B
:10141000801B6428F0D828688003F7D42078DFF890
:10142000AC8280074FF0000A3ED5A748001D016836
:1014300011F00C0F08D00068C0F3810002280BD116
:10144000D9F80000400207D42868800716D5E06864
:10145000012800D112E033E1E068B8B10120C8F8FA
:101460000000FFF7B3FC064605E000BFFFF7AEFC47
:10147000801B0228C0D828688007F7D52868216912
:1014800020F0F80040EAC10028600DE0C8F800A094
:10149000FFF79CFC064604E0FFF798FC801B02283F
:1014A0001FD828688007F7D42078000722D5864FF8
:1014B00087486169703771B101210160FFF786FCCF
:1014C000064604E0FFF782FC801B022809D8386832
:1014D0008007F7D50EE0C0F800A0FFF777FC0646BE
:1014E00005E082E0FFF772FC801B02287DD8386897
:1014F0008007F7D42078400768D5DFF8CCB1002703
:101500000BF13C0BDBF80000C0000BD4DBF8001043
:1015100041F08051CBF80010DBF80000012700F00B
:10152000805000906B4E3068C00510D4306840F495
:1015300080703060FFF74AFC009005E0FFF746FC42
:101540000099401A022850D83068C005F6D55E4E82
:10155000A0686C3601280FD00528306810D020F024
:1015600001003060306820F004003060A068B8B13D
:10157000FFF72CFC00900FE0306840F00100F4E72A
:1015800040F004003060F7E7FFF720FC0099411AB3
:1015900041F28830814266D830688007F4D50EE089
:1015A000FFF714FC009007E0FFF710FC0099411AC8
:1015B00041F28830814256D830688007F4D42FB188
:1015C000DBF8001021F08051CBF80010A069C8B3FF
:1015D0003D49091D0968C1F3810102294AD0022849
:1015E000504607D0C8F8600000E03CE0FFF7EEFB93
:1015F00004463BE04746C8F86000FFF7E7FB0646B5
:1016000005E000BFFFF7E2FB801B02282BD828680B
:101610008001F7D4D4E907010843A16A2E4A49089A
:1016200002EB0141626A41EA8211084394F82C10EE
:1016300040EA0161C9F8001001203866FFF7C6FBD7
:10164000044606E03EE000BFFFF7C0FB001B022897
:1016500009D828688001F7D534E000BFFFF7B6FB52
:10166000001B022802D90320BDE8F88F28688001FA
:10167000F4D427E00128F7D0D9F80000E26900F49B
:10168000800191421CD1226A00F03F01914217D1A2
:1016900047F6C071626A0140B1EB821F10D1A26AA5
:1016A0004FF0FF3300F4403103EB5202B1EB024F35
:1016B00006D194F82C1000F07060B0EB016F01D0EF
:1016C0000120D1E70020CFE7043802400000474264
:1016D000800E4742007000400000FFFF70477047D7
:1016E00010B5040003D094F83D0010B107E00120CC
:1016F00010BD002084F83C00204600F01EF80220B7
:1017000084F83D00211D206800F006FC012084F8CB
:10171000460084F83E0084F83F0084F8400084F8D6
:10172000410084F8420084F8430084F8440084F8BF
:10173000450084F83D00002010BD704790F83D1032
:10174000012901D001207047022180F83D10016875
:10175000CA6842F00102CA6000681149884214D088
:10176000B0F1804F11D00F4988420ED00E49884207
:101770000BD00E49884208D00D49884205D00D494A
:10178000884202D00C49884204D1816801F00701E7
:10179000062903D0016841F0010101600020704773
:1017A000000001400004004000080040000C004020
:1017B000000401400040014000180040704770B52F
:1017C0000446006801694FF00005C943890715D434
:1017D000C168C943890711D4E91E0161012020773E
:1017E000206880698007204602D0FFF7E7FF04E009
:1017F00000F098F8204600F096F8257720680169F7
:10180000C943490717D4C168C943490713D46FF0C6
:1018100004010161022020772068806910F4407F74
:10182000204602D0FFF7CAFF04E000F07BF8204614
:1018300000F079F8257720680169C943090716D4B3
:10184000C168C943090712D46FF00801016104207F
:1018500020772068C0698007204602D0FFF7AEFFDE
:1018600004E000F05FF8204600F05DF8257720687E
:101870000169C943C90617D4C168C943C90613D44D
:101880006FF010010161082020772068C06910F412
:10189000407F204602D0FFF791FF04E000F042F8BD
:1018A000204600F040F8257720680169C943C90740
:1018B00008D1C168C943C90704D1891E0161204606
:1018C00000F032F820680169C943090609D4C168EB
:1018D000C943090605D46FF0800101612046FFF776
:1018E000FDFE20680169C943490609D4C168C9439E
:1018F000490605D46FF040010161204600F01EF852
:1019000020680169C94389060BD4C168C9438906A7
:1019100007D46FF0200101612046BDE87040FFF759
:10192000DEBE70BD7047704700680349884201D130
:10193000FFF74ABB7047000000080040704770B5D1
:10194000040004D094F83D00002510B106E0012009
:1019500070BD84F83C50204600F022F8242084F822
:101960003D002068C16821F40051C160204600F0AC
:1019700037FB2068016921F49041016120684169C9
:1019800021F02A0141612068C16841F40051C16021
:101990002564202084F83D0084F83E00002070BDBE
:1019A000F0B587B0044614216846FEF7B5FC2C4A12
:1019B000216800242B480225032691422DD1294974
:1019C00010310A6842F480120A60096801F480113B
:1019D0000591016841F004010160016801F0040112
:1019E0000591016841F008010160006802AA00F059
:1019F00008000590E802CDE90005082782E8D0003C
:101A000069461948FFF7E0F80420CDE9000502AA6D
:101A1000694682E8D00015481EE0154A91421DD162
:101A2000104914310A6842F010020A60096801F096
:101A300010010591016841F0010101600068029404
:101A400000F0010005904FF4C060CDE900050720CB
:101A5000CDE9036069460748FFF7B6F807B0F0BD67
:101A6000005000403038024000080240000C0240A4
:101A700000100140000002402DE9F84F044690F8A4
:101A80003E009A4616460D46202853D1FDB1F6B1C8
:101A900094F83C0001284DD0012084F83C00002738
:101AA0002764222084F83E002763FFF78FF9A6857C
:101AB0008146E685A0684FF48058404501D12069F1
:101AC00040B12E465FF0000584F83C7027E001200D
:101AD000BDE8F88F0026F7E74B460022202120467C
:101AE000CDF800A000F002FB08B10320F0E726B11A
:101AF000A06840451BD038B108E020684068C0F3BA
:101B0000080025F8020B07E0206980B120684068D2
:101B100000F07F0006F8010BE08D401EE085E08DAF
:101B20000028D9D1202084F83E000020D0E720688A
:101B30004068EFE70220CBE72DE9F843044690F830
:101B40003D001F4616460D4620284CD1C5B1BEB1FA
:101B500094F83C00012846D0012084F83C004FF066
:101B60000008C4F84080212084F83D00FFF72EF9DA
:101B7000A6848146E684A068B0F5805F03D004E0C7
:101B80000120BDE8F883206928B12E465FF00005EA
:101B900084F83C800EE00026FAE78021204600F021
:101BA000A5FAA0B9AEB116F8010B21684860E08C27
:101BB000401EE084E08C4B464FF000020097002866
:101BC000EBD14FF04001204600F090FA30B10320F5
:101BD000D7E735F8020BC0F30800E6E7202084F8C9
:101BE0003D000020CDE70220CBE7FEE710B5044A18
:101BF0000021044800F0FEFB0349086010BD00000E
:101C0000583B0008451E0008000000202DE9F04F59
:101C100087B014216846FEF77FFB5848002401680E
:101C200041F010010160016801F0100105910168A7
:101C300041F020010160016801F020010591016877
:101C400041F080010160016801F0800105910168A7
:101C500041F040010160016801F040010591016817
:101C600041F008010160016801F008010591016877
:101C700041F001010160016801F001010591016875
:101C800041F0040101600068DFF8F4B000F00400E6
:101C90000590002240215846FFF793F8DFF8E490C2
:101CA00000224FF4EC614846FFF78BF8DFF8D8A02C
:101CB000002202215046FFF784F80122D70339465B
:101CC0005846FFF77EF84FF48058002241462F48CF
:101CD000FFF777F8402001250226CDE90005CDE980
:101CE000024669465846FEF76FFF84208DE83100B2
:101CF00069464846FEF768FF4FF4B070CDE900052D
:101D0000CDE9024669464846FEF75EFF4FF4C060E3
:101D10000090CDE90154694648460394FEF754FF0C
:101D20001D20CDE90004694650460294FEF74CFFA1
:101D30000096CDE90154694650460394FEF744FFEE
:101D40000097CDE90154694658460394FEF73CFFDD
:101D5000CDF80080CDE9015469460C480394FEF7A4
:101D600033FF4FF44040CDE9000469460748029430
:101D7000FEF72AFF07B0BDE8F08F000030380240C0
:101D8000001002400014024000180240000C024003
:101D90000D4810B50B4901600C49416000214FF41A
:101DA00080428160C0E9031241618161C1610162C9
:101DB000FFF712F8002803D0BDE81040FEF7F0BE90
:101DC00010BD0000005800409C000020A0860100CB
:101DD0000C4810B50A4901604FF4E131416000211F
:101DE00081600C22C160C0E904128161C161FFF70A
:101DF000A6FD002803D0BDE81040FEF7D1BE10BDFF
:101E000000500040F00000200C4810B50A49016065
:101E10004FF4E1314160002181600C22C160C0E9D2
:101E200004128161C161FFF78AFD002803D0BDE87B
:101E30001040FEF7B5BE10BD001001403401002077
:101E4000FEE7FEE7FEF77EBC10B54FF0E02000692C
:101E500001F0C4FC012803D0BDE8104001F0F2B944
:101E600010BD000030B593B030216846FEF754FA3B
:101E700014210CA8FEF750FA1E480025016841F015
:101E800080510160006800F0805011901A4801688C
:101E900041F4804101600068022400F48040119008
:101EA00001200090000401908001CDE90640082047
:101EB00008904FF4A870CDE9090407200B906846FC
:101EC000FFF756FA08B172B6FEE70CA90F2081E8B9
:101ED00031004FF4A0500F904FF480501090052126
:101EE0000CA8FFF73BF9002801D072B6FEE713B04B
:101EF00030BD0000403802400070004002480168D8
:101F000041F470010160704788ED00E00148FFF77F
:101F100056BC000078010020F0B50268254C264D23
:101F2000264E274F274B4FF0804CA04209D06045EA
:101F300007D0A84205D0B04203D0B84201D09842A1
:101F400004D122F0700E4A6842EA0E02A0421BD071
:101F5000604519D0A84217D0B04215D0B84213D06E
:101F6000984211D0184DA8420ED0184DA8420BD05F
:101F7000174DA84208D0174DA84205D0164DA842CB
:101F800002D0164DA84203D122F44075CA682A43F4
:101F90004D6922F080022A4302608A68C2620A68A0
:101FA0008262A04201D0984201D1096901630121F6
:101FB0004161F0BD00000140000400400008004005
:101FC000000C00400004014000400140004401407A
:101FD0000048014000180040001C00400020004064
:101FE00070B5044600680169E26821F4405111436C
:101FF00001612169A068E2690843616911430843EE
:102000002168CA6849F20C639A430243CA60206897
:102010004169A26921F4407111434161314920684D
:10202000884202D03049884202D1FFF761F901E0CD
:10203000FFF74EF9E2690023192164253226B2F533
:10204000004F626828D0A0FB0101930F9200FEF7B9
:1020500019F90146B0FBF5F06FF01802504301EB9F
:10206000800006EB0010B0FBF5F000F0F002B1FBD1
:10207000F5F002EB0012B1FBF5F06FF018035843D6
:1020800001EB800006EB0010B0FBF5F000F00F0054
:1020900021681044886070BDA0FB010192185B416B
:1020A000FEF7F0F80146B0FBF5F00201B1FBF5F0E8
:1020B0006FF01803584301EB800006EBC000B0FB43
:1020C000F5F000F0F80002EB4002B1FBF5F05843E8
:1020D00001EB800006EBC000B0FBF5F000F007005C
:1020E000D6E7000000100140001401402DE9F04146
:1020F000984617460E460446069D27E0681C25D0E4
:102100002DB1FEF763FEA0EB0800A8421ED920689F
:102110000C3050E8001F21F4D07140E80012002A72
:10212000F5D12068143050E8001F21F0010140E88B
:102130000012002AF5D1202084F83D0084F83E00EA
:10214000002084F83C000320BDE8F081206800688E
:1021500036EA000004D00020B842CFD00020F3E7D8
:102160000120F9E7FEE700000FB4054B10B503A905
:10217000044A029800F028F810BC5DF814FB000037
:102180001D230008980000200907090E002804DB21
:1021900000F1E02080F80014704700F00F0000F11B
:1021A000E02080F8141D704702E008C8121F08C123
:1021B000002AFAD170477047002001E001C1121FC8
:1021C000002AFBD1704700002DE9FF4F89B09B46E4
:1021D0000446002506E025280BD05A460B99904767
:1021E000641C6D1C20780028F5D10DB02846BDE890
:1021F000F08F0027B8460122474900E0074314F852
:10220000013F203B02FA03F00842F7D120782E2844
:1022100019D114F8010F47F004072A280ED06FF0E7
:102220002F022078A0F1300109290CD808EB880191
:1022300002EB410100EB0108641CF2E70A98641C00
:1022400050F8048B0A9020780028CED0642808D05B
:10225000692806D075281ED05A460B9990476D1CE8
:1022600058E00A994FF00A0901C90A91002802DAD8
:1022700040422D2102E0390504D52B218DF8201094
:10228000012103E0F90704D02021F7E78A4608AED0
:102290000DE00021FAE70A994FF00A0901C90A91F5
:1022A000F7E74946FEF758F8303106F8011D0028D7
:1022B000F7D1ADEB060000F12009780701D44FF00B
:1022C0000108C84502DDA8EB090000E000208046B7
:1022D000002706E008A85A46C05D0B9990476D1C80
:1022E0007F1C5745F6DB04E030205A460B99904797
:1022F0006D1CB8F10001A8F10108F5DC05E016F845
:10230000010B5A460B9990476D1CB9F10001A9F1D8
:102310000109F4DC641C65E70928010013B54FF0DE
:10232000FF33012269460248FFF706FC00981CBDF6
:1023300034010020FEF750FEFFF794FDFFF766FC26
:10234000FFF762FDFFF724FDFFF742FD04A0FFF752
:102350000BFF00F021F8FFF749FC00F02FF8FEE733
:102360005541525431205458204F4B0D0A00000063
:1023700010B5EFF3058111B16FF0050403E00024FF
:1023800008B100F0FFFD204610BDEFF3058008B155
:1023900001F038BA01F030BAEFF3058010B16FF0F8
:1023A000050070470448016811B14FF0FF307047D5
:1023B00001210160002070476400002010B5EFF398
:1023C000058010B16FF0050010BD084801680129B3
:1023D00002D04FF0FF3010BD054A002182F8141DD5
:1023E0000221016000F036FE002010BD64000020D4
:1023F0000BE000E02DE9FF414FEA01034FF000053B
:10240000EFF30581039549BB40B3802718210024D1
:102410004AB3166806B1344696691EB13146761E37
:10242000382E02D21679F60703D0002004B0BDE89A
:10243000F081566906B1B708D2F808C0BCF1000FA8
:102440000DD0D5685C2D18D312693AB136B18DE83C
:1024500006103A46214601F096F903900DE0D66841
:102460005EB912694AB903AACDE90012BAB221468F
:1024700001F05CF9012800D003950398D6E700002D
:102480002DE9F041134C0F460546E6682068001D13
:1024900000F044FC681C07D137B12168BDE8F04169
:1024A0000D48091D00F08ABC20683544B5424560DE
:1024B000216805D2A06BBDE8F041091D00F066BCA3
:1024C000606B091D00F062FCA06A854200D2A56223
:1024D000BDE8F08114000020B00600202DE9F04195
:1024E000054600F077FC2D4CA068401CA0602068D9
:1024F0002B4F10B1606930B32BE02560A068012834
:1025000027D1002606EB860007EB800000F030FCA8
:10251000761C382EF6D3234800F02AFC21481430CC
:1025200000F026FC1F48283000F022FC1D483C30FB
:1025300000F01EFC1B48503000F01AFC1948606384
:102540001430A06305E02068E96AC06A884200D8B8
:102550002560606A401C60626864E86A216988429C
:1025600000D9206100EB800007EB8000291D00F0FE
:1025700025FC00F04FFC606900280CD02068E96A57
:10258000C06A884207D208494FF080500860BFF304
:102590004F8FBFF36F8FBDE8F08100001400002063
:1025A000000200206006002004ED00E038B500F0D5
:1025B00011FC104C2068C8B90F4800F0D9FB0E4838
:1025C000143000F0D5FB0C48E060143020610A4B59
:1025D0000020F03B009003F1500210210A2000F08F
:1025E00047FE206010B105A100F096FCBDE8384020
:1025F00000F010BC50000020B4070020546D725150
:102600000000000030B4026C0B46002A0BD0C168F9
:102610001144C1608468A14201D30168C16030BC2B
:102620001846FDF760BE30BC70472DE9F041856B60
:10263000174604460026026C82B1C7B1E068FDF778
:1026400052FEE168206C091AE1602268914202D2D0
:10265000A168081AE060022F16D017E02068A8B918
:10266000A06801F03BF906460020A0600EE060681B
:10267000FDF739FE216C606808446060A1688842FB
:1026800004D32068606001E005B16D1E6D1CA56378
:102690003046BDE8F08110B5044690F8590058B1B5
:1026A00001280CD002280FD0502080F31188BFF3EE
:1026B0004F8FBFF36F8FFEE7206B00F0BFFB20460C
:1026C000BDE8104000F0BABB10BD000010484FF448
:1026D0007051420706D0C01D0D4920F00700411A75
:1026E000C1F570510B4A00230144C2E900030839C7
:1026F000183A21F0070111604B600B600B1AC0E91A
:10270000001393604FF00040536050617047000029
:10271000940E002080000020144E154CA6F29C4719
:102720004FF08058DFF84C9012E000BF00F052FBF1
:10273000F068C568281D00F0F1FAA068401EA0608E
:102740006068401E606000F065FB2846FFF7A3FF4D
:1027500060680028EAD138680128F9D9C9F80080F2
:10276000BFF34F8FBFF36F8FF2E700009C0600208E
:102770001400002004ED00E070B51D46049C51B12A
:10278000C4F80020C4E90F010121204600F0A4FD97
:1027900084F84C5070BD2460F4E700002DE9F05F30
:1027A0008846DDE90B941546834691009A460A9EB9
:1027B000A522206BFDF7A9FD6FF00301206B01EB53
:1027C0008501084420F00707780707D0502080F3E0
:1027D0001188BFF34F8FBFF36F8FFEE70025B8F16D
:1027E000000F0FD05FF00000221818F8001082F8D8
:1027F000341018F8001011B1401C1028F4D384F8DC
:10280000435001E084F83450382E00D33726E66276
:10281000C4E91365201D00F0B6FA04F1180000F0B9
:10282000B2FA2461C6F138006462A061656584F87B
:10283000585052465946384600F05AFA2060B9F1CD
:10284000000F01D0C9F80040BDE8F09F30B5114934
:1028500000E011460A688242FBD34B685C18844250
:1028600003D1406818444860084643681C189442E5
:1028700009D1084C183C2468A24209D052681A4475
:1028800042600A6812680260814200D0086030BD70
:102890000460F9E78000002070B5002441600B4D12
:1028A0000061914206D8D11A8269914206D2011D77
:1028B000286907E09A4203D2994201D3012403E038
:1028C000011DE86800F062FA204670BD500000204B
:1028D00010B5044600F07EFAA06B28B15FF000044A
:1028E00000F098FA204610BD0124F9E730B589B010
:1028F0003C4D6EE00498002806DADDE90601059AF1
:1029000090470498002864DB069C606910B1201D84
:1029100000F004FA03A800F0D7F8024604980A2849
:1029200057D2DFE800F00505052D334A05052D33A4
:1029300094F8280040F0010084F828000599A06967
:10294000059B01442046FFF7A7FF68B3216A204694
:10295000884794F8280040073BD500200090059850
:10296000A169002342181946204601F0C1F8D8B9E0
:10297000502080F31188BFF34F8FBFF36F8FFEE7B6
:1029800014F8280F20F00100207022E094F82800AD
:1029900040F0010084F828000598A06128B1811852
:1029A00013462046FFF778FF13E0502080F311888C
:1029B000BFF34F8FBFF36F8FFEE794F828008107B6
:1029C00003D4204600F03AFA03E020F0010084F836
:1029D0002800002204A9286800F0D2FD002889D12F
:1029E00009B030BD500000202DE9FC410F460546DE
:1029F00000F074FB01A800F067F80446019818B1D4
:102A000000F0E4FFBDE8FC81254EAFB130690068FD
:102A1000D0B30027291B3A46306800F091FA00F045
:102A2000D5FF0028EED11F494FF080500860BFF35A
:102A30004F8FBFF36F8FE5E7A542EBD800F0C6FFDD
:102A4000F0682746C068C468201D00F067F994F854
:102A50002800410719D5A0692B4641193A4620465E
:102A6000FFF71AFFA8B100200346014600902A464E
:102A7000204601F03DF860B9502080F31188BFF383
:102A80004F8FBFF36F8FFEE707E020F0010084F85F
:102A90002800216A20468847B4E70127BAE70000EA
:102AA0005000002004ED00E00648416B096829B1A0
:102AB000416BC968C9684968816270474FF0FF314E
:102AC000FAE700001400002070B5054600F094FEFF
:102AD000064E0446B068844203D200F009F8012093
:102AE00000E0002028602046B46070BD5000002047
:102AF000F8B5194D20E0C068C4680668201D00F0D4
:102B00000DF9216A2046884794F82800400713D51C
:102B1000A0693044B04206D924616060211DE86894
:102B200000F034F908E000200346014600903246E8
:102B3000204600F0DDFF38B1E86801680029DAD1ED
:102B40002969C5E90310F8BD502080F31188BFF34F
:102B50004F8FBFF36F8FFEE750000020084840689A
:102B6000401C4FF0500080F3118804D0BFF34F8F0A
:102B7000BFF36F8FFEE7BFF34F8FBFF36F8FFEE79B
:102B800088000020074CE068016841B1C06800215E
:102B9000D0F80000FFF728FFFFF7A8FEF3E70121B8
:102BA0000020F7E7500000202DE9F041044600F036
:102BB00011F994F9455004F1240609E0606A48B11E
:102BC000304600F0CBFE08B100F00AFA6D1E6DB27F
:102BD000002DF3DC4FF0FF3684F8456000F01AF961
:102BE00000F0F8F894F9445004F1100709E0206966
:102BF00048B1384600F0B2FE08B100F0F1F96D1EA0
:102C00006DB2002DF3DC84F84460BDE8F04100F0C3
:102C100001B900002DE9F0410546002700F05EFAF9
:102C2000324E306808B9FFF751FD706905424ED148
:102C3000C5B3083568070ED005F00700C0F10800DD
:102C40000544680707D0502080F31188BFF34F8FE9
:102C5000BFF36F8FFEE72DB37068854237D82348E6
:102C6000183001460C6801E020460C466168A94214
:102C700002D221680029F7D131688C4227D0076839
:102C80002168016060680837411B10290FD960195D
:102C9000420708D0502080F31188BFF34F8FBFF355
:102CA0006F8FFEE713E041606560FFF7CFFD61685D
:102CB0007068401A7060B268904200D2B06070696B
:102CC00001430020C4E90001F068401CF06000F0FE
:102CD0007DFE780707D0502080F31188BFF34F8F17
:102CE000BFF36F8FFEE73846BDE8F0816800002033
:102CF00010B5031F4FF080741C601B1F21F00101F1
:102D00001960191F044B0B6014390A60091F6FF01A
:102D1000020244380A6010BD5D2B0008D0E9013280
:102D200001699A60D0E901235A604A68824201D160
:102D300082684A60002202610868401E08600868D4
:102D400070470000034B036003F15C0008608020C3
:102D500010607047DC070020044B036003F15C0047
:102D600008604FF48070106070470000380A00203F
:102D700000F108014FF0FF32C0E90112C1600161AA
:102D800000210160704700210161704730B50B6878
:102D90005A1C02D000F1080202E0026904E0224657
:102DA000546825689D42FAD953684B6099608A60DF
:102DB000516008610168491C016030BD42684A6089
:102DC00093688B6093685960916008610168491C41
:102DD00001607047502080F31188BFF34F8FBFF31D
:102DE0006F8F0A494868401C486001280CD1084888
:102DF000006810F0FF0F07D0502080F31188BFF358
:102E00004F8FBFF36F8FFEE77047000088000020F0
:102E100004ED00E00849486828B1401E486001D12F
:102E200080F311887047502080F31188BFF34F8FD3
:102E3000BFF36F8FFEE700008800002070B5002808
:102E40002AD0164DA0F1080460686969084207D1CC
:102E5000502080F31188BFF34F8FBFF36F8FFEE7D1
:102E600022683AB1502080F31188BFF34F8FBFF32F
:102E70006F8FFEE78843606000F030F96068696832
:102E8000084468602046FFF7E1FC2869401C28617F
:102E9000BDE8704000F09ABD70BD000068000020E1
:102EA0004FF0E02000210161816105494FF47A7201
:102EB0000968B1FBF2F1491E4161072101617047C8
:102EC0001000002010B5FDF7C7F9114910280ED3E6
:102ED00000F1E02090F8F0030A78904207D25020E9
:102EE00080F31188BFF34F8FBFF36F8FFEE7094860
:102EF0000068896800F4E060884207D9502080F3B8
:102F00001188BFF34F8FBFF36F8FFEE710BD000036
:102F1000880000200CED00E010B5084B002200BF37
:102F200053F832401CB1521C082AF9D310BD43F8A3
:102F3000321003EBC201486010BD0000C001002048
:102F400070B515460E460446FFF744FF94F9441049
:102F50000020491C01D184F8440094F94510491C13
:102F600001D184F84500FFF755FFA06B28B92A4628
:102F7000314604F1240000F051F82046BDE87040CD
:102F8000FFF712BE10B5020014D00F48006B38B125
:102F9000502080F31188BFF34F8FBFF36F8FFEE790
:102FA00000F09CF800211046FFF76AFA00F00EFDD1
:102FB000002807D105494FF080500860BFF34F8FBC
:102FC000BFF36F8F10BD00001400002004ED00E07F
:102FD00002490A6A0260C968416070471400002013
:102FE00001490120C86170471400002010B50C464B
:102FF00050B1094909681831FFF7C8FE2046BDE8FD
:1030000010400121FFF73CBA502080F31188BFF334
:103010004F8FBFF36F8FFEE71400002070B514468A
:103020000D4668B10A4909681831FFF7C7FE0CB1AF
:103030004FF0FF3521462846BDE87040FFF720BA23
:10304000502080F31188BFF34F8FBFF36F8FFEE7DF
:103050001400002030B587B00024039405AA04A909
:1030600003A80494FFF76EFEDDE903010094CDE9A7
:103070000110002315A11748059A00F084FB164D96
:103080000028E8621FD000F003FD012809D0401C91
:1030900019D1502080F31188BFF34F8FBFF36F8F8A
:1030A000FEE7502080F31188BFF34F8FBFF36F8F7F
:1030B0004FF0FF30A86201206861EC6007B0BDE806
:1030C000304000F045B807B030BD000049444C45E1
:1030D0000000000019270008140000200248016BBE
:1030E000491C01637047000014000020164810B509
:1030F000016B11B10121C16110BD0021C1610169E4
:10310000124A01E0B9B1491E01EB810352F82330A4
:10311000002BF7D001EB810302EB830202F10804DC
:1031200053685B685360A34201D15B685360DA68FF
:103130000260016110BD502080F31188BFF34F8FF2
:10314000BFF36F8FFEE70000140000200002002094
:103150001CB537480168374A914207D1502080F3A7
:103160001188BFF34F8FBFF36F8FFEE700683149BF
:10317000491E884207D1502080F31188BFF34F8F3A
:10318000BFF36F8FFEE72C4908780190FF2008708D
:1031900008788DF800009DF800009DF8002000F0F0
:1031A000F000904207D0502080F31188BFF34F8F7A
:1031B000BFF36F8FFEE79DF80000204C00F0500039
:1031C00020700720A06005E09DF8002052008DF8D7
:1031D0000020401E9DF800201206F5D4A0600328B0
:1031E00007D0502080F31188BFF34F8FBFF36F8F4C
:1031F000FEE74FF44070A060019808700C48203042
:10320000016841F470010160016841F070410160A2
:10321000FFF746FE00206060FCF7E6FF0848016803
:1032200041F040410160FCF7CBFF00201CBD0000D5
:1032300000ED00E071C20F4100E400E088000020D2
:1032400034EF00E010B5502080F31188BFF34F8FAA
:10325000BFF36F8F00F0DEFA18B104494FF08050D1
:103260000860002080F3118810BD000004ED00E02C
:1032700038B5049D18B153B1CAB181B120E05020D6
:1032800080F31188BFF34F8FBFF36F8FFEE750209D
:1032900080F31188BFF34F8FBFF36F8FFEE750208D
:1032A00080F31188BFF34F8FBFF36F8FFEE739B103
:1032B000502080F31188BFF34F8FBFF36F8FFEE76D
:1032C00050241C46012384F846302B460094FFF717
:1032D00053FA204638BD000070B50D46040025D0D5
:1032E000FFF778FDD4E90F20216802FB0011A160EF
:1032F0000021A163216861600A46D4E90F01401EE4
:1033000000FB0121E16021464FF0FF3001F8440F3E
:10331000487004F110008DB1FFF72AFD04F124007C
:10332000FFF726FDFFF776FD012070BD502080F3EA
:103330001188BFF34F8FBFF36F8FFEE7216900291C
:10334000F0D000F00BFB0028ECD004494FF0805087
:103350000860BFF34F8FBFF36F8FE3E704ED00E02A
:103360002DE9FF4782B01D468A464FF00008040051
:1033700003D0BAF1000F08D011E0502080F311887B
:10338000BFF34F8FBFF36F8FFEE7206C38B1502033
:1033900080F31188BFF34F8FBFF36F8FFEE7022DCD
:1033A0000AD1E06B012807D0502080F31188BFF3C9
:1033B0004F8FBFF36F8FFEE700F010FA3F4F4FF0D3
:1033C00000094FF0805648B9049838B1502080F376
:1033D0001188BFF34F8FBFF36F8FFEE7FFF7FAFC43
:1033E000A06BE16B884207D3022D05D00498D0B1C1
:1033F000B8F1000F1AD01EE02A4651462046FFF7CA
:1034000014F9616A19B104F1240000F0A7FA20B19F
:103410003E60BFF34F8FBFF36F8FFFF7FBFC0120C0
:1034200006B0BDE8F087FFF7F5FC22E06846FFF73D
:10343000CFFD4FF00108FFF7EDFCFFF74FFEFFF760
:10344000C9FC94F94400401C01D184F8449094F9DB
:103450004500401C01D184F84590FFF7DBFC04A92E
:10346000684600F029F930B12046FFF79DFB00F0D7
:10347000ADFA0020D4E7FFF7ADFCA06BE16B88420A
:1034800013D1FFF7C7FC04F110000499FFF7AEFD5C
:103490002046FFF789FB00F099FA00289ED13E6094
:1034A000BFF34F8FBFF36F8F98E7FFF7B3FC204652
:1034B000FFF77AFB00F08AFA90E7000004ED00E0E5
:1034C0002DE9F0471F4690468946040003D0B9F124
:1034D000000F08D011E0502080F31188BFF34F8F08
:1034E000BFF36F8FFEE7206C38B1502080F3118856
:1034F000BFF34F8FBFF36F8FFEE7022F0AD1E06B50
:10350000012807D0502080F31188BFF34F8FBFF3FD
:103510006F8FFEE7FFF7D6FC5020EFF3118680F3A4
:103520001188BFF34F8FBFF36F8FA06BE16B8842A1
:1035300006D3022F04D0002086F31188BDE8F0875F
:1035400094F94550A06B3A4649462046FFF76DF87E
:10355000681C04D06D1C84F845500120ECE7606ABB
:103560000028FAD004F1240000F0F8F90028F4D083
:10357000B8F1000FF1D00121C8F80010EDE700000C
:103580002DE9F747002683B08A46040003D0BAF13C
:10359000000F08D011E0502080F31188BFF34F8F47
:1035A000BFF36F8FFEE7206C38B1502080F3118895
:1035B000BFF34F8FBFF36F8FFEE700F00FF9DFF817
:1035C000F4804FF000094FF0805748B9059838B1A2
:1035D000502080F31188BFF34F8FBFF36F8FFEE74A
:1035E000FFF7F8FBA56BC5B151462046FFF70AF877
:1035F0006D1EA563206950B104F1100000F0AEF912
:1036000028B1C8F80070BFF34F8FBFF36F8FFFF77B
:1036100001FC012006B0BDE8F087059808B11EB195
:1036200006E0FFF7F7FB27E06846FFF7D1FC01262D
:10363000FFF7F0FBFFF752FDFFF7CCFB94F94400D6
:10364000401C01D184F8449094F94500401C01D1FC
:1036500084F84590FFF7DEFB05A9684600F02CF8DA
:10366000002820460AD0FFF79FFA00F0AFF9204665
:10367000FFF72EF90028B3D00020CBE7FFF728F999
:1036800090B104F124000599FFF7B0FC2046FFF744
:103690008BFA00F09BF90028A2D1C8F80070BFF3A4
:1036A0004F8FBFF36F8F9BE72046FFF77DFA00F047
:1036B0008DF995E704ED00E02DE9F0410C46050099
:1036C00011D0C4B1FFF786FB174BDA686E6820682B
:1036D000911B471C17D02F681B6A9F4219D0964236
:1036E00017D8012410E0502080F31188BFF34F8FCA
:1036F000BFF36F8FFEE7502080F31188BFF34F8F29
:10370000BFF36F8FFEE70024FFF784FB2046BDE880
:10371000F081884205D9401A20602846FFF758FCFE
:10372000F1E700202060DCE7140000202DE9FF5FB6
:103730008346DDE90E87994616468A469000FFF7D4
:1037400069FA05001CD05C20FFF764FA040014D06D
:103750000020256384F85900CDE90240CDE90087B7
:103760004B46324651465846FFF718F82046FEF7BA
:10377000B5FE012004B0BDE8F09F2846FFF75EFBD0
:103780004FF0FF30F6E7F0B585B0DDE90B640A9D38
:10379000A6B1DCB15C2700972663022684F8596045
:1037A000002604AFCDE90246CDE90057FEF7F6FF4B
:1037B0002046FEF793FE049805B0F0BD502080F33C
:1037C0001188BFF34F8FBFF36F8FFEE7502080F358
:1037D0001188BFF34F8FBFF36F8FFEE70548416934
:1037E00019B1006B18B1002070470120704702200A
:1037F00070470000140000200148C06870470000B6
:103800001400002010B5FFF75DFB0148C06810BD33
:10381000140000202DE9F0412E4C0027206B28B128
:10382000A069401CA0613846BDE8F081E668761CBE
:10383000E66013D1606B006838B1502080F31188C6
:10384000BFF34F8FBFF36F8FFEE7606BA16B6163B8
:10385000A063206A401C2062FFF726F9A06ADFF807
:103860007880864209D3606B0068A0B1606BC06845
:10387000C5686868864211D2A0622068C06A00EB01
:10388000800158F82100012800D90127E0690028AB
:10389000C9D00127C7E74FF0FF30EDE7281DFFF73C
:1038A0003DFAA86A18B105F11800FFF737FAE86A7F
:1038B0002169884200D9206100EB800108EB81007A
:1038C000291DFFF77BFAE86A2168C96A8842CAD3D2
:1038D0000127C8E7140000200002002070B5040092
:1038E0004FF0000133D01B4D2868844207D0502090
:1038F00080F31188BFF34F8FBFF36F8FFEE7206D0A
:1039000038B1401E2065E36CE26A9A421FD040B194
:103910001DE0502080F31188BFF34F8FBFF36F8FEE
:10392000FEE7201DFFF7FAF9E06CE062C0F1380015
:10393000A061E06A2969884200D92861064900EB44
:10394000800001EB8000211DFFF738FA01210846B5
:1039500070BD0000140000200002002070B5C06897
:10396000C46854B104F118000646FFF7D7F9144DA6
:10397000286B50B13146134815E0502080F3118870
:10398000BFF34F8FBFF36F8FFEE7201DFFF7C6F920
:10399000E06A2969884200D928610B4900EB800060
:1039A00001EB8000211DFFF709FAE06A2968C96A66
:1039B000884202D90120E86170BD002070BD00007E
:1039C0001400002088060020000200202DE9F047A6
:1039D0002C4D00242746286B38B1FFF7FBF9286BE4
:1039E000401E2863286B40B146E0502080F31188C8
:1039F000BFF34F8FBFF36F8FFEE7A968224E012000
:103A0000D1B3A6F5916980463068E0B1F068C4682A
:103A100004F11800FFF782F9201DFFF77FF9E06A33
:103A20002969884200D9286100EB800109EB8100F7
:103A3000211DFFF7C3F9E06A2968C96A8842E3D308
:103A4000C5F81C80E0E70CB1FFF72EF8AC694CB16B
:103A50004FEA0806FFF7DEFE00B1EE61641EF9D101
:103A60000020A861E86938B10849012738070860D3
:103A7000BFF34F8FBFF36F8FFFF7CCF93846BDE828
:103A8000F0870000140000208806002004ED00E00C
:103A900010B586B0FEF78AFD114C2068B8B1002041
:103AA0000390049005AA04A903A8FFF755F9DDE9DE
:103AB000032102208DE8070000230AA10B48059A84
:103AC000FFF761FE606010B106B0012010BD50200C
:103AD00080F31188BFF34F8FBFF36F8FFEE70000B5
:103AE00050000020546D722053766300852B00082F
:103AF0002DE9FF411E46134602000A9D4FF00000CB
:103B000016D0144C2768002F0FD0CDE90013029275
:103B1000062917DAFFF762FE02284FF000030FD0E4
:103B2000002269462068FFF71BFC04B0BDE8F08165
:103B3000502080F31188BFF34F8FBFF36F8FFEE7E4
:103B40002A46EEE70023324669463846FFF7B8FCBE
:103B5000EBE7000050000020145F000800000000A8
:103B60000000000000000000000000000002000053
:103B7000180000000000000000000000000000002D
:103B8000000000000102030406070809000000000D
:103B9000010203047E48530D0A005E58410D0A5E7F
:103BA00053433131353230302C382C4E2C312C4EA1
:103BB0002C4E0D0A5E4A55530D0A5E585A0D0A00E6
:103BC0005E58410D0A5E5057313431370D0A5E4C54
:103BD0004C3934350D0A5E5052312C310D0A7E536A
:103BE0004432320D0A5E434932380D0A5E4C483188
:103BF00032302C34350D0A5E43575A2C453A53491E
:103C00004D53554E2E5454460D0A0D0A5E464F3103
:103C100031382C33355E4746412C333631322C3324
:103C20003631322C34322C3030303030303030308D
:103C30003030314330303030303030303030303070
:103C40003030303030303030303030303030303074
:103C50003030303030303030303030303030303064
:103C60003030303030303030303030303030303054
:103C70003030303030303030303030303030303044
:103C8000303030303030303730303030303030302D
:103C90003030303030303030303030303030303024
:103CA0003030303030303030303030303030303014
:103CB0003030303030303030303030303030303004
:103CC00030303030303030303030303030303030F4
:103CD00030303030303030303030303343303030CE
:103CE00030303030303030303030303030303030D4
:103CF00030303030303030303030303030303030C4
:103D000030303030303030303030303030303030B3
:103D100030303030303030303030303030303030A3
:103D20003030303030303030303030303030303093
:103D3000463030303030303030303030303030306D
:103D40003030303030303030303030303030303073
:103D50003030303030303030303030303030303063
:103D60003030303030303030303030303030303053
:103D70003030303030303030303030303030303043
:103D80003030303037433030303030303030303019
:103D90003030303030303030303030303030303023
:103DA0003030303030303030303030303030303013
:103DB0003030303030303030303030303030303003
:103DC00030303030303030303030303030303030F3
:103DD00030303030303030303345303030303030CB
:103DE00030303030303030303030303030303030D3
:103DF00030303030303030303030303030303030C3
:103E000030303030303030303030303030303030B2
:103E100030303030303030303030303030303030A2
:103E20003030303030303030303030303146383073
:103E30003030303030303030303030303030303082
:103E40003030303030303030303030303030303072
:103E50003030303030303030303030303030303062
:103E60003030303030303030303030303030303052
:103E70003030303030303030303030303030303042
:103E80003037433030303030303030303030303018
:103E90003030303030303030303030303030303022
:103EA0003030303030303030303030303030303012
:103EB0003030303030303030303030303030303002
:103EC00030303030303030303030303030303030F2
:103ED00030303030303346303030303030303030C9
:103EE00030303030303030303030303030303030D2
:103EF00030303030303030303030303030303030C2
:103F000030303030303030303030303030303030B1
:103F100030303030303030303030303030303030A1
:103F20003030303030303030303146383030303072
:103F30003030303030303030303030303030303081
:103F40003030303030303030303030303030303071
:103F50003030303030303030303030303030303061
:103F60003030303030303030303030303030303051
:103F70003030303030303030303030303030464318
:103F80003030303030303030303030303030303031
:103F90003030303030303030303030303030303021
:103FA0003030303030303030303030303030303011
:103FB0003030303030303030303030303030303001
:103FC00030303030303030303030303030303030F1
:103FD00030303746303030303030303030303030C4
:103FE00030303030303030303030303030303030D1
:103FF00030303030303030303030303030303030C1
:1040000030303030303030303030303030303030B0
:1040100030303030303030303030303030303030A0
:10402000303030303030334638303030303030306F
:104030003030303030303030303030303030303080
:104040003030303030303030303030303030303070
:104050003030303030303030303030303030303060
:104060003030303030303030303030303030303050
:104070003030303030303030303031464330303016
:104080003030303030303030303030303030303030
:104090003030303030303030303030303030303020
:1040A0003030303030303030303030303030303010
:1040B0003030303030303030303030303030303000
:1040C00030303030303030303030303030303046DA
:1040D00045303030303030303030303030303030CB
:1040E00030303030303030303030303030303030D0
:1040F00030303030303030303030303030303030C0
:1041000030303030303030303030303030303030AF
:10411000303030303030303030303030303030309F
:104120003030304646303030303030303030303063
:104130003030303031383030303030303030303076
:10414000303030303030303030303030303030306F
:10415000303030303030303030303030303030305F
:10416000303030303030303030303030303030304F
:10417000303030303030303746383030303030301A
:104180003030303030303030373030303030303028
:10419000303030303030303030303030303030301F
:1041A000303030303030303030303030303030300F
:1041B00030303030303030303030303030303030FF
:1041C00030303030303030303030303346433030C3
:1041D00030303030303030303030303343303030C9
:1041E00030303030303030303030303030303030CF
:1041F00030303030303030303030303030303030BF
:1042000030303030303030303030303030303030AE
:10421000303030303030303030303030303030319D
:10422000464530303030303030303030303030464D
:10423000303030303030303030303030303030307E
:10424000303030303030303030303030303030306E
:10425000303030303030303030303030303030305E
:10426000303030303030303030303030303030304E
:104270003030303146463030303030303030303011
:104280003030334330303030303030303030303018
:10429000303030303030303030303030303030301E
:1042A000303030303030303030303030303030300E
:1042B00030303030303030303030303030303030FE
:1042C00030303030303030304646303030303030C2
:1042D00030303030303146303030303030303030C7
:1042E00030303030303030303030303030303030CE
:1042F00030303030303030303030303030303030BE
:1043000030303030303030303030303030303030AD
:104310003030303030303030303030303746383078
:104320003030303030303030303743303030303073
:10433000303030303030303030303030303030307D
:10434000303030303030303030303030303030306D
:10435000303030303030303030303030303030305D
:10436000303030303030303030303030303030304D
:1043700037464330303030303030303033463030F4
:10438000303030303030303030303030303030302D
:10439000303030303030303030303030303030301D
:1043A000303030303030303030303030303030300D
:1043B00030303030303030303030303030303030FD
:1043C00038303030334645303030303030303030B7
:1043D00046433030303030303030303030303030B4
:1043E00030303030303030303030303030303030CD
:1043F00030303030303030303030303030303030BD
:1044000030303030303030303030303030303030AC
:104410003030303138303030314646303030303066
:10442000303030334638303030303030303030306B
:10443000303030303030303030303030303030307C
:10444000303030303030303030303030303030306C
:10445000303030303030303030303030303030305C
:10446000303030303030303330303030314646301C
:104470003030303030303146453030303030303010
:10448000303030303030303030303030303030302C
:10449000303030303030303030303030303030301C
:1044A000303030303030303030303030303030300C
:1044B00030303030303030303030303630303030F6
:1044C0003046463830303030303037463830303093
:1044D00030303030303030303030303030303030DC
:1044E00030303030303030303030303030303030CC
:1044F00030303030303030303030303030303030BC
:104500003030303030303030303030303030304596
:10451000303030303046464330303030303346452E
:10452000303030303030303030303030303030308B
:10453000303030303030303030303030303030307B
:10454000303030303030303030303030303030306B
:10455000303030303030303030303030303030305B
:104560003030304330303030303746433030303008
:104570003046463830303030303030303030303007
:10458000303030303030303030303030303030302B
:10459000303030303030303030303030303030301B
:1045A000303030303030303030303030303030300B
:1045B00030303030303031433030303030374645B5
:1045C00030303030374645303030303030303030B9
:1045D00030303030303030303030303030303030DB
:1045E00030303030303030303030303030303030CB
:1045F00030303030303030303030303030303030BB
:10460000303030303030303030303338303030309F
:104610003037464530303031464638303030303033
:10462000303030303030303030303030303030308A
:10463000303030303030303030303030303030307A
:10464000303030303030303030303030303030306A
:10465000303030303030303030303030303037384B
:1046600030303030303346463030303746453030E9
:10467000303030303030303030303030303030303A
:10468000303030303030303030303030303030302A
:10469000303030303030303030303030303030301A
:1046A000303030303030303030303030303030300A
:1046B0003030463030303030303346463830334694
:1046C00046383030303030303030303030303030CC
:1046D00030303030303030303030303030303030DA
:1046E00030303030303030303030303030303030CA
:1046F00030303030303030303030303030303030BA
:104700003030303030314530303030303033464664
:104710003830464645303030303030303030303050
:104720003030303030303030303030303030303089
:104730003030303030303030303030303030303079
:104740003030303030303030303030303030303069
:104750003030303030303030303145303030303043
:1047600030314646433346463830303030303030D2
:104770003030303030303030303030303030303039
:104780003030303030303030303030303030303029
:104790003030303030303030303030303030303019
:1047A00030303030303030303030303030334330F3
:1047B0003030303030314646444646453030303077
:1047C00030303030303030303030303030303030E9
:1047D00030303030303030303030303030303030D9
:1047E00030303030303030303030303030303030C9
:1047F00030303030303030303030303030303030B9
:104800003037433030303030303146464646463817
:104810003030303030303030303030303030303098
:104820003030303030303030303030303030303088
:104830003030303030303030303030303030303078
:104840003030303030303030303030303030303068
:10485000303030303046383030303030303146460D
:104860004646453030303030303030303030303007
:104870003030303030303030303030303030303038
:104880003030303030303030303030303030303028
:104890003030303030303030303030303030303018
:1048A00030303030303030303146303030303030F1
:1048B0003031464646463830303030303030303097
:1048C00030303030303030303030303030303030E8
:1048D00030303030303030303030303030303030D8
:1048E00030303030303030303030303030303030C8
:1048F000303030303030303030303030334630309F
:104900003030303030304646464530303030303050
:104910003030303030303030303030303030303097
:104920003030303030303030303030303030303087
:104930003030303030303030303030303030303077
:104940003030303030303030303030303030303067
:1049500037453030303030303031464646383037E9
:10496000464646464646464330303037464646463B
:104970004646463830304646464646464646383035
:10498000304646464646464630303030303030308D
:104990003030303030303030303030303030303017
:1049A00030303030374530303030303030374646B8
:1049B0004630304646464646464646463030303714
:1049C00046464646464646433030464646464646B6
:1049D00046464330304646464646464643303030EB
:1049E00030303030303030303030303030303030C7
:1049F000303030303030303046433030303030308E
:104A0000334646464638304646464646464646467D
:104A100038303037464646464646464530304646AC
:104A20004646464646464530304646464646464653
:104A30004630303030303030303030303030303060
:104A4000303030303030303030303031464330303C
:104A50003030303046464646463830464646464672
:104A60004646464643303037464646464646464624
:104A7000303046464646464646464630304646462E
:104A80004646464646433030303031464630303078
:104A90003030303030303030303030303030303313
:104AA000463830303030303746464646464330464A
:104AB00046464646464646464530303746464646D2
:104AC00046464646383046464646464646464638B8
:104AD00030464646464646464645303030303146FA
:104AE00046303030303030303030303030303030B0
:104AF000303030374630303030303146464646462A
:104B00004643304646464646464646464630303799
:104B1000464646464646464643304646464646464E
:104B2000464646433046464646464646464630306A
:104B30003030314646303030303030303030303048
:104B4000303030303030304646303030303037461C
:104B5000464646464643304646464646464646460E
:104B60004630303746464646464646464630464636
:104B700046464646464646453046464646464646EC
:104B800046463830303031464630303030303030C4
:104B900030303030303030303030314645303030E9
:104BA00030334646464646464643304646464646E7
:104BB00046464646463830374646464646464646C8
:104BC00046304646464646464646464630464646B1
:104BD0004646464646464330303031464630303011
:104BE00030303030303030303030303030303146AE
:104BF00045303030304646464643464646453046C8
:104C0000463830303030314646383037463830302C
:104C1000303030303130464638303030303030305F
:104C200030464630303030374646433030303146FB
:104C3000463030303030303030303030303030305E
:104C400030303346433030303346464646304646B1
:104C500046453046463830303030303746383037C9
:104C600046383030303030303030464638303030F2
:104C700030303030304646303030303046464530C7
:104C800030303146463030303030303030303030F7
:104C90003030303030303746383030314646464696
:104CA000433046464645304646383030303030375F
:104CB0004638303746383030303030303030464685
:104CC00038303030303030303046463030303030B0
:104CD0003746463030303146463030303030303074
:104CE0003030303030303030303046463830303789
:104CF00046464646303046464645304646383030D1
:104D00003030303746383037463830303030303059
:104D10003030464638303030303030303046463033
:104D20003030303033464630303031464630303027
:104D30003030303030303030303030303031464646
:104D40003030334646464643303146464646304686
:104D500046383030303030464638303746383030DC
:104D6000303030303030464638303030303030300F
:104D700030464630303030303146463030303146C3
:104D8000463030303030303030303030303030300D
:104D90003033464630304646464646303031464649
:104DA0004646304646383746464646464638303709
:104DB00046383030303030303030464638303030A1
:104DC0003030303030464630303030303046463883
:104DD00030303146463030303030303030303030A6
:104DE0003030303030334645303346464646433027
:104DF00030314646464630464638374646464646B1
:104E000046383037464646464646463830304646AF
:104E100046464646464638303046463030303030DA
:104E20003046463837464646464646453030374691
:104E300046433030303030303037464531464646D4
:104E40004646303030314646464630464638334690
:104E5000464646464630303746464646464646383B
:104E6000303046464646464646463830304646305E
:104E7000303030303046463837464646464646455E
:104E800030303346464330303030303030464643A1
:104E90003746464646433030303146464646304631
:104EA0004638314646464646463030374646464600
:104EB00046464638303046464646464646463830F0
:104EC0003046463030303030303746383746464648
:104ED0004646464530303346464330303030303039
:104EE00031464642464646464630303030334646E6
:104EF00046463046463830464646464645303037C8
:104F0000464646464646463830304646464646467B
:104F1000464638303046463030303030303746380C
:104F200037464646464646453030314646433030A1
:104F300030303030334646464646464643303030C1
:104F40003033464646463046463830374646464673
:104F50004330303746464646464646383030464669
:104F60004646464646463830304646303030303089
:104F7000303746383746464646464645303030306C
:104F80003030303030303030374646464646464680
:104F9000303030303033464646463046463830337F
:104FA00046464646383030374646464646464638F8
:104FB000303046464646464646463830304646300D
:104FC000303030303046463837464646464646450D
:104FD0003030303030303030303030304646464679
:104FE00046464643303030303037464646463846EF
:104FF00046383031464646463030303746464646DB
:10500000464646383030464646464646464638309E
:1050100030464630303030303046463837464646E7
:105020004646464530303030303030303030303029
:1050300046464646464646303030303030374646A3
:1050400046463846463830304646463830303037A7
:10505000464646464646463830304646464646462A
:1050600046463830304646303030303030464638AC
:105070003746464646464643303030303030303092
:105080003030303146464646464643303030303088
:10509000304646464646384646383030374646382B
:1050A00030303037463830303030303030304646AF
:1050B00038303030303030303046463030303030BC
:1050C0003146463030303146463030303030303086
:1050D0003030303030303033464646464646303049
:1050E0003030303030464646464638464638303016
:1050F0003346464330303037463830303030303049
:10510000303046463830303030303030304646303F
:105110003030303031464630303031464630303035
:105120003030303030303030303030374646464620
:1051300046433030303030303146464646463846B9
:1051400046383030314646453030303746383030DA
:10515000303030303030464638303030303030301B
:1051600030464630303030303346463030303146CD
:105170004630303030303030303030303030304603
:105180004646464646383030303030303146464666
:10519000464638464638303030464646303030375E
:1051A00046383030303030303030464638303030AD
:1051B0003030303030464630303030304646453082
:1051C00030303146463030303030303030303030B2
:1051D000303031464646464645303030303030304B
:1051E00033464646464638464638303030374646DF
:1051F0003830303746383030303030303030464656
:105200003830303030303030304646303030303367
:105210004646453030303146463030303030303020
:105220003030303030303146464646463830303007
:1052300030303030334646464646384646383030C1
:105240003033464643303037464646464646464665
:105250004638464646464646464646463046463028
:10526000314646464646433030303146463030308F
:1052700030303030303030303030334646464645BE
:10528000303030303030303037464646464638468B
:10529000463830303031464645303037464646464F
:1052A00046464646463046464646464646464646B4
:1052B0003046463030464646464638303030314635
:1052C00046303030303030303030303030303746AB
:1052D000464646383030303030303030464646462C
:1052E000464638464638303030304646463030370D
:1052F0004646464646464646453046464646464665
:1053000046464645304646303037464646463030BB
:105310003030314646303030303030303030303060
:105320003030464646464530303030303030303010
:105330004646464646463046463830303030374698
:105340004638303746464646464646464330464649
:105350004646464646464643304646303033464645
:1053600046453030303031464630303030303030E5
:1053700030303030303146464646383030303030CC
:105380003030303146464646464630464638303064
:105390003030334646433037464646464646464614
:1053A00038304646464646464646463830464630FB
:1053B000303146464643303030303146463030306A
:1053C0003030303030303030303346464645303083
:1053D0003030303030303033464646464646304630
:1053E00046383030303031464645303746464646FE
:1053F000464646463030464646464646464646308F
:105400003046463030304646463830303030304610
:105410004530303030303030303030303037464644
:1054200046383030303030303030303746464646FF
:1054300046463046463830303030304646463037C3
:105440004646464646464645303046464646464629
:1054500046464530304646303030374645303030AD
:10546000303030303030303030303030303030303C
:1054700030374646453030303030303030303046CE
:10548000464646464646304646383030303030375D
:1054900046463837464646464646464330304646F8
:1054A0004646464646464330304646303030334620
:1054B00030303030303030303030303030303030EC
:1054C0003030303030464646383030303030303092
:1054D00030303030303030303030303346303030B3
:1054E00030303031464638334646464646464638E2
:1054F00030303746464646464646303030374630EE
:10550000303030303030303030303030303030309B
:105510003030303030303030314646453030303049
:10552000303030303030303030303030303030307B
:10553000303030303030303030303030303030306B
:10554000303030303030303030303030303030305B
:10555000303030303030303030303030303030304B
:105560003030303030303030303030303346463804
:10557000303030303030303030303030303030302B
:10558000303030303030303030303030303030301B
:10559000303030303030303030303030303030300B
:1055A00030303030303030303030303030303030FB
:1055B00030303030303030303030303030303030EB
:1055C00037464530303030303030303030303030A9
:1055D00030303030303030303030303030303030CB
:1055E00030303030303030303030303030303030BB
:1055F00030303030303030303030303030303030AB
:10560000303030303030303030303030303030309A
:105610003030303046463830303030303030303056
:10562000303030303030303030303030303030307A
:10563000303030303030303030303030303030306A
:10564000303030303030303030303030303030305A
:10565000303030303030303030303030303030304A
:10566000303030303030303146453030303030300E
:10567000303030303030303030303030303030302A
:10568000303030303030303030303030303030301A
:10569000303030303030303030303030303030300A
:1056A00030303030303030303030303030303030FA
:1056B00030303030303030303030303146383030CB
:1056C00030303030303030303030303030303030DA
:1056D00030303030303030303030303030303030CA
:1056E00030303030303030303030303030303030BA
:1056F00030303030303030303030303030303030AA
:105700003030303030303030303030303030303396
:105710004530303030303030303030303030303074
:105720003030303030303030303030303030303079
:105730003030303030303030303030303030303069
:105740003030303030303030303030303030303059
:105750003030303030303030303030303030303049
:10576000303030373830303030303030303030302A
:105770003030303030303030303030303030303029
:105780003030303030303030303030303030303019
:105790003030303030303030303030303030303009
:1057A00030303030303030303030303030303030F9
:1057B00030303030303030453030303030303030D4
:1057C00030303030303030303030303030303030D9
:1057D00030303030303030303030303030303030C9
:1057E00030303030303030303030303030303030B9
:1057F00030303030303030303030303030303030A9
:105800003030303030303030303030433030303085
:105810003030303030303030303030303030303088
:105820003030303030303030303030303030303078
:105830003030303030303030303030303030303068
:105840003030303030303030303030303030303058
:105850003030303030303030303030303030305E1A
:1058600046530D0A5E464F3433302C34355E474282
:1058700038302C37352C37355E46525E46530D0A8C
:105880005E464F3434352C35385E41404E2C34362C
:105890002C34362C453A53494D53554E2E545446CC
:1058A0005E46485F5E46445F45345F42385F38304D
:1058B0005F45385F38425F38375F45375F41375F54
:1058C00039315F45365F38415F38305E46530D0AE7
:1058D0005E464F3832352C34355E41404E2C3630E2
:1058E0002C36302C453A53494D53554E2E54544680
:1058F0005E46485F5E46445F45355F39435F4138E9
:105900005F45375F42415F42465F45365F38395FEA
:1059100039335F45355F38445F42305F45375F421A
:10592000335F42425F45355F38385F39375E4653F3
:105930000D0A5E464F3832372C34355E41404E2CCE
:1059400036302C36302C453A53494D53554E2E5453
:1059500054465E46485F5E46445F45355F39435F67
:1059600041385F45375F42415F42465F45365F38A9
:10597000395F39335F45355F38445F42305F4537C3
:105980005F42335F42425F45355F38385F39375E8B
:1059900046530D0A5E464F3132302C3133335E4769
:1059A00042313135302C382C385E46530D0A5E4674
:1059B0004F3132302C3230305E41404E2C36302C5C
:1059C00036302C453A53494D53554E2E5454465E6D
:1059D00046485F5E46445F45355F39305F38445F17
:1059E00045375F41375F42305F33415F45345F4247
:1059F000385F38305F45385F38425F38375F45374A
:105A00005F41375F39315F45365F38415F38305F1E
:105A100045355F39435F41385F45375F42415F42FB
:105A2000465F45365F38395F39335F45355F384407
:105A30005F42305F45365F39435F42415E46530DFA
:105A40000A5E464F3132332C3230305E41404E2CAC
:105A500036302C36302C453A53494D53554E2E5442
:105A600054465E46485F5E46445F45355F39305F69
:105A700038445F45375F41375F42305F33415F45B0
:105A8000345F42385F38305F45385F38425F3837BF
:105A90005F45375F41375F39315F45365F38415F7A
:105AA00038305F45355F39435F41385F45375F4286
:105AB000415F42465F45365F38395F39335F453570
:105AC0005F38445F42305F45365F39435F42415E35
:105AD00046530D0A5E464F3132302C3332355E412B
