:020000040800F2
:10000000982A0020A1010008C1340008DD2C000856
:1000100065310008B9040008A95500080000000077
:100020000000000000000000000000004136000851
:10003000AD050008000000003F3600084D360008FE
:10004000BB010008BB010008BB010008BB010008A0
:10005000BB010008BB010008BB010008BB01000890
:10006000BB010008AF050008BB010008BB01000888
:10007000BB010008BB010008BB010008BB01000870
:10008000BB010008BB01000885030008BB01000894
:10009000BB010008BB010008BB010008BB01000850
:1000A000BB010008BB010008BB010008BB01000840
:1000B000BB010008BB010008BB010008BB01000830
:1000C000BB010008BB010008BB010008BB01000820
:1000D000BB010008BB010008BB010008BB01000810
:1000E000BB010008BB010008BB010008BB01000800
:1000F000BB010008BB010008BB010008BB010008F0
:10010000BB010008BB010008BB010008BB010008DF
:10011000BB010008BB010008F9360008BB0100085C
:10012000BB010008BB010008BB010008BB010008BF
:10013000BB010008BB010008BB010008BB010008AF
:10014000BB010008BB010008BB010008C534000862
:10015000BB010008BB010008BB010008BB0100088F
:10016000BB010008BB010008BB010008BB0100087F
:10017000BB010008BB010008BB0100080000000033
:10018000BB010008BB010008DFF810D000F0E8F860
:1001900000480047215C0008AFF30080982A002047
:1001A0000648804706480047FEE7FEE7FEE7FEE711
:1001B000FEE7FEE7FEE7FEE7FEE7FEE7E9360008BA
:1001C000890100082DE9F05F0546002092469B4614
:1001D00088460646814640241BE02846414647465D
:1001E000224600F076F853465A46C01A914110D381
:1001F00011461846224600F05DF82D1A67EB0108FB
:100200004F4622460120002100F054F817EB000968
:100210004E41201EA4F10104DFDC484631462A4647
:100220004346BDE8F09F40EA01039B0703D009E085
:1002300008C9121F08C0042AFAD203E011F8013BD2
:1002400000F8013B521EF9D27047D2B201E000F82B
:10025000012B491EFBD270470022F6E710B513466A
:100260000A4604461946FFF7F0FF204610BD30B598
:1002700004460020034600E05B1C934203D2E05C8E
:10028000CD5C401BF8D030BDF0B4CA17CB0F504046
:100290005140C61841F100054FEAC37231462800AB
:1002A0004FF0960303D0B623F0BC00F02BB83046D5
:1002B0000021F9E7202A04DB203A00FA02F10020AD
:1002C00070479140C2F1200320FA03F31943904094
:1002D0007047202A04DB203A21FA02F000217047FF
:1002E00021FA02F3D040C2F120029140084319469E
:1002F00070470029A8BF7047401C490008BF20F084
:100300000100704710B4B0FA80FC00FA0CF050EA1B
:10031000010404BF10BC704749B1CCF1200421FA9C
:1003200004F411FA0CF118BF012121430843A3EB97
:100330000C01CB1D4FEA00614FEA102042BF0020A4
:1003400010BC704700EBC35010440029A4BF10BC80
:100350007047401C490008BF20F0010010BC7047E6
:10036000064C074D06E0E06840F0010394E8070002
:1003700098471034AC42F6D3FFF70AFFAC60000890
:10038000CC600008014800F0C7BB000098010020C5
:10039000464910B54A6822F440324A604A684368C8
:1003A0001A434A6001684A6822F480724A60016810
:1003B0004A68036942EA03224A6001684A6822F0F7
:1003C00040724A6001684A6883681A434A6001685B
:1003D0008A6822F400628A6001688A68C3681A43E6
:1003E0008A60816A6FF07062D14201688A6822F087
:1003F00070628A6001688A680CD0836A1A438A60D6
:1004000001688A6822F040528A6001688A68C36A7B
:100410001A4301E022F040528A6001688A6822F0A3
:1004200002028A6001688A68037E42EA43028A60A7
:1004300090F82010002901684A680FD042F4006249
:100440004A6001684A6822F460424A6001684A686A
:10045000174C436A04EB43331A4301E022F4006271
:100460004A600168CA6A22F47002CA620168CA6AF4
:10047000838B104C04EB03531A43CA6201688A68E9
:1004800022F400728A6001688A6890F8303042EA8B
:1004900043228A6001688A6822F480628A60016867
:1004A0008A68406942EA8020886010BD00230140CC
:1004B00000E0FFFF0000F0FFFEE700207047002093
:1004C0007047000010B500220449054803F06EFC97
:1004D0000449034803F05DFC002010BDDC0F002040
:1004E00000030020DC07002070B50C46050024D076
:1004F0001CB3206808B30126052805D3052213A1E3
:100500002846FFF7B4FE90B12068042815D30422D2
:1005100010A12846FFF7ABFE58B1206804280CD381
:1005200004220EA12846FFF7A2FE20B105E00D48E7
:1005300002E00D4800E00D48067029460C4803F023
:1005400028FC0B4803F0FEFB002070BD53544152C1
:100550005400000053544F50000000005A45524FC1
:100560000000000002000020030000200400002022
:100570000003002010B505F067F8002010BD000052
:10058000094A10B5D2F8BC22D2F814220AB10120CF
:1005900010BD0A460146044803F008FCBDE81040BF
:1005A000014803F07DBC00000003002070470820D4
:1005B00000F0D4BB0021016041608160C0E90411FA
:1005C0009FED050A80ED060A80ED070A80ED080A16
:1005D00080ED090A704700000000000070B50D466C
:1005E00004463C21284602F00BF8296800204862A6
:1005F0006060C4E9040070BD70B504462DED028B47
:10060000B0EE408A0868406A61686060411A4D42F5
:10061000A5602060D4E90401401941EBE571C4E90B
:100620000401FFF731FE00EE900A9FED110A80EE03
:10063000801A00EE905A84ED061AB8EEE01AC1EE68
:10064000000A9FED0D1A80EE880ADFED0A0A84ED9C
:10065000070A60EE200AC4ED080A94ED090A70EE5C
:10066000C00A00EE810A84ED090ABDEC028B70BD60
:1006700000007A4500007042CDCC4C3D0968002254
:100680004A62426002608260C0E904229FED040A6F
:1006900080ED060A80ED070A80ED080A7047000029
:1006A0000000000072B6FEE710B502F0FFFA02F09B
:1006B00003FB02F007FBBDE8104002F009BB00009D
:1006C00019480068C06AF7EE000A401C80B200EECC
:1006D000100A16480121B8EE400A80ED000AB2EE79
:1006E000080A80ED010A80ED020A9FED110A80EDF3
:1006F000030A80ED040A80ED050A80ED060A80ED0C
:10070000070A80ED080AC0ED090ADFED0A0A80ED4C
:100710000A0AC0ED0B0A80ED0C0A80F834100021A3
:10072000C1860187FFF7C0BFE0010020081F00203D
:10073000000000006666663F80ED010A9FED050A35
:1007400080ED030AC0ED040A80ED0A1A80ED070A65
:10075000FFF7AABF00000000D0ED011A204A11EEF9
:10076000901A9FED202A914204DDD0ED042A82EEFA
:10077000A11A01E0B0EE421AB5EEC00AF1EE10FA8D
:1007800001D2B0EE420A90ED0B2AB4EEC02AF1EE8F
:1007900010FA01D2B0EE420AF5EEC00AF1EE10FAFC
:1007A00001D2F1EE600AB4EEC01AF1EE10FA07D2EF
:1007B00031EE201AB4EEC01AF1EE10FA08DC09E0AE
:1007C00008DD31EE601AB4EEC01AF1EE10FA01D273
:1007D000B0EE401A21EE810A80ED040A7047000055
:1007E000CDCCCC3D00000000C0ED040A05F0CAB934
:1007F000B6EE000A80ED0B0A9FED020A80ED0C0AAE
:10080000704700000000000070B590F83C20694D72
:10081000012A19D0012280F83C200A6807230468C5
:10082000092A13D9E6680A3A02EB420293409E4332
:10083000E6600A788B680A3A02EB4202934002684B
:10084000D4682343D36010E0022070BD266902EB18
:10085000420293409E4326610A788B6802EB420273
:10086000934002681469234313610268936B23F475
:10087000401393630268936B0C8A4F4E06EB04544B
:10088000234393630A790B7CD21AD21C02EB8202B7
:100890001F2393400268946B9C4394630A790B7CFA
:1008A000D21AD21C02EB82030A8892B29A400368E1
:1008B0009C6B22439A638A69AA420268936823F474
:1008C00070239360026893680CD08C692343936013
:1008D0000268936823F44013936002689368CC69BC
:1008E000234301E023F4401393604A7D002A026809
:1008F000536802D043F4806301E023F480635360C3
:100900000A7D002A0268536802D043F4805301E054
:1009100023F4805353604A68012A16D0022A1FD05C
:10092000032A026827D0136A6FF30B03136202686D
:10093000136ACC6823431362214B04681F4A9C420C
:1009400027D10C68122C20D023E0026853696FF382
:100950000B03536102685369CC6823435361EBE78F
:10096000026893696FF30B03936102689369CC6823
:1009700023439361E0E7D3696FF30B03D36102680C
:10098000D369CC682343D361D6E7546844F4800428
:10099000546004689C4208D10968102901D01129CB
:1009A00003D1516841F400015160002180F83C10EE
:1009B000084670BD01000F000000F0FF0023014059
:1009C000002001407047000078B50024009490F8A2
:1009D0003C20012A19D0012280F83C200A68072314
:1009E0000568092A13D9EE680A3A02EB42029340DD
:1009F0009E43EE600B788A680A3B03EB43039A4000
:100A00000368DD682A43DA6010E0022078BD2E69B1
:100A100002EB420293409E432E610B788A6803EBFF
:100A200043039A4003681D692A431A614A681F23D9
:100A3000072A13D205686E6B521E02EB82029340A6
:100A40009E436E630B790A885B1E92B203EB8303AD
:100A50009A4003685D6B2A435A6327E005680D2AB4
:100A600012D22E6BD21F02EB820293409E432E6362
:100A70000B790A88DB1F92B203EB83039A40036869
:100A80001D6B2A431A6311E0EE6A0D3A02EB8202F3
:100A900093409E43EE620B790A880D3B92B203EBC2
:100AA00083039A400368DD6A2A43DA62164B0568BD
:100AB000144A9D4206D10D68122D03D1556845F4A4
:100AC0008005556005689D4218D10B68102B01D038
:100AD000112B13D1536843F40003536009681029A4
:100AE0000CD10A490A4A0968B1FBF2F101EB810114
:100AF000490000E0491E00910029FBD180F83C40EC
:100B0000002078BD00230140002001408800002023
:100B100040420F007047704770B504460068066891
:100B2000456816F0020F05F020012AD049B3216C68
:100B3000C90603D4216C41F400712164816811F06D
:100B4000405F17D1217EA9B9C16A11F4700F02D09C
:100B5000816849050ED4416821F020014160206C74
:100B600020F480702064206CC00403D4206C40F01A
:100B7000010020642046FFF7CDFF21686FF01200CE
:100B8000086016F0040F05F0800132D089B3206CA4
:100B9000C00603D4206C40F40050206420688168B3
:100BA00011F4401F1ED1816B11F4401F02D08168E7
:100BB000490517D44168490514D4816811F0405F94
:100BC00010D1217E71B9416821F080014160206C13
:100BD00020F480502064206CC00503D4206C40F0C9
:100BE000010020642046FFF7EDFE21686FF00C0045
:100BF000086016F0010F05F040010FD071B12068B8
:100C00000068C0070AD0206C40F480302064204681
:100C100000F043F821686FF00100086016F0200F23
:100C200005F080610ED000290CD0606C40F002000D
:100C3000606420686FF0200505602046FFF76BFFB9
:100C40002068056070BD70B504004FF0000503D04A
:100C5000206C002610B107E0012070BD204600F096
:100C60001DF8666484F83C60206CC00610D4206CCB
:100C700020F4885040F0020020642046FFF788FBF3
:100C80006664206C20F0020040F00100206400E067
:100C9000012584F83C60284670BD704710B586B0C9
:100CA000044614216846FFF7D7FA154920688842A0
:100CB00024D114480021026842F480720260006866
:100CC00000F4807005900F481438026842F0040266
:100CD0000260006800F004000590302000900320BE
:100CE000CDE901016946084800F044F800220421DA
:100CF000122000F0ABF9122000F09AF906B010BDF6
:100D000000200140443802400008024070B504460B
:100D100000F02EF90546601C02D004480078044417
:100D200000F026F9401BA042FAD370BD7C000020E1
:100D300008280CD106480169491C01610178002985
:100D400005D10121017003490348FFF797BC7047A3
:100D5000000000202802002070010020044910B586
:100D60000A68024202D00860FFF7E2FF10BD0000EF
:100D7000143C01402DE9F84FDFF8BCA10022012509
:100D800003264FF00F090AF1040BAAF1040E00BF6D
:100D90000B6805FA02F42340A34270D10F7907F0E3
:100DA0000307012F01D0022F16D187684FEA4208AE
:100DB00006FA08FC27EA0C07D1F80CC00CFA08FC6C
:100DC0004CEA070CC0F808C04768A7430C79C4F385
:100DD000001494403C4344600C79E443A4070AD0D7
:100DE000C4684FEA420C06FA0CF7BC438F6807FA56
:100DF0000CF72743C7600C7904F00304022C12D1CE
:100E0000D40800EB840CDCF820405707FF0E09FAE9
:100E100007F824EA0804D1F8108008FA07F848EA2D
:100E20000408CCF8208004684FEA420C06FA0CF75C
:100E3000BC430F7907F0030707FA0CF72743076055
:100E40004C6814F4403F70D03C4C276847F480470E
:100E50002760246822F0030704F480440094384C8F
:100E600007EB040CDCF8084897074FEA177809FAF3
:100E700008F7BC43334FB84202D1002724E054E0C6
:100E8000314FB84201D101271EE0304FB84201D1A5
:100E9000022719E02E4FB84201D1032714E02D4F4D
:100EA000B84201D104270FE02B4FB84201D10527EA
:100EB0000AE02A4FB84201D1062705E0284FB84280
:100EC00001D1072700E0082707FA08F72743CCF8E5
:100ED0000878DAF800405746D1F804C09C435FEA2E
:100EE000CC2C00D51C433C60DBF800405F46D1F8B9
:100EF00004C09C435FEA8C2C00D51C433C60DEF8A8
:100F000000407746D1F804C09C435FEA8C3C00D592
:100F10001C433C60084F083F3C68D1F804C09C4328
:100F20005FEACC3C00D51C433C60521C102AFFF405
:100F30002FAFBDE8F88F0000083C01404438024064
:100F4000003001400000024000040240000802405E
:100F5000000C024000100240001402400018024041
:100F6000001C02400AB1816170470904FBE70000E0
:100F700001488068704700007C00002002488168BA
:100F800002781144816070477C0000200B4810B546
:100F9000016841F400710160016841F48061016001
:100FA000016841F480710160032000F06FF80F20A8
:100FB00000F006F800F024F8002010BD003C0240CC
:100FC00070B50D4D04464FF47A712878B1FBF0F0FE
:100FD0000A490968B1FBF0F001F02AF848B9102C71
:100FE00007D200222146501E00F030F800206C602D
:100FF00070BD012070BD00007C0000208800002032
:101000000A4808B5016841F480410160006800F4B5
:10101000804000900548001F016841F08051016048
:10102000006800F08050009008BD00004438024085
:10103000002809DB00F01F020121914040098000D7
:1010400000F1E020C0F8001170470000F0B40E4B32
:101050001B680C46C3F30223C3F10705042D00D916
:101060000425191D072901D2002300E0DB1E0126FB
:1010700006FA05F1491E214099409E40761E164011
:101080003143F0BC04F005BB0CED00E0064900F074
:10109000070208684FF6FF03184040EA0220034A9F
:1010A00010430860704700000CED00E00000FA05F6
:1010B00070470068416200207047F0B50368586AC5
:1010C00039B19C6A4FF4827600EB144400204D1E27
:1010D0000AE040EA024098620FE006EB8007DF5921
:1010E000401C04EB1744C0B2A842F6D344EA0240C5
:1010F0004FF4807202EB810158500020F0BDD0F80F
:10110000080503F053B901EBC10200EB8202D0F8ED
:101110000805D26C03F0A8B801EBC10200EB820213
:10112000D0F80805D2F88C2203F0F9B8D0F80805F9
:1011300003F03EB90A0601F00F0101EBC10100EB1B
:10114000810101D53C3101E001F51F71006804F017
:1011500073B870B504460B0601F00F0000EBC00138
:1011600004EB81014FF001024FF0000503D581F837
:101170003D203C3103E081F87D5201F51F7108707C
:1011800094F8BC04012808D084F8BC24206803F03B
:101190000DFD84F8BC54002070BD022070BD70B5F8
:1011A000044601F00F006268904201D9012070BD31
:1011B0000B0601F00F0101EBC10104EB81014FF0BF
:1011C00001024FF0000503D581F83D203C3103E0DA
:1011D00081F87D5201F51F718D70087094F8BC0480
:1011E000012808D084F8BC24206803F0DBFE84F8D2
:1011F000BC54002070BD022070BD01F00F0101EB56
:10120000C10100EB8100D0F89C0270472DE9F0414C
:1012100004460F0601F00F0000EBC00104EB810152
:101220004FF001064FF0000503D581F83D603C31D9
:1012300003E081F87D5201F51F710870CA600B71DF
:101240004A7802B10881022B00D14D7194F8BC0498
:10125000012809D084F8BC64206803F0FFFB28460D
:1012600084F8BC54BDE8F0810220FBE770B50C4661
:1012700001F00F0505EBC50100EB8101C1F89432C7
:10128000C1F88C220023C1F89C3281F87D3281F8AC
:101290007C52036901F51F71012B00D14A612207BD
:1012A000027C006803D003F0D5FE002070BD03F07F
:1012B000BFFDFAE770B504460D4601F00F00616806
:1012C000884201D9012070BD29064FF000064FF079
:1012D000010207D500EBC00104EB810181F83D203C
:1012E0003C3107E005EBC50104EB810181F87D622B
:1012F00001F51F718A70087094F8BC04012807D0AA
:1013000084F8BC24206803F079FE280702D007E0A7
:10131000022070BD217C04F2C442206803F016FE56
:1013200084F8BC64002070BD70B50C4601F00F0558
:1013300005EBC50100EB81014B65CA640023CB6559
:10134000012381F83D3001F83C5F0369012B00D196
:101350004A612207027C006803D003F07BFE002074
:1013600070BD03F065FDFAE72DE9FC5F05680446F2
:10137000284604F002F800287DD1206804F029F8FE
:10138000002878D0D5F80808C0F30D20C4F8FC0474
:10139000206804F01EF8800704D52068416901F038
:1013A00002014161206804F014F8C10604F2C4404F
:1013B000009034D52068816921F0100181612F6A85
:1013C00007F00F0000EBC00004EB8006C7F34340BA
:1013D00006F51F76022802D0062811D01AE047F63B
:1013E000F070074216D0C7F30A1217462846316933
:1013F00003F0F3FF306938443061306A384408E064
:1014000008222846009903F0E8FF306AC7F30A1162
:10141000084430622068816941F0100181612068D0
:1014200003F0D7FF00034FF0080B4FF0000A4FF016
:1014300001097CD50026206803F0AAFF074674E066
:10144000F80770D0F1B2206803F0BBFF8046C007F8
:1014500007D005EB4611C1F8089B3146204602F043
:1014600037F85FEA087024D505EB4611C1F808BBD0
:101470002068016C00E025E200EB46100191D0F8F5
:10148000082BFC4B994205D9110403D54FF40041B8
:10149000C0F8081B204600F005FBF6490198884279
:1014A00007D92069012804D120680121009A03F09E
:1014B0004DFD5FEAC86004D505EB46111020C1F868
:1014C000080B5FEA88701DD56869000605D5D5F858
:1014D000040840F48061C5F8041806EBC60004EB6C
:1014E000800090F87F1200F51F70012905D180F867
:1014F00003A0F1B2204600F0EBF905EB4611022003
:10150000C1F8080B5FEA886004D505EB461020217E
:10151000C0F8081B5FEA884005D505EB46104FF47C
:101520000051C0F8081B7F08761C002F88D1206866
:1015300003F04FFF40036FD5206803F022FF0746FA
:10154000002667E0F80763D0F1B2206803F027FFB8
:101550008046C00723D006F00F0209FA02F0D5F842
:1015600034288243C5F8342805EB4610C0F80899A2
:10157000206901280FD106EBC60004EB8000D0E9FA
:1015800012211144C16436B9606D20B9206801216F
:10159000009A03F0DBFCF1B22046FFF7B4FD5FEAEE
:1015A000087003D505EB4611C1F808B95FEAC860B9
:1015B00004D505EB46111020C1F808095FEA486020
:1015C00004D505EB46104021C0F808195FEA887081
:1015D00017D53146284603F0A3FE06EBC60004EB00
:1015E000800090F83F103C30012905D180F803A01D
:1015F000F1B2204600F068F905EB46110220C1F86F
:1016000008095FEA086003D53146204601F0C6FFAD
:101610007F08761C002F95D1206803F0DAFE0028A1
:1016200011DAD5F8040820F00101C5F8041894F87F
:10163000F40401282BD0204600F018FA20684169F4
:1016400001F000414161206803F0C3FE00050BD5A5
:10165000D5F80808C00702D0204600F04BFA2068F1
:10166000416901F400614161206803F0B2FEC004E9
:1016700066D5D5F8040820F00100C5F8040810214B
:10168000206803F04DFE00214FF67F321FE084F802
:10169000F4A400212046FFF70BFDCFE705EB411036
:1016A000C0F80829D0F8003923F40013C0F8003935
:1016B000C0F8082BD0F8003B23F40013C0F8003B1F
:1016C000D0F8003B43F00063C0F8003B491C606861
:1016D0008842E3D8D5F81C0840F00111C5F81C1861
:1016E000206B002828460DD0D0F8840840F00B016C
:1016F000C5F88418D5F8440840F00B012846C5F811
:1017000044180DE0D0F8140842F22B010843C5F844
:101710001408D5F8100840F00B012846C5F8101839
:10172000D0F8000820F4FE61C5F80018217C20687C
:10173000009A03F00BFC2068416901F4805141617B
:10174000206803F046FE800415D5206803F0C6F932
:10175000206803F005FEE06000F07EFA0146227B7F
:10176000206803F099FE204600F06AF9206841697C
:1017700001F400514161206803F02BFE000707D5FA
:10178000204600F077F92068416901F008014161C5
:10179000206803F01EFE000616D5A86920F0800020
:1017A000A86101260DE000BF06EBC60004EB800037
:1017B00090F87F02012803D1F1B22046FFF7BAFC6E
:1017C000761C6068B042EFD8206803F002FEC002C9
:1017D00021D501264F4616E005EB4610D0F800193A
:1017E00006EBC60004EB800090F84020012A09D1E6
:1017F000002907DA80F83F70F0B240F080012046FF
:10180000FFF798FC761C6068B042E5D82068416913
:1018100001F480114161206803F0DBFD800234D5C2
:1018200001204B4629E000BF05EB4011D1F8001B19
:1018300000EBC00204EB820696F88022012A1BD13D
:10184000002919DA94F8FC2401F4803102F0010235
:10185000914211D186F87F32A96941F08002AA61D4
:101860006969090608D4D5F8040840F40070C5F881
:10187000040805E00A30544F401C61688142D3D807
:101880002068416901F400114161206803F0A1FD65
:10189000400007D52046FFF732FC2068416901F07F
:1018A00080414161206803F094FD40070AD520681B
:1018B0004568680702D52046FFF738FC2068416874
:1018C00029434160BDE8FC9FD0F8080502F0C4BD83
:1018D000D0F8080502F0D4BD2DE9F0418AB004002B
:1018E00005D094F8BD042668002520B108E0012049
:1018F0000AB0BDE8F08184F8BC54204600F05EF8E0
:10190000032084F8BD04F06BC00500D42561206875
:1019100003F088FA04F11001282288466846FEF791
:1019200082FC94E80F0003F0E7F80226C8BB002110
:10193000206803F071FD002001270EE000EBC001DC
:1019400004EB810181F83D7001F83C0F08810D71B5
:10195000CD600D61401CC0B28D6161688142EDD8DF
:10196000002011E000EBC00104EB810181F87D5201
:1019700081F87C0281F88052C1F88852C1F88C52FB
:10198000401CC0B2C1F8945261688142EAD8282252
:1019900041466846FEF747FC94E80F0003F088F9DB
:1019A00010B184F8BD64A2E784F8385084F8BD749F
:1019B000206803F06FF900209AE7000010B586B0A8
:1019C000044614216846FEF747FC2068B0F1A04F9A
:1019D0002FD119480021026842F00102026000681C
:1019E00000F0010005904FF4C05000900220CDE9B6
:1019F0000101032003900A20049069460F48FFF775
:101A0000B9F90D48001D016841F0800101600A48E4
:101A10001430016841F4804101600068002200F444
:101A20008040059007214320FFF710FB4320FFF77C
:101A3000FFFA06B010BD000030380240000002403E
:101A400070B50446C068012570B1022801D0FEF7C8
:101A500029FE2946D4F8080502F080FDD4F80805CF
:101A6000BDE8704002F035BD0025F2E7D0F808056A
:101A700002F05DBDD0F8080502F063BD10B5044664
:101A800090F8BC0401280BD0012084F8BC0484F831
:101A90003810206803F0EEFC002084F8BC0410BD70
:101AA000022010BDD0F8082500F2C441104602F013
:101AB00061BD10B50446006894F8BC14012906D035
:101AC000012184F8BC14A16A012902D008E0022097
:101AD00010BDA169012903D0816B41F4803181637C
:101AE000206803F0F8FB206803F0C6F8002084F8B3
:101AF000BC0410BD10B50446D0F8080502F07CFD0A
:101B00002068D0F8001E41F00101C0F8001E206AD4
:101B1000002804D00248016841F00601016010BDB0
:101B200010ED00E02DE9F0470E46050065D0DFF826
:101B30001481D8F80000F7B200F00700B04207D2D5
:101B400088F80070D8F8000000F00700B04254D1C7
:101B500028683D4C810712D5400703D5206840F422
:101B6000E05020602878000703D5206840F46040EA
:101B700020602068A96820F0F000084320602878E1
:101B8000C0072DD0304968680839012812D00228D2
:101B900013D0032811D00968890700292DDA21689C
:101BA00021F0030101432160FFF7E2F9814641F290
:101BB000883A0EE009688903EFE709688901ECE7D4
:101BC000FFF7D6F9A0EB0901514502D90320BDE882
:101BD000F0872068696800F00C00B0EB810FEFD14E
:101BE000D8F80010404601F00701B14207D907704C
:101BF000006800F00700B04201D00120E7E7287834
:101C0000400705D52068E96820F4E05008432060CB
:101C10002878000706D52068296920F4604040EA4A
:101C2000C100206000F01EF82168084AC1F30311CA
:101C3000515CC8400649086006480068FFF7C0F9D3
:101C40000020C4E7003C0240083802407C600008E5
:101C500088000020800000200148006870470000D4
:101C600088000020154810B5006810F00C021448D8
:101C700013D04110042A0FD0082A0ED10F4C241F74
:101C80002268236802F03F025B0207D52068C0F398
:101C90008810A0FB010106E0084610BD2168C1F3D1
:101CA0008811A1FB00010023FEF78CFA2168C1F323
:101CB0000141491C4900B0FBF1F010BD0838024059
:101CC0000024F4002DE9F84F04006ED02078DFF8EE
:101CD0004C93C007A9F104054AD009F1040001683A
:101CE000C1F38101012908D00068C0F381000228F6
:101CF0000AD1D9F80000400206D52868800337D5FC
:101D000060680028E1D033E06068B0F5803F10D013
:101D1000B0F5A02F286810D020F480302860286803
:101D200020F4802028606068A8B1FFF721F90646FA
:101D30000DE0286840F48030F4E740F4802028600B
:101D4000F7E700BFFFF714F9801B642873D82868F1
:101D50008003F7D50CE0FFF70BF9064605E000BF5E
:101D6000FFF706F9801B6428F0D828688003F7D4B1
:101D70002078DFF8AC8280074FF0000A3ED5A748F4
:101D8000001D016811F00C0F08D00068C0F381003D
:101D900002280BD1D9F80000400207D42868800738
:101DA00016D5E068012800D112E033E1E068B8B14F
:101DB0000120C8F80000FFF7DBF8064605E000BF89
:101DC000FFF7D6F8801B0228C0D828688007F7D50F
:101DD0002868216920F0F80040EAC10028600DE081
:101DE000C8F800A0FFF7C4F8064604E0FFF7C0F803
:101DF000801B02281FD828688007F7D420780007A6
:101E000022D5864F87486169703771B10121016021
:101E1000FFF7AEF8064604E0FFF7AAF8801B022899
:101E200009D838688007F7D50EE0C0F800A0FFF7A2
:101E30009FF8064605E082E0FFF79AF8801B02282B
:101E40007DD838688007F7D42078400768D5DFF858
:101E5000CCB100270BF13C0BDBF80000C0000BD429
:101E6000DBF8001041F08051CBF80010DBF80000E7
:101E7000012700F0805000906B4E3068C00510D4F0
:101E8000306840F480703060FFF772F8009005E031
:101E9000FFF76EF80099401A022850D83068C00544
:101EA000F6D55E4EA0686C3601280FD00528306844
:101EB00010D020F001003060306820F00400306065
:101EC000A068B8B1FFF754F800900FE0306840F018
:101ED0000100F4E740F004003060F7E7FFF748F84E
:101EE0000099411A41F28830814266D830688007F3
:101EF000F4D50EE0FFF73CF8009007E0FFF738F864
:101F00000099411A41F28830814256D830688007E2
:101F1000F4D42FB1DBF8001021F08051CBF8001081
:101F2000A069C8B33D49091D0968C1F381010229AF
:101F30004AD00228504607D0C8F8600000E03CE0D4
:101F4000FFF716F804463BE04746C8F86000FFF785
:101F50000FF8064605E000BFFFF70AF8801B0228CD
:101F60002BD828688001F7D4D4E907010843A16A77
:101F70002E4A490802EB0141626A41EA8211084394
:101F800094F82C1040EA0161C9F80010012038666D
:101F9000FEF7EEFF044606E03EE000BFFEF7E8FF76
:101FA000001B022809D828688001F7D534E000BF5B
:101FB000FEF7DEFF001B022802D90320BDE8F88FE0
:101FC00028688001F4D427E00128F7D0D9F8000070
:101FD000E26900F4800191421CD1226A00F03F01C5
:101FE000914217D147F6C071626A0140B1EB821F7E
:101FF00010D1A26A4FF0FF3300F4403103EB5202DC
:10200000B1EB024F06D194F82C1000F07060B0EBE9
:10201000016F01D00120D1E70020CFE70438024052
:1020200000004742800E4742007000400000FFFF62
:1020300010B5401EB0F1807F01D3012010BD4FF0DC
:10204000E02460610F21601703F023FB0020A061F2
:1020500007202061002010BD7047704710B590F830
:102060003C20012A22D0012280F83C20CA688C68DA
:1020700022F4407222434C6822F4806222430C68AE
:1020800022F4006222430C6922F4805222434C69FC
:1020900022F400522243C969002322F480420A43F9
:1020A00001684A6480F83C30002010BD022010BD59
:1020B00070B590F83C20012A32D0012480F83C40D1
:1020C000022280F83D2003685A689D6822F070065D
:1020D0000A6832435A60134B02689A4214D0B2F134
:1020E000804F11D0104B9A420ED0104B9A420BD019
:1020F0000F4B9A4208D00F4B9A4205D00E4B9A4292
:1021000002D00E4B9A4204D1496825F0800319434E
:10211000916080F83D40002180F83C10084670BD79
:10212000022070BD00000140000400400008004093
:10213000000C004000040140004001400018004035
:1021400010B50446022249B104290ED0082913D043
:1021500094F84500012816D0012010BD94F84200E3
:102160000128F9D184F842200FE094F843000128B7
:10217000F2D184F8432008E094F844000128EBD120
:1021800084F8442001E084F845200422206801F00E
:102190002AFB2068416C41F40041416411492068E8
:1021A000884214D0B0F1804F11D00F4988420ED030
:1021B0000E4988420BD00E49884208D00D4988420A
:1021C00005D00D49884202D00C49884204D181686B
:1021D00001F00701062903D0016841F00101016007
:1021E000002010BD00000140000400400008004035
:1021F000000C004000040140004001400018004075
:1022000070B504460D460068002201F0ECFA206823
:10221000036A41F211110B4240F2444206D1036AB3
:10222000134203D1436C23F4004343642068036AE0
:102230000B4206D1016A114203D1016821F001016C
:10224000016001203DB1042D08D0082D09D084F88B
:102250004500002070BD84F84200FAE784F843008E
:10226000F7E784F84400F4E710B5040003D094F8CD
:102270003D0010B107E0012010BD002084F83C00B3
:10228000204600F01FF8022084F83D00211D206840
:1022900001F038FA012084F8460084F83E0084F802
:1022A0003F0084F8400084F8410084F8420084F83C
:1022B000430084F8440084F8450084F83D00002081
:1022C00010BD000070B586B0044614216846FDF7C5
:1022D000C3FF2D4824682B4E00222B4914380225B9
:1022E0000123B44218D10C6844F001040C60096861
:1022F00001F001010591016841F0020101600068EF
:10230000CDE9023200F0020005901803CDE9000586
:10231000694604931D4832E01D4EB44213D11A4859
:10232000001F016841F0100101600068002200F008
:102330001000059005213620FEF788FE3620FEF7B6
:1023400077FE06B070BD134EB442FAD10C6844F06B
:1023500002040C60096801F002010591016841F076
:10236000010101600068029300F001000590402027
:10237000CDE900050320CDE9032069460648FEF7B4
:10238000F9FCDEE70000014044380240000402404E
:1023900000100040000401400000024090F83D1091
:1023A000012901D001207047022180F83D10016809
:1023B000CA6842F00102CA6000681149884214D01C
:1023C000B0F1804F11D00F4988420ED00E4988429B
:1023D0000BD00E49884208D00D49884205D00D49DE
:1023E000884202D00C49884204D1816801F007017B
:1023F000062903D0016841F0010101600020704707
:10240000000001400004004000080040000C0040B3
:1024100000040140004001400018004070B504462F
:1024200090F83C000025012817D0012684F83C6074
:10243000022084F83D002068826822F0770222F4AE
:102440007F4282600868502838D00DDC20284FD0A9
:1024500005DC90B3102811D14AE0022070BD30286D
:1024600046D040280AD13BE060282FD070280DD0FC
:10247000B0F5805F03D0B0F5005F12D0012584F87D
:102480003D60002084F83C00284670BDCB68D1E94F
:102490000121206801F0B4F92068816841F07701DA
:1024A00009E0CB68D1E90121206801F0A9F9206891
:1024B000816841F480418160E1E719E0CA684968B8
:1024C000206801F071FA5021206806E0CA68496866
:1024D000206801F07AFA6021206801F09BF9CEE7CC
:1024E000CA684968206801F05FFA40212068F4E773
:1024F000226801461046F0E72DE9F0410D46040040
:1025000003D094F83D0018B108E00120BDE8F08147
:10251000002084F83C00204600F040F8022084F8B7
:102520003D002068816844F2070291438160211DCB
:10253000206801F0E7F8226890689169166A2B68B4
:10254000AF69034340F20330814341EA0721A868A1
:10255000EF6908434FF6FC418843E96840EA0720E9
:10256000014328692F6A000140EA0730084369687F
:102570006D6926F0AA0646EA05152943936022688C
:10258000906154F8460B0162012004F81F09E075C0
:102590002076E0762077A0750020B7E710B586B0EA
:1025A000044614216846FDF757FE2068B0F1804FBD
:1025B0001FD111480021026842F001020260006848
:1025C00000F0010005900C481038026842F001024A
:1025D0000260006800F001000590032000900220D6
:1025E000CDE9010103900120049069460348FEF7FC
:1025F000C1FB06B010BD00004038024000000240A0
:1026000070B590F83E60044690F83F5090F8423024
:1026100090F84320022021B104290ED0012E1BD1B5
:1026200014E0012E18D1012B16D184F83E0084F855
:10263000420001220021206820E0012D0CD1012A56
:102640000AD184F83F0084F8430014E0012D03D13F
:10265000012B01D1012A01D0012070BD84F83E0078
:1026600084F83F0084F8420084F8430001220021EE
:10267000206801F0ABF801220421206801F0A6F8DF
:102680002068016841F001010160002070BD7047C1
:1026900070B50446006801694FF00005C943890719
:1026A00015D4C168C943890711D4E91E016101200D
:1026B0002077206880698007204602D0FFF7E7FF77
:1026C00004E000F0FFF8204600F091F9257720683B
:1026D0000169C943490717D4C168C943490713D4DD
:1026E0006FF004010161022020772068806910F4F6
:1026F000407F204602D0FFF7CAFF04E000F0E2F876
:10270000204600F074F9257720680169C94309075C
:1027100016D4C168C943090712D46FF008010161DA
:10272000042020772068C0698007204602D0FFF788
:10273000AEFF04E000F0C6F8204600F058F9257717
:1027400020680169C943C90617D4C168C943C906CD
:1027500013D46FF010010161082020772068C06950
:1027600010F4407F204602D0FFF791FF04E000F014
:10277000A9F8204600F03BF9257720680169C94394
:10278000C90708D1C168C943C90704D1891E0161BD
:10279000204600F0CFF920680169C943090609D431
:1027A000C168C943090605D46FF080010161204664
:1027B000FFF752FC20680169C943490609D4C16882
:1027C000C943490605D46FF040010161204600F07D
:1027D0006BFA20680169C94389060BD4C168C943F3
:1027E000890607D46FF0200101612046BDE87040E2
:1027F000FFF733BC70BD0000F0B587B0044614216C
:102800006846FDF729FD294A216800252848022449
:10281000284E914221D1016841F002010160016816
:1028200001F002010591016841F0010101600068B9
:10283000012700F0010005904FF460408DE8310061
:10284000CDE9035769461C48FEF794FA4FF4E0605F
:102850008DE831006946304621E0184A914222D184
:10286000016841F001010160016801F00101059179
:10287000016841F0040101600068032700F00400D2
:10288000059080208DE83100CDE903576946304638
:10289000FEF770FA40208DE8310009486946CDE91D
:1028A0000357FEF767FA07B0F0BD000000000140D3
:1028B00030380240000002400004024000040140A1
:1028C00000080240704770B5044690F83C000026AE
:1028D0000D4601280FD0012084F83C006AB1042A7B
:1028E0001DD0082A2FD00C2A3FD00126002084F8C2
:1028F0003C00304670BD022070BD206800F092FFA1
:102900002068816941F0080181612068816921F0B6
:1029100004018161206881692A69114311E02068FE
:1029200000F0B0FF2068816941F400618161206896
:10293000816921F480618161206881692A6941EAA5
:1029400002218161D2E7206800F0D2FF2068C169CE
:1029500041F00801C1612068C16921F00401C16131
:102960002068C1692A69114311E0206800F0F4FF72
:102970002068C16941F40061C1612068C16921F426
:102980008061C1612068C1692A6941EA0221C1618F
:10299000ACE710B5040003D094F83D0010B107E097
:1029A000012010BD002084F83C00204600F01EF8F5
:1029B000022084F83D00211D206800F0A3FE0120C4
:1029C00084F8460084F83E0084F83F0084F8400014
:1029D00084F8410084F8420084F8430084F84400FD
:1029E00084F8450084F83D00002010BD7047704712
:1029F00010B50446022249B104290ED0082913D08B
:102A000094F84100012816D0012010BD94F83E0032
:102A10000128F9D184F83E200FE094F83F00012806
:102A2000F2D184F83F2008E094F840000128EBD16F
:102A300084F8402001E084F841200122206800F061
:102A4000C5FE16492068164A884201D0904203D13B
:102A5000436C43F4004343642068884213D0B0F1D0
:102A6000804F10D00F4988420DD00F4988420AD0BC
:102A70000E49884207D0904205D00D49884202D0C5
:102A80000C49884204D1816801F00701062903D06E
:102A9000016841F001010160002010BD000001400B
:102AA000000401400004004000080040000C004009
:102AB000004001400018004030B504460D46006853
:102AC000002200F083FE194B41F2111120688A1098
:102AD000984202D0164B984209D1036A0B4206D1A4
:102AE000036A134203D1436C23F400434364206818
:102AF000036A0B4206D1016A114203D1016821F039
:102B00000101016001203DB1042D08D0082D09D03C
:102B100084F84100002030BD84F83E00FAE784F8D4
:102B20003F00F7E784F84000F4E7000000000140B0
:102B3000000401402DE9F0414B492DED048B006864
:102B400088425FD1494EB3EE080A86ED010A9FED37
:102B5000488A48494848B0EE480AFDF74DFD4648C6
:102B6000B0EE480A503800F019FC4348503890ED58
:102B7000000A9FED421A424C20EE010A94ED039A9E
:102B8000DFED400AD4ED038A3B4900EE209A90ED38
:102B9000040A20EE011A41EE208AD1ED060A30EE39
:102BA000608AB5EEC08AF1EE10FA02DBB0EE480A98
:102BB00001E0B1EE480A18EE101A10EE105A324B2E
:102BC000324A994202DD9FED328A05E018EE101A72
:102BD000914201D99FED2F8A007ADFED2F0A00275D
:102BE000A0B1B6EE000A84ED020A94ED020A1F4875
:102BF000FDF7B2FDD6ED040AB0EE490A1B48FDF719
:102C0000F3FD6770BDEC048BBDE8F0819FED230AF6
:102C1000164884ED020A94ED020AFDF79DFDDFEDF2
:102C2000200AB0EE680A1F4808EE200A854208DA3A
:102C300060784FF6FF71884204D26078401C607063
:102C400000E067706078322805D3BDEC048BBDE8E6
:102C5000F041FDF729BDD6ED040A0448BDEC048B14
:102C6000BDE8F041FDF7C0BD00100040081F002086
:102C700017B7D13828020020700100200000484218
:102C800000000020DB0FC9408FC2F53C8FC2F5BCAD
:102C90008FC2F53C8FC2F5BC6F12033B0AD7A33D30
:102CA0003B46F13FA69B443B704700000021014892
:102CB00002F091BFE00100200421014802F08BBF27
:102CC000E00100200821014802F085BFE00100205A
:102CD0000021014802F07FBFB8020020FEE700009B
:102CE000F0B500230A24302537261F4611E000BF27
:102CF000B4EB107F02D905EB107C01E006EB107CF1
:102D000001F813C001EB430C00015B1C8CF801704F
:102D1000DBB29342ECD3F0BDF0B58DB00024089443
:102D200009940A94202168460B94FDF795FA2448EB
:102D30000125224905614FF480368460C0E9001600
:102D4000047680F820401F49C0E90A14C561C460B8
:102D500080F830404461FDF776FF08B1FDF7A2FC32
:102D60000E270897CDE9095408A91548FDF72CFE50
:102D700008B1FDF797FCCDE900750225032002900C
:102D8000E804CDE906608DF8154004958DF81440EF
:102D900069460B480394FDF737FD08B1FDF782FC47
:102DA0000F20CDE9000569460548FDF72DFD0028F7
:102DB00001D0FDF777FC0DB0F0BD00000020014010
:102DC000980100200100000F70B586B014216846FC
:102DD000FDF742FA2A480024016841F01001016021
:102DE000016801F010010591016841F08001016066
:102DF000016801F080010591016841F00101016065
:102E0000016801F001010591016841F004010160D0
:102E1000016801F004010591016841F002010160BF
:102E20000068184E00F00200059001223021304663
:102E3000FEF798F801253020CDE90005CDE90254D0
:102E400069463046FDF796FF4FF6C0708DE83100B9
:102E500069463046FDF78EFF082000904FF4881039
:102E6000CDE9010469460848FDF784FF00220621E8
:102E70000920FEF7EBF80920FEF7DAF806B070BD7E
:102E800030380240001002400000024070B596B099
:102E900000240F9410941194129413941C216846EA
:102EA0001494FDF7D9F9202107A8FDF7D5F9394881
:102EB000374901605321C0E901146321C0E90314BB
:102EC00044618461FFF7D0F908B1FDF7EBFB4FF4E3
:102ED00080550FA92F480F95FFF7A0FA08B1FDF70D
:102EE000E1FB2C48FFF755FD08B1FDF7DBFB702631
:102EF000CDE9136413A92748FFF7DAF808B1FDF705
:102F0000D1FB602000903120CDE901040820CDE9FB
:102F100003044001CDE90504002269461D48FFF77E
:102F2000D2FC08B1FDF7BEFB042269461948FFF741
:102F3000CAFC08B1FDF7B6FB082269461548FFF741
:102F4000C2FC08B1FDF7AEFB32200594CDE900606C
:102F50000C2269460F48FFF7B6FC08B1FDF7A2FB4B
:102F60004FF4006007904010CDE9080400010E9076
:102F7000CDE90A4507A90C940648FFF76FF808B198
:102F8000FDF790FB0348FFF737FC16B070BD00005B
:102F900000000140E001002010B58CB024216846FB
:102FA000FDF75AF90024154809944FF080410A941E
:102FB000C0E90014611EC0E902410461846103207C
:102FC000CDE900040120CDE9020406210491CDE9F8
:102FD0000540CDE9074169460848FFF78DFA08B179
:102FE000FDF760FB099409A904480A94FFF760F80B
:102FF000002801D0FDF756FB0CB010BD28020020C0
:103000001CB500240E4800940C4901940160532122
:10301000C0E9011463218461C160FFF725F908B19B
:10302000FDF740FB0094694605480194FFF740F81E
:10303000002801D0FDF736FB1CBD00000010004049
:103040007002002030B595B000240F9410941194B4
:10305000129413941C2108A81494FDF7FDF8202164
:103060006846FDF7F9F82948274901605321C0E96E
:1030700001146321C0E9031444618461FFF7F4F88B
:1030800008B1FDF70FFB4FF480550FA91F480F95AE
:10309000FFF7C4F908B1FDF705FB1C48FFF779FC01
:1030A00008B1FDF7FFFA139413A918481494FEF71A
:1030B000FFFF08B1FDF7F6FA6020CDE9080408200B
:1030C000CDE90A404001CDE90C40002208A90F4893
:1030D0000E94FFF7F8FB08B1FDF7E4FA4FF4006037
:1030E00000904010CDE90104CDE9034505946946FF
:1030F00006480794FEF7B2FF08B1FDF7D3FA03487C
:10310000FFF77AFB15B030BD00040140B802002083
:1031100010B500220F49104801F081F808B1FDF701
:10312000C1FA0E490C4801F08FFA08B1FDF7BAFA5E
:103130000B49094800F022FE08B1FDF7B3FA064832
:1031400001F006FB002803D0BDE81040FDF7AABA45
:1031500010BD00001800002000030020E400002043
:1031600068000020FEE7000000219FED160A417272
:1031700080ED050A80ED000A80ED010A017280ED04
:10318000030A80ED040AF7EE000AC0ED060A80ED9E
:10319000070AC0ED080AC0ED090AC0ED0A0A80ED71
:1031A0000B0A80ED0C0A80ED0D0A80ED0E0A80ED11
:1031B0000F0A80ED100A80ED110A80ED120A80EDF1
:1031C000130A70470000000070B501252DED028B39
:1031D000B5EEC01A9FED6A8A457280ED058AF1EE60
:1031E00010FA80ED030A0446C0ED040A01DCB7EED4
:1031F000001AF5EEC01A84ED081AF1EE10FA01DC9F
:10320000F7EE001AB5EEC02AC4ED091AF1EE10FA75
:1032100001DCB7EE002A70EEC00A84ED0A2A84EDC4
:10322000138A84ED000AB0EE600A84ED018AB5EEDF
:10323000C00AF1EE10FA01DAB1EE400A10EE100AFF
:10324000504984ED070A884219DA00202072607222
:10325000B7EE000A84ED060A84ED0E8A84ED0D8A2D
:1032600084ED0C8A84ED0B8A84ED118A84ED108A3A
:1032700084ED0F8A84ED128ABDEC028B70BDF5EEF1
:10328000C00AF1EE10FA02DBF7EE000A01E0FFEEF1
:10329000000AF6EE008AC4ED060A61EE280A20EE66
:1032A000813AC3EE210AC3EE022A70EEA20AF4EEBE
:1032B000C00AF1EE10FA24D8C1EE210A61EEA81A74
:1032C00084ED121AC1EE022AC4ED0B0A61EEA01AB7
:1032D00061EEA00A62EE281A30EE600AC4ED0D2AF3
:1032E00061EEA21AC4ED0F0A61EEA21AC4ED111A22
:1032F00030EE610A84ED100AC0EE010AC4ED0C0A3A
:103300002FE0F0EE000A31EE821A20EE200A20EEC5
:10331000210A60EE020A80EE810A02F03BFB84ED96
:10332000120AD4ED091AC0EE210AC4ED0B0A84ED8D
:103330000C8A94ED0A2A80EE021A21EEA80A20EEE9
:10334000200A20EE200A84ED0D1A84ED0F0A22EEE9
:10335000280A84ED108A20EE010A20EE010A84ED8D
:10336000110A94ED0B0AD4ED0C0A30EE200AD4EDCC
:103370000D0A30EE200A84ED0E0A25727CE700006B
:10338000000000005F70893000219FED030A017288
:1033900080ED010A4172704700000000017A0029A7
:1033A00013D0D0ED130A002130EE800A80ED130A0D
:1033B000427A9FED421AB6EE002A012A06D0022A6E
:1033C00055D0017280ED011A41727047D0ED0E0A9E
:1033D000F4EEC00AF1EE10FA09D8C0ED130A90ED30
:1033E000040A80ED000A80ED011A0172ECE7D0EDCD
:1033F0000B0AF4EEC00AF1EE10FA04DD90ED091AA2
:1034000061EE000A47E0D0ED0C1A70EEA12AF4EE4E
:10341000C02AF1EE10FA08DD30EE601AD0ED120A83
:1034200090ED0F0A00EE810A3BE030EE600AD0ED2D
:10343000120AD0ED0A2A70EE611AB0EE603A42EE3E
:10344000E10AF5EEC00AF1EE10FA01D2F0EE410AFF
:1034500090ED0F0A90ED101A30EE010A22EE821A5A
:1034600003EE210A21EE211A01EE610A19E0D0EDE6
:103470000B0AF4EEC00AF1EE10FACDDD90ED091A58
:10348000D0ED121A61EE000AF4EEE01AF1EE10FA35
:1034900001D2F0EE610A21EE021A21EE001A21EEAD
:1034A000000AD0ED031A90ED061A41EE001A21EE43
:1034B000200AC0ED001A80ED010A704700000000EC
:1034C000FEE700000148FDF74FBF0000FC19002097
:1034D0002DE9F04103680D4604461E6C03EB4511CF
:1034E000D1F8080BD4F810E04FF400474FF0200C4F
:1034F00004F2C442BEF1010F09D0DFF898E076452E
:1035000039D1020432D500BFC1F8087B3FE0224B1D
:103510005FEA007E04D59E4239D90004F4D436E037
:103520005FEA806E02D5C1F808CB30E010F0280FBA
:103530002DD19E4201D90004E6D405EBC50004EB71
:103540008000D1F8101BD0F89832C1F31201591A3B
:10355000C0F89C1200F51F70ADB983691BB10269F8
:10356000114401610FE0012120680AE080060AD5BC
:10357000C1F808CB07E035B9D4F8940218B9002196
:10358000184601F0E3FCE9B22046FDF7C5FD002036
:10359000BDE8F0810A31544F0A30544F2DE9F84FFD
:1035A0000E4601EBC60100EB810481460568616DA2
:1035B000E06D3C34884202D90120BDE8F88F081A3A
:1035C000E168814200D20846C01C870805EB461816
:1035D0001BE000BFA0EB010AE068504500D2824624
:1035E0000AF10300870899F8100000901FFA8AF387
:1035F000F2B22846216901F0C3FF216901EB0A00FC
:103600002061216A01EB0A002062D8F8180980B213
:10361000B84205D3216AA069814201D20028D9D1DC
:10362000216AA069884208D806F00F01012088406D
:10363000D5F834188143C5F834180020BDE7704729
:1036400070470178407841EA00207047FDF796BC4A
:1036500030B593B030216846FCF7FEFD14210CA86C
:10366000FCF7FAFD1E480025016841F08051016019
:10367000006800F0805011901A48016841F48041C0
:1036800001600068022400F4804011900120009045
:10369000000401908001CDE90640082008904FF415
:1036A000A870CDE9090407200B906846FEF70AFBD5
:1036B00008B172B6FEE70CA90F2081E831004FF483
:1036C000A0500F904FF48050109005210CA8FEF7E9
:1036D00029FA002801D072B6FEE713B030BD000011
:1036E00040380240007000400248016841F4700117
:1036F0000160704788ED00E00148FEF7C9BF000097
:1037000070020020F0B50268254C264D264E274F4A
:10371000274B4FF0804CA04209D0604507D0A8420B
:1037200005D0B04203D0B84201D0984204D122F073
:10373000700E4A6842EA0E02A0421BD0604519D0C2
:10374000A84217D0B04215D0B84213D0984211D039
:10375000184DA8420ED0184DA8420BD0174DA842C4
:1037600008D0174DA84205D0164DA84202D0164DDC
:10377000A84203D122F44075CA682A434D6922F059
:1037800080022A4302608A68C2620A688262A0429A
:1037900001D0984201D10969016301214161F0BD65
:1037A000000001400004004000080040000C004000
:1037B0000004014000400140004401400048014035
:1037C00000180040001C00400020004010B501F02F
:1037D0001F030121046A99408C430462016A9A40E4
:1037E0001143016210BD10B501F01F030421046AEA
:1037F00099408C430462016A9A401143016210BDF2
:1038000010B5846842EA032224F47F440A43224329
:10381000826010BD826822F070020A4342F0070104
:1038200081607047F0B5026A22F001020262036A09
:1038300042688469124E24F073050C682C4323F00F
:1038400002058B682B430D4DA84201D0B04205D133
:1038500023F00807CB683B4323F00403A84201D0C0
:10386000B04205D14D6922F4407215438A692A435A
:1038700042608461496841630362F0BD0000014019
:1038800000040140F0B5026A22F010020262026AEE
:10389000436884690D6824F4E64444EA05248D688D
:1038A00022F0200242EA05120F4D104EA84201D02C
:1038B000B04206D1CF6822F0800242EA071222F01D
:1038C0004002A84201D0B04207D14D6923F44063C1
:1038D00043EA85038D6943EA85034360846149684F
:1038E00081630262F0BD000000000140000401405D
:1038F000F0B5026A22F480720262026A4368C46907
:1039000022F4007224F073050C68124E2C438D686B
:1039100042EA05220E4DA84201D0B04206D1CF683E
:1039200022F4006242EA072222F48062A84201D017
:10393000B04207D14D6923F4405343EA05138D6922
:1039400043EA05134360C4614968C1630262F0BD84
:10395000000001400004014030B5026A22F48052A8
:103960000262046A4268C3690D6823F4E64343EACD
:1039700005238D6824F4005444EA0534084DA84218
:1039800002D0084DA84204D14D6922F4804242EA97
:1039900085124260C36149680164046230BD000061
:1039A000000001400004014010B5036A046A24F0DD
:1039B00001040462846924F0F00444EA021423F050
:1039C0000A020A438461026210BD10B5036A23F043
:1039D000100303628369046A23F4704343EA0232EA
:1039E00024F0A00343EA01118261016210BD2DE9B8
:1039F000F0410C46D0F8D412D0F8C82200EB810177
:103A0000D1F8C01229B304F00F0606EB860300EBD1
:103A100083050027AB694BB106EBC60602EB8602B5
:103A2000926CB3FBF2F602FB1632A2B1C1F814722B
:103A3000D0F8D42200EB8200D0F8C40203692BB185
:103A4000D1F80802224601F5047198470020BDE82C
:103A5000F0810320FBE700231A462146AF6100F006
:103A6000D4FDF3E770B50546D0F8D40205EB80002D
:103A7000D0F8C04294B1284600F0A9FCC4F80C026A
:103A8000D5F8D412D4F8040205EB8101D1F8C412A0
:103A9000CA6804F503719047002070BD032070BD13
:103AA00070B5224D0446297800F0D5FB2878002611
:103AB00000F00F0000EB800004EB80008684697842
:103AC000204600F0C8FB687800F00F0000EB800093
:103AD00004EB8000A0F86461A978204600F0BBFBED
:103AE000A87800F00F0000EB800004EB80008684D3
:103AF000C684D4F8D40204EB8000D0F8C01299B187
:103B0000D0F8C40240688047D4F8D40204EB8000A7
:103B1000D0F8C00200F09DFFD4F8D40204EB80007E
:103B2000C0F8C062C4F8BC62002070BD90000020E4
:103B300010B5D0F8D41200EB8100D0F8C04284B1A7
:103B4000D0F8C41259B194F80002FF2807D08B684E
:103B500094F8012221469847FF2084F800020020B3
:103B600010BD032010BD00000A21018000487047ED
:103B70009400002070B5064682210C4800F0FBFA44
:103B800005460121094800F0F6FA0446812107485C
:103B900000F0F1FA0DB11021A971402104B1A1800A
:103BA00000B1818043203080004870BDA00000201B
:103BB00070B5064682210D4800F0DDFA0546012168
:103BC0000A4800F0D8FA04468121084800F0D3FAE8
:103BD0000DB11021A9714FF4007104B1A18000B1A1
:103BE000818043203080014870BD0000A00000208B
:103BF00070B5064682210C4800F0BDFA0546012149
:103C0000094800F0B8FA04468121074800F0B3FAE9
:103C10000DB11021A971402104B1A18000B18180B2
:103C200043203080004870BDA00000202DE9F047FF
:103C300004464FF40775284600F00CFF06004FF0CD
:103C4000000863D02946FCF707FBD4F8D4023C4DAA
:103C500004EB80004FF01009C0F8C062C4F8BC62E9
:103C6000207C4FF4007A0127F0B340230222297808
:103C7000204600F019FC2878402300F00F0000EBEC
:103C8000800004EB8000878402226978204600F0DF
:103C90000BFC6878082300F00F0000EB800004EBB9
:103CA00080000322A0F86471A978204601F00F017A
:103CB00001EB810104EB8101A1F82690A97800F0C5
:103CC000F3FBA87800F00F0000EB800004EB80000D
:103CD0008784C6F80482D4F8D402474604EB8000F7
:103CE000D0F8C402006800E018E006F501768047CD
:103CF0003761776132687AB1207CF8B14023697806
:103D0000204600F0DDFB0020BDE8F087D4F8D41297
:103D100004EB8101C1F8C0820220F5E7534602227C
:103D20002978204600F0C0FB2878534600F00F00A9
:103D300000EB800004EB80008784A5E75346DEE7B4
:103D40009000002010B5D0F8D41200EB8101D1F81A
:103D5000C01259B1027C084C002AD1F8042207D0C5
:103D60004023617800F0ACFB002010BD032010BDA3
:103D70004FF40073F5E700009000002039B1D0F84F
:103D8000D42200EB8200C0F8C41200207047032048
:103D90007047D0F8D42200EB8200D0F8C00218B1EE
:103DA000C0F804120020704703207047D0F8D432C6
:103DB00000EB8300D0F8C00228B1C0F81022C0F890
:103DC000081200207047032070472DE9FC41064689
:103DD000D0F8D4020C4606EB80000021D0F8C07267
:103DE0008DF80010ADF804100D4637B1217811F0B0
:103DF00060022FD0202A4BD102E00320BDE8FC81D5
:103E0000E288F2B109060DD5D0F8C40263783946CC
:103E1000D0F808C01846E047E288072A00D90722F0
:103E200039462DE0607887F80002E088402800D30A
:103E30004020C2B287F801223946304600F081F8AE
:103E40002BE0D0F8C4026378002286682146184629
:103E5000B04722E0607830B101281ED00A2809D08E
:103E60000B2815D110E096F89C02032810D10222ED
:103E700001A905E096F89C02032809D101226946B0
:103E8000304600F078F808E096F89C02032804D049
:103E90002146304600F04AF803252846AEE70000E8
:103EA00010B5D0F8D41200EB8101D1F8C022012165
:103EB0001AB1D2F8143213B116E0032010BD01215B
:103EC000C2F814120949D2F81032097801F00F042F
:103ED00004EB840400EB8404A361D2F81032D2F81E
:103EE000082200F092FB0021084610BD900000203F
:103EF00010B5D0F8B82200245268904700B10324CE
:103F0000204610BD0020704700207047134610B5B2
:103F10000A46002100F0D4FA002010BD134610B567
:103F20000A46002100F071FB002010BD10B50446C8
:103F3000802100F04FFB2046BDE81040002100F03A
:103F400049BB10B50323C0F89432C0F8582113467A
:103F5000C0F85C210A46002100F0B2FA002010BD32
:103F600010B50521C0F8941200231A46194600F036
:103F7000A7FA002010BD10B50223C0F89432826168
:103F80001346C2610A46002100F03FFB002010BD2D
:103F900010B50421C0F8941200231A46194600F007
:103FA00034FB002010BD000010B50A46024903A0F2
:103FB00000F005F9004810BDDC0500204344432013
:103FC000436F6E66696700001220088000487047E2
:103FD0003800002010B50A46024903A000F0EFF8AF
:103FE000004810BDDC05002043444320496E746541
:103FF0007266616365000000042008800048704715
:104000003400002010B50A46024903A000F0D7F89A
:10401000004810BDDC05002053544D6963726F6584
:104020006C656374726F6E696373000010B50A4645
:10403000024903A000F0C3F8004810BDDC050020D1
:1040400053544D3332205669727475616C20436F3E
:104050006D506F727400000010B51A2008800A4875
:104060000168001D0468001D0068081809D00822B6
:104070000649FEF735FE0549042210312046FEF7B9
:104080002FFE0248801E10BD107AFF1F4E00002038
:10409000F8B504460020ADF8000048880D46010A36
:1040A00008295FD2DFE801F05E0409175E5E3C4537
:1040B000D4F8B412207C0A6819E0207C022600287B
:1040C000D4F8B80205D0C16A6846884701464670F0
:1040D00039E0816AF8E7C0B2062843D2DFE800F091
:1040E000030A1014181CD4F8B402426805E06946AB
:1040F00090471CE0D4F8B402826892B3207CF6E7C3
:10410000D4F8B402C268F8E7D4F8B4020269F4E75C
:10411000D4F8B4024269F0E7D4F8B4028269ECE75B
:10412000207CF0B9D4F8B802416B68468847014654
:1041300009E0207CA8B9D4F8B802016B684688472A
:10414000014607204870EA888AB1BDF8000040B1F6
:10415000824200D90246ADF800202046FFF70BFF4F
:10416000F8BDFFE729462046FFF7E0FEF8E72046C6
:10417000FFF70EFFF4E778B50E4642880178002578
:1041800004468A4212D9ADF800100AE0694600F0F0
:104190000FF84178052904D181780546B14205D050
:1041A00000256188BDF800209142EFD8284678BDEF
:1041B0000A8803781A440A8001780844704770B569
:1041C000002300281ED00025044602E06D1CEDB23D
:1041D000641C2678002EF9D1022404EB45041480D7
:1041E0001278CA545B1C0322CA5400245B1C06E0EC
:1041F000CA545B1CDAB28C54521CD3B2401C0278F5
:10420000002AF5D170BD01004FF0000004D0012953
:1042100001D0022901D0032070470120704778B1F6
:104220000023C0F8B832C0F8C432C0F8D03209B1A7
:10423000C0F8B412012180F89C12027000F0CCB8D2
:104240000320704710B5D0F8C802FCF7A8FFBDE8FE
:104250001040FFF7D8BF10B5D0F8C802FCF779FFBF
:10426000BDE81040FFF7CFBF2DE9F04117460446E7
:10427000002521B194F89C02032842D04CE0D4F8E8
:10428000941204F11400022935D1D0E902639E4250
:1042900006D9F21A826039462046FFF73FFE0FE04A
:1042A000B34214D14068984211D3D4F8981288428E
:1042B0000DD2002211462046FFF730FEC4F8985276
:1042C00000231A461946204600F0FAF813E094F845
:1042D0009C02032808D1D4F8B802C16821B1C4F8FF
:1042E000D452C168204688478021204600F072F9E8
:1042F0002046FFF735FE94F8A00268B184F8A0527A
:104300000AE0D4F8B802426932B1C4F8D452426922
:1043100020469047002800D10020BDE8F08170B50C
:1043200013460446002221B194F89C02032830D0A1
:104330003AE0D4F8941204F5AA70032934D1D0E9F4
:1043400002518D420AD96A1A82600846824200D31D
:10435000024619462046FFF7D9FD25E094F8AA0247
:1043600010F01F0003D0012802D0022800D0002244
:1043700094F89C02032808D1D4F8B802016921B14D
:10438000C4F8D4220169204688472046FFF700FE82
:104390000AE0D4F8B802836933B1C4F8D422826940
:1043A00020469047002800D1002070BD00207047B3
:1043B00010B50024012180F89C12D0F8B82222B157
:1043C00052680179904700B10324204610BDD0F80F
:1043D000C802FCF712BF000010B5017839BB1549BF
:1043E0000222C1F80805C0F8C8124FF0A0400860CA
:1043F000042048600020C1E90320C1E906200862CA
:104400004862C86208630846FDF766FA08B1FCF71F
:1044100049F980210748FCF74CFE4022002105485D
:10442000FCF74BFE802201210248FCF746FE0020EB
:1044300010BD0000FC1900200A0601F07F01D0F831
:10444000C80201EBC10100EB810002D590F83E00EB
:10445000704790F87E02704710B5D0F8D42200EB78
:104460008202D2F8B82222B190F89C32032B02D0FB
:1044700004E0032010BD126A02B19047002010BD75
:1044800010B5D0F8D42200EB8202D2F8B82222B1C3
:1044900090F89C32032B02D004E0032010BD526A36
:1044A00002B19047002010BD10B51C461346D0F84D
:1044B000C8022246FCF7AAFEBDE81040FFF7A3BEE3
:1044C00010B5D0F8C802FCF7D1FEBDE81040FFF7E8
:1044D0009ABE2DE9F04100260125044680F89C5241
:1044E000C4F894626660C4F8A46280F8A062D0F850
:1044F000B80230B1426822B100212046904700B195
:1045000003260022402311462046FFF7CDFF402717
:10451000A4F864513B46002280212046C4F8607113
:10452000FFF7C2FFA58430462762BDE8F08190F80E
:104530009C12042903D190F89D1280F89C1200204F
:10454000704710B590F89C12032905D1D0F8B81225
:1045500011B1C96901B18847002010BD0174002064
:10456000704710B5D0F8C802FDF788FABDE81040D2
:10457000FFF749BE70B5044600F2AA20054600F0D8
:104580004DF80120C4F89402B4F8B002C4F89802BF
:1045900094F8AA0210F01F010AD001290ED00229B6
:1045A00012D000F080012046BDE8704000F012B843
:1045B00029462046BDE8704000F0CCB82946204688
:1045C000BDE8704000F00CBA29462046BDE87040B6
:1045D00000F056B910B5D0F8C802FCF76BFEBDE884
:1045E0001040FFF710BE10B5D0F8C802FDF761FA11
:1045F000BDE81040FFF707BE90F89C1280F89D12AE
:10460000042180F89C120020704710B5D0F8C80231
:10461000FCF78AFEBDE81040FFF7F5BD70B5054612
:1046200011F8010B2870087868704C1C2046FFF7C1
:1046300008F86880A41C2046FFF703F8A880A01C97
:10464000FEF7FFFFE88070BD38B504460020ADF8E6
:104650000000A1B1C4F8B812D4F8D40204EB800071
:10466000D0F8B802C16A19B168468847C4F8D002C8
:10467000D4F8D802401CC4F8D802002038BD03206A
:1046800038BD02460020D2F8B832002B02D01B6899
:1046900010461847704700002DE9F04188462B4E20
:1046A0008978002504463170012906D94146204603
:1046B000FFF73CFC0320BDE8F08194F89C02022740
:1046C00002280CD003281DD041462046FFF72EFCBF
:1046D00031782046FFF70CFC03252846EBE789B329
:1046E00020466160FFF7CDFF050004D0414620461B
:1046F000FFF71CFC1DE02046FFF74AFC032084F86E
:104700009C02EAE7C1B1606888421BD0C1B2204672
:10471000FFF7EEFB317820466160FFF7B2FF05003E
:1047200010D041462046FFF701FC21792046FFF7D3
:10473000DFFB84F89C72D0E784F89C7220466160AD
:10474000FFF7D6FB2046FFF723FCC6E78C000020CE
:10475000FFF749BF2DE9F0410A78002512F0600209
:104760000CD0202A01D0402A7DD1D0F8D42200EBF1
:104770008202D2F8B8229268904731E04B7800224A
:1047800001260A2B6FD2DFE803F041666E586E08EF
:10479000056E2D29FFF77CFC67E004468888D8B9B0
:1047A000C888C8B94888802816D200F07F0794F8D6
:1047B0009C02032810D084F89E7239462046FFF7E9
:1047C000D0FE2046FFF7E4FB1FB1022084F89C02D4
:1047D0004BE084F89C6248E0204644E0FFF75CFF31
:1047E000054642E0CB88012B3DD190F89C32012B4D
:1047F00004D0022B02D0032B35D104E082600122C9
:1048000000F1080116E00122011D13E090F89C223E
:10481000012A03D0022A01D0032A24D1CA88022AFD
:1048200021D1C660D0F8A41209B10321C1600222CF
:1048300000F10C01FFF79FFB17E04A88012A02D024
:10484000022A03D00FE0C0F8A46216E08988090AA2
:1048500080F8A01211E090F89C32012B08D0022BB6
:1048600006D0032B04D0FFF761FB2846BDE8F0819A
:1048700049880129F9D1C0F8A422FFF789FBF4E7A0
:104880002DE9F041054608780C790E464FF00008F6
:1048900010F060000BD0202801D040286AD12146BA
:1048A0002846FFF72FFBFF2800D0D8B395E070789B
:1048B000C8B3012824D003285CD195F89C020228B3
:1048C00002D0032856D10CE0002C53D0802C51D0BC
:1048D00021462846FFF77EFE80212846FFF77AFE14
:1048E0007BE0708840B93CB1802C05D0C88818B9ED
:1048F00021462846FFF76EFE2846FFF749FB6CE08D
:1049000095F89C020228DFD0032863D1708880BB11
:10491000600603D021462846FFF794FC2846FFF79F
:1049200037FBBCE700E00AE0C5F8D402D5F8B802CE
:104930008268F2B131462846904780464DE095F8AE
:104940009C020027022802D0032843D113E00CB1B7
:10495000802C3FD1200604F07F0000EB800005EBA7
:10496000800101D5143101E001F5AA7102220F6026
:104970002CE032E02EE0200604F00F0000EB800077
:1049800005EB800009D5808C20B304F07F0000EB9C
:10499000800005EB800614360AE0B0F86401C8B167
:1049A00004F07F0000EB800005EB800606F5AA7698
:1049B0004CB1802C07D021462846FFF73DFD10B1B1
:1049C0000120306000E03760022231462846FFF7C0
:1049D000D2FA02E02846FFF7A9FA4046BDE8F08186
:1049E00070B50546087800240E4610F0600003D02C
:1049F000202801D0402827D195F89C02012803D017
:104A0000022801D003281FD1B088C1B201291AD8C9
:104A1000C1B22846FFF778FAFF280CD058B9D5F86C
:104A2000B8128A683AB1C5F8D4028A683146284675
:104A30009047044600E00324F088204307D128462D
:104A4000FFF7A6FA03E031462846FFF76FFA204643
:104A500070BD704700487047DC17002070B50A78B9
:104A6000012302F00F054E78AB401B4CD0F81C58C8
:104A7000012E17D045EA0343C0F81C3800EB421062
:104A8000D0F8002B12040BD4D0F8002B8B890979B5
:104A9000C3F30A031A4344EA81410A43C0F8002BD6
:104AA000002070BD9BB21D43C0F81C5800EB4210A3
:104AB000D0F800391B04F3D4D0F800398D89097976
:104AC000C5F30A0589042B4341EA82510B43234372
:104AD000C0F80039E4E7000000800010D0F80019A9
:104AE0006FF30A01C0F80019D0F8041841F480717E
:104AF000C0F804180020704770B5044606990A9E55
:104B0000049D0D98012916D0E06840F04000E06057
:104B1000204600F02BF8A16B1EB321F48031A16375
:104B2000012D07D1A16841F00601A160A16841F003
:104B30002001A16070BDA16B21F48031A163E16807
:104B4000094A1140E160E16821F44011E160012867
:104B500003D1E06840F48010E060204600F006F8E1
:104B6000DEE741F48031DAE7BFFFBDFF08B5002280
:104B70000D490092009B5B1C00938B420CD803698B
:104B8000002BF7DA0092026942F001020261009AFA
:104B9000521C00928A4201D9032008BD0269D20743
:104BA000F5D1002008BD0000400D030030B54C7861
:104BB0000A78012300EB4212012C2CD0D2F8004BD2
:104BC000002C0BDAD2F8004B44F00064C2F8004B22
:104BD000D2F8004B44F08044C2F8004BD0F83C5867
:104BE0000C7804F00F0403FA04F425EA0444C0F836
:104BF0003C48D0F81C48097801F00F018B4024EAAA
:104C00000341C0F81C18D2F8000B19490840C2F83B
:104C1000000B002030BDD2F80049002C0BDAD2F88E
:104C2000004944F00064C2F80049D2F8004944F059
:104C30008044C2F80049D0F83C480D7805F00F05D3
:104C400003FA05F5ADB2AC43C0F83C48D0F81C48B7
:104C5000097801F00F018B4099B28C43C0F81C48D1
:104C6000D2F8000903490840C2F80009D1E7000062
:104C70000078F3EF007833ECD0F8001E21F0030148
:104C8000C0F8001ED0F8041821F00201C0F8041882
:104C900000207047D0F8001E21F00301C0F8001E6C
:104CA000D0F8041841F00201C0F804180020704741
:104CB0002DE9F04F00250E460446DDF82CC0DDF846
:104CC00024B0109F2846294604EB8002C2F8041144
:104CD000401C0F28F8D32046C7B1806B20F4001287
:104CE000A263A06B40F40022A26308468846C4F881
:104CF000000ED4F800182046C4F80018BCF1010FCB
:104D000016D0D0F8001841F0030116E0D0F80408DE
:104D100040F00202C4F80428A06B40F40012A26321
:104D2000A06B20F40022A263A06B20F48022DBE7BA
:104D3000D0F800180BB141F00101C0F800181021A3
:104D400000F0EEFA00B10125204600F0CBFA00B1E8
:104D500001254046C4F81088C4F81488C4F81C889B
:104D600000214FF000694FF0904A4FF67F3314E076
:104D700004EB4112D2F800C9BCF1000F06DA11B100
:104D8000C2F800A904E0C4F8009901E0C2F80009E3
:104D9000C2F81009C2F80839491C8E42E8D800212F
:104DA00015E000BF04EB4112D2F800CBBCF1000FBC
:104DB00006DA11B1C2F800AB04E0C4F8009B01E0D0
:104DC000C2F8000BC2F8100BC2F8083B491C8E4217
:104DD000E8D8D4F8101821F48072C4F81028A06123
:104DE0006FF080406061BBF1000F03D1A06940F01B
:104DF0001000A061A06909490843A0610C9818B18E
:104E0000A06940F00800A061012F03D1A069044906
:104E10000843A0612846BDE8F08F000000383C80C0
:104E200004000040816821F001018160002070478A
:104E300070B50D784E78444CEBB200EB4313012E65
:104E400021D0D3F8100B6FF31200C3F8100BD3F876
:104E5000100B2040C3F8100B886908B1C86888613E
:104E6000C868C861D3F8100B40F40020C3F8100BD9
:104E7000D3F8100BCC69C4F312042043C3F8100B11
:104E8000012A55D058E08E69002ED3F8106932D02F
:104E90006FF31206C3F81069D3F810692640C3F8FF
:104EA00010698E69CC68A64200D98C61D3F810498C
:104EB00044F40024C3F81049D3F810498E69C6F3AE
:104EC00012063443C3F81049012A22D000EB4512E0
:104ED000D2F8003943F00443C2F800398A6932B38A
:104EE000D0F83428097801F00F03012199400A43D2
:104EF000C0F8342826E02640C3F81069D3F81049DA
:104F000044F40024C3F81049D3F810496FF3120495
:104F1000D8E7496919B100EB4512C2F8141900EB42
:104F20004510D0F8001941F00441C0F8001909E01B
:104F3000086908B1C3F8140BD3F8000B40F0044023
:104F4000C3F8000B002070BDFFFF07E010B5036C35
:104F5000134CA34203D9D0F8003B002B1EDB0023E7
:104F6000C0F8103BD0F8103B43F40023C0F8103BCE
:104F7000D0F8103B43F01803C0F8103BD0F8103BBA
:104F800043F0C043C0F8103B012907D1C0F8142BEF
:104F9000D0F8001B41F08021C0F8001B002010BD9C
:104FA0000A30544F4A780B78012A00EB43100BD09B
:104FB000D0F8002B22F40012C0F8002B0979032945
:104FC00014D0022912D017E0D0F8002922F40012E0
:104FD000C0F800290979032901D002290CD1D0F8A1
:104FE000001941F08051C0F8001905E0D0F8001B0D
:104FF00041F08051C0F8001B002070470A784B78C0
:10500000D1B200EB4110012B12D0D0F8001B0029C7
:1050100006DB2AB1D0F8001B21F08041C0F8001B4C
:10502000D0F8001B41F40011C0F8001B00207047AD
:10503000D0F80019002906DB2AB1D0F8001921F0B8
:105040008041C0F80019D0F8001941F40011C0F8EF
:105050000019EBE7F8B50C784F78764DE3B26FF0B6
:10506000604600EB4313012F27D0D3F8104B6FF3AA
:105070001204C3F8104BD3F8104B2C40C3F8104B5C
:105080008D69002D75D0CC6825446D1EB5FBF4F5F7
:10509000ADB26C43CC61D3F8104B06EAC5452C4346
:1050A000C3F8104BD3F8104BCD69C5F312052C4350
:1050B000C3F8104B012A71D0A4E08F691FB3D3F855
:1050C00010796FF31207C3F81079D3F810792F40D5
:1050D000C3F810798F69CD682F447F1EB7FBF5F5B3
:1050E00006EAC545D3F810693543C3F81059D3F81B
:1050F00010598E69C6F312063543C3F810590D795D
:10510000012D10D01BE0D3F810692E40C3F81069B0
:10511000D3F8105945F40025C3F81059D3F81059A5
:105120006FF3120509E0D3F8105925F0C045C3F814
:105130001059D3F8105945F00055C3F81059012AF9
:1051400018D000EB4413D3F8004944F00444C3F8EA
:1051500000490C79012C2FD08A6962B3D0F8342829
:10516000097801F00F03012199400A43C0F834285F
:105170005EE036E04A691AB100EB4413C3F8142923
:10518000097901290FD1D0F80818C90500EB44119D
:10519000D1F8002903D442F0005202E02EE042F0A0
:1051A0008052C1F8002900EB4410D0F8001941F0FA
:1051B0000441C0F800193BE0D0F80848E405D3F8F2
:1051C000004902D444F0005401E044F08054C3F894
:1051D000004900920A8B93B20A78096900F0D0F96D
:1051E00026E0D3F8104BCD68C5F312052C43C3F865
:1051F000104BD3F8104B44F4002459E70A690AB164
:10520000C3F8142B097901290CD1D0F80808C0057E
:10521000D3F8000B02D440F0005001E040F0805081
:10522000C3F8000BD3F8000B40F00440C3F8000BA8
:105230000020F8BDFFFF07E038B5002200921346BA
:105240004D780A7842F2107400EB4212012D19D009
:10525000D2F8005B002D3CDAD2F8005B45F0006527
:10526000C2F8005B0A7800EB4212D2F8005B45F00E
:105270008045C2F8005B009A521C0092A24221D9DC
:10528000012326E0D2F80059002D22DAD2F8005985
:1052900045F00065C2F800590A7800EB4212D2F8D6
:1052A000005945F08045C2F80059009A521C0092FE
:1052B000A242E5D80A7800EB4212D2F80029002A6F
:1052C000F3DB06E00A7800EB4212D2F8002B002A4A
:1052D000D1DB184638BD816841F0010181600020B2
:1052E0007047000008B500220C490092009B5B1C2F
:1052F00000938B420AD80369002BF7DA0092102240
:105300000261009A521C00928A4201D9032008BD12
:105310000269D206F5D4002008BD0000400D03004C
:1053200018B500230D4A0093009C641C009494421D
:105330000CD80469002CF7DA0093202343EA81118A
:1053400001610099491C0091914201D9032018BDC7
:1053500001698906F5D4002018BD0000400D030046
:10536000D0F8080810F0060004D0022803D0062860
:1053700001D00F20704702207047406900F0010003
:105380007047D0F81818D0F81C08084080B2704751
:10539000D0F81818D0F81C080840000C704710B559
:1053A000D0F81038D0F8342801F00F0400EB411089
:1053B000E24002F00102D0F8080943EAC2121040AC
:1053C00010BD00EB4111D1F8081BD0F814080840BB
:1053D0007047416980690840704730B50346084608
:1053E000940802F00301002203F5805303E01D68D6
:1053F00040F8045B521CA242F9D300290BD01C6870
:105400000022D50024FA05F3491E521C090400F8B5
:10541000013B090CF5D130BD70B50446C0680025CC
:1054200020F0C040E060012901D079B120E0E068BF
:1054300040F00050E0600120FBF768FC60696D1CE3
:1054400010F0010F10D1322DF5D30DE0E06840F0DF
:105450008040E0600120FBF759FC60696D1C10F092
:10546000010F01D0322DF5D3322D01D0002070BDB7
:10547000012070BDD0F8002822F4FE62C0F8002898
:10548000D0F800284FF4FE6303EA01110A43C0F884
:105490000028002070470000022A3ED1264A274BF0
:1054A0000A449A4201D20F2138E0254A254B0A448A
:1054B0009A4201D20E2131E0234A244B0A449A42F7
:1054C00001D20D212AE0224A224B0A449A4201D2FB
:1054D0000C2123E0204A214B0A449A4201D20B219D
:1054E0001CE01F4A1F4B0A449A4201D20A2115E0D0
:1054F0001D4A1E4B0A449A420FD31D4A1D4B0A44B3
:105500009A4201D2082109E01B4A11441B4A9142E8
:1055100001D2072102E0062100E00921C26822F43D
:105520007052C260C2684FF4705303EA81210A438B
:10553000C260002070470000405327FF00350C0078
:10554000401E1BFF40420F0000DC0BFF804F12008B
:10555000808CF9FE20D6130060B6E5FE60E31600ED
:1055600000D3CEFE40771B00C05BB3FEC09121008C
:1055700000CA91FE20753800E05459FEE09C4100BD
:1055800010B5029C74B9DB1C9C0800EB02300023B0
:1055900000F5805004E000BF51F8042B02605B1C52
:1055A000A342F9D3002010BDFEE7000040F20C71C9
:1055B0000148FAF751BE0000881F002010B50D4CBD
:1055C000207A002805D172B620886188884201D1EE
:1055D00062B610BD6088C0EBC00004EB800062B60C
:1055E0001C210930FAF7CCFF0028F2D172B6012055
:1055F0002072EDE7881F002070B588B04FF0FF40A3
:105600008DEC060A069072B60E4C2688304600F0E5
:105610002FFD61880546A94206D16068401C606084
:1056200062B6002008B070BDC6EBC60004EB800077
:105630001C2269460930FAF7F6FD258062B6012082
:10564000F0E70000881F002010B572B6064C608895
:105650002188884203D0608800F00AFD6080002025
:10566000207262B610BD0000881F002041000802B1
:1056700018BF04200A0E18BF40F001004FF07F420F
:1056800032EA010108BF40F00200012808BF0520EE
:1056900070470907090E002804DB00F1E02080F8BC
:1056A0000014704700F00F0000F1E02080F8141D96
:1056B0007047000010EE101A08B5444A6846B2EB75
:1056C000410F28D94FF0E640B0EB410F94BF0020C6
:1056D0004FF0FF3000900098002861DB60EE000A78
:1056E00010F0010F45D010F0020FDFED391A9FEDD9
:1056F000391A00EEE11ADFED381A40EE811A21EE78
:10570000A01AF0EE400A40EE010A08BFF1EE600A6E
:10571000B0EE600A08BD314B21F0004293423CD903
:1057200011F0004FDFED2E0A20EE201ADFED2D0ADA
:1057300019BF31EE601A71EE200A31EE201A71EEB7
:10574000600ABDEEE01A11EE100A9FED271A00F074
:10575000030000EEC10A9FED251A009000EEC10A79
:105760009FED231A00EEC10A9FED221A00EEC10A36
:10577000B1E79FED211A9FED210A10F0020F00EE14
:10578000810A9FED1F1A00EE801AB7EE000A00EEA4
:10579000810A18BFB1EE400A08BD00F02BF99AE764
:1057A00010EE100A4000B0F17F4F3CBFB7EE000A88
:1057B00008BD07D14FF0010000F0D6F9BDE8084060
:1057C00000F008B9BDE8084000F001B9B61F927EAC
:1057D000336D4C39DA82083CA0AA2ABE490E4946EC
:1057E00083F9223F0000004B0000C93F00A0FD39B3
:1057F0000020A2331A61342CB93AB2BACA9F2A3DAA
:10580000DDFFFFBE00B510EE101A2DED028B81B04A
:10581000524A6846B2EB410F2ED94FF0E640B0EB4A
:10582000410F94BF00204FF0FF3000900098B0EE81
:10583000408A00286ADB10F0010F4BD068EE080A9E
:105840009FED471A9FED470A00EE810A9FED461A29
:1058500010F0020F00EE801AB7EE000A00EE810A87
:1058600002BF01B0BDEC028B00BD00BF01B0B1EEC4
:10587000400ABDEC028B00BD3C4B21F0004293423C
:1058800041D911F0004FDFED3A0A20EE201ADFED8A
:10589000390A19BF31EE601A71EE200A31EE201A72
:1058A00071EE600ABDEEE01A11EE100A9FED321A99
:1058B00000F0030000EEC10A9FED301A009000EEE8
:1058C000C10A9FED2F1A00EEC10A9FED2E1A00EEBD
:1058D000C10AABE728EE080A9FED2B1ADFED2B0A71
:1058E00010F0020F40EE410A9FED291A00EE201A37
:1058F00061EE000AB0EE480A08EE200AB6D101B007
:10590000BDEC028B00BD00F075F88FE718EE100AB1
:105910004000B0F17F4F0DD218EE100AFFF7A6FE3F
:10592000042808BF00F05EF8B0EE480A01B0BDECF4
:10593000028B00BD09D1012000F016F901B0BDECC9
:10594000028B5DF804EB00F045B801B0B0EE480AF8
:10595000BDEC028B5DF804EB00F039B8B61F927E07
:10596000B93AB2BACA9F2A3DDDFFFFBE490E494689
:1059700083F9223F0000004B0000C93F00A0FD3921
:105980000020A2331A61342C336D4C39DA82083C82
:10599000A0AA2ABE10B52DED028BB1EEC08A18EE7A
:1059A000100A20F00040C0F1FF40C00F0AD010EEF6
:1059B000100A20F00040C0F1FF40C00F04BF0120DA
:1059C00000F0D2F8B0EE480ABDEC028B10BD30EE0C
:1059D000000A7047DFED020A80EEA00A704700005F
:1059E000000000009FED020A20EE000A7047000050
:1059F000000000102DE9F0014FF07F42B2EB410FA3
:105A00009FBF4FF0FF310160BDE8F00170474FF0DC
:105A1000004242EA0123C1F3C752783A551112F00D
:105A20001F0C434CCCF120067C44C1F3C752A2F1B9
:105A300078024FEA621204EB820254F8254008BF54
:105A4000D2E9015612D0556804FA0CF425FA06F78B
:105A50003C43976805FA0CF527FA06F8D26807FA6E
:105A60000CFCF24045EA08054CEA0206A4FB034C94
:105A7000A5FB0352A6FB03631D449D4234BF0126D0
:105A800000261319334416B1934202D903E093421E
:105A900001D2012200E00022624402F1200C9206B1
:105AA000DC0C42EA443200EE102A5B03DFED210AEF
:105AB000F8EEC01A00EE103A4FEA9C1C11F0004FAD
:105AC000B8EE400AC0F800C020EE201A00EE105ACE
:105AD000DFED190AB8EE400A20EE200A71EE810AC5
