:020000040800F2
:1000000038380020A10200080D7B00085B72000850
:10001000317600081D2D0008499E000800000000F0
:100020000000000000000000000000004B7E0008FF
:10003000F530000800000000497E0008577E0008E7
:10004000BB020008BB020008BB020008BB0200089C
:10005000BB020008BB020008BB020008BB0200088C
:10006000BB020008BB020008BB020008BB0200087C
:10007000BB020008BB020008BB020008BB0200086C
:10008000BB020008BB0200082D240008BB020008C8
:10009000BB020008BB020008BB020008BB0200084C
:1000A000BB020008057F0008BB020008BB02000875
:1000B000197F0008257F0008BB020008BB0200086A
:1000C000BB020008BB020008BB020008BB0200081C
:1000D000BB020008BB020008BB020008BB0200080C
:1000E000BB020008BB020008BB020008BB020008FC
:1000F000BB020008BB020008BB020008BB020008EC
:10010000BB020008BB020008BB020008BB020008DB
:10011000BB020008BB020008BB020008BB020008CB
:1001200045300008BB020008BB020008BB02000803
:10013000BB020008BB020008BB020008BB020008AB
:10014000BB020008BB020008BB020008117B0008CC
:10015000BB020008BB020008BB020008BB0200088B
:10016000BB020008BB020008BB020008BB0200087B
:10017000BB020008BB020008BB0200080000000030
:10018000BB020008BB02000800F002F800F078F89B
:100190000AA090E8000C82448344AAF10107DA45E2
:1001A00001D100F06DF8AFF2090EBAE80F0013F0BC
:1001B000010F18BFFB1A43F0010318475CB200009F
:1001C0007CB200000A444FF0000C10F8013B13F021
:1001D000070408BF10F8014B1D1108BF10F8015BA0
:1001E000641E05D010F8016B641E01F8016BF9D193
:1001F00013F0080F1EBF10F8014BAD1C0C1B09D1EA
:100200006D1E58BF01F801CBFAD505E014F8016B5B
:1002100001F8016B6D1EF9D59142D6D370470000ED
:100220000023002400250026103A28BF78C1FBD8FF
:10023000520728BF30C148BF0B60704766290AF0DB
:100240001D86642900F00881752900F00581732955
:1002500000F08585002070471FB50AF002FE00F00F
:1002600019FE0400002000210AF082FB401C60609F
:10027000002000210AF066FBE0601FBD10B510BD34
:1002800000F052FF1146FFF7E7FF0AF043FB01F0D1
:10029000F5F903B4FFF7F2FF03BC01F0F9F9000030
:1002A0000948804709480047FEE7FEE7FEE7FEE70A
:1002B000FEE7FEE7FEE7FEE7FEE7FEE70448054946
:1002C000054A064B70470000F57E000889010008CA
:1002D0003824002038380020382800203828002012
:1002E00053EA020C00F069802DE9F04B4FF0000654
:1002F000002B1FBFB3FA83F503FA05F424FA05F6C1
:100300005E4012BF1643B2FA82F502FA05F4C5F157
:1003100020051EBF22FA05FC44EA0C04203556EAEB
:10032000044C4FEA144418BF641C4FF000084FF00F
:100330000009904271EB030C39D3002919BFB1FABF
:1003400081F701FA07F6B0FA80F700FA07F6C7F16D
:1003500020071EBF20FA07FC46EA0C062037B6FB32
:10036000F4FCA7EB0507103F07F01F0BCBF12006AD
:100370000CFA0BFB2CFA06F644BFB3460026202FDE
:10038000A4BF5E464FF0000B5BEA060C08BF4FF0BF
:10039000010B19EB0B09ABFB027C48EB0608C01BF9
:1003A00006FB02CC0BFB03CC71EB0C01C1E70B4647
:1003B000024641464846BDE8F08B13B54FF00000B9
:1003C0004FF00001AFF30080BDE81C407047000013
:1003D0000FB41CB50C0007AA009001D02044401EA9
:1003E000074B7B4469460190069800F086FC002C80
:1003F00003D06946002000F093FC1CBC5DF814FBA0
:100400004509000070B50C460546012A05D028783C
:10041000800600D5EA69002302E0012305E05B1CA9
:10042000934202D2E05C0028F9D1A869E618C01A0C
:10043000A861286A184428622846AFF3008004E0C7
:10044000D5E9012114F8010B9047B442F8D32846AE
:10045000AFF3008070BD00002DE9F0410646002496
:1004600010687529314616A510D0AFF3008000281A
:1004700002DA404213A507E031688A0701D512A5C8
:1004800002E0490704D511A5012401E0AFF3008083
:1004900000210A2206F1240709E0B0FBF2FCB0FBC0
:1004A000F2F302FB1C00303078541846491C002837
:1004B000F3D123462A463046BDE8F04100F0B0B9FA
:1004C000000000002D0000002B00000020000000B4
:1004D0002DE9F0474FF0000A89460446C0F820A0F5
:1004E0002046E1688847002876D0252806D0D4E940
:1004F00001219047206A401C2062F1E7E168204614
:1005000000268847C4F81CA005460027C4F818A098
:100510002A2D09D028460AF0AFF938B304EB870832
:10052000303DC8F8185019E059F8041B204604EB78
:1005300087029161E1688847012F054618D1E0697B
:10054000002820DA26F020061DE0D8F8180000EB7D
:10055000800005EB40003038C8F818002046E168FC
:10056000884705460AF088F90028EED1012F0AD005
:100570002E2D08D12046E16888477F1C0546022FB2
:1005800046F02006C4DBA069002803DA404246F0AA
:100590000106A061F00701D026F010066C2D0AD0EC
:1005A000682D08D04C2D39D06A2D35D0742D35D01A
:1005B0007A2D33D016E0E1682F4620468847B842AE
:1005C00005460AD16C2F27D04FF48060E1680643BE
:1005D00020468847054605E027E06C2F1AD04FF4E7
:1005E000807006430DB3A5F14100192802D82035CB
:1005F00046F400664A462946204626604E46FFF7E6
:100600001DFE80B101280BD0F61D26F0070000F179
:10061000080965E74020E4E78020D7E70020D5E718
:1006200006F104095CE7284661E7206ABDE8F08727
:10063000014A00F0EBBB00007401002010B5431C20
:1006400002E010F8011B71B18107FAD14FF00132BD
:1006500002C88C1A8C4314EAC211F9D0C01A0A06D7
:1006600003D0C01E10BDC01A10BD0A0401D0801EE8
:1006700010BD0902FCD0401E10BD10B5203AC0F0DC
:100680000B80B1E81850203AA0E81850B1E8185093
:10069000A0E81850BFF4F5AF5FEA027C24BFB1E8D0
:1006A0001850A0E8185044BF18C918C0BDE8104041
:1006B0005FEA827C24BF51F8043B40F8043B08BF4A
:1006C0007047D20728BF31F8023B48BF11F8012B11
:1006D00028BF20F8023B48BF00F8012B70474FF0BD
:1006E000000200B5134694469646203922BFA0E882
:1006F0000C50A0E80C50B1F12001BFF4F7AF09078E
:1007000028BFA0E80C5048BF0CC05DF804EB89007E
:1007100028BF40F8042B08BF704748BF20F8022BC1
:1007200011F0804F18BF00F8012B704710B5044638
:1007300010F0030F08BF11F0030F40F015804FF0C9
:10074000013E121FC0F20E8051F8043BA3EB0E0CC9
:100750002CEA030C1CEACE1C08BF40F8043BF0D086
:10076000A1F1040102F10402521E08DB11F8013B61
:10077000002B00F8013BF7D1114600F069FB204641
:1007800010BD00004FF0013C50F8042B51F8043B21
:100790009A4221D1A2EB0C03934313EACC1317D155
:1007A00050F8042B51F8043B9A4215D1A2EB0C03EC
:1007B000934313EACC130BD150F8042B51F8043BAC
:1007C0009A4209D1A2EB0C03934313EACC13DBD07A
:1007D0004FF00000704700BFD01A01BAB1FA81F1A2
:1007E00001F0180122FA01F0CB40C1F12001DBB287
:1007F000C0B2C01A2CFA01F3D11A914311EAC31105
:10080000E6D1704770477047704710B500F046FB5F
:10081000006810BD10B5044600F040FB046010BD38
:100820002DE9F0470D4699469246044600F124080A
:100830000168880604D5E06921F01001216000E01C
:100840000120A84201DD471B00E00027A1697A19B9
:1008500002EB0900081AA0612078C00602D42046E5
:10086000AFF30080002608E0D4E901211AF8060061
:100870009047206A401C761C20624E45F4DB2078AD
:10088000C0060AD52046AFF3008006E0D4E9012176
:1008900030209047206A401C2062381EA7F10107D3
:1008A000F4DC07E0D4E9012118F805009047206A3C
:1008B000401C2062281EA5F10105F3DC2046AFF3A1
:1008C00000802078000602D50220BDE8F0870120D4
:1008D000FBE770472DE9FF4F0C461E464FF0FF37F0
:1008E0008BB0D2E90001DDF860800A908A46C1F33E
:1008F0000A5505B93D46002108464FF00000BAF1FF
:10090000000F00F4400005DA00EB80004FF44001D6
:1009100001EA50004FEA9059B9F1010F00DDB946E4
:100920000A9850EA4A000ED044F61050A5F2FF355E
:1009300045432F14B8F1000F1ED07542291E1EDD4D
:10094000C9F100021CE0B8F1010F4FF0000001D026
:10095000302103E0F24305E02154401CB042FBDBB0
:1009600030460022002121540B99C1F80880C1E9CA
:1009700000200FB0BDE8F08FBD1B6D1CDEE74A46BE
:1009800000DA694206A800F03BFB06AB93E80700DB
:1009900003AB83E8070050460A9901F0CBF88DE8D5
:1009A0000700A0F500501F3800900398002D0ADDC5
:1009B00042F21F014A460844002303A903906846F7
:1009C00001F076FB09E0A0F500504A461F380023ED
:1009D00003A90390684601F095FB8DE80700000429
:1009E000000C03D04FF0FF30410800E01046B8F192
:1009F000000F03D00022009215461EE0751E05D49C
:100A000000F050FA303262556D1EF9D5B34601221E
:100A1000084302D000227F1C04E02078302801D156
:100A200000227F1E002A099784D01DE0112D07DACD
:100A300000F038FA303262556D1C50EA0102F5D1EF
:100A4000084302D00098C8B10EE00021681E05E0FE
:100A5000235C625C63542254401E491C8142F7DBD4
:100A6000AB46A81B401E0990002004F80B000B9811
:100A7000099AC0F80880C0E9002B7AE711264FF0E8
:100A8000000857E72DE9F04F88460446D21D22F0B2
:100A9000070191B0D1E90001CDE90A0109F0D5F9CA
:100AA00002460B98C00F01D02D2007E02068810777
:100AB00001D52B2002E0202101EAC000032A099081
:100AC00001D0072A05DB03464146204600F038FAEC
:100AD0000BE12078800601D5E06900E00620B8F13E
:100AE000650F814606D0B8F1660F18D0B8F1670FD0
:100AF00070D131E00020B9F1110F009001DB11231A
:100B000001E009F101030AAA01A90CA8FFF7E2FE1E
:100B1000DDE90C70002609F10105834647E001205C
:100B20004B4600904FF000470AAA01A90CA8FFF716
:100B3000D1FEDDE90DB00C995D46002610B909F132
:100B400001000D18B9EB050003D4C0F1FF3609F11F
:100B50000105A5EB09002BE0B9F1010F01DA4FF017
:100B600001090020B9F1110F0090484601DD112361
:100B700000E003460AAA01A90CA8FFF7ABFEDDE9D5
:100B80000C704D4600268346207800070AD4AB45FA
:100B900000DA5D4601A8012D04DD411911F8011CA0
:100BA000302907D04F4502DA17F1040F04DA01208B
:100BB00082460FE06D1EEEE7002F02DCED1B3E4487
:100BC00003E0781CA84200DD7D1CB81B00F1010A7F
:100BD0004FF000472078000703D4AA4501DB4FF00F
:100BE000FF3A0021B7F1004F0DF143088DF8431093
:100BF00024D002202B23002F01DA7F422D230A214B
:100C0000021EA0F1010000DC5FB197FBF1FC97FB35
:100C1000F1F201FB1C7C17460CF1300C08F801CDF9
:100C2000EEE7A8F1010003702188090501D54521EF
:100C300000E06521A0F1010800F8011C09980FA946
:100C4000A1EB0807FF1D00B10120411901EBEA707B
:100C5000A1693844081A401EA0612078C00602D459
:100C60002046AFF30080099828B1D4E901219047CC
:100C7000206A401C20622078C00622D52046AFF3AF
:100C800000801EE0002E04DBB34502DD01A8805D7C
:100C900000E03020D4E901219047206A401C206206
:100CA000761CAAF101005FEA000A0AD100F0F2F80E
:100CB000C0680168405CD4E901219047206A401C6B
:100CC0002062281EA5F10105DCDC07E0D4E9012142
:100CD00018F8010B9047206A401C2062381EA7F1CB
:100CE0000107F3DC2046AFF30080032011B041E69A
:100CF00001694A1C02610878704700B58FB0CDE9E0
:100D000001310021059105497944CDE903101146CF
:100D10006846FFF7DDFB0FB000BD0000E5FFFFFFF9
:100D20000A6802F8010B0A607047D1E900239A4271
:100D300002D2531C0B601070704710B5436913B199
:100D4000AFF3008001E0FFF75DFB012010BD1278DA
:100D500000F124010A7000224A700122EDE71168B7
:100D60004FF0FF32E9E700000FB4002300B589B06F
:100D70000CA900910B99CB60214B7B440693214B2E
:100D80007B44079304236FF00042CDE901321E4AF1
:100D90007A446B460892024600200AF0D1F809B066
:100DA0005DF814FB70B506464FF0FF3015460C4653
:100DB000324686B00091CDE90101694600200490D9
:100DC00004A8FFF7D1FF02460498211825B108B105
:100DD000084600E020462860049800280DD0002A2C
:100DE00002DD0098884208D03246081B694600940C
:100DF000CDE9010404A8FFF7B7FF06B070BD0000FD
:100E0000430200005B0200009B0100002DE9F0415D
:100E100015460E46040002D12C6804B90BA42046E6
:100E200000F070F90444207870B127463146384606
:100E300000F058F90444207810B1002004F8010BA8
:100E400038462C60BDE8F0810027F9E7000000007B
:100E50004FF000020429C0F0128010F0030C3FF4A0
:100E600040ACCCF1040CBCF1020F18BF00F8012B10
:100E7000A8BF20F8022BA1EB0C01FFF732BC5FEA00
:100E8000C17C24BF00F8012B00F8012B48BF00F8FB
:100E9000012B704700487047F4230020004870473A
:100EA000D423002030B5B0F10A024FEA900E71F160
:100EB00000034EEA817EB0EB0E0061EB91014FEA38
:100EC000101E4EEA017E10EB0E0041EB11114FEAAD
:100ED000102E4EEA016E10EB0E0041EB11214FEA8D
:100EE000104E4EEA014E10EB0E0041EB114140183E
:100EF00041F100014FEAD00040EA41704FEAD101D0
:100F000010EB80054FEA810444EA907444EB01043D
:100F10006D1944EB0404521BA3414FF0000348BF7A
:100F20000A3200D530BD401C41F1000130BD10B582
:100F3000044600F01FF90068005D00F0010010BDDC
:100F40002DE9F0411F46044603260168072A01F4F3
:100F5000006004DB08B116A505E016A503E008B1A2
:100F600015A500E015A521F010002060A069C01EA5
:100F7000A0610FB1401EA0612046AFF300804FB1C9
:100F8000D4E9012138469047206A401C2062C01CE9
:100F9000206206E0206AFAE7D4E9012115F8010B86
:100FA0009047761EF8D22046AFF30080BDE8F0816E
:100FB0004E414E006E616E00494E4600696E6600FD
:100FC000426842B1016811F8013B23B1521EC0E9E9
:100FD0000012184670470121C160881E70474268A0
:100FE0005AB1C368016843B983688B4205D0491E72
:100FF000521CC0E90012002070474FF0FF307047CC
:101000002DE9F047814616468AB0354878440DC828
:101010008DE80D0032487844801C03AC0DC884E88C
:101020000D0041F69B300844372190FBF1F290FB14
:10103000F1F5A5F1800501FB12041B3C02D56442C9
:10104000012000E00020DFF898A080460027FA4445
:10105000AAF1BE0A0EE0E0070AD03246684607EB66
:10106000470101230AEB810101F04CF88DE80700EC
:1010700064107F1C002CEED1194F7F44AE3F19E065
:10108000E80715D007EB04100DF1180A90E80E00E0
:101090008AE80E00C068F04201D1981908903246E3
:1010A000012306A903A801F02DF803AB83E807008C
:1010B0006D10641C002DE3D14FF0010332466946E8
:1010C000B8F1000F03A802D000F0F2FF01E001F038
:1010D00019F8C9E90001C9F808200AB0BDE8F0878D
:1010E00020A0000030B503461D781DB10A4603E07C
:1010F000AC4201D1181A30BD12F8014B002CF7D1C7
:101100005B1CF1E730B503461D783DB10A4612F885
:10111000014B1CB1AC42FAD15B1CF5E7181A30BD8B
:1011200000487047D42300207546FFF7F9FFAE460C
:1011300005006946534620F00700854618B020B5E3
:10114000FFF7BCF8BDE820404FF000064FF0000765
:101150004FF000084FF0000B21F00701AC46ACE85F
:10116000C009ACE8C009ACE8C009ACE8C0098D46CC
:101170007047000010B5FFF78DFE001D10BD00BFC9
:10118000F19700002DE9FF4F06468BB00878FF2845
:1011900006D0491C2D2805D000244FF0000908E096
:1011A00000200CE00124F8E709EB8903491C00EB5F
:1011B00043090878FF28F7D114B1C9F1000081462E
:1011C000107800252C46AA4629462D2801D02B2828
:1011D00004D1521C2D2813D0002082468B46107853
:1011E000FF280FD04FF0000C0A21521CA5FB0178FC
:1011F00004FB018105FB0C11C5194BEB0104EEE763
:101200000120EAE7002108464FF00000BAF1000F84
:1012100002D000EB80004008C0F38157012F01DDB0
:101220004FF0FF370E9955EA040009EB01080BD087
:101230004FF0020918F5FA7F16DA4FEACA70002F4C
:10124000706008DD012007E04FEACA70C6E900B00F
:101250000FB0BDE8F08F00203060FFF71FFEC0F830
:1012600000901821084616E0B8F5FA7F18DD002F27
:1012700002DAF748784401E0F6487844D0E90010F3
:10128000C6E9001040EACA707060FFF707FEC0F8B8
:101290000090142108460FB0BDE8F04F09F0EBBDF7
:1012A000002108464FF00000B8F10001099002DA71
:1012B000C7F1000200E03A4601DAC8F1000106A8D1
:1012C000FFF79EFE06AB93E8070003AB83E8070039
:1012D00044F23E005BEA04010090584604D144F217
:1012E0001E012C465D460091210C0904014306D1E4
:1012F0000099240444EA15442D041039009104F0A7
:101300007F41014306D10099240244EA15642D026D
:101310000839009104F07041014306D1009924017D
:1013200044EA15742D01091F009104F04041014366
:1013300006D10099A40044EA9574AD00891E00917D
:1013400004F00041084304D100986D196441401E27
:1013500000904FF001033A466846B8F1000FCDE91E
:10136000014503A902DD00F0E2FE01E000F0B5FE58
:10137000BAF1000F04460D4601D084F0004400216C
:1013800008464FF00000099940F2FF77484010F0FE
:101390000C0F07D124F00040284303D0C4F30A50B7
:1013A000B84212D1FFF77AFDC0F80090C4F30A509A
:1013B000B8420AD1A8487844D0E90010C6E9001024
:1013C00004F000410843706042E7C6E900543FE77B
:1013D0002DE9FF4F1F464FF0000A4FF0FF384546FA
:1013E00091B0D7E90146CDF83CA0FFF753FDC068A6
:1013F0000168405C1090B96912986D1C8847396A81
:10140000814688470028F6D1B9F1FF3F0AD0002E67
:1014100024F4D06411DDB9F12B0F08D0B9F12D0FF0
:101420000BD102E0404615B013E744F48064B9697B
:1014300012986D1C8847761E8146600504A901D567
:101440002D2000E02B20002E01F1010B0DF13008C2
:101450008DF810003FDDB9F1690F08D0B9F1490FDF
:1014600005D0B9F16E0F02D0B9F14E0F1CD13B4639
:1014700001A8009580E85002DDE912126FF0020029
:1014800009F062FDC11CCED10EE0B96912986D1C45
:10149000884781461398761E44F4007405600F98BF
:1014A000401C002E0F9016DDB9F1300FEDD0B9F1D0
:1014B000780F02D0B9F1580F0DD10F9801280AD139
:1014C0003B46CDE90054DDE91212001F029609F0F7
:1014D00039FDC11CA7D1109989453ED144F0800443
:1014E00006E01399681CAAF1010A44F4007408602C
:1014F000B9696D1C1298761E884730288146F0D055
:101500002BE01099894505D1200603D4761E44F0BE
:10151000800418E0484609F0AFF908B3761E0DF1D3
:1015200023018B4544F4007408D2A9F130000BF874
:10153000010B200607D5AAF1010003E0200602D422
:101540000AF101008246A00502D51399681C0860C3
:10155000B96912986D1C88478146002ED1DC53E092
:10156000002E51DDB9F1650F02D0B9F1450F4BD115
:10157000A00549D5B9696D1C1298761E24F44074F3
:101580008847002E81460CDD2B2804D0B9F12D0FA1
:1015900007D144F48074B96912986D1C8847761E8F
:1015A0008146E00501D52D2100E02B2108F8011B23
:1015B000CDF8008021E0761E0DF13901884544F414
:1015C00000740CD2A9F1300010F0FF0088F8000080
:1015D00002D10099884509D908F1010806E0E00523
:1015E00001D51E4801E042F20F708246B969129897
:1015F0006D1C8847814613980560002E04DD48461F
:1016000009F03AF90028D6D1F96912988847FF20E5
:1016100053468BF8000088F8000000200A900B90D9
:1016200004AA0CA90AA8FFF7ADFDA00502D46FF02B
:101630000100F8E614F0240F12D0E0071CD138683E
:10164000DDE90A12031D3B600068C0E9001213E0E7
:10165000C8A10000BAA100007EA00000F1D8FFFFE1
:101660000AA9684609F04AF8E00705D13868009AE7
:10167000011D3960006802602846D4E610B50446B2
:10168000AFF300802046BDE81040FEF702BE000028
:1016900001491820ABBEFEE7260002002DE9FF4FEE
:1016A0001F464FF03C0987B04FF00042DDE91410AF
:1016B00001F10108DDF858A002EA40500390002033
:1016C00005908346054604460490B969461E08986D
:1016D0008847AAF1010A0290BAF1000F3BDD029897
:1016E0002E2815D0102100F017FA00282EDB4FF01D
:1016F000010B0599014317D0B9F1000F0BDB4A46E6
:10170000C11700F0F6F905430C43A9F1040905E0FF
:10171000012004900BE008B145F00105012005907F
:10172000049820B9361D02E0049800B1361FB9694B
:10173000089808F101088847BBF1000FAAF1010AD7
:101740000290C9D00999C1F80080C5E702987028B5
:1017500008D0502806D0F96908988847BBF1000FD7
:1017600014D04FE0002002900120BBF1000F049044
:1017700009D0B969089808F101088847AAF1010958
:10178000B9F1000F07DCF969089888476FF001008C
:101790000BB0BDE8F08F2B2804D02D280CD14FF0D2
:1017A000FF300490B969089808F101088847A9F149
:1017B0000109B9F1000FE6DD411CE4D00A2100F077
:1017C000ABF90028DFDB029908F1010801EB810188
:1017D00000EB41000290B969089888470A2100F09F
:1017E0009BF9099AA9F10109B9F1000FC2F800802B
:1017F00001DD0028E7DAF96908988847049902981A
:1018000000FB016655EA040004D004F040410900E1
:1018100002D006E0039898E0A40044EA9574AD0075
:10182000B61E04F00041080002D16D196441761E15
:10183000159810F0240F03D04FF00B095C4803E01B
:101840004FF028096FF07D008246564507DAAAEB73
:1018500006018944B9F1410F01DD4FF04109012032
:101860000021A9F1010200F044F9024628400B468C
:101870002140084301D0012100E00021501E0291C7
:1018800043F1FF3128402140084301D0012000E00E
:1018900000200299834651EA0B014FD000210846EF
:1018A0004FF00000039900F4400039B100EB8000D4
:1018B0004FF4400100EBD07001EA60008015012870
:1018C00002DD4FF0FF3000E013D0401C36D002980C
:1018D00060B3BBF1000F0CD14A460120002100F09B
:1018E00008F928402140084301D0012000E00020F1
:1018F000E0B101204A46002100F0FBF80346401900
:101900000A4661412D1A8C4111D3B9F1400F09DD0E
:10191000159810F0240F02D0AAF1340603E0AAF1C2
:10192000170600E0761C00254FF0004406E05B1E21
:1019300042F1FF3220EA030521EA0204CAF1010064
:10194000B04206DA1B49039808430190002000903A
:101950000EE0039AC4F3D321E80A0A43164940EA89
:1019600044500A433146CDE90002684608F07AFF48
:10197000159810F0240F0BD01598C00715D13868B2
:10198000DDE90012031D3B600068C0E900120CE0B5
:1019900002A8694608F0B2FE1598C00705D138685C
:1019A000029A011D3960006802604046F0E60000BE
:1019B00002FCFFFF0000F07F0000F03F2DE9FF4F29
:1019C00092461D4685B04FF00041DDE9124BDDE93E
:1019D00014727F1E01EA4B50414940F0FF4940EA32
:1019E0000108002122F020004928049102D04E284D
:1019F00028D04CE03BA0012607C88DE80700A96964
:101A00000698641C88477F1E014606D41DF8060010
:101A100018B121F0200181420BD0E969069888476E
:101A2000032E34D0082E32D06FF0010009B0BDE88B
:101A3000F08F761C032E01D0082EE0D1601CCAF86E
:101A40000000DCE7A9690698641C88477F1E2AD439
:101A500020F02000412826D1A9690698641C8847F7
:101A60007F1E20D420F020004E281CD1A9690698A2
:101A7000641C88477F1E48F4002849F48009CAF88E
:101A8000004001D4282806D0E969069888475FEA13
:101A9000CB7012D022E0A9690698641C88477F1E8B
:101AA00001D4002803DAE96906988847BCE72928A9
:101AB000F1D1641CCAF80040E9E71BF0240F07D0FD
:101AC00028680499031D2B600068C0E9001805E030
:101AD0002868021D2A600068C0F800902046A5E72B
:101AE0000000F07F494E46494E495459000000001D
:101AF0007047B2F120030AD5C2F1200301FA02F1C6
:101B000020FA03F300FA02F041EA0301704700FAF9
:101B100003F14FF0000070473A2800D2303820F02F
:101B20002002412A01D3A2F13700884201D34FF0AD
:101B3000FF3070475FEA400C08BF91F0000F4FEA9A
:101B40008C234FEAC12243EA51514FEA1C5018BF7F
:101B500000F5F0404FEA300018BF41F000415FEA65
:101B60006C5C00F02980BCF1FF3F08BF40F0804072
:101B70007047130C06BF12044FF0100C4FF0000C0E
:101B8000130E04BF12020CF1080C130F04BF120154
:101B90000CF1040C930F04BF92000CF1020CD30F54
:101BA00004BF52000CF1010C11464FF00002A0F1ED
:101BB0001F00A0EB0C00704711F0004F08BF7047EA
:101BC00031F000413FF4D5AF0B0C06BF09044FF0D4
:101BD000100C4FF0000C0B0E04BF09020CF1080CA6
:101BE0000B0F04BF09010CF1040C8B0F04BF89001B
:101BF0000CF1020CCB0F04BF49000CF1010CCCF12D
:101C00002003A0EB0C0022FA03F302FA0CF241EAE3
:101C1000030100F10100704720F07F4C80EA0300CF
:101C200023F07F47ACEB070303F57C5300F0004043
:101C300003F1FF032DE980494FEA154B09B44FEA40
:101C4000144325EA0B4E24EA03480FF2042606EB60
:101C5000132749083E785FEA320203FB0667C7F59F
:101C6000000707FB06F64FEA54374FEAD64606F15F
:101C7000020607FB066CCCF1005C4FEA1C472CEA1D
:101C8000074C07FB06F40CFB06F504EB15464FEA80
:101C9000961634BF00204FF000404FEAD13706FBC4
:101CA00007FC4FEA1C4C0CFB0BF7D21B03FB0CF799
:101CB00061EB07010CFB0EF7B0EB074072EB17422C
:101CC0000CFB08F734BFA2EB0742B2EB074261EB13
:101CD00017414FEA0C444FEA910706FB07FC4FEA15
:101CE0001C4C0CFB0BF7B0EBC74072EB573203FBFD
:101CF0000CF734BFA2EBC742B2EBC74261EB5731DE
:101D00000CFB0EF7B0EBC70072EB57720CFB08F739
:101D100034BFA2EBC702B2EBC70261EB5771039F5E
:101D20004FEA816141EA921104EBCC044FEAD137CA
:101D30004FEA826206FB07FC42EA90124FEA80609B
:101D40004FEA1C4C0CFB0BF7D21B03FB0CF761EBAF
:101D500007010CFB0EF7B0EB074072EB17420CFBD0
:101D600008F734BFA2EB0742B2EB074261EB174121
:101D70004FEA8C554FEA910704EB9C2406FB07FCC5
:101D80004FEA1C4C0CFB0BF7B0EBC74072EB573221
:101D900003FB0CF734BFA2EBC742B2EBC74261EBC7
:101DA00057310CFB0EF7B0EBC70072EB57720CFB10
:101DB00008F734BFA2EBC702B2EBC70261EB577161
:101DC00015EB4C254FEA816141EA92114FEA82629C
:101DD0004FEAD13742EA901206FB07FC44F10004B7
:101DE0004FEA80604FEA1C4C0CFB0BF7D21B03FB45
:101DF0000CF761EB07010CFB0EF7B0EB074072EB41
:101E000017420CFB08F734BFA2EB0742B2EB0742C4
:101E100061EB174115EB1C154FEA813141EA924104
:101E20004FEA823242EA90424FEA80304FEA0C7623
:101E300044F1000448EA03434EEA0B484FF0000E19
:101E4000B2EB080C71EB030724BF624639464EEB38
:101E50000E0E4FF0000B0018524149414BEB0B0B9B
:101E6000B2EB080C71EB03077BF1000B24BF624659
:101E700039464EEB0E0E4FF0000B0018524149410F
:101E80004BEB0B0BB2EB080C71EB03077BF1000B78
:101E900024BF624639464EEB0E0E51EA020718BFC8
:101EA00046F0010616EB0E7655F1000254F10001E2
:101EB00003D5BDE88901BDE80088BDE88901BDE81A
:101EC0000048B619524141EB0101A3F101037047EB
:101ED00080807F7E7D7C7B7A797877767675747367
:101EE000727171706F6E6E6D6C6C6B6A6A69686826
:101EF000676666656464636362616160605F5F5EBC
:101F00005E5D5D5C5C5B5B5A5A5959585857575631
:101F10005655555554545353525252515150505096
:101F20004F4F4F4E4E4D4D4D4C4C4C4B4B4B4A4AE8
:101F30004A4949494848484747474746464645452C
:101F40004544444444434343434242424241414165
:101F500046EA0646A3F570534FEA164646EA42564D
:101F60004FEAD22242EA415210B54FEAD121A3F101
:101F7000010300F02FF820F0004000F1020C00F007
:101F8000004701EB00501146BCF5006F40EA070026
:101F900000D210BDBAF1000F0AD01CB503B44FF047
:101FA00004004FF004014FF000000FBCBDE81040EA
:101FB0004FF00001BBF1010FB9BF04484FF0FF31F2
:101FC0000348002140EA070010BD00BFFFFFEF7F7C
:101FD0000000F07F002B9C4630D477002BD01CB53E
:101FE0004FEA370703B44FF010004FF01001BAF179
:101FF000000F06D0BCF1000FDCBF40F0080040F03D
:1020000008014FF000000FBCBDE810400BF1010BC0
:10201000BBF1010F08BF5FEA170722BF12F10102EF
:1020200011F101014FF0004143F1000300F00040C5
:1020300043EA00007047F9D35708D0E746EA06465E
:1020400013F1400F4FEA16461FDD13F1200FDFBFDB
:1020500016430A46002120335B42BED0C3F120075D
:1020600046EA064602FA07F74FEA164646EA070628
:10207000C3F1200722FA03F201FA07F721FA03F16C
:102080004FF0000342EA0702A7E746EA020646EAE3
:1020900006464FEA164646EA0106BCBF46EA064631
:1020A000360C4FF000034FF000024FF0000194E7B0
:1020B0002DE9804C9A46934670B491E8380007C8E1
:1020C00031EA400C48BF34EA430C03D5FFF7A4FDC6
:1020D000FFF780FFF0BCBDE8008C2DE9804C9A46EC
:1020E000934670B491E8380007C831EA400C48BF05
:1020F00034EA430C03D5FFF78FFDFFF729FFF0BC4F
:10210000BDE8008C2DE9804C9A46934670B491E866
:10211000380007C810F0804F08BF13F0804F03D17C
:1021200000F01AF8FFF756FFF0BCBDE8008C2DE96F
:10213000804C9A46934670B491E8380007C810F076
:10214000804F08BF13F0804F03D100F005F8FFF770
:10215000FFFEF0BCBDE8008C20F07F4780EA030062
:1021600023F07F4C07EB0C03A3F57C5300F00040F9
:10217000A3F1FE0392F0000F00F0B38095F0000F82
:1021800000F077802DE901494FEA11404FEA1446EB
:1021900021EA004800FB06FC24EA064708FB06F695
:1021A00007FB08F800FB07F718EB06484CEB164C4A
:1021B0004FEA124B18EB07484FEA15464CEB174015
:1021C00022EA0B4E0BFB06FC25EA06470EFB06F641
:1021D00007FB0EFE0BFB07F71EEB064E4CEB164CF7
:1021E0004FF000061EEB074E4CEB174B18EB0B089D
:1021F00040F1000018EB0E0B58EB000840F1000016
:102200008F1A4FF000013CBFC943661B14BFB5EBEA
:10221000040C00213CBFC943F61B4FEA17444EEAA9
:102220008E0E27EA04454FEA1C4704FB07622CEA9E
:10223000074C05FB07F70CFB05F604FB0CFC16EB43
:10224000074642EB174216EB0C4642EB1C421BEBD7
:10225000060658EB0202414146EA9E0601D5BDE85A
:102260000189B619524141EB0101A3F10103BDE817
:1022700001894FEA14454FEA114724EA054621EA4D
:10228000074C05FB07F406FB07F70CFB06F105FB03
:102290000CFC11EB074144EB17444FEA124711EBDA
:1022A0000C4144EB1C4422EA074C05FB07F206FBF9
:1022B00007F70CFB06F605FB0CFC16EB074642EB9A
:1022C000174216EB0C4642EB1C456A1854F100010C
:1022D00048BF7047B619524141EB0101A3F1010318
:1022E000704795F0000F37D04FEA11424FEA14477C
:1022F00021EA024624EA074C02FB07F106FB07F736
:102300000CFB06F402FB0CFC14EB074441EB1741F9
:102310004FEA154714EB0C4441EB1C4125EA074CEE
:1023200002FB07F506FB07F70CFB06F602FB0CFCAD
:1023300016EB074645EB174516EB0C4645EB1C42E2
:10234000121951F1000148BF7047B619524141EBD3
:102350000101A3F1010370474FEA14454FEA114709
:1023600024EA054621EA074C05FB07F106FB07F7BF
:102370000CFB06F24FF0000605FB0CFC12EB0742CB
:1023800041EB174112EB0C4251EB1C4148BF704727
:10239000921841EB0101A3F10103704710B501460A
:1023A000806B026C12F0500F05D0026CD20626D55D
:1023B00002F0A2FC10BD016C41F4007101640168DF
:1023C0008A6812F0405F17D1027EAAB9CA6A12F475
:1023D000700F02D08A6852050ED44A6822F020029B
:1023E0004A60016C21F480710164016CC90403D45A
:1023F000016C41F00101016402F07CFC10BD806BB6
:10240000C26CBDE810400846104710B5806B4021F3
:102410000164416C41F00401416402F06DFC10BDA7
:1024200010B5806B02F067FC10BD0000014802F09F
:1024300067BC000078010020464910B54A6822F4C4
:1024400040324A604A6843681A434A6001684A68F1
:1024500022F480724A6001684A68036942EA0322F2
:102460004A6001684A6822F040724A6001684A681E
:1024700083681A434A6001688A6822F400628A60AD
:1024800001688A68C3681A438A60816A6FF0706263
:10249000D14201688A6822F070628A6001688A68A5
:1024A0000CD0836A1A438A6001688A6822F040521D
:1024B0008A6001688A68C36A1A4301E022F04052C8
:1024C0008A6001688A6822F002028A6001688A686C
:1024D000037E42EA43028A6090F8201000290168D6
:1024E0004A680FD042F400624A6001684A6822F4E8
:1024F00060424A6001684A68174C436A04EB433300
:102500001A4301E022F400624A600168CA6A22F4B8
:102510007002CA620168CA6A838B104C04EB0353D1
:102520001A43CA6201688A6822F400728A600168EC
:102530008A6890F8303042EA43228A6001688A68EB
:1025400022F480628A6001688A68406942EA8020D9
:10255000886010BD0023014000E0FFFF0000F0FF95
:10256000B5EEC00AF1EE10FA01D2B1EE400A7047A2
:1025700070B50C462DED068B0500F0EE62AAB0EEAC
:1025800042AAB0EE619AB0EE418AF0EE408A75D070
:10259000002C73D09FED490A20EE800ADFED480A37
:1025A00020EE200AFFF7DCFFB5EEC09A454EF1EEB3
:1025B00010FA14D9B5EEC0AAF1EE10FA0FD9F5EE63
:1025C000C0AAF1EE10FA0AD910EE100ADFED3E0AA9
:1025D0003E4969EE200A8842C0EE8A9A02DC96EDF6
:1025E0000A0A64E0F3EE080A9FED391A68EE200A41
:1025F0009FED398A60EE810A80EE801A6AEEA80AA1
:1026000060EEA00A21EE010A9FED321A29EE011AAE
:1026100070EE600A21EE011AB4EEE01AF1EE10FA43
:1026200017D8B0EE600AB5EEC00AF1EE10FA01D28A
:10263000B0EE480A08F00CF870EE490AB0EE481AFD
:1026400080EE8A0AF0EE690A00F01AFAF0EE409A7B
:1026500029E00AEE299A09EE490AB5EEC00AF1EE20
:1026600010FA0CDD07F0F4FFC0EE2A0AF5EEC08A7E
:10267000F1EE10FA05D2F1EE600A02E01BE0F0EE96
:10268000480AF5EEC08AF1EE10FA04DBB0EE601AEB
:10269000F0EE480A01E0B0EE481AB0EE680A00F029
:1026A000EFF9F0EE408A96ED0A0A39EE800A85EDE0
:1026B000000AC4ED008ABDEC068B70BD00004842E4
:1026C0005077D63D04010020CDCC4CBFBD378635B8
:1026D0006666663FCCCC4C3E00000000074910B552
:1026E0000020887000F00EF89FED050AF0EE400A19
:1026F00002F036F9BDE8104001F0CEBF0401002021
:1027000000000000044800219FED040AC17080ED24
:10271000060A80ED070A704704010020000000004F
:10272000014900204871704704010020054800213C
:102730009FED050A417080ED030A80ED040A80EDEB
:10274000050A70470401002000000000F0B52DEDDF
:10275000048B83B0DFED8E9A0027B0EE699A01F00A
:1027600073FE00F04DFC8B4C607930B103B0BDECD2
:10277000048BBDE8F04002F007BA207801269FEDF7
:10278000868A002568B3E088401C80B2E080142867
:1027900046D39FED829AB0EE490A01F0A3FEE58090
:1027A000012701F001FE90ED0A0AFFF7D9FE10EEB5
:1027B000100A7B49884233DB66716570A570002082
:1027C00004F0A4FFF0EE480AB0EE480A04F0AAFFB5
:1027D000F0EE480AB0EE480A02F0C2F801F05CFFE1
:1027E000C4E784ED028AF0EE480AB4EE000A02F073
:1027F000B5F9B0EE480A02F093F902F04FF9E06A39
:1028000044F62061401CE062884205D301F0E8FDF7
:1028100084ED028AE580267003B0BDEC048BF0BD28
:1028200001F0C2FD054600F04DFB064628001CD015
:1028300095ED070AD4ED080A70EE208A6078B8B1E9
:10284000B0EE480A02F0ACF8D6ED050A96ED040A9F
:1028500094ED031A02F0CAF8D4ED050A94ED040AC7
:1028600002F07CF994ED030A34E0D4ED088AE5E740
:10287000D6ED050A96ED040AB0EE681A02F0B6F835
:10288000E07860B1B0EE480A02F08AF8D4ED060AAA
:10289000B0EE480A02F062F994ED070A18E0A07859
:1028A00008B3207910B195ED0A0A01E0B0EE480AAC
:1028B00002F076F8B0EE690A01F006FF01F08CFE36
:1028C000D0ED160A90ED150A02F048F994ED090AC8
:1028D00038EE800A02F024F903B0BDEC048BBDE8A9
:1028E000F04002F0DBB804F0A5FE032811D029481F
:1028F00029460830B0EE490A04F0A8FF04F0A0FE13
:1029000090EC020A03B0BDEC048BBDE8F04002F08D
:10291000EFB837B11F4829460830B0EE490A04F035
:1029200095FF04F08DFE064601F056FE90ED0D1A5F
:102930004030D5ED0A0A96ED000A01A9D0EC031A41
:102940006846FFF715FE9DEC020A02F009F82079AF
:1029500010B195ED0A0A01E0B0EE480A02F020F845
:10296000B0EE690A01F0B0FE01F036FED0ED160AB5
:1029700090ED150A02F0F2F894ED090A38EE800A9B
:1029800002F0CEF802F08AF801F09EFB44E7000066
:1029900017B7513804010020000000006E12833A7E
:1029A00000007A4503489FED041AD0ED080A80EE36
:1029B000810A70470401002035FA8E3C01480079F5
:1029C000704700000401002004F034BE04F03CBE57
:1029D00003489FED041AD0ED090A80EE810A704782
:1029E0000401002035FA8E3C1F4810B59FED1D0AEA
:1029F000002180ED020A41708170C170017180ED8B
:102A0000030A80ED040A80ED050A80ED060A80EDD8
:102A1000070A80ED080A80ED090A80ED0A0AC16202
:102A2000C1804171017002F013F801F0D9FDDFEDB2
:102A30000F0A9FED0F0AB0EE601A01F0B7FF00F029
:102A400045FA4FF4807000F0F7F900F0A1FA01F0B8
:102A5000AFFC04F0FDFD00F087FBBDE8104004F082
:102A6000B9BF00000000000004010020B37BF23A6F
:102A7000A69B443C014840797047000004010020B7
:102A8000B4EEC10AF1EE10FA02DDB0EE410A704771
:102A9000B4EEE00AF1EE10FAF9D2B0EE600A704737
:102AA00010B500F075FBBDE8104001F06FBB0000F1
:102AB000DFED040A044820EE200A80ED080A01F048
:102AC000EBBD000035FA8E3C0401002010B500B1CA
:102AD000012005499FED050A087101F061FFBDE87D
:102AE000104001F0D9BD00000401002000000000EA
:102AF00010B52DED028BB0EE608AF0EE408AFFF744
:102B000015FEFFF7FFFD002004F000FE9FED090A0F
:102B1000F0EE400A04F006FEF0EE480AB0EE680A55
:102B200001F01EFF01F0B8FD034901208870BDECE3
:102B3000028B10BD000000000401002010B52DED37
:102B4000028BB0EE608A01F09BFEB0EE480ABDEC4D
:102B5000028BBDE8104001F0D1BE10B52DED028B07
:102B6000B0EE418A01F0B0FEB0EE480ABDEC028B37
:102B7000BDE8104001F0C2BE10B52DED028BB0EEE5
:102B8000608AF0EE408AFFF7D1FDFFF7A7FD002035
:102B900004F0BCFD9FED0B0AF0EE400A04F0C2FD0C
:102BA000B3EE080A0848C8EE800A9FED080A012122
:102BB00028EE000AC0ED060A80ED070AC170BDECE0
:102BC000028B10BD000000000401002035FA8E3C8D
:102BD00010B52DED028BB0EE608AF0EE408AFFF763
:102BE000A5FDFFF77BFDFFF78DFD002004F08EFDB6
:102BF000F0EE480AB0EE680ABDEC028BBDE810406A
:102C000004F090BD10B52DED048BB0EE418AF0EECE
:102C1000608AB0EE409AFFF789FDFFF75FFDFFF78E
:102C200071FDB0EE481AF0EE680AB0EE490ABDEC4C
:102C3000048BBDE8104004F087BD10B50446FFF7D3
:102C400075FDFFF74BFDFFF75DFD2046BDE8104029
:102C500004F05CBD014880ED0A0A704704010020C1
:102C600010B52DED068BB0EE428AF0EE618AB0EE23
:102C7000419AF0EE609AB0EE40AAFFF757FDFFF7D9
:102C80002DFDFFF73FFD0B489FED090AB0EE482AE6
:102C900080ED0A0AF0EE681AB0EE491AF0EE690A01
:102CA000B0EE4A0ABDEC068BBDE8104004F076BDDC
:102CB0000000000004010020DFED040A044820EEBB
:102CC000200A80ED090A01F0E7BC000035FA8E3CCD
:102CD0000401002010B500202DED048BB0EE419AC8
:102CE000F0EE608AB0EE408A04F010FD9FED090A14
:102CF000F0EE400A04F016FDFFF704FD064801213E
:102D000000F10C0282EC038A417000218170BDEC5D
:102D1000048B10BD0000000004010020FEE700202D
:102D2000704700207047000010B500220449054894
:102D300005F08CFC0449034805F07BFC002010BD25
:102D4000D40F0020F8020020D407002010B504465C
:102D5000096800F0D1F92146034805F06AFC0248F1
:102D600005F040FC002010BDF80200200020704754
:102D7000094A10B5D2F8BC22D2F814220AB10120B7
:102D800010BD0A460146044805F060FCBDE810404D
:102D9000014805F0D5BC0000F8020020204A00EEF2
:102DA000100A9FED212A10805180136AB8EE400A64
:102DB0005B1C1362D2ED020A92ED031A1C4870EEFE
:102DC000600A00EE101A0178B8EE400A30EE410AAF
:102DD0009FED141A60EE811A20EE011AC1EE820AEC
:102DE000DFED121A81EE210A91B192ED041ADFEDA6
:102DF000111A70EEC10A00EEA11A82ED041AD2ED8A
:102E0000050A30EE600A40EE210AC2ED050A70475D
:102E1000C2ED040A82ED050A01210170704700002D
:102E20002C2300203333534000C04CC400C04C441A
:102E3000700100208FC2F53D2DE9F0414FF00007F1
:102E400004003E4636D00025DFF86C800FE00E20EF
:102E500000F062F8A8F800000F2000F05DF8A8F874
:102E60000200B8F800106D1C0F440644ADB2A54234
:102E7000EDD300EE107A114A0021F8EE400A00EE80
:102E8000104AB8EE400A80EE801A00EE106AF8EEA2
:102E9000400A00EE104AB8EE400A88ED021A80EEB1
:102EA000801A9FED070A88ED031A117088ED040A55
:102EB00088ED050ABDE8F0812C2300207001002078
:102EC00000000000004870472C2300200E4800211D
:102ED0009FED0E0A018041808180C18080ED020A51
:102EE00080ED030ADFED0A0AB3EE080AC0ED040A1A
:102EF000C0ED050A80ED060AC0ED070A01624162D5
:102F000004480170417070472C23002000F0FF44FA
:102F100000000000700100202DE9FF410024074659
:102F200000940194029426461848039402F0ACF9E8
:102F3000164802F08BF91548012504610476C56135
:102F400080F83040456101F072FF60B904200097BD
:102F5000CDE9015069460D4801F026FE18B90B482D
:102F600002F04CF818B1002004B0BDE8F081022155
:102F7000064801F0EDFF18B9044801F0BEFE86B224
:102F8000024802F063F93046EEE7000078010020C5
:102F900010B5184802F078F9164802F057F904F015
:102FA00079F9154C002004F1280294ED020AFCEE98
:102FB000C00A94ED030ABCEEC00AC10714D010EE9B
:102FC000101A00BF22F81010401C80B24028F4D321
:102FD000094940222831074802F08EF8606230B17A
:102FE00000200649487010BD10EE901AEAE7012053
:102FF000F7E70000780100202C230020700100205A
:103000000E4830B4002240781146002814D00C4BF2
:10301000002000BF33F82040224403EB8004401C12
:10302000648880B221442028F4D330BCC2F34F100E
:10303000C1F34F11FFF7B2BE30BC704770010020E2
:1030400054230020014802F09FB90000C001002075
:1030500001681823CAB2103AB2FBF3F2054B6FF3C2
:103060000901032A9B5CC36500D9091D81650846D7
:10307000704700007CAF000810B5014600208B6946
:103080008A6A4FF0C07453B1B3F5005F15D072B1C6
:10309000012A0CD0022A0AD0032A09D104E01AB16D
:1030A000012A06D0022A03D1C96AC90100D501202C
:1030B00010BDC96AA142FAD010BD002AF7D0012A7A
:1030C000F2D0022AF3D0032AF3D010BD30B5046841
:1030D000256825F480252560046863608368402B9B
:1030E000036803D099600068C26030BD9A600068D0
:1030F000C16030BD70470000F0B50022114D16468A
:10310000114B01271AE0845C0D2C0ED00A2C0CD038
:10311000B3F804C0BCF17F0F0ED2B3F804C005F8B9
:103120000C409C88641C9C8007E09C882CB19C8887
:103130002E559E801F7000E09E80521C8A42E2D372
:10314000F0BD0000001F00203401002010B5FFF783
:10315000B9FE90ED060A10EE100AB0F17E5F01DCB8
:10316000B3EE080A10BD000070B5074C0025A5801D
:10317000257001206070A570E57002F087FBA060EB
:103180000248057070BD0000340100209C21002021
:1031900010B50C4C2078002813D072B67F220A4953
:1031A00001F18000FDF7C2FA07490020803181F863
:1031B0007F00207062B60448803000F04FF9012093
:1031C000607010BD34010020001F00202DE9F04F79
:1031D000C3B0FFF7FBFB0646FFF7F6FB429001F09A
:1031E00033FC074601F0F8F90446FFF76BFE05468D
:1031F00001F0DAF88046F06807F0C2FDCDE936014B
:10320000306807F0BDFDCDE93401706807F0B8FD06
:10321000CDE93201D8F8280007F0B2FDCDE9300140
:10322000D8F8200007F0ACFDCDE92E01A86907F021
:10323000A7FDCDE92C01E06C07F0A2FDCDE92A0144
:10324000206D07F09DFDCDE92801A06C07F098FDE9
:10325000CDE92601606C07F093FDCDE92401206CD7
:1032600007F08EFDCDE92201B06907F089FDCDE9B7
:103270002001706907F084FDCDE91E01606B07F045
:103280007FFDCDE91C01206B07F07AFDCDE91A0125
:10329000E06A07F075FDCDE91801A06907F070FD3F
:1032A000CDE91601206907F06BFDCDE914016069D5
:1032B00007F066FDCDE91201E06807F061FDCDE998
:1032C0001001E86807F05CFD82468B46A86807F0AD
:1032D00057FD80468946686907F052FDCDE90E0129
:1032E000286907F04DFDCDE90C01386907F048FD6C
:1032F000CDE90A01F86807F043FDCDE908017868D7
:1033000007F03EFDCDE90601386807F039FDCDE94B
:103310000401FFF75DFB10EE100A07F031FDCDE967
:103320000201FFF73FFB10EE100A07F029FDCDE97F
:103330000001E06B07F024FD0F460646FFF73EFB59
:103340000446FFF797FB0246DDE93601CDE940016F
:10335000DDE93401CDE93E01DDE93201CDE93C0191
:10336000DDE93001CDE93A01DDE92E01CDE9380191
:10337000DDE92C01CDE93601DDE92A01CDE9340191
:10338000DDE92801CDE93201DDE92601CDE9300191
:10339000DDE92401CDE92E01DDE92201CDE92C0191
:1033A000DDE92001CDE92A01DDE91E01CDE9280191
:1033B000DDE91C01CDE92601DDE91A01CDE9240191
:1033C000DDE91801CDE92201DDE91601CDE9200191
:1033D000DDE91401CDE91E01DDE91201CDE91C0191
:1033E000DDE91001CDE91A0116A880E8000F69880F
:1033F0002888CDE91401DDE90E01CDE91201DDE9EE
:103400000C01CDE91001DDE90A01CDE90E01DDE98C
:103410000801CDE90C01DDE90601CDE90A01DDE98C
:103420000401CDE90801DDE90201CDE90601DDE98C
:103430000001CDE904018DE8D400064A4FF4C071C3
:103440000548429BFCF7C4FF43B00348BDE8F04F7A
:1034500000F0FABD48B00008002000202DE9F04F30
:103460002DED068BA3B0044618211CA8FDF737F9F3
:103470000027FDA12046FDF7DBF81CAC08E000BFEB
:1034800044F827007F1CFFB2F7A10020FDF7D0F819
:1034900008B1062FF4D3002F7DD0F5A11C98FDF7BD
:1034A00071F90025F34C002876D0F3A11C98FDF7A4
:1034B00069F99FEDF38A00286FD0F2A11C98FDF7FF
:1034C00061F900286AD0F1A11C98FDF75BF900288A
:1034D00065D0EFA11C98FDF755F900287DD0EEA12D
:1034E0001C98FDF74FF9002878D0ECA11C98FDF747
:1034F00049F9002873D0EBA11C98FDF743F9002887
:103500006ED0EAA11C98FDF73DF9002869D0E9A129
:103510001C98FDF737F900287DD0E8A11C98FDF72D
:1035200031F9002878D0E7A11C98FDF72BF9002885
:1035300073D0E6A11C98FDF725F900286ED0E4A110
:103540001C98FDF71FF9002869D0E3A11C98FDF72E
:1035500019F900287ED0E3A11C98FDF713F9002883
:1035600079D0E2A11C98FDF70DF9002874D0E1A1F3
:103570001C98FDF707F900286FD0E0A11C98FDF713
:1035800001F901264FF003084FF00209002865D029
:10359000DCA11C9804E078E028E04AE07DE09AE0B5
:1035A000FDF7F0F8002875D0D8A11C98FDF7EAF8CF
:1035B000002870D0D7A11C98FDF7E4F800286BD044
:1035C000D5A11C98FDF7DEF800287CD0D4A11C986A
:1035D000FDF7D8F840B1D4A004E087E09EE0C5E054
:1035E000C8E0EEE000F030FDD4489AE3032F01D2AA
:1035F000D3A096E3A078032800D0A5701E9806F00B
:1036000033FE51EC100B07F0C9F908EE100A1D98B3
:1036100006F02AFE04E0FFE018E237E25FE273E220
:1036200051EC100B07F0BAF900EE100AF0EE480A60
:1036300059E0A570FFF774F8FFF778F8FFF74EF838
:103640000020FFF7FAFAB0EE481AF0EE480AB0EEA2
:10365000480A04E06AE27AE28AE21AE32AE3FFF720
:10366000D1FAB0EE482AF0EE481AB0EE481AF0EE61
:10367000480AB0EE480AFFF7F3FAF0EE480AB0EE57
:10368000480AFFF7A5FA01F07FFA23B0BDEC068BDC
:10369000BDE8F08F32E347E3C8E3032F01D2AFA0C8
:1036A0003FE3A5701E9806F0DFFD51EC100B07F00C
:1036B00075F908EE100A1D9806F0D6FD51EC100BB6
:1036C00007F06CF900E0B2E300EE100AF0EE480AF1
:1036D000FFF752FAD9E7A5700020FFF7AEFAF6EE31
:1036E000000A9FEDA70AFFF773FACEE7022F01D277
:1036F000A4A016E3A9A11D98FDF744F858B1A9A10B
:103700001D98FDF73FF80028F2D1A5705FF0010089
:10371000FFF793FAB9E7A5700020F9E7042F01D26B
:10372000A1A0FEE21F9806F09FFD51EC100B07F0E0
:1037300035F908EE100A1E9806F096FD51EC100BB4
:1037400007F02CF908EE900A1D9806F08DFD51EC5B
:10375000100B07F023F900EE100AB0EE481AF0EE55
:10376000680AFFF74FFAA5700220D1E7022F46D270
:1037700097A0D6E2042F01D29AA0D2E2A5701F989A
:1037800006F072FD51EC100B07F008F908EE900AF4
:103790001E9806F069FD51EC100B07F0FFF808EEDB
:1037A000100A1D9806F060FD51EC100B07F0F6F8BA
:1037B00000EE100AB0EE681AF0EE480AFFF78AFA37
:1037C00063E7022F01D290A0ABE2032F17D3A570BD
:1037D0001E9806F049FD51EC100B07F0DFF808EEDB
:1037E000100A1D9806F040FD51EC100B07F0D6F8BA
:1037F00000EE100AF0EE480AFFF77AF945E7A570E7
:103800001D9806F031FD51EC100B07F0C7F800EEE3
:10381000900AB0EE480AEFE7042F01D283A080E2BD
:10382000A5701F9806F020FD51EC100B07F0B6F8BC
:1038300008EE900A1E9806F017FD51EC100B07F0E9
:10384000ADF808EE100A1D9806F00EFD51EC100BB5
:1038500007F0A4F800EE100AB0EE681AF0EE480A7D
:10386000FFF77BF911E7000020090D0A00000000B6
:10387000736574003401002073746F7000000000E1
:103880000000000076656E630000000072756E0037
:103890006D6F646500000000706F7300746F72716B
:1038A000756500006C6F636B0000000063757272D9
:1038B00000000000637572727069000063757272B7
:1038C000627700006D6F64656C0000006666000042
:1038D00066667363616C6500616E676C656F6666D2
:1038E00000000000766C656164000000737065651F
:1038F00064000000737065656469640076696577CB
:1039000000000000656E637669657700747261631C
:10391000650000006A6600007374617475730000CE
:1039200068656C70000000006572723A20756E6BFD
:103930006E6F776E20636D640D0A000044B200085C
:103940006572723A20736574203C75713E203C6646
:103950007265715F687A3E0D0A0000006572723A06
:103960002076656E63203C75715F766F6C743E20C7
:103970003C6C6561645F6465673E0D0A0000000091
:103980000AD7233D6572723A206D6F6465206F70AF
:10399000656E7C656E630D0A000000006F70656ED9
:1039A00000000000656E63006572723A20706F73EC
:1039B000203C73706565645F6370733E203C6B7080
:1039C0003E203C6D61785F75713E0D0A000000007D
:1039D0006572723A20746F72717565203C69713E30
:1039E0000D0A00006572723A206C6F636B203C61B7
:1039F0006E676C655F7261643E203C75643E203C7E
:103A000075713E0D0A0000006572723A206375728E
:103A100072203C69713E207C2063757272203C6983
:103A2000643E203C69713E0D0A0000006572723AE6
:103A300020637572727069203C6B703E203C6B692C
:103A40003E203C6C696D69743E0D0A009FEDF98A59
:103A5000022F01D2F8A064E1032F08D31E9806F0CC
:103A600003FC51EC100B06F099FF08EE100AA5704C
:103A70001D9806F0F9FB51EC100B06F08FFF00EEDD
:103A8000100AF0EE480AFFF759F8FEE5042F01D2BC
:103A9000F0A046E11F9806F0E7FB51EC100B06F092
:103AA0007DFF08EE900A1E9806F0DEFB51EC100B2D
:103AB00006F074FF08EE100A1D9806F0D5FB51ECD5
:103AC000100B06F06BFF00EE100AB0EE681AF0EE75
:103AD000480A00F06BFFA57000F0DEFDD5E5022F6F
:103AE00001D2E4A01DE1E8A11D98FCF74BFE48B10E
:103AF000E6A11D98FCF746FE0028F2D1FEF7E6FF8E
:103B0000A570C2E50120F9E7022F01D2E0A008E18B
:103B10001D9806F0A9FB51EC100B06F03FFF00EEDC
:103B2000100A00F025FF00F0B7FDE9E7022F01D2EF
:103B3000DDA0F6E0A5701D9806F096FB51EC100B89
:103B400006F02CFF00EE100AFEF7B2FF9DE5022FF3
:103B500001D2DBA0E5E0A5701D9806F085FB51ECD5
:103B6000100B06F01BFF00EE100AFFF7A5F88CE51E
:103B70009FEDD8AADFEDD89AB6EE009ADFEDD78A8E
:103B8000022F01D2D6A0CCE0052F25D31E9806F037
:103B90006BFB51EC100B06F001FF0AEE100A1F98A8
:103BA00006F062FB51EC100B06F0F8FE09EE900AED
:103BB000209806F059FB51EC100B06F0EFFE09EED1
:103BC000100A062F08D3219806F04EFB51EC100B7B
:103BD00006F0E4FE08EE900A1D9806F045FB51EC55
:103BE000100B06F0DBFE08EE100AC74918EE100AAB
:103BF000884202DD9FEDC58A06E018EE100AC4492E
:103C0000884201D99FEDC38A18EE900A07F0B8F8F0
:103C100006460F4619EE100A07F0B2F8CDE9020188
:103C200019EE900A07F0ACF8CDE900011AEE100A7F
:103C300007F0A6F882468B4618EE100A07F0A0F8A7
:103C40008946CDE90867DDE90212CDE90612DDE912
:103C50000012CDE904128DE8010EAFA24FF4C0713D
:103C6000BC48FCF7B5FBBB4800F0EEF9B0EE480AE3
:103C700000F0F8F9A570B0EE682AF0EE491AB0EE3F
:103C8000691AF0EE4A0AB0EE480AFEF7E9FF03208F
:103C90003EE5022F01D2B0A043E0A5701D9806F0CA
:103CA000E3FA51EC100B06F079FE00EE100AFEF775
:103CB000D1FFEAE4022F01D2ACA032E0B3A11D98FB
:103CC000FCF760FD98B1AFF21C411D98FCF75AFD5E
:103CD00078B1B0A11D98FCF755FD60B1AFA11D985A
:103CE000FCF750FD0028E7D184F8038008E7E57071
:103CF00006E7E67004E784F8039001E7022F01D29B
:103D0000A7A00EE060A11D98FCF73CFD30B15FA1BB
:103D10001D98FCF737FD0028F2D1F1E684F8028007
:103D2000B3E400F091F9B0E4A34F3878F0B3A07891
:103D300001287AD0A670B86B07F022F805460E4627
:103D4000786B07F01DF8CDE91001386B07F018F813
:103D5000CDE90E01B86A07F013F8CDE90C01F86A55
:103D600007F00EF8CDE90A01786A07F009F8CDE905
:103D70000801386A07F004F882468B46F86906F0B5
:103D8000FFFFCDE90601B86906F0FAFFCDE90401AD
:103D9000386906F0F5FFCDE90201786906F0F0FF19
:103DA000CDE90001F86806F0EBFF00E00CE1804689
:103DB0008946786806F0E4FFCDE91A56DDE910235C
:103DC000CDE91823DDE90E23CDE91623DDE90C2327
:103DD000CDE91423DDE90A23CDE91223DDE9082327
:103DE000CDE910237A78CDF830A0CDE90DB2DDE928
:103DF0000623CDE90A23DDE90423CDE90823DDE923
:103E00000223CDE90623DDE900238DE80303CDE994
:103E10000423A07801280BD068A36A4A4FF4C0712C
:103E20004C48FCF7D5FA4B487BE7CFE0D3E0E8E01D
:103E3000CFE000003333733F6572723A20637572CE
:103E4000726277203C687A3E205B6C696D69745DB4
:103E50000D0A00006572723A206D6F64656C203C3B
:103E60007073693E203C6C643E203C6C713E0D0AD0
:103E7000000000006572723A206666206F6E7C6FEB
:103E800066660D0A000000006F6E00006F66660037
:103E90006572723A2066667363616C65203C302EF1
:103EA0002E313E0D0A0000006572723A20616E6785
:103EB0006C656F6666203C6465673E0D0A00000015
:103EC0006572723A20766C656164203C6465673E79
:103ED0000D0A0000E02D103B0AD7A33C8FC2F53D30
:103EE0006572723A207370656564203C72706D3E35
:103EF000205B6B70206B69206D61785F6971206D4C
:103F000061785F695D0D0A000000FA430000FA4322
:103F10000000FAC30000FAC36F6B3A207370656546
:103F2000642072706D3D252E3166206B703D252E0C
:103F30003566206B693D252E3566206D61785F6999
:103F4000713D252E3366206D61785F693D252E33E6
:103F5000660D0A00002000206572723A20737065B9
:103F600065646964203C69643E0D0A006572723ABA
:103F700020766965772070686173657C63757272FD
:103F80007C766F6C747C61620D0A000070686173EE
:103F900065000000766F6C74000000006162000034
:103FA0006572723A20656E6376696577206F6E7C04
:103FB0006F66660D0A0000009C2100207065616B31
:103FC0000000000078B100080FA0AAE684F8029073
:103FD000B1E611A321E7022F01D211A0A1E6AFF2B1
:103FE00058111D98FCF7CEFB48B1AFF260111D9837
:103FF000FCF7C8FB0028F0D165700EA091E6667052
:1040000030E4FFF7E3F82DE474726163653A2069E8
:10401000646C650D0A00000063726F73730000002A
:104020006572723A206A66206F6E7C6F66660D0A52
:10403000000000006F6B3A206A757374666C6F61E4
:1040400074206F66660D0A0010B50446FCF7F6FA98
:104050000104090C04D02046BDE81040FEF788BEDC
:1040600010BD000016480121B5EEC00A0170002104
:10407000F1EE10FA417080ED010A02D2BFEE000AA3
:1040800001E0B7EE000A80ED020A9FED0E0A80ED16
:10409000030A80ED040A80ED050A80ED060A80ED32
:1040A000070A80ED080A80ED090A80ED0A0A80ED12
:1040B0000B0A80ED0C0A80ED0D0A80ED0E0A7047A8
:1040C0009C2100200000000070B52F4D28780028AA
:1040D00058D000F069F9064600F07EFA0446FFF772
:1040E00035F8D5ED021A96ED0A1A95ED012AD5EDAF
:1040F000032A61EE210A22EE212A62EEA11AF4EED1
:10410000E01AF1EE10FA19D285ED031AD4ED041A73
:10411000C5ED041AD4ED061AC5ED051AD4ED031A3F
:10412000C5ED061AD4ED161A61EE801AC5ED071A10
:10413000D4ED151A61EE801AC5ED081A68780028CA
:1041400020D1F4EEC20AF1EE10FA1BDB01206870F8
:1041500085ED091AD4ED040AC5ED0A0AD4ED060A64
:10416000C5ED0B0AD4ED030AC5ED0C0AD4ED160A11
:1041700060EE800AC5ED0D0AD4ED150A20EE800A26
:1041800085ED0E0A70BD00009C2100202DE9F04154
:104190002DED028B86B001F079FB80494A78002A28
:1041A00075D08A68821A052A71D38846886000F023
:1041B00013FA0446FEF786FE074600F0F5F80546BA
:1041C00003F042FA064698F802107548012930D0EB
:1041D000022945D003295BD0FEF7B8FF98F8030009
:1041E000B0EE408A012879D0022875D0032874D017
:1041F000D4ED040A94ED030A05F0DEFEDFED690A52
:1042000020EE200AD5ED0A0ACDED000AD6ED010A0E
:10421000CDED010AD4ED030ACDED020AD4ED040A76
:10422000CDED030A8DED040A94ED160A20EE080A7E
:1042300084E090ED090A8DED000A90ED0B0A8DEDFA
:10424000010A90ED0A0A8DED020A90ED0C0A8DED3F
:10425000030A90ED0D0A8DED040A90ED0E0A6DE053
:1042600090ED030A8DED000A90ED050A8DED010A2F
:1042700090ED040A8DED020A90ED060A8DED030A19
:1042800090ED070A8DED040A90ED080A56E069E00A
:1042900095ED020A5021B8EEC00A8DED000A95EDA9
:1042A000030AB8EEC00A8DED010A95ED060A8DED00
:1042B000020A95ED070A8DED030AE86890FBF1F21A
:1042C00001FB120000EE100AB8EEC00A8DED040AE0
:1042D00095ED0A0A32E001E017E048E095ED0A0AA0
:1042E0008DED000A96ED010A8DED010A94ED030AA9
:1042F0008DED020A94ED050A8DED030A94ED040A92
:104300008DED040A94ED060A18E095ED0A0A8DED8C
:10431000000A96ED010A8DED010A94ED040A8DED77
:10432000020A94ED060A8DED030A94ED160A20EEBA
:10433000080A8DED040A94ED150A77E718488DED0B
:10434000050A182269461C38FCF797F91448002121
:104350001C3801764176802181767F21C1761C212F
:10436000FEF706FD06B0BDEC028BBDE8F08195EDD1
:104370000A0A8DED000A96ED010A8DED010A97ED0E
:10438000040A8DED020A97ED050A8DED030A94EDFE
:10439000030A8DED040A94ED040ACFE734010020EE
:1043A0009C210020E12E654200487047D821002062
:1043B000084810B50068002444623C21054802F01A
:1043C000E9FC00F041F804488168044841608470C9
:1043D00010BD000068020020D8210020400100200C
:1043E000154810B50068406A144C606000F02CF865
:1043F0001349A0689FED130A48600020886081ED92
:10440000030A087048708870206184ED080A84ED02
:10441000090A04F12C0284ED0A0A014602F128037C
:1044200042F8210003EB8104491CC9B284ED000A63
:104430000A29F5D310BD000068020020D821002011
:1044400040010020000000001F4810B50068436ACA
:104450001E4948681A1A4FF47A6092FBF0F400FB88
:104460001420002801DA00F57A6000EE100ADFED72
:10447000180ADFED181AB8EEC00A0B60C1E9022075
:1044800020EE201A164A81EE210A9FED131A81EDC3
:10449000050A20EE011A81ED061A9FED101A20EE92
:1044A000010A01E030EE600A10EE100A9042F9DADB
:1044B00002E000BF30EE200AB5EEC00AF1EE10FABD
:1044C000F8D381ED070A10BD68020020D821002032
:1044D000DB0FC94000007A45E12E6542000048C26A
:1044E000DB0FC940F0B5B5EEC00AF1EE10FA23D9E2
:1044F0003348344982788B68DAB1426843609A1A4B
:10450000034645781B7801F1540401F12C0604EBB5
:1045100083040A2D11D356F8235087687D1B8560CC
:10452000D4ED000A90ED031A71EE600AC0ED030AA3
:1045300005E0012143608170F0BD6D1C457046F8B7
:10454000232084ED000A84685B1C14448460D0ED51
:10455000030ADBB20A2B70EE800AC0ED030A037077
:1045600001D30023037001EE102AF5EEC00A0A61A0
:10457000B8EEC11AC1EE001A9FED131A21EE810A9E
:10458000F1EE10FA81ED080A08DD00EE104AB8EEEF
:10459000C00AC0EE201A21EE810A01E09FED0B0A4D
:1045A0009FED0B1A81ED090AF0EE400A91ED0A0A1F
:1045B00070EEC00A00EE810A81ED0A0AF0BD00002B
:1045C00040010020D82100208FC275BC00000000EF
:1045D0009A99193E72B6FEE700487047D022002033
:1045E0001F489FED1E0ADFED1F0A80ED000A80EDD7
:1045F000010A80ED020A80ED030A80ED040A80EDD5
:10460000050A80ED060A80ED070A80ED080A80EDB4
:10461000090A80ED0A0AC0ED0B0ADFED130AC0EDAE
:104620000C0ADFED120AC0ED0D0A80ED0E0AF5EE60
:10463000000AC0ED0F0ADFED0E0AC0ED100ADFED33
:104640000D0AC0ED110AC0ED120A80ED130A80EDCB
:10465000140A80ED150A80ED160A7047000000006C
:10466000D02200202CC9143F255F0D433333733F04
:10467000A69B443CB37BF23AB4EEC10AF1EE10FAC9
:1046800002DDB0EE410A7047B4EEE00AF1EE10FA36
:10469000F9D2B0EE600A70470A489FED090A80ED32
:1046A000070A80ED080A80ED090A80ED0A0A80ED0C
:1046B000130A80ED140A80ED150A80ED160A704782
:1046C00000000000D022002070B5B5EEC00A2DED2C
:1046D000068BF1EE10FA01D29FED650A654CD4ED20
:1046E000050A94ED031A30EEC11A84ED071AD4EDD1
:1046F000060AD4ED041A70EEE10AC4ED080AD4EDFE
:104700000B1A94ED0C2A61EE819A21EEA09A22EE0A
:10471000011AD4ED091A41EE001A22EE201AC4ED56
:10472000091AD4ED0A0A41EE000AB0EE610AC4ED9E
:104730000A0A94ED0D1AF1EE410AFFF79DFF84ED90
:10474000090A94ED0D1A94ED0A0AF1EE410AFFF7F9
:1047500093FF84ED0A0AD4ED0E0A9FED471A60EE2E
:10476000810A9FED461AD4ED061ABBEE082A60EEC8
:10477000810A94ED121A30EE090A4FF07E5521EEAF
:10478000201A61EE211A81EE821AD4ED0F1A21EE61
:10479000211A84ED131A94ED102AD4ED112A94ED08
:1047A000053A02EE832AF3EE082A22EE202AC2EE10
:1047B000220A60EEA10AC4ED140AD4ED091A70EEC3
:1047C000208A94ED0DAA71EEA91A6AEE0A0AB5EED6
:1047D000C0AA31EE818A28EE080A08EEA80AF1EE96
:1047E00010FA3DD9B4EEE00AF1EE10FA38D905F02E
:1047F0002FFFCAEE000A10EE900A28EE208A68EE1B
:10480000A08AA8422CDA94ED0C0AB5EEC00AF1EEAB
:1048100010FA25DDB0EE480AD4ED130A30EE690A2D
:1048200030EE600AF0EE680A84ED090A70EEC90AFB
:1048300094ED141A70EEC10AC4ED0A0A94ED0D1A33
:10484000F1EE410AFFF718FF84ED090A94ED0D1A05
:1048500094ED0A0AF1EE410AFFF70EFF84ED0A0A11
:1048600084ED158AC4ED168ABDEC068B70BD000080
:1048700000000000D0220020000048425077D63DC2
:10488000B5EEC00AF1EE10FA01D29FED0B0ADFED92
:104890000B0A0B4820EE201AF3EE080AC1EE201A8C
:1048A0009FED081A20EE010A80EE201AC0ED0B1AC7
:1048B00080ED0C1A704700000000000024723E3C9E
:1048C000D0220020ABF434409FED0A1AB5EEC00AA6
:1048D000F1EE10FA01D2B0EE410AF5EEC00AF1EEA7
:1048E00010FA01D2F0EE410A034880ED0B0AC0ED48
:1048F0000C0A704700000000D022002010B52DEDFA
:10490000028BB0EE408AB5EEC08AF1EE10FA01D209
:10491000B1EE488A18EE100AB0F17E5F01DDB7EE05
:10492000008A0E4CF1EE480AB0EE481A84ED0D8A6A
:1049300094ED090AF0EE608AFFF79EFE84ED090A05
:1049400094ED0A0AB0EE481AF0EE680AFFF794FEFA
:1049500084ED0A0ABDEC028B10BD0000D0220020BD
:10496000024880ED050AC0ED060A7047D0220020FB
:10497000B5EEC00AF1EE10FA02D29FED070A06E08A
:1049800010EE100AB0F17E5F01DDB7EE000A0348B9
:1049900080ED0F0A7047000000000000D0220020C8
:1049A000014880ED0E0A7047D0220020DFED0D1A7D
:1049B000B5EEC00AF1EE10FA01D2B0EE610AF5EEE2
:1049C000C00AF1EE10FA01D2F0EE610AB5EEC01A9B
:1049D000F1EE10FA01D2B0EE611A034880EC030A3E
:1049E00070470000000000001023002010B52DEDDE
:1049F000048BF0EE419AF0EE408AB0EE608AB0EEA1
:104A0000690A05F05DFDF0EE400AB0EE690AB0EE0D
:104A1000609A05F045FC68EE800A28EE000A094815
:104A200048EE090A08EEC90AC0ED008A80ED018A45
:104A3000C0ED029AC0ED030A80ED040ABDEC048BC0
:104A400010BD0000D02200200048704754220020F2
:104A50009FED080A0848F0EE400A80ED000A80ED5C
:104A6000010A80ED020A80ED030A80ED040A02F0DB
:104A7000E9BF0000000000005422002010EE100AE0
:104A8000B0F17E5F02DDB7EE000A704710EE100A4B
:104A900010F1814FF9D9BFEE000A704710B5134CE1
:104AA0002DED028B94ED020A05F00AFDF0EE400AAE
:104AB00094ED020AB0EE608A05F0F2FBD4ED001A24
:104AC00094ED012A21EE801A61EE880A02EE481A5E
:104AD00042EE000A84ED031AC4ED040AB0EE410A66
:104AE000BDEC028BBDE8104002F0ACBF54220020A8
:104AF00010B52DED028BB0EE608AF0EE400A9FED0E
:104B0000070A00F02BF8B0EE480A00F009F8BDECF7
:104B1000028BBDE81040FFF7C1BF0000000000009D
:104B2000DFED0B0A0B4901E030EE600A10EE100ACF
:104B30008842F9DA02E000BF30EE200AB5EEC00A82
:104B4000F1EE10FAF8D3044880ED020A7047000035
:104B5000DB0FC940DB0FC9405422002010B52DEDFA
:104B6000028BB0EE608AFFF789FF064C84ED000AE5
:104B7000B0EE480AFFF782FF84ED010ABDEC028B1C
:104B800010BD0000542200209FED050A10B5F0EE84
:104B9000400AFFF7E3FFBDE81040FFF77FBF0000CA
:104BA000000000007047000078B50024009490F8E1
:104BB0003C20012A19D0012280F83C200A680723F2
:104BC0000568092A13D9EE680A3A02EB42029340BB
:104BD0009E43EE600B788A680A3B03EB43039A40DE
:104BE0000368DD682A43DA6010E0022078BD2E6990
:104BF00002EB420293409E432E610B788A6803EBDE
:104C000043039A4003681D692A431A614A681F23B7
:104C1000072A13D205686E6B521E02EB8202934084
:104C20009E436E630B790A885B1E92B203EB83038B
:104C30009A4003685D6B2A435A6327E005680D2A92
:104C400012D22E6BD21F02EB820293409E432E6340
:104C50000B790A88DB1F92B203EB83039A40036847
:104C60001D6B2A431A6311E0EE6A0D3A02EB8202D1
:104C700093409E43EE620B790A880D3B92B203EBA0
:104C800083039A400368DD6A2A43DA62164B05689B
:104C9000144A9D4206D10D68122D03D1556845F482
:104CA0008005556005689D4218D10B68102B01D016
:104CB000112B13D1536843F4000353600968102982
:104CC0000CD10A490A4A0968B1FBF2F101EB8101F2
:104CD000490000E0491E00910029FBD180F83C40CA
:104CE000002078BD0023014000200140700000201A
:104CF00040420F007047704770470068C06C7047B3
:104D000070B5044600680668456816F0020F05F0A5
:104D100020012AD049B3216CC90603D4216C41F487
:104D200000712164816811F0405F17D1217EA9B91B
:104D3000C16A11F4700F02D0816849050ED4416830
:104D400021F020014160206C20F480702064206CF0
:104D5000C00403D4206C40F0010020642046FFF71B
:104D6000C9FF21686FF01200086016F0040F05F00B
:104D7000800132D089B3206CC00603D4206C40F48B
:104D8000005020642068816811F4401F1ED1816B9F
:104D900011F4401F02D08168490517D441684905C4
:104DA00014D4816811F0405F10D1217E71B941683F
:104DB00021F080014160206C20F480502064206C40
:104DC000C00503D4206C40F0010020642046FFF7AA
:104DD000E9FE21686FF00C00086016F0010F05F085
:104DE00040010FD071B120680068C0070AD0206C64
:104DF00040F480302064204600F043F821686FF0D2
:104E00000100086016F0200F05F080610ED0002927
:104E10000CD0606C40F00200606420686FF02005E8
:104E200005602046FFF768FF2068056070BD70B51B
:104E300004004FF0000503D0206C002610B107E0FD
:104E4000012070BD204600F01DF8666484F83C60C7
:104E5000206CC00610D4206C20F4885040F0020072
:104E600020642046FDF7E8FA6664206C20F002001A
:104E700040F00100206400E0012584F83C602846F1
:104E800070BD704770B586B0064614216846FBF7C2
:104E900026FC2949306888424BD128480025016802
:104EA00041F4807101600068244900F48070143975
:104EB0000590086840F004000860086800F00400ED
:104EC0000590086840F0020008600868032400F0BC
:104ED0000200059030208DE831006946184800F046
:104EE000D7FB009469461748CDE9014500F0D0FB97
:104EF000164C1548C4E900050015A560C4E9035027
:104F0000400060618000A0614011E0614002C4E99E
:104F10000805204600F008FB08B1FFF75BFBB4630F
:104F2000002211461220A66300F01EFD122000F0A0
:104F30000DFD06B070BD0000002001404438024065
:104F4000000802400004024010640240C00100203A
:104F50002DE9F041044600680D4681684FF00007D6
:104F600049050BD58068C00508D5206C40F02000AD
:104F7000206484F83C700120BDE8F08100F086FCDC
:104F8000064613E0681C11D025B100F07FFC801BA1
:104F9000A8420BD920680068800707D4206C40F035
:104FA0000400206484F83C700320E5E72068006872
:104FB0008007E7D521686FF012000860206C40F48C
:104FC000007020642068816811F0405F13D1217E59
:104FD00089B9C16A11F4700F02D0806840050AD403
:104FE000206C20F480702064206CC00403D4206CFA
:104FF00040F0010020640020BEE7000018B5002149
:10500000009190F83C20012A07D0012280F83C2032
:1050100002689368DB0702D011E0022018BD936894
:1050200043F0010393602E4A2E4B1268B2FBF3F259
:1050300002EB420200E0521E0092002AFBD10268FD
:105040009368DB0742D0036C40F20164A34343F44E
:105050008073036453685B0505D5036C23F4005328
:1050600043F480530364036CDB0404D5436C23F0E6
:105070000603436400E0416480F83C101A496FF075
:105080002203136049680068CA06184906D088429E
:1050900024D1816811F0405F13D01FE08842F8D01E
:1050A000134A904203D1D1F80423D206F1D0114A19
:1050B000904213D1D1F8041301F01F011029E8D355
:1050C0000CE0816841F08041816007E0016C41F0B3
:1050D00010010164416C41F001014164002018BDE0
:1050E0007000002040420F000023014000200140DA
:1050F0000021014000220140F8B5044600200E4680
:10510000009094F83C10012907D0012184F83C104C
:1051100021688B68DB0702D011E00220F8BD8B68A4
:1051200043F001038B604049404B0968B1FBF3F148
:1051300001EB410100E0491E00910029FBD12168EB
:105140008B68DB0503D58B6823F480738B60216843
:105150008B68DB075DD0236C40F20165AB4343F401
:10516000807323644968490505D5216C21F40051F9
:1051700041F480512164216CC90404D5616C21F093
:105180000601616400E0606484F83C00A16B29487A
:10519000274DC863A16B28480864A16B2748C864E1
:1051A00021686FF0220008602068416841F080614A
:1051B00041602068816841F48071816021681346F4
:1051C00032464C31A06B00F019FA68681C49C006E1
:1051D000206806D0884224D1816811F0405F13D046
:1051E0001FE08842F8D0174A904203D1D1F8042337
:1051F000D206F1D0144A904213D1D1F8041301F031
:105200001F011029E8D30CE0816841F080418160E2
:1052100007E0206C40F010002064606C40F001005A
:1052200060640020F8BD00007000002040420F00C4
:10523000002301409D230008212400080B240008BE
:1052400000200140002101400022014090F83C1064
:1052500001290CD0012180F83C1001688A6822F0F5
:1052600001028A6001688968C90702D007E002204C
:105270007047016C21F4885141F001010164002163
:1052800080F83C100846704710B50446002094F89A
:105290003C1001290CD0012184F83C1021688A6857
:1052A00022F001028A6021688A68D20702D01DE0DC
:1052B000022010BD8A6822F480728A60A16B91F886
:1052C0003520022A07D1084600F014F818B1216CE5
:1052D00041F04001216421684A6822F080624A60FE
:1052E000216C21F4885141F001012164002184F8EE
:1052F0003C1010BD2DE9F0410446876D00F0C6FA60
:10530000064694F835000025022806D08020606506
:1053100084F834500120BDE8F0812068016821F054
:10532000160101602068416921F080014161206C13
:1053300008B9A06C20B12068016821F00801016063
:105340002068016821F0010101600CE000F09EFA84
:10535000801B052807D920206065032084F83500CC
:1053600084F83450D7E720680068C007EED194F87D
:105370005C103F208840B860012084F8350084F834
:1053800034500020C7E700002DE9F84304464FF0F1
:105390000009CDF8009063484FF41651A56D0068E0
:1053A000B0FBF1F72E6894F85C10082000FA01F1C8
:1053B00031420FD021680A6852070BD50A6822F0E3
:1053C00004020A6094F85C108840A860606D40F0A8
:1053D0000100606594F85C104FF0010808FA01F0D4
:1053E000304208D021684969090604D5A860606D7B
:1053F00040F00200606594F85C1004208840304260
:1054000008D021680968890704D5A860606D40F05C
:105410000400606594F85C1010208840304218D079
:1054200021680968090714D5A86020680168490344
:1054300004D50068000308D5A16C07E00168C90520
:1054400003D4016821F008010160216C09B12046F4
:10545000884794F85C1020208840304231D0216881
:105460000968C9062DD5A86094F83500052820687C
:10547000016806D0490347D5006800031DD4616C5C
:105480001CE021F0160101602068416921F08001D3
:105490004161206C08B9A06C20B12068016821F03E
:1054A0000801016094F85C103F208840A86084F8EF
:1054B000358084F83490216D1FE0E16B09B12046FE
:1054C0008847606D00282BD0606DC00714D0052080
:1054D00084F835002068016821F00101016000981E
:1054E000401C0090B84203D820680068C007F6D17D
:1054F00084F8358084F83490E16C002910D001B034
:105500002046BDE8F04308470168C905D5D40168C5
:1055100021F01001016084F8358084F83490CCE7E4
:10552000BDE8F883700000202DE9F041044600F04A
:10553000ADF906465CB1022084F83500002584F8F8
:1055400034502068016821F0010101600DE0012064
:10555000BDE8F08100F09AF9801B052805D92020CC
:105560006065032084F83500F2E720680068C00712
:10557000F0D12268116820480140D4E901031843A2
:10558000D4E903363343184363691843A3691843C6
:10559000E3691843236A18430843616A042903D165
:1055A000D4E90B1319430843106020684069666A08
:1055B00020F0070130460E43012704280CD1A06AD1
:1055C0000643E06A40B12046FDF756FD20B1402079
:1055D000606584F83570BAE7206846612046FDF7BB
:1055E00037FD94F85C203F2191408160656584F827
:1055F00035700020ACE700003F8010F02DE9F0414D
:105600000446866D90F83400002501280DD0012055
:1056100084F8340094F835700020012F07D084F806
:10562000340002252846BDE8F0810220FBE702276E
:1056300084F8357060652046FDF748FD94F85C10ED
:105640003F208840B0602068016841F01601016089
:10565000206C20B12068016841F0080101602068D9
:10566000016841F001010160DCE7000070B504460B
:1056700000F00CF90546601C02D004480078044490
:1056800000F004F9401BA042FAD370BD6400002072
:105690002DE9F84FDFF8BCA10022012503264FF0C9
:1056A0000F090AF1040BAAF1040E00BF0B6805FAFA
:1056B00002F42340A34270D10F7907F00307012FB2
:1056C00001D0022F16D187684FEA420806FA08FC7B
:1056D00027EA0C07D1F80CC00CFA08FC4CEA070CBE
:1056E000C0F808C04768A7430C79C4F3001494407D
:1056F0003C4344600C79E443A4070AD0C4684FEAF1
:10570000420C06FA0CF7BC438F6807FA0CF72743E4
:10571000C7600C7904F00304022C12D1D40800EB0A
:10572000840CDCF820405707FF0E09FA07F824EA3A
:105730000804D1F8108008FA07F848EA0408CCF801
:10574000208004684FEA420C06FA0CF7BC430F793C
:1057500007F0030707FA0CF7274307604C6814F4B7
:10576000403F70D03C4C276847F48047276024684E
:1057700022F0030704F480440094384C07EB040C37
:10578000DCF8084897074FEA177809FA08F7BC438E
:10579000334FB84202D1002724E054E0314FB842E1
:1057A00001D101271EE0304FB84201D1022719E094
:1057B0002E4FB84201D1032714E02D4FB84201D13A
:1057C00004270FE02B4FB84201D105270AE02A4FEA
:1057D000B84201D1062705E0284FB84201D107277A
:1057E00000E0082707FA08F72743CCF80878DAF82A
:1057F00000405746D1F804C09C435FEACC2C00D54A
:105800001C433C60DBF800405F46D1F804C09C4379
:105810005FEA8C2C00D51C433C60DEF800407746E4
:10582000D1F804C09C435FEA8C3C00D51C433C602B
:10583000084F083F3C68D1F804C09C435FEACC3C69
:1058400000D51C433C60521C102AFFF42FAFBDE86A
:10585000F88F0000083C014044380240003001400D
:10586000000002400004024000080240000C024018
:10587000001002400014024000180240001C0240C8
:105880000AB1816170470904FBE7000001488068A4
:1058900070470000640000200248816802781144CB
:1058A00081607047640000200B4810B5016841F426
:1058B00000710160016841F480610160016841F498
:1058C00080710160032000F06FF80F2000F006F8EF
:1058D00000F024F8002010BD003C024070B50D4DD2
:1058E00004464FF47A712878B1FBF0F00A49096850
:1058F000B1FBF0F001F02AF848B9102C07D20022D1
:105900002146501E00F030F800206C6070BD012070
:1059100070BD000064000020700000200A4808B537
:10592000016841F480410160006800F4804000900B
:105930000548001F016841F080510160006800F0D7
:105940008050009008BD000044380240002809DB68
:1059500000F01F02012191404009800000F1E02089
:10596000C0F8001170470000F0B40E4B1B680C46E5
:10597000C3F30223C3F10705042D00D90425191D23
:10598000072901D2002300E0DB1E012606FA05F1FB
:10599000491E214099409E40761E16403143F0BC7E
:1059A00004F07EBA0CED00E0064900F0070208683A
:1059B0004FF6FF03184040EA0220034A10430860F4
:1059C000704700000CED00E00000FA057047006829
:1059D000416200207047F0B50368586A39B19C6A8B
:1059E0004FF4827600EB144400204D1E0AE040EA9A
:1059F000024098620FE006EB8007DF59401C04EB81
:105A00001744C0B2A842F6D344EA02404FF4807271
:105A100002EB810158500020F0BDD0F8080503F0DA
:105A200015B901EBC10200EB8202D0F80805D26C77
:105A300003F06AB801EBC10200EB8202D0F808055E
:105A4000D2F88C2203F0BBB8D0F8080503F000B9F7
:105A50000A0601F00F0101EBC10100EB810101D544
:105A60003C3101E001F51F71006804F035B870B5F4
:105A700004460B0601F00F0000EBC00104EB8101AE
:105A80004FF001024FF0000503D581F83D203C3175
:105A900003E081F87D5201F51F71087094F8BC0491
:105AA000012808D084F8BC24206803F0CFFC84F8D7
:105AB000BC54002070BD022070BD70B5044601F0DA
:105AC0000F006268904201D9012070BD0B0601F001
:105AD0000F0101EBC10104EB81014FF001024FF016
