:020000040800F2
:1000000080F500209502000819A40008778D0008EB
:100010008192000859130008D5EB00080000000089
:1000200000000000000000000000000019B80008F7
:10003000651900080000000097A500080DC8000819
:10004000AF020008AF020008AF020008AF020008CC
:10005000AF020008AF020008AF020008AF020008BC
:10006000AF020008AF020008AF020008AF020008AC
:10007000AF020008AF020008AF020008AF0200089C
:10008000AF020008AF020008F5100008AF02000838
:10009000AF020008AF020008AF020008AF0200087C
:1000A000AF020008C5C80008AF020008AF02000890
:1000B000D1C80008DDC80008E9C80008AF02000880
:1000C000AF020008AF020008AF020008AF0200084C
:1000D000AF020008AF020008AF020008AF0200083C
:1000E000AF020008AF020008AF020008AF0200082C
:1000F000AF020008AF020008AF020008AF0200081C
:10010000AF020008AF020008F5C80008AF020008FF
:10011000AF020008AF020008AF020008AF020008FB
:10012000B5180008AF020008AF020008AF020008CF
:10013000AF020008AF020008AF020008AF020008DB
:10014000AF020008AF020008AF0200081DA40008BB
:10015000AF020008AF020008AF020008AF020008BB
:10016000AF020008AF020008AF020008AF020008AB
:10017000AF020008AF020008AF0200080000000054
:10018000AF020008AF02000800F002F800F073F8B8
:100190000AA090E8000C82448344AAF10107DA45E2
:1001A00001D100F068F8AFF2090EBAE80F0013F0C1
:1001B000010F18BFFB1A43F0010318471800010094
:1001C000380001000A444FF0000C10F8013B13F016
:1001D000070408BF10F8014B1D1108BF10F8015BA0
:1001E000641E05D010F8016B641E01F8016BF9D193
:1001F00013F0080F1EBF10F8014BAD1C0C1B09D1EA
:100200006D1E58BF01F801CBFAD505E014F8016B5B
:1002100001F8016B6D1EF9D59142D6D370470000ED
:100220000023002400250026103A28BF78C1FBD8FF
:10023000520728BF30C148BF0B607047642900F0E7
:100240002981752900F02681632900F08A847329A9
:1002500000F08F84002070471FB50EF093FF00F070
:10026000F7FE0400002000210EF046FF401C6060F5
:100270001FBD10B510BD00F0B3FE1146FFF7ECFF37
:100280000EF016FF00F0DAFE03B4FFF7F2FF03BC36
:1002900000F0E2FE0948804709480047FEE7FEE714
:1002A000FEE7FEE7FEE7FEE7FEE7FEE7FEE7FEE726
:1002B00004480549054A064B70470000B5C80008C8
:1002C0008901000880E1002080F5002080E5002001
:1002D00080E5002053EA020C00F069802DE9F04B24
:1002E0004FF00006002B1FBFB3FA83F503FA05F4A5
:1002F00024FA05F65E4012BF1643B2FA82F502FAFE
:1003000005F4C5F120051EBF22FA05FC44EA0C04E1
:10031000203556EA044C4FEA144418BF641C4FF0D1
:1003200000084FF00009904271EB030C39D300290B
:1003300019BFB1FA81F701FA07F6B0FA80F700FAAF
:1003400007F6C7F120071EBF20FA07FC46EA0C0695
:100350002037B6FBF4FCA7EB0507103F07F01F0B97
:10036000CBF120060CFA0BFB2CFA06F644BFB34681
:100370000026202FA4BF5E464FF0000B5BEA060C60
:1003800008BF4FF0010B19EB0B09ABFB027C48EBEC
:100390000608C01B06FB02CC0BFB03CC71EB0C0167
:1003A000C1E70B46024641464846BDE8F08B13B50F
:1003B0004FF000004FF00001AFF30080BDE81C409B
:1003C000704710B54C1084EA530404D54042C1F183
:1003D000000138BF491E1B4204D55242C3F100033D
:1003E00038BF5B1EFFF776FF14F0804F04D0404209
:1003F000C1F1000138BF491E14F0004F04D0524231
:10040000C3F1000338BF5B1E10BD00000FB41CB564
:100410000C0007AA009001D02044401E074B7B44EB
:1004200069460190069800F072FB002C03D06946E3
:10043000002000F07FFB1CBC5DF814FB1D070000D2
:1004400070B50C460546012A05D02878800600D5EF
:10045000EA69002302E0012305E05B1C934202D21B
:10046000E05C0028F9D1A869E618C01AA861286ADA
:10047000184428622846AFF3008004E0D5E9012142
:1004800014F8010B9047B442F8D32846AFF300802C
:1004900070BD00002DE9F041064600241068752962
:1004A000314616A510D0AFF30080002802DA404292
:1004B00013A507E031688A0701D512A502E04907B4
:1004C00004D511A5012401E0AFF3008000210A2228
:1004D00006F1240709E0B0FBF2FCB0FBF2F302FBEB
:1004E0001C00303078541846491C0028F3D12346AC
:1004F0002A463046BDE8F04100F0AABA00000000EC
:100500002D0000002B000000200000002DE9F0412C
:100510000F460546002028622846E968884770B3E0
:10052000252805D0D5E901219047286A401CF2E72B
:10053000E9682846002688476C2804460AD0682CBB
:1005400008D04C2C35D06A2C31D0742C31D07A2C78
:100550002FD016E0E968064628468847B042044690
:1005600008D16C2E23D04FF480662846E96888476E
:10057000044606E06C2E03D04FF4807601E01EE0C6
:100580004026E4B1A4F14100192802D8203446F4F1
:1005900000663A46214628462E60FFF74FFE60B1BE
:1005A000012808D0FF1D27F007070837B4E7802689
:1005B000DBE70026D9E73F1DAEE72046B2E7286A11
:1005C000BDE8F0810FB400B58DB010A9099000917D
:1005D0000B904FF0FF300A9000200C9006487844B2
:1005E0000690064878446A4607900F9909A800F0DB
:1005F000D9FA0DB05DF814FBE3050000FB0500001F
:100600002DE9FF5F1D464FF0FF3B91464FF000087C
:100610005F46D5E90146A96901987F1C8847296A88
:10062000824688470028F6D1BAF1FF3F0CD0002E51
:1006300024F4C06419DD600614D5BAF12B0F09D07B
:10064000BAF12D0F0ED103E0584604B0BDE8F09F7B
:1006500044F48064A96901987F1C8847761E82460D
:10066000002E02DDBAF1300F03D0B9F1000F26D011
:1006700032E0A969761E01987F1C44F40074884713
:10068000002E824605DDBAF1780F06D0BAF1580F78
:1006900003D0B9F1000F10D01EE0B9F1000F02D065
:1006A000B9F1100F18D1A969761E01987F1C24F4A6
:1006B000007488478246102002E0082000E00A20EB
:1006C000814609E0A96908FB0908761E01987F1C8C
:1006D00044F4007488478246002E05DD49465046A2
:1006E00000F04BFA0028EDDAE96901988847A00587
:1006F00002D46FF00100A8E7E00725D1600613D50A
:10070000600502D5C8F1000000E0404629680A1DD6
:100710002A600968220501D5087015E0220701D575
:10072000088011E008600FE02868011D296000685A
:10073000210502D580F8008006E0210702D5A0F847
:10074000008001E0C0F8008038467EE710B5431C09
:1007500002E010F8011B71B18107FAD14FF00132AC
:1007600002C88C1A8C4314EAC211F9D0C01A0A06C6
:1007700003D0C01E10BDC01A10BD0A0401D0801ED7
:1007800010BD0902FCD0401E10BD40EA010370B547
:100790009B072ED14FF00136042A2AD308C810C96E
:1007A0009D1B9D43121F15EAC61517D0D8B2E1B2A2
:1007B000401A50EA056110D198B2A1B2401A50EA2D
:1007C00005410AD123F07F4024F07F41401A50EACE
:1007D000052102D1180EA0EB146070BDA342DBD03E
:1007E00018BA21BA884201D9012070BD4FF0FF30FC
:1007F00070BD0AB9002070BD10F8013B11F8014B23
:1008000063B1A3420AD1521E08D010F8013B11F87F
:10081000014B1BB1A34201D1521EEDD1181B70BD7B
:10082000032A40F2308010F0030C00F0158011F81C
:10083000013BBCF1020F624498BF11F801CB00F8F4
:10084000013B38BF11F8013BA2F1040298BF00F848
:1008500001CB38BF00F8013B11F0030300F0258005
:10086000083AC0F0088051F8043B083A51F804CB2C
:10087000A0E80810F5E7121D5CBF51F8043B40F8F2
:10088000043BAFF30080D20724BF11F8013B11F8FD
:1008900001CB48BF11F8012B24BF00F8013B00F841
:1008A00001CB48BF00F8012B704710B5203AC0F0CB
:1008B0000B80B1E81850203AA0E81850B1E8185061
:1008C000A0E81850BFF4F5AF5FEA027C24BFB1E89E
:1008D0001850A0E8185044BF18C918C0BDE810400F
:1008E0005FEA827C24BF51F8043B40F8043B08BF18
:1008F0007047D20728BF31F8023B48BF11F8012BDF
:1009000028BF20F8023B48BF00F8012B70474FF08A
:10091000000200B5134694469646203922BFA0E84F
:100920000C50A0E80C50B1F12001BFF4F7AF09075B
:1009300028BFA0E80C5048BF0CC05DF804EB89004C
:1009400028BF40F8042B08BF704748BF20F8022B8F
:1009500011F0804F18BF00F8012B704710B5044606
:1009600010F0030F08BF11F0030F40F015804FF097
:10097000013E121FC0F20E8051F8043BA3EB0E0C97
:100980002CEA030C1CEACE1C08BF40F8043BF0D054
:10099000A1F1040102F10402521E08DB11F8013B2F
:1009A000002B00F8013BF7D1114600F02BF920464F
:1009B00010BD00004FF0013C50F8042B51F8043BEF
:1009C0009A4221D1A2EB0C03934313EACC1317D123
:1009D00050F8042B51F8043B9A4215D1A2EB0C03BA
:1009E000934313EACC130BD150F8042B51F8043B7A
:1009F0009A4209D1A2EB0C03934313EACC13DBD048
:100A00004FF00000704700BFD01A01BAB1FA81F16F
:100A100001F0180122FA01F0CB40C1F12001DBB254
:100A2000C0B2C01A2CFA01F3D11A914311EAC311D2
:100A3000E6D1704770477047704710B500F004F971
:100A4000006810BD10B5044600F0FEF8046010BD4B
:100A50002DE9F0470D4699469246044600F12408D8
:100A60000168880604D5E06921F01001216000E0EA
:100A70000120A84201DD471B00E00027A1697A1987
:100A800002EB0900081AA0612078C00602D42046B3
:100A9000AFF30080002608E0D4E901211AF806002F
:100AA0009047206A401C761C20624E45F4DB20787B
:100AB000C0060AD52046AFF3008006E0D4E9012144
:100AC00030209047206A401C2062381EA7F10107A1
:100AD000F4DC07E0D4E9012118F805009047206A0A
:100AE000401C2062281EA5F10105F3DC2046AFF36F
:100AF00000802078000602D50220BDE8F0870120A2
:100B0000FBE7000001694A1C02610878704700B5E4
:100B10008FB0CDE901310021059105497944CDE936
:100B2000031011466846FFF7F1FC0FB000BD00004E
:100B3000E5FFFFFF0A6802F8010B0A607047D1E980
:100B400000239A4202D2531C0B601070704710B5FC
:100B5000436913B1AFF3008001E0FFF771FC01209E
:100B600010BD127800F124010A7000224A7001229F
:100B7000EDE711684FF0FF32E9E73A2800D230384C
:100B800020F02002412A01D3A2F13700884201D38C
:100B90004FF0FF3070470000026811441378016085
:100BA00018467047D1600549794451610449794438
:100BB000116200211161114600F054B8EDFFFFFFF2
:100BC0009F000000426842B1016811F8013B23B167
:100BD000521EC0E90012184670470121C160881EEC
:100BE000704742685AB1C368016843B983688B4251
:100BF00005D0491E521CC0E90012002070474FF07A
:100C0000FF3070474FF000020429C0F0128010F04E
:100C1000030C3FF47EAECCF1040CBCF1020F18BF04
:100C200000F8012BA8BF20F8022BA1EB0C01FFF765
:100C300070BE5FEAC17C24BF00F8012B00F8012BD5
:100C400048BF00F8012B7047004870471CE10020A6
:100C500010B5044600F0EAF90068005D00F00100FC
:100C600010BD00002DE9F34F4FF0000A0C46564628
:100C70008DB001200C9001F10C000B9062690B9873
:100C800001219047051E2DD0252D2CD0216A8847A3
:100C9000C0B162690B9801219047216A88470028FA
:100CA000F7D16269411E0B98904700E0761CA1695C
:100CB0000D988847216A88470028F7D1E1690D9887
:100CC0008847DBE7A1690D988847A842074601D10C
:100CD000761CD3E7E1690D9888477F1C02D1BAF1F1
:100CE000000F6FD06CE162690B9800273D463946D2
:100CF00090472A2804D162690B9801219047012569
:100D0000DFF8D08262690B9801219047A0F1300191
:100D10000A290AD24745E5DC07EB870100EB4107CA
:100D2000303FDFD445F01005ECE7E90601D46FF061
:100D300000476C280AD04C2814D0682815D06A289F
:100D40000DD074281CD07A281AD01DE062690B9847
:100D5000012190476C2802D045F0040514E045F0CD
:100D600002050DE045F020050AE062690B980121BB
:100D70009047682802D045F0080505E045F4006575
:100D800062690B9801219047C4E9015765283DD05D
:100D900019DC58287AD00CDC452837D004DC25280B
:100DA00026D041289ED131E046282FD0472899D11E
:100DB0002CE05B2877D0612828D063287CD0642879
:100DC00023D15AE0F7E06F2848D008DC66281DD010
:100DD00067281BD0692821D06E2816D127E07028FB
:100DE00045D0732868D0752847D078280DD14DE0BC
:100DF000A1690D988847252805463FF469AFE16948
:100E00000D9888476D1C3FF46AAFD9E00D992346D1
:100E10006A466FF00100AFF30080C6E045F0400085
:100E200023464FF000026060A80736D43EE0E80792
:100E30007FF447AF2068011D21600068290501D5B6
:100E400006701BE7290701D5068017E7A90703D518
:100E5000F117C0E9006111E706600FE745F04000B7
:100E600023464FF008026060A80716D41EE040F643
:100E70000E0125EA0100606016E045F040002346BF
:100E80004FF00A026060A80707D40FE045F0400069
:100E90006060A80708D5234610220D996FF0010065
:100EA000AFF3008081E007E0102223460D996FF038
:100EB0000100FFF7A5FB78E04FF0000963284F46DB
:100EC000C8464B46CB4602D05B2807D039E0207994
:100ED000C00601D40120A060012732E06269D4F885
:100EE0000CB00B98012190475E2807D14FF0010903
:100EF00049466269D4F80CB00B989047216939B91A
:100F000000210A4603AB43F82120491C0829FADBDB
:100F1000D8B3216949B308F1010862690B9801212E
:100F200090475D28F4D1B9F1000F09D0002003A942
:100F300051F82020D24341F82020401C0828F7DB3C
:100F400003AB2069002820794FEA40701ED05B4631
:100F50002246CDF80080CDE901970D9900286FF069
:100F6000010020DAAFF300801FE0C11703AA00EBF5
:100F7000D1614B1121F01F0102EB8302411A13686A
:100F80000120884003431360C7E719E00D9922460A
:100F900000286FF00100009702DAAFF3008004E050
:100FA000AFF3008001E0AFF3008000280ADA401CB4
:100FB00006D10C9820B14FF0FF300FB0BDE8F08F94
:100FC0005046FAE7E90701D10AF1010A0644002078
:100FD0000C9053E6CCCCCC0C004870471CE10020B0
:100FE0007546FFF7F9FFAE4605006946534620F007
:100FF0000700854618B020B5FFF75AF9BDE8204034
:101000004FF000064FF000074FF000084FF0000BC4
:1010100021F00701AC46ACE8C009ACE8C009ACE877
:10102000C009ACE8C0098D467047000010B500F05B
:101030000FF8001D10BD00BFC1E0000010B5044650
:10104000AFF300802046BDE81040FFF71DB9000057
:10105000004870473CE1002001491820ABBEFEE784
:1010600026000200704710B50146806B026C12F03A
:10107000500F05D0026CD20626D505F027FB10BD17
:10108000016C41F40071016401688A6812F0405FEC
:1010900017D1027EAAB9CA6A12F4700F02D08A6808
:1010A00052050ED44A6822F020024A60016C21F4F5
:1010B00080710164016CC90403D4016C41F0010129
:1010C000016405F001FB10BD806BC26CBDE81040EF
:1010D0000846104710B5806B40210164416C41F017
:1010E0000401416405F0F2FA10BD10B5806B05F003
:1010F000ECFA10BD014805F0EABA0000F401002046
:10110000464910B54A6822F440324A604A6843684A
:101110001A434A6001684A6822F480724A60016892
:101120004A68036942EA03224A6001684A6822F079
:1011300040724A6001684A6883681A434A600168DD
:101140008A6822F400628A6001688A68C3681A4368
:101150008A60816A6FF07062D14201688A6822F009
:1011600070628A6001688A680CD0836A1A438A6058
:1011700001688A6822F040528A6001688A68C36AFE
:101180001A4301E022F040528A6001688A6822F026
:1011900002028A6001688A68037E42EA43028A602A
:1011A00090F82010002901684A680FD042F40062CC
:1011B0004A6001684A6822F460424A6001684A68ED
:1011C000174C436A04EB43331A4301E022F40062F4
:1011D0004A600168CA6A22F47002CA620168CA6A77
:1011E000838B104C04EB03531A43CA6201688A686C
:1011F00022F400728A6001688A6890F8303042EA0E
:1012000043228A6001688A6822F480628A600168E9
:101210008A68406942EA8020886010BD002301404E
:1012200000E0FFFF0000F0FF032801D3002070471B
:10123000014931F8100070470000002010B503226A
:101240000449054805F06CFB08B1002010BD0120E1
:1012500010BD000000000020F401002010B508F0CF
:101260005DF804F00FFE04F0B3F904F061F800F04B
:1012700061FA09F0A3FC0AF037F80AF003FE09F05E
:1012800095FA09F035FD00F09DFD02490020087037
:1012900010BD00001401002010B504F00FFF04F091
:1012A000EDFD806804F0DCFA00F0D6FA09F08EFC5F
:1012B0000AF09CF900F01AF809F06CF800F0CEFD85
:1012C000BDE8104003F068B810B504F079FE09F0ED
:1012D0001DFE09F071FBBDE810400BF025B810B5FC
:1012E00009F0CEFEBDE8104009F078BB70B5194C8E
:1012F0000425207860B101281DD002280FD10120DB
:1013000004F04AF9A8B109F0AFFD90B103201FE045
:1013100009F0E6FF0178052902D0062909D070BD41
:1013200090F84A000028FAD00AF0E4F808B1012049
:101330000EE0257070BD09F0CFFF01780D2902D0B5
:101340000E29F6D070BD90F824000028FAD00220B3
:10135000207070BD14010020FEE7002070470000DF
:1013600001490020087070476C00002010B5084C3F
:101370000020207005F004FE606000220549064848
:101380000CF022F8054904480CF011F8002010BDBB
:101390006C000020E010002004040020E008002081
:1013A00010B50446096800F0DFFA214603480BF047
:1013B000FEFF02480BF0D4FF002010BD0404002003
:1013C00001490020087070476C0000200548D0F8E3
:1013D000BC0210B1D0F8140208B1002070470120FF
:1013E00070470000040400202DE9F04180461548B4
:1013F0000F46D0F8BC5265B105F0C2FD0646D5F8DF
:101400001402114C80B1207818B16068301A642839
:1014100002D20120BDE8F08181210A480CF0E5FAF2
:101420000020C5F8140220703A46414605480BF0EA
:10143000CBFF04480CF042F80028EBD101212170C9
:101440006660E7E7040400206C000020B4EEC10AE7
:10145000F1EE10FA02DDB0EE410A7047B4EEE00A98
:10146000F1EE10FAF9D2B0EE600A704700B558B14B
:10147000B5EEC00AF1EE10FA06D9F5EEC00AF1EEAB
:1014800010FA01D9002901DC002000BD9FED0B1AE4
:1014900020EE010A9FED0A1A20EE011A80ED001AD3
:1014A0009FED081A20EE010A80EE201A80ED011A45
:1014B000816100F009F8012000BD0000DB0FC94088
:1014C000B37BF23A6666E63E00280AD000219FED23
:1014D000050A80ED020A80ED030A0161416101778E
:1014E0004177704700000000B5EEC00AF6EE000A32
:1014F000F1EE10FA02DB30EE200A01E030EE600A75
:10150000BDEEC00A10EE100A704708B1002901DCD8
:10151000002070478161012070477FB50024089D3D
:10152000CDE900540294039400F002F87FBD00005E
:1015300070B504002DED088B0F9E9DED0E9ADDED2C
:101540000D9A0C987DD0C91A00EE101A101A94ED5D
:10155000001AF8EEC00A00EE100AD4ED021A94ED5B
:10156000012AB8EEC00A21EE20BA42EE201AF8EEA7
:10157000E90A61EE00AA94ED031A002002EE001AB7
:101580003BEE210AB8EEC92A30EE200A7AEE810A33
:10159000B0EE408A70EE828AD4ED060A20EE002A70
:1015A0002077F8EEE02A607708EEA82A22EEA2AAB9
:1015B000B4EECA2AF1EE10FA4DDD01253EB3B5EEC8
:1015C000C00AF1EE10FA22D2B8EEE01AF8EEE00A04
:1015D000F1EE600AFFF73AFFB0EE408AB0EE4A0A39
:1015E00008EE480AB5EEC00AF1EE10FA01D29FEDFE
:1015F000220A0DF083FCB0EE401AB0EE680AF1EE5C
:10160000410AFFF723FFF0EE408A65770FE0B0EE66
:10161000420A0DF073FCF0EE400A94ED060AB8EEB3
:10162000C01A81EE200A28EE008A68EE808AF8EE61
:10163000E90A257738EE4B0A30EE600A84ED020A9B
:1016400000E016E038EEEA0AF8EEC90A30EE600A69
:1016500084ED030A03E0C4ED021A84ED031AB0EE30
:10166000480AFFF741FFB0EE680A2061FFF73CFF30
:101670006061BDEC088B70BD000000002DE9F05FDB
:10168000294800264FF6FF7990F824003546C846D1
:10169000B346B246002844D000270020FFF7C4FD1F
:1016A00004460120FFF7C0FD264405444C4500D206
:1016B000A1465C4500D9A346404500D2804650452E
:1016C00000D98246012005F047FB7F1CB7F5806FEB
:1016D000E3D3154806F50076C6F38F22828005F520
:1016E0000075C5F38F21C180ABEB09030381AAEB21
:1016F000080343810123037640F24C43A2F2DC52FB
:101700009A4209D840F2DC52914205D340F6282291
:10171000914201D8012100E00021417600F09CF8BF
:101720000120BDE8F09F000000A1002000487047A4
:1017300000A10020F0B51F4D89B00024EC612C629F
:1017400085F824402C766C76AC76202168466C6156
:10175000FFF7DDF80126CDE902644FF4E0200690A2
:1017600030058DF8144007908DF815400E20CDE916
:1017700000060227049769460F4804F039FD002847
:1017800016D10F20CDE9000769460B4804F030FD63
:1017900000280DD1FFF752FD002809D085F82460FC
:1017A0000A2005F0D9FA09B0BDE8F040FFF766BF9E
:1017B00009B0F0BD00A10020F401002044F2740142
:1017C000484340F6FF7190FBF1F07047034A937E67
:1017D000002B01D1C2E907017047000000A10020E1
:1017E00070B50F4C94F8240048B1607E38B1A07EEB
:1017F00098B900250B48656104F01EFE08B1002071
:1018000070BD0120A0760421074807F0C1F920B17E
:10181000A576044804F082FEF1E7012070BD0000C7
:1018200000A10020F40100207403002010B5074C33
:10183000A07E002808D00421054807F00DFA0548CD
:1018400004F06CFE0020A07610BD000000A1002076
:1018500074030020F401002010B50020FFF7E4FC21
:1018600004460120FFF7E0FC01460548807E002881
:1018700004D12046BDE8104000F004B810BD0000BF
:1018800000A1002070B50A4C0D4620806180217EA9
:1018900051B1A188081AFFF791FFE060E088281A8B
:1018A000FFF78CFF206170BD0020E060FAE70000C8
:1018B00000A10020014805F0DDB800003C02002036
:1018C00001681823CAB2103AB2FBF3F2054B6FF36A
:1018D0000901032A9B5CC36500D9091D816508467F
:1018E000704700008EF1000810B5014600208B699A
:1018F0008A6A4FF0C07453B1B3F5005F15D072B16E
:10190000012A0CD0022A0AD0032A09D104E01AB114
:10191000012A06D0022A03D1C96AC90100D50120D3
:1019200010BDC96AA142FAD010BD002AF7D0012A21
:10193000F2D0022AF3D0032AF3D010BD30B50468E8
:10194000256825F480252560046863608368402B42
:10195000036803D099600068C26030BD9A60006877
:10196000C16030BD704700002DE9F0470F4606000A
:101970003DD000244FF00109A0461E4D35E0305DFA
:101980000D2805D00A2803D095F84210F1B128E0BF
:10199000B5F8400040B3B5F8401005F80180A5F84F
:1019A000408015A11348FFF705F860B115A1114853
:1019B000FFF700F838B116A10E48FEF7FBFF10B193
:1019C00085F8429010E085F843900DE0B5F840109E
:1019D0003F2906D2B5F840106854B5F84000401CC5
:1019E00000E04046A5F84000641CBC42C7D3BDE8F7
:1019F000F0870000A0200020766F66612073746F6E
:101A00007000000073706565642073746F7000006F
:101A1000706F732073746F700000000070B5354CE8
:101A20008CB094F8520088B1022820460CD000F502
:101A3000267000BF02F0FAFC002803D014F8520F01
:101A4000401E20700CB070BD5830F3E794F8510080
:101A500070B1B4F84C00B4F84E10884211D326A0EF
:101A600002F0E4FC0028EDD0002084F85000E9E703
:101A7000244802F0DBFC0028E4D0012084F8510067
:101A8000E0E7002008F096F8B4F84C300DF11C0C9B
:101A900003EB830100EB8100B0F90C10867CB0F9F8
:101AA0001050B0F90E208CE86600B0F904100DF16A
:101AB0000C0CB0F90A60B0F90850B0F906208CE8B7
:101AC0006600B0F90210B0F9002032205843CDE989
:101AD000000202910CA24FF410711648FEF796FC1A
:101AE000144802F0A3FC0028ACD034F84C0F401C82
:101AF0002080A7E7A02000204451545F454E440DAC
:101B00000A000000B4F800084451542C25752C2517
:101B10006C752C25642C25642C25642C25642C25BF
:101B2000642C25642C25642C25642C25642C2575B7
:101B30000D0A00005028002030B587B0FFF746FCA2
:101B400000280FD01C4C94F8570068B1B4F854002A
:101B50000025C92811D319A002F068FC002801D083
:101B600084F8565007B030BD18A002F05FFC002882
:101B7000F8D0012084F85700F4E705AB04AA03A9C4
:101B800009F090FB0028EBD003AB93E807008DE849
:101B90000700B4F854301BA24FF410712048FEF730
:101BA00035FC1F4802F042FC0028DBD034F8540F0B
:101BB000401C2080D6E70000A020002043414C4478
:101BC0004154415F454E440D0A00000043414C44DE
:101BD0004154412C696E6465782C666F727761722E
:101BE000645F636F756E742C726576657273655F82
:101BF000636F756E742C6D6964706F696E745F715C
:101C0000310D0A0043414C444154412C25752C258B
:101C10006C642C256C642C256C640D0A000000009B
:101C200050280020072813D2DFE800F00406080A35
:101C30000C0E100007A0704708A0704709A070475D
:101C40000AA070470BA070470CA070470EA0704709
:101C50000FA0704769646C650000000072616D70D0
:101C600039300000686F6C6439300000726F746145
:101C700074653000686F6C6430000000636F6D70D5
:101C80006C657465000000006661756C740000008E
:101C9000756E6B6E6F776E000F2827D2DFE800F04D
:101CA000080A0C0E10121416181A1C1E20222400EA
:101CB0000FA0704710A0704711A0704712A0704786
:101CC00015A0704718A070471AA070471CA0704755
:101CD0001FA0704722A0704726A070472AA0704717
:101CE0002DA0704730A0704732A0704733A07047D6
:101CF00069646C650000000072616D700000000096
:101D0000686F6C64000000007072656C6F61645FE6
:101D100072657665727365007072656C6F61645F81
:101D2000736574746C65000072657475726E5F7AA9
:101D300065726F007A65726F5F736574746C6500AD
:101D4000666F72776172645F6D6F76650000000088
:101D5000666F72776172645F736574746C6500009E
:101D60006F76657273686F6F745F666F727761729A
:101D7000640000006F76657273686F6F745F7365DF
:101D800074746C6500000000726576657273655F3F
:101D90006D6F766500000000726576657273655F31
:101DA000736574746C650000636F6D706C65746549
:101DB000000000006661756C74000000756E6B6E4B
:101DC0006F776E0070B5214D002425F8404FAC7040
:101DD000EC702C7105F0D4F8A860AC81EC812C7407
:101DE0006C74AC74AC82AC75EC752C7685F858428A
:101DF000174885F8984485F8D84620F8504F40F6A3
:101E0000D8614480047144718471C4710472447255
:101E10008472C460046104754475847584610477B8
:101E20000462446280F8284009487C300160094916
:101E300041604EF6602181600C304FF41661016004
:101E4000322141600449816070BD0000A020002063
:101E5000BC27002070110100400D030070B51E4822
:101E60001E4C90B090F85500002588B994F81807DA
:101E700070B1FFF7ABFA58B104F59B600646FEF768
:101E800065FC81B23046FFF7AFFA08B984F81857FD
:101E900094F8430068B172B684F8435084F8425015
:101EA00062B608F05FFD08F057FA02F027FF10B0A5
:101EB00070BD94F842000028F9D072B63F2207495D
:101EC0006846FEF74BFD8DF83F5084F8425062B6ED
:101ED000684600F005F8EAE7BC270020A0200020B3
:101EE0002DE9F14FFA4C8EB094F85500D0B1F9A11C
:101EF0000E98FEF75FFDA8B1F9A10E98FEF75AFD06
:101F000080B10B22FAA10E98FEF73FFC50B194F875
:101F10006400002878D00922F8A10E98FEF735FC5D
:101F2000002871D109F0A4FF90F84B00002849D097
:101F3000F5A10E98FEF73EFD002843D0F5A10E98BE
:101F4000FEF738FD00283DD094F8640030B1092236
:101F5000EAA10E98FEF719FC002833D00422F1A163
:101F60000E98FEF712FC00282CD00622EFA10E9846
:101F7000FEF70BFC002825D0EEA10E98FEF71AFD07
:101F800000B30B22DAA10E98FEF7FFFBD0B1EFA150
:101F90000E98FEF70FFDA8B1EDA10E98FEF70AFD11
:101FA00080B1ECA10E98FEF705FD58B1EAA10E989C
:101FB000FEF700FD30B1EBA10E98FEF7FBFC08B177
:101FC000EBA0E9E309F0F8F908B3EFA10E98FEF7EA
:101FD000F1FCE0B1F0A10E98FEF7ECFCB8B1DCA189
:101FE0000E98FEF7E7FC90B1DAA10E98FEF7E2FC3E
:101FF00068B1D6A10E98FEF7DDFC40B1E9A10E98BC
:10200000FEF7D8FC18B100E0E7E3E8A0D9E709F053
:10201000B3F9D0B1ECA10E98FEF7CCFCA8B1EDA1BC
:102020000E98FEF7C7FC80B1C9A10E98FEF7C2FC5E
:1020300058B1C8A10E98FEF7BDFC30B1C3A10E98EF
:10204000FEF7B8FC08B1E6A0FEE3EDA10E98FEF79E
:10205000B1FC00287DD0BDA10E98FEF7ABFC002896
:1020600078D0E9A10E98FEF7A5FC002873D0B8A19E
:102070000E98FEF79FFC00286ED0B6A10E98FEF7D2
:1020800099FC4FF41075002867D0C6A10E98FEF792
:1020900091FC00287ED0A7A10E98FEF78BFC0028AB
:1020A000F8D0DBA10E98FEF785FC002873D0DDA1E7
:1020B0000E98FEF77FFC0028F8D0DEA10E98FEF700
:1020C00079FC0028F2D0DFA10E98FEF773FC0028FF
:1020D0007AD0E1A10E98FEF76DFC0028F8D0E4A1BB
:1020E0000E98FEF767FC0028F2D0E6A10E98FEF7E6
:1020F00061FC0028ECD009AAE9A10E98FEF762FA6B
:10210000012876D008AAECA10E98FEF75BFA012808
:1021100070D005AB04AAEDA10E98FEF753FA022881
:1021200069D00AAAEEA10E98FEF74CFA01287CD0DD
:102130000BAAF0A10E98FEF745FA012876D0F2A17D
:102140000E98FEF737FC002871D002AAF2A10E9873
:1021500004E066E367E36BE37DE37FE3FEF732FAD7
:102160005B4D41F271787C3501287CD0EEA10E9850
:10217000FEF720FC002877D063A10E98FEF71AFC2A
:10218000002872D063A10E98FEF714FC00286DD0D1
:10219000E8A101E070E372E30E98FEF70BFC002863
:1021A00065D0E7A10E98FEF705FC00287ED0E7A1D8
:1021B0000E98FEF7FFFB002879D049A10E98FEF794
:1021C000F9FB002874D000E077E3E4A10E98FEF755
:1021D000F1FB00286DD0E4A10E98FEF7EBFB002880
:1021E00068D0E4A10E98FEF7E5FB002863D003AAAF
:1021F00002E097E3A8E3B7E3E2A10E98FEF7E2F965
:10220000012859D003AAE4A10E98FEF7DBF90128B2
:1022100053D003AAE6A10E98FEF7D4F901284DD0B9
:1022200007AB06AAE6A10E9802E0A2E3B0E3B9E389
:10223000FEF7C8F9022842D00DAAE6A10E98FEF7D3
:10224000C1F940F6B83A01283AD003AAE5A10E98A0
:10225000FEF7B8F90126A5F5F367012831D003AAE6
:10226000E3A10E9804E0A5E3A5E3A5E38DE3A4E3D1
:10227000FEF7A8F9012825D0E0A10E98FEF79AFBF9
:10228000002820D040A10E98FEF794FB00281BD018
:1022900041A10E98FEF78EFB002816D0DAA10E9809
:1022A000FEF788FB002811D047A1B3E186E386E35F
:1022B00086E386E386E386E386E386E386E386E3D6
:1022C00086E386E386E386E386E386E386E300002F
:1022D000BC270020766F66612073746F7000000069
:1022E00070756C736520766F6661206F666600009E
:1022F00073706565642074756E652000766F666125
:1023000020706F7320000000737065656420737423
:102310006F70000073706565642073746174757309
:1023200000000000706F73200000000070756C7377
:1023300065200000616E676C65206F627365727660
:10234000657220737461747573000000656E6300BC
:10235000616463006275730073747265616D206FF0
:102360006E00000073747265616D206F6666000018
:102370006572723A207370656564206C6F6F7020AF
:10238000627573790D0A0000616C69676E20737461
:102390006174757300000000616C69676E20616292
:1023A0006F727400616E676C650000006572723A4E
:1023B00020726F746F7220616C69676E6D656E74E8
:1023C00020627573790D0A0063616C207374617407
:1023D0007573000063616C2061626F7274000000AD
:1023E0006572723A20656E636F6465722063616C1A
:1023F0006962726174696F6E20627573790D0A008B
:1024000068656C70000000007A65726F0000000063
:10241000616E676C652063616C20737461747573A1
:1024200000000000616E676C652063616C206F6E58
:1024300000000000616E676C652063616C206F6650
:1024400066000000616E676C65206F62736572766E
:102450006572206F66660000616E676C65206F6252
:1024600073657276657220736861646F770000002F
:10247000616E676C65206F62736572766572206F3E
:102480006E000000616E676C65206F627365727626
:1024900065722063616C696272617465640000003A
:1024A000616E676C65206F6273657276657220621B
:1024B0007720256C64000000616E676C65206164A4
:1024C00076616E636520256C64000000737065653D
:1024D000642074756E6520256C6420256C64000092
:1024E000737065656420667720726174696F20255A
:1024F0006C64000073706565642066772066697897
:10250000656420256C6400007370656564206677DF
:10251000206175746F0000007370656564207275CA
:102520006E20256C64000000737065656420737410
:1025300061727400706F732073746174757300003E
:10254000706F732073746F700000000070756C738F
:102550006520766F6661206F6E00000070756C7389
:1025600065206F6E0000000070756C7365206F66EB
:102570006600000070756C73652073746174757308
:1025800000000000766F666120706F7320646961DF
:102590006720256C64000000766F666120706F73A1
:1025A000206361707475726520256C640000000002
:1025B000766F666120706F7320256C6400000000E8
:1025C000706F732074756E6520256C6420256C64B3
:1025D00000000000706F73206C696D697420256CB9
:1025E00064000000706F732072656C20256C6400BD
:1025F000706F732061627320256C6400616C696781
:102600006E2073746172740063616C207374617204
:10261000740000000E98FEF7CDF900287ED0AFF2CE
:102620004C210E98FEF7C6F9002878D0ECA10E9840
:10263000FEF7C0F94FF00009002871D0EBA10E9809
:10264000FEF7B8F900286CD0EBA10E98FEF7B2F9AE
:10265000002867D0EAA10E98FEF7ACF9002878D0E0
:10266000EAA10E98FEF7A6F9002873D0EBA10E9808
:10267000FEF7A0F9DFF8B4B300286CD0ECA10E98F7
:10268000FEF798F9002867D0EDA10E98FEF792F9B1
:1026900000287DD0EEA10E98FEF78CF9002878D0A6
:1026A000EFA10E98FEF786F94FF4FA7B002871D05F
:1026B000EFA10E98FEF77EF900286CD0F0A10E98DD
:1026C000FEF778F90028F8D0F0A10E98FEF772F91D
:1026D00000287DD0F1A10E98FEF76CF9002878D083
:1026E000F2A10E98FEF766F9002873D0F2A10E98B9
:1026F000FEF760F900286ED0F2A10E98FEF75AF9A5
:10270000002869D0F3A10E98FEF754F90028F8D0FC
:10271000F2A10E98FEF74EF9002804E0EFE3EFE394
:10272000EFE3EFE3EFE376D0EFA10E98FEF742F987
:10273000002871D0F0A10E98FEF73CF900286CD06B
:10274000F2A10E98FEF736F9002867D002AB0CAA6A
:1027500003E0F3E3F3E3F3E3F3E3F1A10E98FDF712
:1027600031FF02286DD002AAF3A10E98FDF72AFFCF
:10277000012867D002AAF5A10E98FDF723FF0128D2
:1027800072D002AAF7A10E98FDF71CFF012804E001
:10279000F4E3F4E3F4E3F4E356E066D002AAF6A12E
:1027A0000E98FDF70FFF01287BD0AFF2D8410E98AD
:1027B000FEF700F9002875D0F3A10E98FEF7FAF89D
:1027C000002870D0F3A10E98FEF7F4F8B41E05E0CF
:1027D000F0E3F0E3F0E3F0E3F0E326E0002876D066
:1027E000EEA10E98FEF7E6F8002871D0EDA10E9844
:1027F000FEF7E0F800286CD0AFF2A4410E98FEF787
:10280000D9F8002866D0AFF2A4410E98FEF7D2F8AE
:10281000002875D003E0F1E3F1E3F1E3F1E3E3A095
:1028200012E0E84810E001F079F90FB0BDE8F08F50
:1028300006F076FD20B902F0C7FE90F8410030B1F5
:1028400001E0F0E3F0E3E0A001F0BCFAEDE703F013
:1028500083FBEBA0F8E701F0A7F8E6E708F0AAF998
:1028600041680091038801E0EFE3EFE3EAA2294623
:10287000F048FDF7CBFD73E001F0C0F8D5E7AFF20B
:102880005C410E98FEF796F870B10024AFF28041DB
:102890000E98FEF78FF80028EED006F041FD50B9F3
:1028A00004E0F0E3F0E3F0E30124EFE7204602F078
:1028B00073FE0028E0D1E048C6E7002402F07CFA6D
:1028C00090F88B0010B906F02BFD30B103E0F5E372
:1028D000F5E3F5E3F5E3D9A0B6E7AFF284410E984E
:1028E000FEF768F868B1AFF278410E98FEF762F82B
:1028F00048B1AFF270410E98FEF75CF828B105E0E0
:10290000F5E3012402E0022400E00324204602F063
:1029100093FF08B9D6A097E703F0B0FA806802F0F9
:10292000DFFEA9E7099800280CDB02F045FA90F8D1
:102930008B0038B906F0F4FC20B9099802F05CFF6E
:102940000028E9D1D7A07FE7089800280ADB02F029
:102950009FFB38B1E2A22946B648089BFDF756FD19
:10296000B44871E7E5A06FE7DDE9040101F016FB6B
:102970005BE70A98002806DB06F0D2FC18B90A9833
:1029800009F086FB08B9EBA05EE701F065F94CE7BA
:1029900006F0C6FC20B90B9809F094FB0028F4D18E
:1029A000F3A051E706F0BCFC18B909F01DFA0028A5
:1029B000EBD1F9E1FAE103E206E208E20AE20CE215
:1029C00011E214E21AE21FE223E22FE23BE267E2A5
:1029D0006BE276E2BEE2D5E2DBE2DDE2DFE20000BE
:1029E00063616C2064756D70000000006164632099
:1029F0007A65726F000000007465737420612B00AB
:102A000074657374206E6F69736500007465737408
:102A100020696C6F6F7020612B0000007465737407
:102A200020696C6F6F7020612D000000D4FEFFFFE5
:102A30007465737420696C6F6F7020622B000000E6
:102A40007465737420696C6F6F7020622D000000D4
:102A50007465737420647120696420333030000021
:102A6000746573742064712069642035303000000F
:102A700074657374206471206964203130303000D3
:102A800074657374206471206964000074657374E4
:102A900020647120697120353030000074657374D2
:102AA000206471206971203130303000766F6661AA
:102AB0002069642033303000766F666120696420BD
:102AC00035303000766F66612069642031303030F7
:102AD00000000000766F666120696400766F6661B1
:102AE0002069712035303000766F66612069712071
:102AF0003130303000000000766F6661206964205C
:102B00006379636C6520353030000000766F666154
:102B1000206971206379636C6520353030000000D6
:102B2000766F6661207370656564207374657020CC
:102B3000256C6420256C6400766F66612073706577
:102B4000656420686F6C6420256C6400766F666134
:102B500020737065656420706F736974696F6E208F
:102B6000256C6400766F6661207370656564206C07
:102B70006F6F7020256C6400766F666120737065DE
:102B8000656420256C64000074726163652064755F
:102B90006D7000007465737420612D00746573742A
:102BA00020622B007465737420622D006572723A86
:102BB00020756E6B6E6F776E20636F6D6D616E64E6
:102BC0000D0A000048F400086572723A20656E63D1
:102BD0006F646572207A65726F206C6F636B6564D9
:102BE00020616674657220656C65637472696361E7
:102BF0006C20616C69676E6D656E740D0A00000073
:102C00006F6B3A20656E636F646572207A65726FD0
:102C1000207365740D0A0000425553207261773DA0
:102C2000257520766F6C746167653D256C756D56F2
:102C30000D0A00005028002064F800086572723AFE
:102C400020616E676C65206F6273657276657220B5
:102C50006D6F646520726571756972657320737438
:102C60006F70706564206C6F6F700D0A000000005B
:102C70006572723A206F62736572766572206F6E4C
:102C800020636F6E666C6963747320776974682063
:102C9000616E676C652063616C6962726174696FF3
:102CA0006E0D0A006572723A206F62736572766506
:102CB0007220627720726571756972657320737412
:102CC0006F70706564206C6F6F7020616E6420316E
:102CD00030302E2E31353030487A0D0A0000000099
:102CE0006F6B3A20616E676C6520616476616E631C
:102CF000653D256C6475730D0A0000006572723ABB
:102D000020616E676C6520616476616E6365207218
:102D1000657175697265732073746F707065642076
:102D20006C6F6F7020616E6420302E2E31303075E4
:102D3000730D0A006572723A2073706565642066CF
:102D40007720726174696F2072657175697265733D
:102D50002073746F70706564206C6F6F7020616E8B
:102D600064203735302E2E3930300D0A0000000037
:102D70006572723A206669786564204964207265DC
:102D80007175697265732073746F70706564206CFF
:102D90006F6F7020616E64202D323530302E2E2DF5
:102DA0003130306D410D0A00D6A04DE5029800F695
:102DB000B831414573D24FF47A714843A86000E0BE
:102DC000A86801F0DBF930E507F0CCFDDDE500F0A7
:102DD000CFFEDAE507F0C6FD18E001F0A7F90028FC
:102DE000F1D1D3A030E501F089FFDDA02CE508F09A
:102DF0003BF808B1E0A002E0E8A025E5EFA000F074
:102E0000E1FF00F0D7FE10E500F0D4FE00F0B0FEC8
:102E10000BE594F864000028D5D100220121039825
:102E200001F03CFA0028CED1F0A00DE594F8640042
:102E30000028C8D101220021039801F02FFA0028B0
:102E4000C1D1F6A000E594F86400F8B107F0AAFC3F
:102E5000407FD8B107F0A6FC02680398C31710188A
:102E600043EBE2716FF000434FF000021B1A8A41FE
:102E700009DB4FF00042821A71F1FF3103DB07F0EA
:102E8000E7FC00289FD107F06DFD14E300221146F6
:102E9000039801F003FA002895D1EBA0D4E4F4E202
:102EA000DDE9060101F010F8BFE40D98411E51451F
:102EB00001D3EEA0C8E44FF47A71484300F0A2FFBA
:102EC000B3E407F06FFC407F00B307F06BFC0068D1
:102ED000039AC117801841EBE2716FF000434FF085
:102EE00000021B1A8A4109DB4FF00042821A71F17D
:102EF000FF3103DB07F0ACFC002887D104E056E08B
:102F00005DE05FE06EE07DE0E3A09DE402F0A0FF05
:102F1000039AC117801841EBE2716FF000434FF044
:102F200000021B1A8A4108DB4FF00042821A71F13D
:102F3000FF3102DB01F0AEF830B903E064E066E097
:102F400069E06DE0DFA07FE487F8446004F018F8E2
:102F5000B8645BE707F026FC407F18B1039807F0E0
:102F600077FC48B107F01EFC407F0028ECD10398A5
:102F700001F090F80028E7D1DBA065E455E057E0C8
:102F80005AE05EE008F048FA08B1DFA05CE4E4A093
:102F90005AE400F0C7FC48E408F0A8F8F9E708F0A4
:102FA000A9FA08B1E8A04FE4F0A000F00BFF00F090
:102FB00087FD3AE44BE04CE04FE052E056E008F089
:102FC000A0F8F4E708F088F990F8240040B1A7F8D9
:102FD000549087F8579087F8566087F8449024E417
:102FE000ECA031E406F09CF908B1F3A02CE4FEF764
:102FF00045FB00287FF42FACF9A025E43AE03BE044
:103000003EE043E0012162E200F040FB0DE40021DC
:103010004FF4967001E00021584600F0EFFA04E406
:103020004FF4967102E036E062E059460020F4E782
:1030300000214FF4967001E00021584600F066FB35
:1030400004E400214FF47A70F8E7F3E10DE2594609
:1030500001E04FF47A710020F0E700214FF4967000
:1030600001E00021584600F049FC07E400214FF43C
:103070007A70F8E7594601E04FF47A710020F2E7E0
:103080000021584604E0FBE109E217E2594600201E
:1030900000F00CFC6CE40C9800F6B83141450BD202
:1030A000DDF8088040F6B83118EB010F04DB574615
:1030B000B84501DC404505D1D0A00DE406E20AE2A6
:1030C0000BE20DE24FF47A7108FB01F8002348434C
:1030D0001A461946C5F8088001F01EF994F8570001
:1030E0000028D7D084F85A60C4E9177840E4FBE19F
:1030F0000298B0F57A7F03D010F57A7F00D08FE187
:1031000090E100006572723A207370656564206614
:1031100077206175746F20726571756972657320AF
:1031200073746F70706564206C6F6F700D0A0000AF
:103130006572723A2073746172742070756C736575
:10314000206D6F6465206265666F72652070756CB6
:10315000736520766F6661206F6E0D0A00000000B7
:103160006F6B3A2070756C736520766F6661206FA7
:1031700066660D0A000000006F6B3A2070756C7374
:103180006520696E707574206F6E2C203830302089
:10319000737465702F7265760D0A00006572723A5D
:1031A0002070756C736520696E707574207374611E
:1031B0007274206661696C65640D0A006572723A0A
:1031C0002070756C736520696E707574206973204A
:1031D000616C776179732061726D65643B207573F2
:1031E000652050554C5F454E0D0A00006572723ADD
:1031F00020766F666120706F736974696F6E2064EA
:103200006961676E6F73746963207374617274208F
:103210006661696C65640D0A000000006572723AAF
:1032200020766F666120706F736974696F6E2063BA
:10323000617074757265207374617274206661695F
:103240006C65640D0A0000006572723A20766F6644
:103250006120706F736974696F6E2073746172742A
:10326000206661696C65640D0A0000006572723A3F
:1032700020706F736974696F6E2073706565642068
:103280006C696D6974206F7574206F662072616E51
:1032900067650D0A000000006572723A20706F7356
:1032A0006974696F6E2072656C61746976652074EB
:1032B00061726765742072656A65637465640D0A7E
:1032C000000000006572723A20706F736974696F54
:1032D0006E206C6F6F702073746172742066616908
:1032E0006C65640D0A0000006572723A20706F739D
:1032F0006974696F6E207461726765742072656AA3
:1033000065637465640D0A006F6B3A20616C6967D0
:103310006E6D656E7420737461727465640D0A005D
:103320006572723A20616C69676E6D656E742070AB
:103330007265636F6E646974696F6E206661696C33
:1033400065640D0A000000006F6B3A20656E636FC4
:103350006465722063616C6962726174696F6E206A
:10336000737461727465640D0A0000006572723ACC
:103370002063616C6962726174696F6E207072653E
:10338000636F6E646974696F6E206661696C6564F1
:103390000D0A00006572723A206E6F2076616C69CA
:1033A000642063616C6962726174696F6E2064612C
:1033B00074610D0A000000006572723A2073746F28
:1033C000702070776D206265666F7265206164633E
:1033D0002063616C6962726174696F6E0D0A00002E
:1033E0006572723A2061646320646D61206E6F744F
:1033F00020737461727465640D0A00006572723A1C
:1034000020696E76616C69642073706565642073F1
:1034100074657020636F6D6D616E640D0A0000004D
:1034200033A0C2E44FF47A71484300231A460121C5
:10343000A86017E00298B0F5C87F04D010F5C87FE7
:1034400001D038A0B1E408F013FD90F8470038B17E
:1034500002984FF47A71484300230122A8601CE0CF
:103460003CA0A2E400F058FFADE4029800F6B831A9
:1034700041450AD24FF47A7148430123A8600BE01A
:10348000029800F6B831414501D33EA08DE44FF4D7
:103490007A7148430023A86000220021E2E794F8F3
:1034A000570008B108F02AFF94F8640008B107F04B
:1034B00059FA06F051FF01F021FC84E400F0D6FD3A
:1034C00097F850000028CFD137A06EE421460020A5
:1034D00000F0A6F977E4012100E021460120F7E79A
:1034E00087F8446038A060E487F844903CA05CE42E
:1034F0006572723A2063757272656E7420686F6CC3
:103500006420646961676E6F7374696320726571AA
:103510007569726573202B2F2D3130303072706DCC
:103520000D0A00006572723A20706F736974696FDA
:103530006E20646961676E6F737469632072657170
:103540007569726573202B2F2D34303072706D0DBC
:103550000A0000006572723A20736574206669780B
:103560006564204964206265666F726520706F73C0
:103570006974696F6E20646961676E6F73746963E3
:103580000D0A00006572723A2073706565642074DC
:103590006172676574206F7574206F662072616E4A
:1035A00067650D0A000000006572723A206E6F2098
:1035B000647120747261636520617661696C616217
:1035C0006C650D0A000000006F6B3A20656E636F3A
:1035D0006465722073747265616D206F6E0D0A00F0
:1035E0006F6B3A20656E636F6465722073747265E9
:1035F000616D206F66660D0A0000000030B599B05D
:103600000C4605460BAA06F069FC08B3DDE9131069
:103610000DF11C0C9DF86030179A8CE80F00DDE965
:103620001523DDE90D010DF10C0C8CE80F00DDE92F
:103630000B010094CDE901012B46064A4FF41071AD
:103640000548FCF7E3FE044800F0BCFB19B030BDB0
:1036500002A0F9E760FA0008502800206572723A6B
:103660002063757272656E74206C6F6F7020746564
:10367000737420707265636F6E646974696F6E2015
:103680006661696C65640D0A0000000000B597B0C2
:1036900008A806F0C5FCD8B19DF85430DDE90F014B
:1036A0000DF1100C149A8CE80F00DDE90C1209984A
:1036B0000E9B8DE80F00074A4FF410710648089BD7
:1036C000FCF7A4FE044800BF00F07CFB17B000BD6F
:1036D00002A0F9E7ECF90008502800206572723A60
:1036E0002063757272656E74206E6F6973652074E5
:1036F00065737420707265636F6E646974696F6E50
:10370000206661696C65640D0A00000010B5B0B0F8
:103710000DAA06F08BFCE8B317AC9DF8B82094E82E
:103720000B00CDE90910CDE90B3213AC94E80F0082
:1037300005AC84E80F00DDE91123DDE90D0101ACE2
:1037400084E80F00109800904FF41074234A21462B
:1037500023480F9BFCF75AFE214800F033FB0DF184
:10376000900C9CE80F000DF1240C8CE80F000DF17B
:10377000800C9CE80F000DF1140C8CE80F000DF18B
:10378000700C9CE80F000DF1040C8CE80F001B98E6
:10379000009000E01EE0134A214613481A9BFCF7F4
:1037A00035FE0DF1A80C9CE80F000DF1040C8CE81F
:1037B0000F00299800900D4A21460D48289BFCF7E0
:1037C00025FE09490220583981F8520000F04EFCCC
:1037D00030B010BD07A000F0F5FAF9E70CFB0008C7
:1037E00050280020E4F10008F8200020D0F2000862
:1037F000382300206572723A2064712063757272FA
:10380000656E74207465737420707265636F6E6486
:103810006974696F6E206661696C65640D0A0000E9
:1038200030B597B00C46054608AA06F0EBFC78B117
:103830000DF1100C0B989DF85430149A10998CE8E7
:103840000F00089ADDE90901002C03DD2B2302E0BB
:103850000AA00DE02D23CDE90032CDE902015DB1D2
:103860004223104A4FF410710F48FCF7CFFD0E4869
:1038700000F0A8FA17B030BD4123F2E76572723A42
:10388000206D6F746F72207465737420707265633D
:103890006F6E646974696F6E206661696C65640D32
:1038A0000A00000078F900085028002070B50C4686
:1038B000054601F023FA42F210734FF4FA722146E2
:1038C000284606F0B5FC002812D00A490020012243
:1038D00021F8500F488008718A71C87108724872C7
:1038E00081F828004A71044901F8440F087388736D
:1038F00070BD0000BC270020A020002030B5A3B080
:103900000C46054601F0FAF96A462146284606F0BB
:103910008DFB002803D09DF8840001F0C5F923B089
:1039200030BD000030B595B007F0DAFC04460078F1
:10393000FEF778F93034034694E827000DF1440C83
:10394000103C8CE8270027CC0DF1340C8CE82700C4
:10395000D4E9042554E906010DF1240C8CE8270074
:10396000A4F1240194F9180026C9CDE90750CDE946
:10397000051254E90B25A07E0DF1040C617E8CE844
:10398000270014F82F0C0090054A4FF410710548D9
:10399000FCF73CFD15B00348BDE8304000F012BA1A
:1039A00040F300085028002010B58AB0FDF7BEFE95
:1039B00041890DF1180C837E427E44698CE81E001B
:1039C0000489D0E90323C1880DF1080C8CE81E009E
:1039D00082884188CDE900120388064A4FF41071AD
:1039E0000548FCF713FD0AB00348BDE8104000F09D
:1039F000E9B9000020FF00085028002030B595B03C
:103A000001F0E2FD90F83C10D9B301293BD0022926
:103A10003BD003293BD01FA100F12C020DF1400C3B
:103A20003CCA8CE83C0000F11C020DF1300C3CCA91
:103A30008CE83C0090F8405090F83F40D0E90523D6
:103A40000DF1200C8CE83C00D0E9034290F83E30A8
:103A500004940792CDE90513D0E9001290F93D30A6
:103A600084688DE81E0090F841300C4A4FF41071C4
:103A70000B48FCF7CBFC15B00948BDE8304000F01E
:103A8000A1B908A1C8E708A1C6E709A1C4E709A12F
:103A9000C2E70000696E76616C696400C0FB0008D3
:103AA000502800206F666600736861646F770000BD
:103AB0006F6E000063616C6962726174656400001E
:103AC00030B58BB007F008FC04460078FEF7E4F848
:103AD0001434034694E827000DF11C0C103C8CE8CC
:103AE000270027CC0DF10C0C8CE8270014F8130CE0
:103AF000227C34F8121C8DE80700064A4FF410713E
:103B00000548FCF783FC0BB00348BDE8304000F0EB
:103B100059B9000088FF00085028002010B588B06F
:103B200002F0ACF9044605F0FBFB0146A28C94F8C8
:103B30002600E369CDE90601CDE9043204F108016C
:103B4000A0690EC9CDE90012CDE90230064A4FF452
:103B5000107106482368FCF759FC08B00348BDE81B
:103B6000104000F02FB9000010F900085028002084
:103B700010B586B006F016FE847F437F027F016990
:103B80000DF1080C8CE81E00C2688168CDE90012B6
:103B90000368064A4FF410710548FCF737FC06B07D
:103BA0000348BDE8104000F00DB9000020000108F6
:103BB0005028002030B5A1B007F07EF890F87D4085
:103BC00090F87C30826F416F1CAD85E81E00046F59
:103BD000C36E826E416E18AD85E81E00046EC36D23
:103BE000826D416D14AD85E81E00046DC36C426C9E
:103BF000016C10AD85E81E00C46B836B426B016BDA
:103C00000CAD85E81E00C16A826A8369046A456A50
:103C1000CDE90A21641BCDE90843446A036AC269FD
:103C2000017B04AD85E81E00846843680268416931
:103C30008DE81E000369064A4FF410710548FCF731
:103C4000E5FB21B00348BDE8304000F0BBB8000000
:103C500078000108502800202DE9F047B2B008F0A4
:103C600007F9044601F0A8F8816B0546C06B081AF5
:103C7000B0F5007F02DDA0F5806004E010F5007F64
:103C800001DA00F580604C4E4FF4806A80FB06013B
:103C900052460023FCF795FB0746E86F524680FB2F
:103CA000060100230835FCF78CFB8146686C524600
:103CB00080FB06010023FCF784FB8046E86F524638
:103CC00080FB06010023FCF77CFB064608F0D4F8D5
:103CD00094F8441094F84B30226CCDE92F10CDE9C4
:103CE0002D23EB6E95F88220A96E95F881000DF1D9
:103CF000A40A8AE80F00286EE96DAA6FCDE92710A3
:103D0000CDE92562286FCDE92308CDE92179AB6C97
:103D1000EA6C94F84A1094F849001DAE86E80F004A
:103D200094F84830B4F93E2094F84710A06B19AECF
:103D300086E80F00A38F626B94F83210208E15AEC8
:103D400086E80F00E36AA26AE969A86911AE86E80D
:103D50000F006B692A6994F8461094F845000DAE7F
:103D600086E80F00E0692968401A216A6A682B68B2
:103D70008A1A6968CDE90B20CDE90913636A226AC2
:103D8000E169A06905AE86E80F0063692269E16810
:103D9000A06801AE86E80F00606800902368074ABB
:103DA0004FF410710648FCF731FB32B00448BDE80F
:103DB000F04700F007B80000407E0500CCFC00088A
:103DC0005028002070B5040017D0FCF7BFFC81B26A
:103DD0002046FDF709FB00280FD0084D95F818077D
:103DE00000280AD1234606A24FF4107105F59B6006
:103DF000FCF70CFB012085F8180770BDA0200020FF
:103E00002573000010B504461149A0F57A70884268
:103E100001D310A016E006F0C5FC407F18B1204683
:103E200006F000FD90B1164816A24FF410718460A0
:103E30004FF47A7094FBF0F311480C30FCF7E6FA7B
:103E40000F480C30BDE81040FFF7BCBF13A0F9E7E6
:103E5000D9C22D006572723A20706F736974696FF0
:103E60006E207370656564206C696D6974206F7570
:103E700074206F662072616E67650D0A0000000095
:103E8000442800206F6B3A20706F73206C696D6955
:103E9000743D256C6472706D0D0A00006572723A93
:103EA00020706F736974696F6E207370656564202C
:103EB0006C696D69742075706461746520666169F0
:103EC0006C65640D0A00000038B50C46051E07DD60
:103ED000002C05DBB5F5166F02DCB4F5FA6F01DDD9
:103EE0000EA015E006F05EFC407F20B1214628467A
:103EF00006F082FC80B112482B4612A2C0E90054A1
:103F00004FF410710C300094FCF780FA0C480C3020
:103F1000BDE83840FFF756BF16A0F9E76572723A60
:103F200020706F736974696F6E2074756E696E6747
:103F3000206F7574206F662072616E67650D0A00D0
:103F4000442800206F6B3A20706F732074756E6583
:103F5000206B703D256C646D72706D2F636F756E94
:103F600074206B643D256C646D72706D2F72706D82
:103F70000D0A00006572723A20706F736974696F80
:103F80006E2074756E696E6720757064617465204B
:103F90006661696C65640D0A0000000038B50C4666
:103FA000050008D4002C06DB44F62060854202DCC4
:103FB0000E48844201DD0EA012E016482146C0E9F9
:103FC0000054284608F0B2F870B112482B4612A2ED
:103FD0004FF4107118300094FCF718FA0D4818309F
:103FE000BDE83840FFF7EEBE17A0F9E720A10700B3
:103FF0006572723A2073706565642074756E696EBF
:1040000067206F7574206F662072616E67650D0A98
:1040100000000000382800206F6B3A20737065653F
:10402000642074756E65206B703D256C6475412F3E
:1040300072706D206B693D256C6475412F2872701C
:104040006D2A73290D0A00006572723A207370653B
:1040500065642074756E696E67207570646174653F
:10406000206661696C65640D0A00000010B508489F
:1040700005F0A0FD064800214E38A0F84C1080F84D
:104080005110B0F84E1001B1012180F8501010BD50
:10409000EE2000200149896800F002B84428002081
:1040A00000B51F4A95B0136800935268CDE901210D
:1040B00044F62062914200DA1146029A0A441949F4
:1040C00003928A4200DD0391174A0492042205926A
:1040D00047F230520692322207924FF47A720892D7
:1040E000642209920E4A0C3A13680A9352680B92A2
:1040F00040F6AC52CDE90C214FF0FF310E91012179
:104100008DF83C1000218DF83D1010911191129105
:1041100013910146684606F0BBFB15B000BD0000D8
:1041200044280020604D2F008096980070B506F05E
:10413000C3FD90F87C00D0B106F034FB407FB0B1F5
:1041400000F0DCFD0B4D0024012605F8644F2E72B3
:10415000EC6002F015FF401E286107482C7505F839
:104160000F6C00F8444F04738473012070BD00206D
:1041700070BD0000BC270020A02000207CB50546B3
:10418000002100F055F8C8B1104C012084F844001B
:1041900002F0F6FEA06404F5F3602B4603C80CA2FF
:1041A000CDE900014FF4107104F5F660FCF72EF92B
:1041B00004F5F660BDE87C40FFF704BE14A0FFF7ED
:1041C00001FEBDE87C40FFF747BD0000A0200020B5
:1041D0006F6B3A2073706565642072756E20746130
:1041E000726765743D256C646D72706D206B703DF7
:1041F000256C6475412F72706D206B693D256C6470
:1042000075412F2872706D2A73290D0A0000000075
:104210006572723A207370656564206C6F6F7020F0
:104220007374617274206661696C65640D0A0000C4
:1042300000B5164A8BB0136800935268019240F69D
:10424000AC520292124A039244F620620492012276
:104250008DF814208DF8152049B141F6583106919A
:104260004FF4FA6107910B4908910B4903E00021D3
:1042700006910791089109910146684607F070FF81
:10428000002800D001200BB000BD0000382800201D
:10429000604D2F0000350C00804F120070B51446A1
:1042A0000D46064601F0D4FDF217861942EBE07187
:1042B0006FF000424FF00000921B884105DB4FF089
:1042C0000040301A71F1FF3001DA002070BD00F0BB
:1042D00015FD3046FFF7DEFE0028F7D00C4800231E
:1042E000012120F8503F438003718371C371037231
:1042F0004372017545758475836180F8283041717A
:10430000044800F8443F03738373084670BD0000FF
:10431000BC270020A02000202DE9F0411C461546B6
:104320000E46074600F0EAFC31463846FFF780FFAC
:10433000B8B10F480021012220F8501F41800171BF
:104340008271C271057244728172C160016180F82C
:1043500028104271074800F8441F01738173BDE8BB
:10436000F08105A0FFF72EFDBDE8F041FFF774BC1A
:10437000BC270020A02000206572723A207370656F
:104380006564206C6F6F7020737461727420666155
:10439000696C65640D0A000070B5224890F85500FC
:1043A00018B1BDE8704000F04BBB1F4D95F85000B0
:1043B00018B1BDE87040FDF731BB95F8560018B153
:1043C000BDE87040FDF7B8BB95F84400002828D040
:1043D00002F0D6FD044607F04BFD90F84B0008B103
:1043E000142000E06420A96C611A884219D8AC64DA
:1043F00007F03EFD90F84B0020B907F039FD90F82A
:10440000440050B1FFF728FC06F0CCF9407F0028AB
:1044100007D0BDE87040FFF7ABBBBDE87040FFF7C9
:104420007DBB70BDBC270020A020002010B504007B
:1044300006D0FCF78BF981B22046FCF7D5FF08B116
:10444000002010BD012010BD10B5B1F9003000EE04
:10445000103AB8EEC00A10EE103A0360B1F9044009
:1044600000EE104AB8EEC00A10EE104A4460B1F9EE
:10447000024000EE104AB8EEC00A10EE104A846006
:10448000B1F9064000EE104AB8EEC00A10EE104A2C
:10449000C460B1F90C4000EE104AB8EEC00A10EE4C
:1044A000104A0461B1F90E4000EE104AB8EEC00A9D
:1044B00010EE104A4461897C00EE101AB8EE400AF2
:1044C00010EE101A00EE102A81610449B8EE400A7D
:1044D00010EE102AC2610968016210BDA6F1000841
:1044E00070B5044606F05EF9054607F0C1FC0646C5
:1044F00002F046FD00EE100A294AB8EE400A10EE1E
:10450000100A2060906E00EE100A431C9366B8EE0D
:10451000400A10EE100A6060696800EE101AB8EEEA
:10452000C00A10EE101AA160A86800EE100AB8EEDA
:10453000C00A10EE100AE060286900EE100AB8EE1A
:10454000C01A9FED180AC1EE000A10EE900A206111
:10455000716800EE901AB8EEE01AC1EE000A10EE93
:10456000901A6161316A00EE901AB8EEE01AC1EE5D
:10457000000A10EE901AA161297F00EE101AB8EE21
:10458000400A10EE101AE161A97F074800EE101AE8
:10459000B8EE400A10EE101A21628069606270BDA8
:1045A000BC27002000007A44A6F1000870B504463C
:1045B00006F0F8F8064607F05BFC054600F0FCFB49
:1045C000716800EE101AB8EEC00A10EE101A2160E1
:1045D000B26800EE102AB8EEC00A10EE102A62602F
:1045E000326900EE102AB8EEC01A9FED440AC1EEFF
:1045F000000A10EE902AA2606A6800EE902AB8EED7
:10460000E01AC1EE000A10EE902AE260AA6900EEFC
:10461000902AB8EEE01AC1EE000A10EE902A22614C
:10462000426800EE902AB8EEE01AC1EE000A10EEE1
:10463000902A6261C26800EE902AB8EEE01AC1EEDC
:10464000000A10EE902AA261026800EE902AB8EEED
:10465000E01AC1EE000A10EE902AE261826800EED4
:10466000902AB8EEE01AC1EE000A10EE902A2262FB
:10467000826900EE902AB8EEE01AC1EE000A10EE50
:10468000902A6262C26900EE902AB8EEE01AC1EE8A
:10469000000A10EE902AA26290F8890000EE900ABB
:1046A000F8EE600A10EE900AE06295F8461000EE0F
:1046B000901AF8EE600A10EE901A2163696A00EE13
:1046C000901AB8EEE01AC1EE000A10EE901A61637B
:1046D000F16800EE901AF8EEE00A10EE901AA1636D
:1046E000A968074800EE901AB8EEE01AC1EE000A79
:1046F00010EE901AE1630069206470BD00007A44F6
:10470000A6F100082DE9F041044606F0D5FA8046EE
:1047100006F048F8054607F0ABFB074600F04CFBF7
:10472000064602F02DFC00EE100A5C49B8EE400A85
:1047300010EE100A206091ED1C0A201D0146B8EE13
:10474000400A10EE100A0860686800EE100AB8EE21
:10475000C00A10EE100AA060A96800EE101AB8EEA8
:10476000C00A10EE101AE160E86800EE100AB8EE18
:10477000C00A10EE100A2061D8F8041000EE101ADA
:10478000B8EEC01A9FED460AC1EE000A10EE901A6C
:104790006161D8F8081000EE901AB8EEE01AC1EE88
:1047A000000A10EE901AA161296900EE901AB8EE85
:1047B000E01AC1EE000A10EE901AE161786800EE8E
:1047C000900AB8EEE01AC1EE000A10EE900A2062DC
:1047D000B86800EE900AB8EEE01AC1EE000A10EEDA
:1047E000900A6062B86900EE900AB8EEE01AC1EE75
:1047F000000A10EE900AA062716800EE901AB8EEFE
:10480000E01AC1EE000A10EE901AE162F16800EEC3
:10481000901AB8EEE01AC1EE000A10EE901A216369
:10482000F86800EE900AB8EEE01AC1EE000A10EE49
:10483000900A6063386900EE900AB8EEE01AC1EEA3
:10484000000A10EE900AA06397F8450000EE100AE7
:10485000B8EE400A10EE100AE06396F8891000EEF8
:10486000101AB8EE400A10EE101A216497F846109C
:1048700000EE101AB8EE400A10EE101A6164D8F873
:104880001010084800EE101AB8EE400A10EE101A88
:10489000A1644069E064BDE8F0810000BC2700200D
:1048A00000007A44A6F1000870B50446FCF73EFF0C
:1048B000054600F081FA064607F0DAFA95ED030A9C
:1048C000B8EEC01A9FED180AC1EE000A10EE901A59
:1048D0002160D5ED040AB8EEE01AC1EE000A10EE30
:1048E000902A6260F26800EE902AB8EEE01AC1EEFB
:1048F000000A10EE902AA260026800EE902AB8EE3C
:10490000E01AC1EE000A10EE902AE260406800EE64
:10491000900AB8EEE01AC1EE000A10EE900A20618B
:1049200002488068606170BD00007A44A6F100080A
:1049300010B591ED000AB8EE400A10EE103A03608F
:1049400091ED010A00F13803B8EEC01A9FED3A0A62
:10495000C1EE000A10EE904A4460D1ED030AB8EEB1
:10496000E01AC1EE000A10EE904A8460D1ED120AFE
:10497000F8EEE00A10EE904AC460D1ED040AB8EEF9
:10498000E01AC1EE000A10EE904A046191ED0D0AA2
:10499000B8EEC00A10EE104A446191ED060AB8EE76
:1049A000C00A10EE104A846191ED070AB8EEC00A01
:1049B00010EE104AC46191ED080AB8EEC00A10EE7C
:1049C000104A046291ED0E0AB8EEC00A10EE104AC9
:1049D000446291ED0B0AB8EEC00A10EE104A8462F0
:1049E00091ED0C0AB8EEC00A10EE104AC46291EDC7
:1049F0000F0AB8EE400A10EE104A046391ED110A56
:104A0000B8EEC00A10EE104A446312B191ED0A0AE2
:104A100001E091ED160AB8EEC00A10EE102A1A60F5
:104A200091ED100AB8EE400A10EE101AC163034966
:104A30004968016410BD000000007A44A6F1000836
:104A40002DE9F043954C9DB094F85500002831D0E5
:104A500094F87800002528B1FCF7B8FC002829D08C
:104A600084F87850FCF7B2FC002823D094F86C004E
:104A7000012610B306F020F990F87C0000286ED0D3
:104A800005F090FE407F0028F9D002F079FA616FBE
:104A90000546A9420ED08148FFF734FE50217F48D9
:104AA000FCF7A2FC002805D184F878606567206FC8
:104AB000401C20671DB0BDE8F08394F86400E8B3A3
:104AC00005F070FE407F002849D094F8660018B1C8
:104AD0007248FFF705FD3DE094F8650018B16F4896
:104AE000FFF764FD36E06D4D05F05CFE074607F00C
:104AF000BFF90246786800EE100AB8EEC00A85EDEC
:104B0000000AB96800EE101AB8EEC00A85ED010A75
:104B1000386900EE100AB8EEC01A9FED610AC1EEC6
:104B2000000AC5ED020A506800EE900AB8EEE01ADD
:104B3000C1EE000AC5ED030A106A00E017E000EEBE
:104B4000900A5848B8EEE01AC1EE000AC5ED040A12
:104B5000C068686194F8660010B1282152E05AE0FC
:104B600094F8650008B144214CE018214AE094F81B
:104B7000570068B394F85A0058B107F079F9006CFF
:104B8000E16D884205D3206E07F0BCFA68B184F865
:104B90005A5094F8590058B107F06AF990F84B0050
:104BA000C8B33E48FFF780FEDFE707F0A7FB3CE015
:104BB000684607F0ADF930B194F858206946374897
:104BC000FFF7B6FECFE707F053F990F84B002AE065
:104BD00094F856004FF6FF7950B300251CE000BF53
:104BE00004F0E2FF024605EBC50004EB800018A9C3
:104BF000FFF72AFC6D1C2D042D0C0DD005EBC50113
:104C000009EA81012548FCF7EFFB00287FF452AF49
:104C100084F878604EE708E018A805F035F8002819
:104C2000DED104F06DFF0028F4D100F067F841E711
:104C3000B4F85000B4F852108842F6D2081A85B27F
:104C4000A046012D00D90125002004F0B3FF07463E
:104C5000002410E0B8F8501004EBC403214401EB29
:104C6000810198F8542007EB810108EB8300FFF7DE
:104C7000EBFB641CA4B2AC42ECD305EBC50109EA22
:104C800081010648FCF7B0FB0028C3D1404630F84C
:104C9000501F2944018088F878600BE7BC2700206A
:104CA00000007A44A6F1000810B50446114804F04B
:104CB00081FF104900225239A1F8502081F8544058
:104CC00081F8562081F8572081F8582081F8592022
:104CD00081F8642081F8652081F87820B1F85200CD
:104CE00000B1012081F85500034800F8442F0273F9
:104CF000827310BD0E280020A02000200B48002148
:104D000080F8551080F8781020F8501F418081718C
:104D1000C171017241728172C16001610175417599
:104D2000817501770162416270470000BC27002055
:104D300070B511490022C417D1F8C010A1FB00358D
:104D400002FB005001FB04020C4C0021A3FB0405F4
:104D500002FB045203FB0121094A00294FEA6203C6
:104D600003DBC01841F1060102E0C01A61F106013F
:104D70000D23FBF726FB70BD20010020400D030032
:104D8000005847F8C1178A0242EA9052800210B5D3
:104D9000011E72F1000102DB4FF4FA6300E0054BE3
:104DA000181842EBE3714FF47A624FF00003FBF7FF
:104DB00008FB10BD30F8FFFF00487047400100209D
:104DC0002DE9F04F9BB00446FCF7B0FC064600F01E
:104DD000FBFBF1680546002900DA494230690028EA
:104DE00000DA4042E26F8A4200DAE167D4F88020BC
:104DF000824201DAC4F88000D4F8B0208A4201DD92
:104E0000824201DC02208DE001F022F80890D4F803
:104E1000B410002909DDD4F8B820801A01D508980B
:104E2000101A884201DD03207CE015A9089800F0E3
:104E300097FB4FF00108002873D01598FFF7A2FFE9
:104E400000F03FFA059094F8C81059B1D4F8C41096
:104E5000401A00F02DFA07000598C4F8C40006D5E2
:104E6000784205E084F8C8800027C4F8C4003846BA
:104E7000834617A9089800F0F7FAE0B30598079061
:104E800095F83C0058B107AA05A9089800F000FD64
:104E900088B395F83C0002284BD003284BD01798D4
:104EA000079980460598401A00F002FA5FEA000967
:104EB00001D5C9F100008246D6E9030295F93D10FB
:104EC0000FAB514310AA0092424600F091FA0F989E
:104ED000A0621098E062F06820633069606300F0BF
:104EE000B1FFFFF725FF1599099008444FF47A6147
:104EF00090FBF1F200E014E001FB1200002801DA5F
:104F000000F57A600E900998FFF73CFF95F83C1089
:104F1000022904D0032902D095F84010A9B14044D9
:104F200016E0404684F8A80004F0BAF91BB0BDE8CA
:104F3000F08F0798B4E705991798401A00F0B8F970
:104F40000799084400F0BDF9AAE70E98FFF71AFF89
:104F500000F0B7F90646206A002806DAA16A206A3E
:104F60003230814201DD012300E00023606C226CBD
:104F7000E16ACDE90203CDE90012A36A626A216AFF
:104F80002046FCF7D5FA2069A0636069E06318A8A1
:104F90000090E16BA06B11AB324600F003FA119860
:104FA000A06495F93D0018994843E064D4F8BC200A
:104FB000E16CA06C04F0E8F90898A06715982065EA
:104FC0000E9860650598A0650798E065C4F8608054
:104FD0006666C4F86890E76609982067D4F8C00050
:104FE0006067D4F88C00401CC4F88C00A16B0029C9
:104FF00000DA4942E06B002800DA4042D4F884200D
:105000008A4201DAC4F88410D4F88810814201DAA7
:10501000C4F88800207F20B1D4F89000401CC4F868
:105020009000207F84F8A900607F20B1D4F894001C
:10503000401CC4F89400607F84F8AA00D4F89C1047
:105040005046514501DAC4F89C00BAF1200F04DD46
:10505000D4F89800401CC4F89800D4F8A41058461E
:10506000594501DAC4F8A400BBF1200F04DDD4F8DF
:10507000A000401CC4F8A000D4F8CC20002A3FF4C3
:1050800055AF04F12000D4F8D01090474EE700004F
:10509000074991F8AB200AB9642801D9002070476C
:1050A000C1F8C00048670020086701207047000071
:1050B00020010020F0B50F4C94F8AB50A5B181FB56
:1050C0000156D4F8AC70C0FB005687FB07C7BCEB99
:1050D0000505B74108DBEFF3108572B62062616207
:1050E0002264636415B102E00020F0BD62B60120C5
:1050F000F0BD000020010020044A92F8AB300BB153
:1051000000207047C2E933010120704720010020D0
:1051100000231A46FFF7CEBF2DE9F0410546FCF704
:1051200005FB074600F050FA0646002D7ED0444CA1
:1051300094F8AB0000287CD104F0F2F8002878D174
:10514000B87E002875D1787E002872D096F841008C
:1051500000286ED096F93D00012801D0401C68D18E
:10516000E868002865DD2969814262DD68690028F8
:105170005FDBA86900285CD095EC020A3048A9687A
:10518000FCF774F9002850D0E86844F8AC0F28699F
:1051900060606869A06000F05BFEE060A8690025BF
:1051A000206144F88C5D6560A560E56025616561FE
:1051B000A561E56125626562A562E56225636563B7
:1051C000A563E56325646564A564E5642565D4F895
:1051D000A000606500F03CFEA065E565256665669B
:1051E000A566E56625676567A567E567C4F880502D
:1051F000C4F8845084F8885084F8895084F88A5020
:10520000A06D00F06DFAC4F8A45084F8A8500C49C1
:105210000C48203CFCF7DAFAFCF7E2FA58B101201E
:1052200084F8AB0004F0E6F8012000E001E0BDE8FE
:10523000F0810020F9E700210846FCF7C7FAF8E7FB
:1052400020010020C14D000810B50B4C94F8AB00B4
:10525000002810D004F024F8FCF7E8FA00210846F2
:10526000FCF7B4FA002020626062A063E06320646F
:10527000606484F8AB0010BD200100200B4A10B51B
:1052800092F8AB3023B118B1002901DD814201D978
:10529000002010BDEFF3108472B6C2F8BC000348C2
:1052A000FCF733F9002CF4D162B610BD20010020C8
:1052B00010B500F006F8B0F5007F01DBA0F58060C6
:1052C00010BDC11700EB91516FF30901401A01D5D0
:1052D00000F580607047000030B5032313EA102505
:1052E000C4B2124BC0B2C0F580700AD0012D0ED0EE
:1052F000022D12D033F910004042086033F9140037
:1053000012E033F914400C6033F910000CE033F96B
:105310001000086033F9140005E033F914406442CA
:105320000C6033F910004042106030BD80A10020B5
:1053300070B51B4D00242DED048BB6EE008A4FF4A2
:105340008076DFED148A9FED149ADFED149A00BF8A
:1053500000EE104AB8EE400A20EE280A20EE090AB4
:1053600009F004FD20EE290AB5EEC00AF1EE10FAAC
:1053700002DB30EE080A01E030EE480ABDEEC00A5A
:1053800010EE100A25F81400641CB442E0D9BDECFC
:10539000048B70BDDB0FC93F0000803B00FEFF4661
:1053A00080A100202DE9FC411C00089F13460D46FA
:1053B00006461BD0002F19D001AA69461846FFF7F0
:1053C0008BFF019886FB0031009885FB0002181ABC
:1053D00061EB020100F032F82060DDE9002085FB7E
:1053E0000001C6FB020100F029F83860BDE8FC812D
:1053F0002DE9FC411D00089E13460F4604461BD0B4
:10540000002E19D001AA69461846FFF765FFDDE9AD
:10541000000287FB0001C4FB020100F00FF82860C6
:105420000198009A87FB000184FB0232C01A61EBED
:10543000020100F003F83060BDE8FC810A4610B5B7
:10544000011E72F1000102DB4FF4804300E0054BC6
:10545000181842EBE3714FF400424FF00003FAF7E3
:10546000B0FF10BD00C0FFFFF8B50F00044634D0F8
:10547000694600F075F878B300984FF4FA62C117E6
:10548000890241EA90518002801841F100015200E6
:105490000023FAF796FF00F07DFA304D06462861AA
:1054A00095F83F00D8B195F84000C0B1E117221936
:1054B000E8694941C317101A61EB03014FF4FA522E
:1054C000002300F0FDF8282190FBF1F405F15801CC
:1054D000C82C0ADBC7240AE0FFE70020F8BD002043
:1054E000C5E905603E6037E0641E002C05DD31F83B
:1054F00014208242F8DC00E0641CC72C04DA01EBC3
:10550000440252888242F7DD31F8142001EB440155
:10551000801A49884FEAE07C8A1A4FEA0C2C02EB89
:10552000D2714CEA106C4B10000218184CEBE3716E
:105530004FEAE273FAF745FF2102401800F02AFA19
:1055400004466861801B00F025FAB0F5007F01DB9E
:10555000A0F58060A8613C600120F8BD88A3002010
:1055600010B50C0009D00B4A92F8411029B192F9FC
:105570003D10012903D0491C01D0002010BD116845
:10558000401A502100F094F8322148432060012055
:1055900010BD000088A300200A4958B191F83F00CF
:1055A00068B191F83C00022809D0012081F8400040
:1055B00001207047002081F840008861F8E7002052
:1055C0007047000088A300200048704788A300208F
:1055D000134800214FF44872016041608160C1604E
:1055E000016141618161C161016241628162C0E921
:1055F0000B120C4A42630C4A8263032280F83C205F
:1056000080F83D1080F83E1080F83F1080F8401080
:1056100080F841104830C0E90011C0E9021170471C
:1056200088A3002040B00500CA02010008480021FC
:1056300080F8411080F83D108160C16001614161D6
:10564000816101624162816280F83E107047000012
:1056500088A300200448002180F83F1080F8401003
:10566000C16181617047000088A300200F4A10B516
:1056700012684FF4A004D3171B0443EA1243120428
:10568000801A61EB03012246002300F019F8890219
:1056900041EA905180026210801841F100012246D7
:1056A0000023FAF78EFEC0F3090010BD88A3002086
:1056B00090FBF1F201FB1200002800DA0844704769
:1056C00070B514461D46FAF77CFE1046121E1946A8
:1056D00073F1000202DA001943EB050170BD00000E
:1056E00010B5C1170A4A090441EA10410024000418
:1056F000D46082E81300FFF7B9FF05494839086113
:105700000862002048628862012081F83E0010BDD6
:10571000D0A3002070B50D460646012905D0681CAF
:1057200003D0BDE87040FFF781BF0A4C50213046DE
:105730002660FFF7BDFF60600020A060E06084F895
:105740003D50012084F841003046BDE87040FFF72D
:10575000C7BF000088A30020F0B508B1C92901D057
:105760000020F0BD234A00250468158001214FF474
:10577000FA5C00BF50F8213002EB41061B1B36F8E3
:10578000026C01EB81079E1BA3EBC707002B20DDFA
:1057900063451EDA182E1CDB382E1ADC17F1140FA5
:1057A00017DB142F15DC22F81130491C89B2C829E7
:1057B000E0D3D0F82003001BA0F5F550B0F5A07F92
:1057C00007D8B2F88E01C0F5FA50182801DB382846
:1057D00002DDFFF73FFFC3E70648A2F890C1583843
:1057E0000121C46180F83F1080F84050856108466F
:1057F000F0BD0000E0A3002070B5A0F16401B1F598
:10580000AF6F01D9002070BDA0FB0012094B4FF40F
:10581000E974186360436A24A1FB0456586302FBD1
:105820000462002001FB0020810541EA9520986375
:10583000012070BD88A30020084958B1012809D073
:10584000022802D0032803D104E091F840200AB1D5
:105850000020704781F83C000120704788A3002099
:1058600038B56946FFF77CFE00280BD0064C00983F
:105870000649A06080FB01014FF47A620023FAF729
:10588000A0FDE06038BD000088A30020407E050038
:105890002DE9F74F0746019880B1029870B13B4956
:1058A00091F8410050B1FA17160491F83E0046EA0B
:1058B00017464FEA0748894618B105E00020BDE8C1
:1058C000FE8F3846FFF70CFFDFF8C0A000220AF178
:1058D000480ADAE90101DAF800308B46DAF80CE020
:1058E000591840EB0E00B8EB010466EB00054FF4CD
:1058F00080131B1BAA4104DB254AA21A75F1FF3253
:1059000009DA3846FFF7ECFED9F82C10491C0024C0
:10591000C9F82C1022E0D9F834300022A3FB047C13
:1059200002FB04CC03FB05C33F0D47EA033779189C
:1059300040EB2353CAE90013D9F83830A3FB047CA9
:1059400002FB04C203FB05234FEA175242EA03326B
:105950001BEB02024EEB2350CAE9022040463146BF
:10596000FFF784FE5646C9F81000D6E900014D46FF
:10597000FFF77CFEC5E90804B068A86201982969B0
:1059800001600298296A0160012098E788A300203D
:105990000000F0FFC11700EB91516FF30901401AAD
:1059A00001D500F580607047024A1070C2F8941962
:1059B00070470000F8A5002070B5054604F0F0FD22
:1059C000406A054C206204F0A3FE002084F8240005
:1059D00065700E20207070BDF8A500202DE9F04103
:1059E0002F4C6FF00047FE07A16AD4F8480300254A
:1059F000401AA060D4F84C23D4F86C16891AE160E0
:105A00000144A1F5FA51A0F57A60216105F084FB0B
:105A1000502806DCE068A0F57A6005F07DFB502890
:105A200001DD062037E0002104EB8102D2F828C016
:105A3000D2F84C33BCEB030001D5A3EB0C0063445C
:105A4000C2F87036A84200DD054641B1D2F86C06B6
:105A5000181AB84200DA0746B04200DD0646491C73
:105A600089B2C929E0D36761C4E90665C9210D4837
:105A7000FFF772FE70B104F093FD406A206204F0FB
:105A800047FE00206070012084F824000D20207063
:105A9000BDE8F0810720BDE8F041FFF78DBF0000B1
:105AA000F8A5002068AC0020C11700EB917121F02F
:105AB0000301401A00D5001D7047000070B5DFEDEE
:105AC000160A04462DED028B20EE208AB0EE480A1D
:105AD00009F0A4F8F0EE400A00EE104AB8EEC00A51
