:020000040800F2
:10000000B0410020A10100081F3C00082137000872
:100010001D3C000881040008C163000800000000C6
:100020000000000000000000000000005543000830
:10003000A105000800000000653E000865440008B6
:10004000BB010008BB010008BB010008BB010008A0
:10005000BB010008BB010008BB010008BB01000890
:10006000BB010008A3050008BB010008BB01000894
:10007000BB010008BB010008BB010008BB01000870
:10008000BB010008BB0100084D030008BB010008CC
:10009000BB010008BB010008BB010008BB01000850
:1000A000BB010008BB010008BB010008BB01000840
:1000B000BB010008BB010008BB010008BB01000830
:1000C000BB010008BB010008BB010008BB01000820
:1000D000BB010008BB010008BB010008BB01000810
:1000E000BB010008BB010008BB010008BB01000800
:1000F000BB010008BB010008BB010008BB010008F0
:10010000BB010008BB010008BB010008BB010008DF
:10011000BB010008BB01000811450008BB01000835
:10012000BB010008BB010008BB010008BB010008BF
:10013000BB010008BB010008BB010008BB010008AF
:10014000BB010008BB010008BB010008213C0008FE
:10015000BB010008BB010008BB010008BB0100088F
:10016000BB010008BB010008BB010008BB0100087F
:10017000BB010008BB010008BB0100080000000033
:10018000BB010008BB010008DFF810D000F09CF8AC
:1001900000480047716E0008AFF30080B0410020B6
:1001A0000648804706480047FEE7FEE7FEE7FEE711
:1001B000FEE7FEE7FEE7FEE7FEE7FEE70145000893
:1001C000890100082DE9F05F0546002092469B4614
:1001D00088460646814640241BE02846414647465D
:1001E000224600F060F853465A46C01A914110D397
:1001F00011461846224600F047F82D1A67EB010811
:100200004F4622460120002100F03EF817EB00097E
:100210004E41201EA4F10104DFDC484631462A4647
:100220004346BDE8F09F40EA01039B0703D009E085
:1002300008C9121F08C0042AFAD203E011F8013BD2
:1002400000F8013B521EF9D27047D2B201E000F82B
:10025000012B491EFBD270470022F6E710B513466A
:100260000A4604461946FFF7F0FF204610BD30B598
:1002700004460020034600E05B1C934203D2E05C8E
:10028000CD5C401BF8D030BD202A04DB203A00FAB8
:1002900002F1002070479140C2F1200320FA03F3DD
:1002A000194390407047202A04DB203A21FA02F0DB
:1002B0000021704721FA02F3D040C2F120029140A0
:1002C0000843194670470000064C074D06E0E068F9
:1002D00040F0010394E8070098471034AC42F6D38D
:1002E000FFF756FF687400088874000870B58D1811
:1002F00010F8014B14F0030201D110F8012B231167
:1003000006D110F8013B03E010F8016B01F8016B16
:10031000521EF9D1ABB110F8012B04F00C048A1A6B
:100320000C2C03D0A2EB84129B1C08E010F8014BAC
:10033000A2EB0422F8E712F8014B01F8014B5B1E17
:10034000F9D5A942D4D3002070BD0000014800F0C7
:10035000B2BE00007C110020464910B54A6822F464
:1003600040324A604A6843681A434A6001684A68F2
:1003700022F480724A6001684A68036942EA0322F3
:100380004A6001684A6822F040724A6001684A681F
:1003900083681A434A6001688A6822F400628A60AE
:1003A00001688A68C3681A438A60816A6FF0706264
:1003B000D14201688A6822F070628A6001688A68A6
:1003C0000CD0836A1A438A6001688A6822F040521E
:1003D0008A6001688A68C36A1A4301E022F04052C9
:1003E0008A6001688A6822F002028A6001688A686D
:1003F000037E42EA43028A6090F8201000290168D7
:100400004A680FD042F400624A6001684A6822F4E8
:1004100060424A6001684A68174C436A04EB433300
:100420001A4301E022F400624A600168CA6A22F4B9
:100430007002CA620168CA6A838B104C04EB0353D2
:100440001A43CA6201688A6822F400728A600168ED
:100450008A6890F8303042EA43228A6001688A68EC
:1004600022F480628A6001688A68406942EA8020DA
:10047000886010BD0023014000E0FFFF0000F0FF96
:10048000FEE70020704700207047000010B50022F2
:100490000449054804F096FB0449034804F085FB31
:1004A000002010BD182000203C1300201818002048
:1004B0002DE9F0410C46070024D0FCB12068E8B1DA
:1004C0000125154E052805D3052214A13846FFF74E
:1004D000CEFE90B12068042814D3042211A138461E
:1004E000FFF7C5FE58B1206804280BD304220FA1E2
:1004F0003846FFF7BCFE20B104E0357002E07570AD
:1005000000E0B57039460B4804F04FFB094804F091
:1005100025FB0020BDE8F08190000020535441529B
:100520005400000053544F50000000005A45524FF1
:10053000000000003C13002010B505F091FF0020E2
:1005400010BD0000094A10B5D2F8BC22D2F814221E
:100550000AB1012010BD0A460146044804F032FBEE
:10056000BDE81040014804F0A7BB00003C13002088
:1005700008489FED091A0021D0ED010A4160F8EE0C
:10058000E00A60EE810A80EE801A9FED040A21EEF7
:10059000000A7047441100200000803800007042BB
:1005A0007047082001F042B80C490A884888101AA0
:1005B00000B2B0F5005F02DDA0F5804004E010F568
:1005C000005F02DA00F5804000B2054B1B885843FB
:1005D0004B6800B2184448604A80704744110020BC
:1005E0005411002072B6FEE7002229B101291AD069
:1005F00002291BD04FF440720E490B6823F440735C
:100600000B600B6813430B600A6822F0F8020A6063
:100610000A68022303EBC00002430A60086840F442
:100620008030086070474FF48072E5E74FF4007245
:10063000E2E70000103C02401348016889050FD52D
:10064000016821F400710160016841F400610160FA
:10065000016821F400610160016841F400710160EA
:10066000016849050FD5016821F4806101600168C6
:1006700041F480510160016821F4805101600168FA
:1006800041F4806101607047003C024008490A68FB
:1006900022F440720A600A6842F004020A600A68A2
:1006A0004FF4803343EA002002430A6070470000A1
:1006B000103C0240064A136823F440731360136829
:1006C0001360136843F0010313600170704700006A
:1006D000103C0240094910B50C6824F440740C60C9
:1006E0000C6844F440740C600C6844F001040C6025
:1006F0000260BFF36F8F436010BD0000103C0240EA
:10070000074A136823F440731360136843F480733B
:100710001360136843F00103136001807047000009
:10072000103C0240074A136823F4407313601368B7
:1007300043F400731360136843F001031360016016
:1007400070470000103C024017490868C20617486D
:1007500005D5C26942F01002C26110220A600A681F
:10076000920605D5C26942F00802C26120220A60E1
:100770000A68520605D5C26942F00402C2614022ED
:100780000A600A68120605D5C26942F00202C26117
:1007900080220A600A68920705D5C26942F02002E9
:1007A000C2610220086070470C3C0240442F0020C8
:1007B00070B5114904460020C86101F041F80646B1
:1007C0000E4D09E0601C07D024B101F039F8801B00
:1007D000A04201D9032070BD2868C003F2D4286864
:1007E000C00701D001202860286810F0F200F2D084
:1007F000FFF7AAFF012070BD442F00200C3C0240EF
:1008000010B502F075FF02F079FF02F07DFFBDE840
:10081000104002F07FBF000010B5C82006F086F837
:100820000E490B2817D04FF0FF300860DFED0C0A9F
:100830009FED0C0A0C4806F0FDFC00210A4806F06A
:100840002BF9642000F034FE07490020C860BDE8A1
:10085000104006F0B1B90120E7E700005411002074
:100860009A99194000000000F430002010B50023D0
:1008700005E000BF30F8044B21F813405B1C9342A5
:10088000F8D310BD2DE9F043ADF6240D894680461E
:10089000174640F608016846FFF7DEFC2A4D0020A7
:1008A0006C4640F2022600BF55F8201044F8201094
:1008B000401C80B2B042F7D3234900204942414452
:1008C00008E000BF39F8102000EB9103401C44F809
:1008D000232080B2B842F5D300F090FE1B49F320EC
:1008E00008600020CDF81C08CDF808080220CDF8DB
:1008F0001808284600F034F8CDF810080120CDF88B
:1009000014080DF61C010DF6080000F0E3FD4FF091
:10091000FF3850B95FF0000705EB870154F8272036
:100920000023022000F02CFE30B100F01FFE4046F4
:100930000DF6240DBDE8F0837F1CBFB2B742EBD3A8
:1009400000F014FE0020F3E7000006080C3C024013
:100950000146C8220148FFF789BF000000000608D1
:100960001249884201D2002070471149884201D2C1
:10097000012070470F49884201D2022070470E497A
:10098000884201D2032070470C49884201D20420DA
:1009900070470B49884201D20520704709498842B7
:1009A00001D2062070470720704700000040000871
:1009B0000080000800C000080000010800000208D4
:1009C000000004080000060870B590F83C20694D4E
:1009D000012A19D0012280F83C200A680723046804
:1009E000092A13D9E6680A3A02EB420293409E4371
:1009F000E6600A788B680A3A02EB4202934002688A
:100A0000D4682343D36010E0022070BD266902EB56
:100A1000420293409E4326610A788B6802EB4202B1
:100A2000934002681469234313610268936B23F4B3
:100A3000401393630268936B0C8A4F4E06EB045489
:100A4000234393630A790B7CD21AD21C02EB8202F5
:100A50001F2393400268946B9C4394630A790B7C38
:100A6000D21AD21C02EB82030A8892B29A4003681F
:100A70009C6B22439A638A69AA420268936823F4B2
:100A800070239360026893680CD08C692343936051
:100A90000268936823F44013936002689368CC69FA
:100AA000234301E023F4401393604A7D002A026847
:100AB000536802D043F4806301E023F48063536001
:100AC0000A7D002A0268536802D043F4805301E093
:100AD00023F4805353604A68012A16D0022A1FD09B
:100AE000032A026827D0136A6FF30B0313620268AC
:100AF000136ACC6823431362214B04681F4A9C424B
:100B000027D10C68122C20D023E0026853696FF3C0
:100B10000B03536102685369CC6823435361EBE7CD
:100B2000026893696FF30B03936102689369CC6861
:100B300023439361E0E7D3696FF30B03D36102684A
:100B4000D369CC682343D361D6E7546844F4800466
:100B5000546004689C4208D10968102901D0112909
:100B600003D1516841F400015160002180F83C102C
:100B7000084670BD01000F000000F0FF0023014097
:100B80000020014070B53549884266D101213348C3
:100B900000F074F800EE100A314C0221B8EE400A61
:100BA0002E4884ED000A00F069F800EE100AF7EE16
:100BB000000A2C49B8EE400A84ED010A1C3C94ED71
:100BC000040A30EE200A10EE100A84ED040A88426E
:100BD00003DD9FED250A84ED040A2448007838B12E
:100BE00003F042F9BCEEC00A214910EE100A088059
:100BF0002048214D40780028207813D098B9FFF77D
:100C0000D3FC284605F058FF03F0AAFB2889A989E0
:100C10000844297800EB0120C0F30901284605F0BB
:100C20006FFE02E008B105F01FFDE078401CC0B285
:100C3000E070322811D30020E0700948D5ED121A77
:100C4000083895ED141AD5ED110A95ED130A90ECBC
:100C5000022ABDE8704005F0DBBB70BD7C110020AE
:100C600020000020002474490000000050110020E2
:100C700044110020683A0020F430002008B500221A
:100C800000920368521F1A60012911D002290CD06A
:100C9000032906D0042901D0009808BD0068806CA3
:100CA00001E00068406C009008BD0068006CFAE745
:100CB0000068C06BF7E770B50D46044600F0C0FD54
:100CC000064612E0681C10D025B100F0B9FD801B6B
:100CD000A8420AD920680068400706D4042020648E
:100CE000002084F83C00032070BD206800684007A5
:100CF000E8D521686FF00C000860206C40F40050CB
:100D000020642068816811F4401F1AD1816B11F4AE
:100D1000401F02D08168490513D44168490510D4A9
:100D2000806810F0405F0CD1207E50B9206C20F418
:100D300080502064206CC00503D4206C40F001007A
:100D40002064002070BD000018B50021009190F8CB
:100D50003C20012A07D0012280F83C2002689368D9
:100D6000DB0702D011E0022018BD936843F00103B5
:100D70009360284A284B1268B2FBF3F202EB42025E
:100D800000E0521E0092002AFBD102689368DB0744
:100D900035D0036C42F20104A34343F4805303644F
:100DA000036CDB0500D4416480F83C106FF0040153
:100DB00011601A4949680068C906816801F4401148
:100DC0000FD0D1B100224168154B41F38021491C5D
:100DD00098421CD1DAB1D1B1816841F480018160BF
:100DE00015E041B10021426842F38022521C71B1EA
:100DF000002AF1D10BE00121F5E70122E3E7016CC4
:100E000041F010010164416C41F001014164002096
:100E100018BD0000A000002040420F000023014048
:100E20000020014018B50022009290F83C100129E2
:100E300007D0012180F83C1001688B68DB0702D0E5
:100E400011E0022018BD8B6843F001038B602A4932
:100E50002A4B0968B1FBF3F101EB410100E0491EA7
:100E600000910029FBD101688B68DB073AD0036C45
:100E700042F20104A34343F480530364036CDB0593
:100E800000D4426480F83C206FF004020A600168DC
:100E90004A6842F080024A60194949680068C906F8
:100EA000816801F440110FD0D1B100224168154B87
:100EB00041F38021491C98421CD1DAB1D1B181683B
:100EC00041F48001816015E041B10021426842F3A4
:100ED0008022521C71B1002AF1D10BE00121F5E70B
:100EE0000122E3E7016C41F010010164416C41F023
:100EF00001014164002018BDA000002040420F0005
:100F0000002301400020014090F83C200021012AEC
:100F100012D0012280F83C20026CD20515D4026860
:100F200053685B0511D4936823F001039360026852
:100F30009268D20702D00DE002207047026C22F4C2
:100F4000885242F00102026404E0016C41F0200189
:100F500001640121002280F83C200846704700000F
:100F600078B50024009490F83C20012A19D0012281
:100F700080F83C200A6807230568092A13D9EE681F
:100F80000A3A02EB420293409E43EE600B788A6875
:100F90000A3B03EB43039A400368DD682A43DA60A7
:100FA00010E0022078BD2E6902EB420293409E437E
:100FB0002E610B788A6803EB43039A4003681D692E
:100FC0002A431A614A681F23072A13D205686E6BE9
:100FD000521E02EB820293409E436E630B790A8895
:100FE0005B1E92B203EB83039A4003685D6B2A4356
:100FF0005A6327E005680D2A12D22E6BD21F02EB2E
:10100000820293409E432E630B790A88DB1F92B2C3
:1010100003EB83039A4003681D6B2A431A6311E0B4
:10102000EE6A0D3A02EB820293409E43EE620B7928
:101030000A880D3B92B203EB83039A400368DD6A92
:101040002A43DA62164B0568144A9D4206D10D68A0
:10105000122D03D1556845F48005556005689D4201
:1010600018D10B68102B01D0112B13D1536843F406
:1010700000035360096810290CD10A490A4A09681B
:10108000B1FBF2F101EB8101490000E0491E009142
:101090000029FBD180F83C40002078BD00230140AE
:1010A00000200140A000002040420F007047704720
:1010B0000068C06C704770B50446006806684568F3
:1010C00016F0020F05F020012AD049B3216CC906A1
:1010D00003D4216C41F400712164816811F0405FF8
:1010E00017D1217EA9B9C16A11F4700F02D08168AD
:1010F00049050ED4416821F020014160206C20F4A4
:1011000080702064206CC00403D4206C40F0010087
:1011100020642046FFF7CAFF21686FF012000860C4
:1011200016F0040F05F0800132D089B3206CC006A0
:1011300003D4206C40F4005020642068816811F4CE
:10114000401F1ED1816B11F4401F02D081684905F8
:1011500017D44168490514D4816811F0405F10D15B
:10116000217E71B9416821F080014160206C20F43A
:1011700080502064206CC00503D4206C40F0010036
:1011800020642046FFF7FEFC21686FF00C00086029
:1011900016F0010F05F040010FD071B12068006812
:1011A000C0070AD0206C40F480302064204600F054
:1011B00043F821686FF00100086016F0200F05F079
:1011C00080610ED000290CD0606C40F00200606499
:1011D00020686FF0200505602046FFF768FF206853
:1011E000056070BD70B504004FF0000503D0206CA1
:1011F000002610B107E0012070BD204600F01EF867
:10120000666484F83C60206CC00610D4206C20F426
:10121000885040F0020020642046FFF79DF8666485
:10122000206C20F0020040F00100206400E0012565
:1012300084F83C60284670BD7047000030B587B028
:10124000044614216846FFF707F81C4920688842C5
:1012500032D11B480025016841F4807101600068AB
:1012600000F48070059016481438016841F00401BC
:101270000160016801F004010591016841F002017B
:1012800001600068032400F00200059030208DE822
:10129000310069460B4800F0D5F9009469460A48C8
:1012A000CDE9014500F0CEF900220421122000F022
:1012B00035FB122000F024FB07B030BD00200140B8
:1012C0004438024000080240000402402DE9F04189
:1012D000044600680D4681684FF0000749050BD5AC
:1012E0008068C00508D5206C40F02000206484F898
:1012F0003C700120BDE8F08100F0A2FA064613E040
:10130000681C11D025B100F09BFA801BA8420BD9B4
:1013100020680068800707D4206C40F00400206437
:1013200084F83C700320E5E7206800688007E7D573
:1013300021686FF012000860206C40F40070206497
:101340002068816811F0405F13D1217E89B9C16A9C
:1013500011F4700F02D0806840050AD4206C20F48C
:1013600080702064206CC00403D4206C40F0010025
:1013700020640020BEE7000018B50021009190F81D
:101380003C20012A07D0012280F83C2002689368A3
:10139000DB0702D011E0022018BD936843F001037F
:1013A00093602E4A2E4B1268B2FBF3F202EB42021C
:1013B00000E0521E0092002AFBD102689368DB070E
:1013C00042D0036C40F20164A34343F4807303648E
:1013D00053685B0505D5036C23F4005343F4805335
:1013E0000364036CDB0404D5436C23F006034364FD
:1013F00000E0416480F83C101A496FF0220313604A
:1014000049680068CA06184906D0884224D1816814
:1014100011F0405F13D01FE08842F8D0134A904289
:1014200003D1D1F80423D206F1D0114A904213D14E
:10143000D1F8041301F01F011029E8D30CE08168F2
:1014400041F08041816007E0016C41F010010164CE
:10145000416C41F001014164002018BDA000002052
:1014600040420F00002301400020014000210140C4
:101470000022014090F83C1001290CD0012180F895
:101480003C1001688A6822F001028A60016889685C
:10149000C90702D007E002207047016C21F488518F
:1014A00041F001010164002180F83C1008467047BA
:1014B00070B5044600F0C4F90546601C02D004482B
:1014C0000078044400F0BCF9401BA042FAD370BD80
:1014D000940000202DE9F047044622480F46017E83
:1014E00001290AD00121804601764CF25039484644
:1014F000FFF75EF9020003D02FE00220BDE8F0877D
:101500004FF0FF3038602068174D012801D0A668E1
:101510001CE0207C6168FFF7B9F84846FFF748F9FE
:101520000246286820F00400286014E0217C304640
:10153000FFF75AF84846FFF73BF90200286820F009
:10154000FA00286001D03E6005E0761CD4E9021064
:101550000844B042EAD8FFF76FF8002188F8181065
:101560001046CBE7442F0020103C0240034801689E
:1015700041F000410160002070470000103C024033
:101580002DE9F0471B4E05461446307E1F4689461E
:10159000012808D0012030764CF250384046FFF741
:1015A00007F918B114E00220BDE8F0879DB1012DC4
:1015B00016D0022D19D022463B464846FFF78AF83E
:1015C0004046FFF7F5F80C490A6822F001020A606C
:1015D00000213176E8E7E1B24846FFF76BF8EFE724
:1015E000A1B24846FFF78CF8EAE721464846FFF7E4
:1015F00099F8E5E7442F0020103C024007490020FD
:101600000A68002A09DA054A054B0C3A1360054BB3
:1016100013600968002900DA01207047103C02407D
:1016200023016745AB89EFCD70470000044910B531
:101630000A68024202D00860FFF7F6FF10BD000002
:10164000143C01402DE9F84FDFF8BCA10022012530
:1016500003264FF00F090AF1040BAAF1040E00BF94
:101660000B6805FA02F42340A34270D10F7907F00A
:101670000307012F01D0022F16D187684FEA4208D5
:1016800006FA08FC27EA0C07D1F80CC00CFA08FC93
:101690004CEA070CC0F808C04768A7430C79C4F3AC
:1016A000001494403C4344600C79E443A4070AD0FE
:1016B000C4684FEA420C06FA0CF7BC438F6807FA7D
:1016C0000CF72743C7600C7904F00304022C12D1F5
:1016D000D40800EB840CDCF820405707FF0E09FA11
:1016E00007F824EA0804D1F8108008FA07F848EA55
:1016F0000408CCF8208004684FEA420C06FA0CF784
:10170000BC430F7907F0030707FA0CF7274307607C
:101710004C6814F4403F70D03C4C276847F4804735
:101720002760246822F0030704F480440094384CB6
:1017300007EB040CDCF8084897074FEA177809FA1A
:1017400008F7BC43334FB84202D1002724E054E0ED
:10175000314FB84201D101271EE0304FB84201D1CC
:10176000022719E02E4FB84201D1032714E02D4F74
:10177000B84201D104270FE02B4FB84201D1052711
:101780000AE02A4FB84201D1062705E0284FB842A7
:1017900001D1072700E0082707FA08F72743CCF80C
:1017A0000878DAF800405746D1F804C09C435FEA55
:1017B000CC2C00D51C433C60DBF800405F46D1F8E0
:1017C00004C09C435FEA8C2C00D51C433C60DEF8CF
:1017D00000407746D1F804C09C435FEA8C3C00D5BA
:1017E0001C433C60084F083F3C68D1F804C09C4350
:1017F0005FEACC3C00D51C433C60521C102AFFF42D
:101800002FAFBDE8F88F0000083C0140443802408B
:101810000030014000000240000402400008024085
:10182000000C024000100240001402400018024068
:10183000001C02400AB1816170470904FBE7000007
:1018400001488068704700009400002002488168C9
:101850000278114481607047940000200B4810B555
:10186000016841F400710160016841F48061016028
:10187000016841F480710160032000F06FF80F20CF
:1018800000F006F800F024F8002010BD003C0240F3
:1018900070B50D4D04464FF47A712878B1FBF0F025
:1018A0000A490968B1FBF0F001F0BFF948B9102C02
:1018B00007D200222146501E00F030F800206C6054
:1018C00070BD012070BD000094000020A000002029
:1018D0000A4808B5016841F480410160006800F4DD
:1018E000804000900548001F016841F08051016070
:1018F000006800F08050009008BD000044380240AD
:10190000002809DB00F01F020121914040098000FE
:1019100000F1E020C0F8001170470000F0B40E4B59
:101920001B680C46C3F30223C3F10705042D00D93D
:101930000425191D072901D2002300E0DB1E012622
:1019400006FA05F1491E214099409E40761E164038
:101950003143F0BC04F096BD0CED00E0064900F008
:10196000070208684FF6FF03184040EA0220034AC6
:1019700010430860704700000CED00E00000FA051D
:10198000BFF34F8F05480168054A01F4E061114338
:101990000160BFF34F8F00BFFDE700000CED00E0DA
:1019A0000400FA0570470068416200207047F0B5F6
:1019B0000368586A39B19C6A4FF4827600EB14448C
:1019C00000204D1E0AE040EA024098620FE006EB5C
:1019D0008007DF59401C04EB1744C0B2A842F6D37D
:1019E00044EA02404FF4807202EB8101585000201B
:1019F000F0BDD0F8080503F0E5BB01EBC10200EB38
:101A00008202D0F80805D26C03F03ABB01EBC102A8
:101A100000EB8202D0F80805D2F88C2203F08BBBD1
:101A2000D0F8080503F0D0BB0A0601F00F0101EB66
:101A3000C10100EB810101D53C3101E001F51F71CD
:101A4000006804F005BB70B504460B0601F00F00FA
:101A500000EBC00104EB81014FF001024FF00005E3
:101A600003D581F83D203C3103E081F87D5201F53A
:101A70001F71087094F8BC04012808D084F8BC24B5
:101A8000206803F09FFF84F8BC54002070BD022042
:101A900070BD70B5044601F00F006268904201D934
:101AA000012070BD0B0601F00F0101EBC10104EB39
:101AB00081014FF001024FF0000503D581F83D2070
:101AC0003C3103E081F87D5201F51F718D70087083
:101AD00094F8BC04012808D084F8BC24206804F0E1
:101AE0006DF984F8BC54002070BD022070BD01F077
:101AF0000F0101EBC10100EB8100D0F89C0270479F
:101B00002DE9F04104460F0601F00F0000EBC00183
:101B100004EB81014FF001064FF0000503D581F879
:101B20003D603C3103E081F87D5201F51F71087082
:101B3000CA600B714A7802B10881022B00D14D7145
:101B400094F8BC04012809D084F8BC64206803F030
:101B500091FE284684F8BC54BDE8F0810220FBE7E2
:101B600070B50C4601F00F0505EBC50100EB8101D6
:101B7000C1F89432C1F88C220023C1F89C3281F85C
:101B80007D3281F87C52036901F51F71012B00D170
:101B90004A612207027C006803D004F067F9002044
:101BA00070BD04F051F8FAE770B504460D4601F037
:101BB0000F006168884201D9012070BD29064FF0ED
:101BC00000064FF0010207D500EBC00104EB8101D4
:101BD00081F83D203C3107E005EBC50104EB8101B4
:101BE00081F87D6201F51F718A70087094F8BC0459
:101BF000012807D084F8BC24206804F00BF92807DA
:101C000002D007E0022070BD217C04F2C4422068AB
:101C100004F0A8F884F8BC64002070BD70B50C46D0
:101C200001F00F0505EBC50100EB81014B65CA64AE
:101C30000023CB65012381F83D3001F83C5F036947
:101C4000012B00D14A612207027C006803D004F016
:101C50000DF9002070BD03F0F7FFFAE72DE9FC5FF6
:101C600005680446284604F094FA00287DD12068CF
:101C700004F0BBFA002878D0D5F80808C0F30D208E
:101C8000C4F8FC04206804F0B0FA800704D520688A
:101C9000416901F002014161206804F0A6FAC10621
:101CA00004F2C440009034D52068816921F010010D
:101CB00081612F6A07F00F0000EBC00004EB800683
:101CC000C7F3434006F51F76022802D0062811D03C
:101CD0001AE047F6F070074216D0C7F30A1217460B
:101CE0002846316904F085FA306938443061306A39
:101CF000384408E008222846009904F07AFA306A4D
:101D0000C7F30A11084430622068816941F010016C
:101D10008161206804F069FA00034FF0080B4FF06E
:101D2000000A4FF001097CD50026206804F03CFA37
:101D3000074674E0F80770D0F1B2206804F04DFA5D
:101D40008046C00707D005EB4611C1F8089B314615
:101D5000204601F06BFF5FEA087024D505EB4611C1
:101D6000C1F808BB2068016C00E025E200EB4610DA
:101D70000191D0F8082BFC4B994205D9110403D5E9
:101D80004FF40041C0F8081B204600F005FBF6495F
:101D90000198884207D92069012804D120680121CF
:101DA000009A03F0DFFF5FEAC86004D505EB461137
:101DB0001020C1F8080B5FEA88701DD5686900061D
:101DC00005D5D5F8040840F48061C5F8041806EB81
:101DD000C60004EB800090F87F1200F51F70012907
:101DE00005D180F803A0F1B2204600F0EBF905EB35
:101DF00046110220C1F8080B5FEA886004D505EBA4
:101E000046102021C0F8081B5FEA884005D505EB85
:101E100046104FF40051C0F8081B7F08761C002FB5
:101E200088D1206804F0E1F940036FD5206804F000
:101E3000B4F90746002667E0F80763D0F1B22068DE
:101E400004F0B9F98046C00723D006F00F0209FA62
:101E500002F0D5F834288243C5F8342805EB461043
:101E6000C0F80899206901280FD106EBC60004EBE1
:101E70008000D0E912211144C16436B9606D20B9E7
:101E800020680121009A03F06DFFF1B22046FFF7B0
:101E9000B4FD5FEA087003D505EB4611C1F808B937
:101EA0005FEAC86004D505EB46111020C1F80809A7
:101EB0005FEA486004D505EB46104021C0F80819D8
:101EC0005FEA887017D53146284604F035F906EBED
:101ED000C60004EB800090F83F103C30012905D18A
:101EE00080F803A0F1B2204600F068F905EB461136
:101EF0000220C1F808095FEA086003D53146204690
:101F000001F0FAFE7F08761C002F95D1206804F0BE
:101F10006CF9002811DAD5F8040820F00101C5F8A1
:101F2000041894F8F40401282BD0204600F018FA85
:101F30002068416901F000414161206804F055F9D1
:101F400000050BD5D5F80808C00702D0204600F0E0
:101F50004BFA2068416901F400614161206804F096
:101F600044F9C00466D5D5F8040820F00100C5F88E
:101F700004081021206804F0DFF800214FF67F32BA
:101F80001FE084F8F4A400212046FFF70BFDCFE703
:101F900005EB4110C0F80829D0F8003923F40013EC
:101FA000C0F80039C0F8082BD0F8003B23F4001328
:101FB000C0F8003BD0F8003B43F00063C0F8003BA2
:101FC000491C60688842E3D8D5F81C0840F001112C
:101FD000C5F81C18206B002828460DD0D0F88408BE
:101FE00040F00B01C5F88418D5F8440840F00B0107
:101FF0002846C5F844180DE0D0F8140842F22B0129
:102000000843C5F81408D5F8100840F00B0128461D
:10201000C5F81018D0F8000820F4FE61C5F80018C3
:10202000217C2068009A03F09DFE2068416901F43C
:1020300080514161206804F0D8F8800415D52068EB
:1020400003F058FC206804F097F8E06000F07EFA96
:102050000146227B206804F02BF9204600F06AF943
:102060002068416901F400514161206804F0BDF825
:10207000000707D5204600F077F92068416901F094
:1020800008014161206804F0B0F8000616D5A8697F
:1020900020F08000A86101260DE000BF06EBC6001D
:1020A00004EB800090F87F02012803D1F1B22046B2
:1020B000FFF7BAFC761C6068B042EFD8206804F0E5
:1020C00094F8C00221D501264F4616E005EB4610D4
:1020D000D0F8001906EBC60004EB800090F8402011
:1020E000012A09D1002907DA80F83F70F0B240F0E8
:1020F00080012046FFF798FC761C6068B042E5D866
:102100002068416901F480114161206804F06DF894
:10211000800234D501204B4629E000BF05EB401179
:10212000D1F8001B00EBC00204EB820696F8802277
:10213000012A1BD1002919DA94F8FC2401F480311A
:1021400002F00102914211D186F87F32A96941F073
:102150008002AA616969090608D4D5F8040840F428
:102160000070C5F8040805E00A30544F401C61684F
:102170008142D3D82068416901F40011416120688F
:1021800004F033F8400007D52046FFF732FC206802
:10219000416901F080414161206804F026F8400760
:1021A0000AD520684568680702D52046FFF738FC45
:1021B0002068416829434160BDE8FC9FD0F80805CC
:1021C00003F056B8D0F8080503F066B82DE9F041E1
:1021D0008AB0040005D094F8BD042668002520B11B
:1021E00008E001200AB0BDE8F08184F8BC54204624
:1021F00000F05EF8032084F8BD04F06BC00500D445
:102200002561206803F01AFD04F110012822884698
:102210006846FEF708F894E80F0003F079FB022601
:10222000C8BB0021206804F003F8002001270EE05D
:1022300000EBC00104EB810181F83D7001F83C0F17
:1022400008810D71CD600D61401CC0B28D61616867
:102250008142EDD8002011E000EBC00104EB8101C8
:1022600081F87D5281F87C0281F88052C1F8885251
:10227000C1F88C52401CC0B2C1F8945261688142CE
:10228000EAD8282241466846FDF7CDFF94E80F00C2
:1022900003F01AFC10B184F8BD64A2E784F838504A
:1022A00084F8BD74206803F001FC00209AE7000068
:1022B00010B586B0044614216846FDF7CDFF2068AE
:1022C000B0F1A04F2FD119480021026842F001025D
:1022D0000260006800F0010005904FF4C0500090CB
:1022E0000220CDE90101032003900A2004906946F1
:1022F0000F48FFF7A7F90D48001D016841F0800164
:1023000001600A481430016841F4804101600068AE
:10231000002200F48040059007214320FFF7FEFAD9
:102320004320FFF7EDFA06B010BD00003038024040
:102330000000024070B50446C068012570B1022853
:1023400001D0FEF74FF92946D4F8080503F012F83A
:10235000D4F80805BDE8704002F0C7BF0025F2E7D9
:10236000D0F8080502F0EFBFD0F8080502F0F5BF7D
:1023700010B5044690F8BC0401280BD0012084F865
:10238000BC0484F83810206803F080FF002084F833
:10239000BC0410BD022010BDD0F8082500F2C441D5
:1023A000104602F0F3BF10B50446006894F8BC1460
:1023B000012906D0012184F8BC14A16A012902D0A8
:1023C00008E0022010BDA169012903D0816B41F40E
:1023D00080318163206803F08AFE206803F058FB97
:1023E000002084F8BC0410BD10B50446D0F80805E0
:1023F00003F00EF82068D0F8001E41F00101C0F88B
:10240000001E206A002804D00248016841F006013D
:10241000016010BD10ED00E02DE9F0470E4605000B
:1024200065D0DFF81481D8F80000F7B200F007009B
:10243000B04207D288F80070D8F8000000F007001A
:10244000B04254D128683D4C810712D5400703D5CE
:10245000206840F4E05020602878000703D5206809
:1024600040F4604020602068A96820F0F000084334
:1024700020602878C0072DD03049686808390128C5
:1024800012D0022813D0032811D009688907002927
:102490002DDA216821F0030101432160FFF7D0F913
:1024A000814641F2883A0EE009688903EFE709683E
:1024B0008901ECE7FFF7C4F9A0EB0901514502D906
:1024C0000320BDE8F0872068696800F00C00B0EBDD
:1024D000810FEFD1D8F80010404601F00701B1425A
:1024E00007D90770006800F00700B04201D0012052
:1024F000E7E72878400705D52068E96820F4E05030
:10250000084320602878000706D52068296920F450
:10251000604040EAC100206000F01EF82168084ACF
:10252000C1F30311515CC8400649086006480068C1
:10253000FFF7AEF90020C4E7003C02400838024033
:1025400016740008A00000209800002001480068D0
:1025500070470000A0000020154810B5006810F07A
:102560000C02144813D04110042A0FD0082A0ED1AF
:102570000F4C241F2268236802F03F025B0207D53C
:102580002068C0F38810A0FB010106E0084610BDDA
:102590002168C1F38811A1FB00010023FDF712FEA1
:1025A0002168C1F30141491C4900B0FBF1F010BDA5
:1025B000083802400024F4002DE9F84F04006ED0E2
:1025C0002078DFF84C93C007A9F104054AD009F13F
:1025D00004000168C1F38101012908D00068C0F33B
:1025E000810002280AD1D9F80000400206D52868E7
:1025F000800337D560680028E1D033E06068B0F52B
:10260000803F10D0B0F5A02F286810D020F4803083
:102610002860286820F4802028606068A8B1FFF74F
:102620000FF906460DE0286840F48030F4E740F4E6
:1026300080202860F7E700BFFFF702F9801B6428BD
:1026400073D828688003F7D50CE0FFF7F9F8064641
:1026500005E000BFFFF7F4F8801B6428F0D8286875
:102660008003F7D42078DFF8AC8280074FF0000AAF
:102670003ED5A748001D016811F00C0F08D0006876
:10268000C0F3810002280BD1D9F80000400207D422
:102690002868800716D5E068012800D112E033E1F0
:1026A000E068B8B10120C8F80000FFF7C9F8064695
:1026B00005E000BFFFF7C4F8801B0228C0D82868D7
:1026C0008007F7D52868216920F0F80040EAC100AA
:1026D00028600DE0C8F800A0FFF7B2F8064604E055
:1026E000FFF7AEF8801B02281FD828688007F7D4B0
:1026F0002078000722D5864F87486169703771B10D
:1027000001210160FFF79CF8064604E0FFF798F806
:10271000801B022809D838688007F7D50EE0C0F87A
:1027200000A0FFF78DF8064605E082E0FFF788F885
:10273000801B02287DD838688007F7D420784007AE
:1027400068D5DFF8CCB100270BF13C0BDBF80000BB
:10275000C0000BD4DBF8001041F08051CBF8001022
:10276000DBF80000012700F0805000906B4E3068CD
:10277000C00510D4306840F480703060FFF760F816
:10278000009005E0FFF75CF80099401A022850D845
:102790003068C005F6D55E4EA0686C3601280FD0B3
:1027A0000528306810D020F001003060306820F03B
:1027B00004003060A068B8B1FFF742F800900FE065
:1027C000306840F00100F4E740F004003060F7E7C3
:1027D000FFF736F80099411A41F28830814266D8F5
:1027E00030688007F4D50EE0FFF72AF8009007E084
:1027F000FFF726F80099411A41F28830814256D8F5
:1028000030688007F4D42FB1DBF8001021F080513C
:10281000CBF80010A069C8B33D49091D0968C1F390
:10282000810102294AD00228504607D0C8F860002A
:1028300000E03CE0FFF704F804463BE04746C8F8F8
:102840006000FEF7FDFF064605E000BFFEF7F8FF5B
:10285000801B02282BD828688001F7D4D4E907010F
:102860000843A16A2E4A490802EB0141626A41EA23
:102870008211084394F82C1040EA0161C9F8001055
:1028800001203866FEF7DCFF044606E03EE000BFAC
:10289000FEF7D6FF001B022809D828688001F7D56B
:1028A00034E000BFFEF7CCFF001B022802D9032052
:1028B000BDE8F88F28688001F4D427E00128F7D01C
:1028C000D9F80000E26900F4800191421CD1226A2B
:1028D00000F03F01914217D147F6C071626A014092
:1028E000B1EB821F10D1A26A4FF0FF3300F44031E8
:1028F00003EB5202B1EB024F06D194F82C1000F01A
:102900007060B0EB016F01D00120D1E70020CFE76C
:102910000438024000004742800E474200700040E9
:102920000000FFFF70B5040009D0606A002540B1C7
:1029300025616561A56294F8510040B10CE0012069
:1029400070BD6068B0F5827FF4D0E561F2E784F88D
:102950005050204600F044F8022084F851002068CE
:10296000016821F040010160A088218900F4827093
:1029700001F404410843A18901F400610843217C6A
:1029800001F002010843217D01F001010843218B80
:1029900001F400710843217F01F03801084394F8E5
:1029A000201001F080010843218D01F400510843FB
:1029B00021680860A069042101EA104094F82410FD
:1029C00001F010010843216848602068C16921F4C2
:1029D0000061C1616565012084F85100002070BD6F
:1029E00010B586B0044614216846FDF735FC13493E
:1029F0002068884220D112480021026842F4004237
:102A00000260006800F4004005900D48103802682C
:102A100042F002020260006800F0020005903820D7
:102A200000900220CDE901010320039006200490CC
:102A300069460448FEF706FE06B010BD003C0040A3
:102A400040380240000402402DE9F84F044690F857
:102A5000500000270A9E1D4692468B464FF0010902
:102A600001280ED0012084F85000FEF7E9FE8046D0
:102A700094F85100616801280CD0B1F5827F07D12C
:102A800002E00220BDE8F88FA16809B9042801D04E
:102A90000227C2E0BBF1000F27D0BAF1000F24D00B
:102AA0001DB394F85100042802D0052084F8510089
:102AB00000206065C4F838A0E587A587C4F830B069
:102AC000E586A5862064606420680168490603D411
:102AD000016841F040010160E068B0F5006F606896
:102AE00005D0E8B3012D46D07FE0012795E008B17D
:102AF000012D39D1206B21680088C860206B801CB3
:102B00002063E08E401EE0862EE020688168890701
:102B10000FD5E18E69B1B9F1010F0AD1216B098896
:102B2000C160206B801C2063E08E401EE0864FF069
:102B3000000920688168C9070CD0E18F51B1C068D5
:102B4000A16B0880A06B801CA063E08F401EE08713
:102B50004FF00109FEF774FEA0EB0800B04200E060
:102B600009E001D3701C50D1E08E0028CDD1E08F58
:102B70000028CAD13FE0206B216800780873206BE1
:102B8000401C2063E08E401EE0862EE020688168B5
:102B900089070FD5E18E69B1B9F1010F0AD1216B17
:102BA00009780173206B401C2063E08E401EE08694
:102BB0004FF0000920688168C9070CD0E18F51B13E
:102BC000C068A16B0870A06B401CA063E08F401E22
:102BD000E0874FF00109FEF733FEA0EB0800B0429A
:102BE00002D3701C01D010E07EB1E08E0028CDD160
:102BF000E08F0028CAD142463146204601F022FB30
:102C000028B101272020606507E0032705E0A068C0
:102C100018B92068C16880680090012084F85100CC
:102C2000002084F8500038462CE710B5401EB0F163
:102C3000807F01D3012010BD4FF0E02460610F219F
:102C4000601703F01FFC0020A06107202061002016
:102C500010BD7047704710B590F83C20012A22D073
:102C6000012280F83C20CA688C6822F4407222431A
:102C70004C6822F4806222430C6822F400622243F2
:102C80000C6922F4805222434C6922F40052224300
:102C9000C969002322F480420A4301684A6480F82B
:102CA0003C30002010BD022010BD000070B590F82F
:102CB0003C20012A32D0012480F83C40022280F8D6
:102CC0003D2003685A689D6822F070060A68324306
:102CD0005A60134B02689A4214D0B2F1804F11D05F
:102CE000104B9A420ED0104B9A420BD00F4B9A4287
:102CF00008D00F4B9A4205D00E4B9A4202D00E4B91
:102D00009A4204D1496825F080031943916080F804
:102D10003D40002180F83C10084670BD022070BD87
:102D2000000001400004004000080040000C00408A
:102D300000040140004001400018004010B5044666
:102D4000022249B104290ED0082913D094F8450075
:102D5000012816D0012010BD94F842000128F9D1B5
:102D600084F842200FE094F843000128F2D184F85F
:102D7000432008E094F844000128EBD184F8442073
:102D800001E084F845200422206801F038FC206826
:102D9000416C41F40041416411492068884214D0DB
:102DA000B0F1804F11D00F4988420ED00E498842B1
:102DB0000BD00E49884208D00D49884205D00D49F4
:102DC000884202D00C49884204D1816801F0070191
:102DD000062903D0016841F001010160002010BD07
:102DE000000001400004004000080040000C0040CA
:102DF00000040140004001400018004070B5044646
:102E00000D460068002201F0FAFB2068036A41F2D7
:102E100011110B4240F2444206D1036A134203D11E
:102E2000436C23F4004343642068036A0B4206D1D9
:102E3000016A114203D1016821F001010160012002
:102E40003DB1042D08D0082D09D084F8450000209C
:102E500070BD84F84200FAE784F84300F7E784F88D
:102E60004400F4E710B5040003D094F83D0010B11D
:102E700007E0012010BD002084F83C00204600F04F
:102E80001FF8022084F83D00211D206801F046FB58
:102E9000012084F8460084F83E0084F83F0084F85E
:102EA000400084F8410084F8420084F8430084F82C
:102EB000440084F8450084F83D00002010BD000067
:102EC00070B586B0044614216846FDF7C5F92D4853
:102ED00024682B4E00222B49143802250123B442CA
:102EE00018D10C6844F001040C60096801F001017C
:102EF0000591016841F0020101600068CDE90232EC
:102F000000F0020005901803CDE90005694604931E
:102F10001D4832E01D4EB44213D11A48001F01680B
:102F200041F0100101600068002200F010000590DF
:102F300005213620FEF7F2FC3620FEF7E1FC06B054
:102F400070BD134EB442FAD10C6844F002040C6018
:102F5000096801F002010591016841F00101016079
:102F60000068029300F0010005904020CDE90005C3
:102F70000320CDE9032069460648FEF763FBDEE740
:102F800000000140443802400004024000100040AC
:102F9000000401400000024090F83D10012901D0DA
:102FA00001207047022180F83D100168CA6842F094
:102FB0000102CA6000681149884214D0B0F1804F04
:102FC00011D00F4988420ED00E4988420BD00E49CD
:102FD000884208D00D49884205D00D49884202D068
:102FE0000C49884204D1816801F00701062903D009
:102FF000016841F0010101600020704700000140BC
:103000000004004000080040000C004000040140A3
:10301000004001400018004070B5044690F83C00A4
:103020000025012817D0012684F83C60022084F88E
:103030003D002068826822F0770222F47F4282609D
:103040000868502838D00DDC20284FD005DC90B31C
:10305000102811D14AE0022070BD302846D0402807
:103060000AD13BE060282FD070280DD0B0F5805FEA
:1030700003D0B0F5005F12D0012584F83D60002038
:1030800084F83C00284670BDCB68D1E90121206856
:1030900001F0C2FA2068816841F0770109E0CB684D
:1030A000D1E90121206801F0B7FA2068816841F474
:1030B00080418160E1E719E0CA684968206801F051
:1030C0007FFB5021206806E0CA684968206801F04B
:1030D00088FB6021206801F0A9FACEE7CA68496838
:1030E000206801F06DFB40212068F4E7226801466A
:1030F0001046F0E72DE9F0410D46040003D094F8A6
:103100003D0018B108E00120BDE8F081002084F8FE
:103110003C00204600F040F8022084F83D00206882
:10312000816844F2070291438160211D206801F00B
:10313000F5F9226890689169166A2B68AF690343B4
:1031400040F20330814341EA0721A868EF69084350
:103150004FF6FC418843E96840EA072001432869AB
:103160002F6A000140EA0730084369686D6926F05C
:10317000AA0646EA0515294393602268906154F82F
:10318000460B0162012004F81F09E0752076E07605
:103190002077A0750020B7E710B586B0044614214B
:1031A0006846FDF759F82068B0F1804F1FD11148EB
:1031B0000021026842F001020260006800F0010094
:1031C00005900C481038026842F001020260006865
:1031D00000F001000590032000900220CDE90101DC
:1031E00003900120049069460348FEF72BFA06B0CD
:1031F00010BD00004038024000000240704770B52A
:103200000446006801694FF00005C943890715D4D9
:10321000C168C943890711D4E91E016101202077E3
:10322000206880698007204602D0FFF7E7FF04E0AE
:1032300000F0FEF8204600F090F92577206801693B
:10324000C943490717D4C168C943490713D46FF06C
:1032500004010161022020772068806910F4407F1A
:10326000204602D0FFF7CAFF04E000F0E1F8204654
:1032700000F073F9257720680169C943090716D45E
:10328000C168C943090712D46FF008010161042025
:1032900020772068C0698007204602D0FFF7AEFF84
:1032A00004E000F0C5F8204600F057F925772068C3
:1032B0000169C943C90617D4C168C943C90613D4F3
:1032C0006FF010010161082020772068C06910F4B8
:1032D000407F204602D0FFF791FF04E000F0A8F8FD
:1032E000204600F03AF9257720680169C943C907EB
:1032F00008D1C168C943C90704D1891E01612046AC
:1033000000F0CEF920680169C943090609D4C168F3
:10331000C943090605D46FF0800101612046FFF71B
:1033200098FC20680169C943490609D4C168C943AA
:10333000490605D46FF040010161204600F0D6F93E
:1033400020680169C94389060BD4C168C94389064D
:1033500007D46FF0200101612046BDE87040FFF7FF
:1033600079BC70BDF0B587B0044614216846FCF7FF
:1033700073FF294A2168002528480224284E9142DB
:1033800021D1016841F002010160016801F00201F0
:103390000591016841F0010101600068012700F01A
:1033A000010005904FF460408DE83100CDE90357EE
:1033B00069461C48FEF746F94FF4E0608DE831009D
:1033C0006946304621E0184A914222D1016841F015
:1033D00001010160016801F001010591016841F0FE
:1033E000040101600068032700F0040005908020BC
:1033F0008DE83100CDE9035769463046FEF722F9E2
:1034000040208DE8310009486946CDE90357FEF7B1
:1034100019F907B0F0BD000000000140303802404B
:103420000000024000040240000401400008024085
:10343000704770B5044690F83C0000260D46012800
:103440000FD0012084F83C006AB1042A1DD0082A5C
:103450002FD00C2A3FD00126002084F83C003046B3
:1034600070BD022070BD206801F0E8F82068816915
:1034700041F0080181612068816921F004018161C6
:10348000206881692A69114311E0206801F006F97A
:103490002068816941F4006181612068816921F4BB
:1034A00080618161206881692A6941EA0221816124
:1034B000D2E7206801F028F92068C16941F00801CD
:1034C000C1612068C16921F00401C1612068C1693E
:1034D0002A69114311E0206801F04AF92068C169A6
:1034E00041F40061C1612068C16921F48061C1615A
:1034F0002068C1692A6941EA0221C161ACE710B5BF
:10350000040003D094F83D0010B107E0012010BD85
:10351000002084F83C00204600F01EF8022084F8C9
:103520003D00211D206800F0F9FF012084F84600CD
:1035300084F83E0084F83F0084F8400084F841009D
:1035400084F8420084F8430084F8440084F845007D
:1035500084F83D00002010BD7047704710B5044648
:10356000022249B104290ED0082913D094F8410051
:10357000012816D0012010BD94F83E000128F9D191
:1035800084F83E200FE094F83F000128F2D184F83F
:103590003F2008E094F840000128EBD184F8402057
:1035A00001E084F841200122206801F01BF816494F
:1035B0002068164A884201D0904203D1436C43F4FC
:1035C000004343642068884213D0B0F1804F10D08C
:1035D0000F4988420DD00F4988420AD00E498842CF
:1035E00007D0904205D00D49884202D00C4988424C
:1035F00004D1816801F00701062903D0016841F078
:1036000001010160002010BD0000014000040140E4
:103610000004004000080040000C00400040014051
:103620000018004030B504460D460068002200F046
:10363000D9FF194B41F2111120688A10984202D02B
:10364000164B984209D1036A0B4206D1036A134212
:1036500003D1436C23F4004343642068036A0B42A4
:1036600006D1016A114203D1016821F00101016014
:1036700001203DB1042D08D0082D09D084F8410067
:10368000002030BD84F83E00FAE784F83F00F7E7F9
:1036900084F84000F4E7000000000140000401400D
:1036A00010B500680E49884219D10E48FDF7BAFBE3
:1036B0000D4CA078401CC0B2A0700A280FD3002087
:1036C000A07003F0EBFD03F017FB84ED020A03F09A
:1036D000CDFA84ED030ABDE8104003F03FBC10BDF5
:1036E000001000407C110020040000207047000002
:1036F0000021014803F034BB1C12002004210148C2
:1037000003F02EBB1C1200200821014803F028BB47
:103710001C1200200021014803F022BBF4120020FB
:10372000FEE70000F0B500230A24302537261F46A7
:1037300011E000BFB4EB107F02D905EB107C01E073
:1037400006EB107C01F813C001EB430C00015B1C7D
:103750008CF80170DBB29342ECD3F0BD30B58DB084
:103760000024089409940A94202168460B94FCF7DD
:1037700073FD25482349012501604FF4803105611F
:10378000C0E90114047680F820402049C0E90A14F9
:10379000C561C46080F830404561FDF723FD08B184
:1037A000FCF720FF0820CDE9080504200A9008A9AD
:1037B0001548FDF7D5FB08B1FCF714FF0E20CDE945
:1037C0000005032002901248CDE9060402258DF879
:1037D000154004958DF8144069460B480394FDF795
:1037E000F3F808B1FCF7FEFE0F20CDE900056946AD
:1037F0000548FDF7E9F8002801D0FCF7F3FE0DB00D
:1038000030BD0000002001407C1100200100000FAD
:1038100001000F00F0B587B014216846FCF71CFDCD
:1038200032480024016841F010010160016801F094
:1038300010010591016841F080010160016801F00B
:1038400080010591016841F001010160016801F00A
:1038500001010591016841F004010160016801F076
:1038600004010591016841F0020101600068204EE9
:1038700000F002000590012230213046FDF7DAFF0A
:103880001C4F012210213846FDF7D4FF01253020BE
:10389000CDE90005CDE9025469463046FDF7D2FE78
:1038A0004FF6C0708DE8310069463046FDF7CAFE1C
:1038B000082000904FF48810CDE90104694638468D
:1038C000FDF7C0FE1020CDE900050220CDE9024041
:1038D00069463846FDF7B6FE002206210920FEF7AC
:1038E0001DF80920FEF70CF807B0F0BD3038024093
:1038F0000010024000000240114810B50F4901605D
:103900004FF48271416000214FF40062C0E902125D
:103910000222026101224261520282611022C0E948
:103920000721416281620A21C162FEF7FBFF002884
:1039300003D0BDE81040FCF755BE10BD003C004070
:10394000C411002070B596B000240F941094119407
:10395000129413941C2168461494FCF77DFC2021DA
:1039600007A8FCF779FC3948374901605321C0E9C1
:1039700001146321C0E9031444618461FFF772FA02
:1039800008B1FCF72FFE4FF480550FA92F480F9573
:10399000FFF742FB08B1FCF725FE2C48FFF7AFFD0F
:1039A00008B1FCF71FFE7026CDE9136413A9274860
:1039B000FFF77CF908B1FCF715FE6020009031207C
:1039C000CDE901040820CDE903044001CDE9050457
:1039D000002269461D48FFF72CFD08B1FCF702FEE6
:1039E000042269461948FFF724FD08B1FCF7FAFDE7
:1039F000082269461548FFF71CFD08B1FCF7F2FDE7
:103A000032200594CDE900600C2269460F48FFF78B
:103A100010FD08B1FCF7E6FD4FF400600790401080
:103A2000CDE9080400010E90CDE90A4507A90C94E0
:103A30000648FFF710F908B1FCF7D4FD0348FFF77B
:103A400091FC16B070BD0000000001401C12002067
:103A500010B58CB024216846FCF7FEFB0024154805
:103A600009944FF080410A94C0E90014611EC0E936
:103A70000241046184610320CDE900040120CDE905
:103A8000020406210491CDE90540CDE907416946CC
:103A90000848FFF72FFB08B1FCF7A4FD099409A91A
:103AA00004480A94FFF702F9002801D0FCF79AFDB8
:103AB0000CB010BD641200201CB500240E48009408
:103AC0000C49019401605321C0E901146321846110
:103AD000C160FFF7C7F908B1FCF784FD009469469F
:103AE00005480194FFF7E2F8002801D0FCF77AFDC1
:103AF0001CBD000000100040AC12002030B595B095
:103B000000240F9410941194129413941C2108A86B
:103B10001494FCF7A1FB20216846FCF79DFB294883
:103B2000274901605321C0E901146321C0E903144E
:103B300044618461FFF796F908B1FCF753FD4FF437
:103B400080550FA91F480F95FFF766FA08B1FCF7DB
:103B500049FD1C48FFF7D3FC08B1FCF743FD139463
:103B600013A918481494FFF7A1F808B1FCF73AFD1F
:103B70006020CDE908040820CDE90A404001CDE9E4
:103B80000C40002208A90F480E94FFF752FC08B120
:103B9000FCF728FD4FF4006000904010CDE90104CF
:103BA000CDE903450594694606480794FFF753F8A5
:103BB00008B1FCF717FD0348FFF7D4FB15B030BD83
:103BC00000040140F412002010B500220F491048F3
:103BD00001F031FA08B1FCF705FD0E490C4801F07F
:103BE0003FFC08B1FCF7FEFC0B49094800F0D2FF8E
:103BF00008B1FCF7F7FC064801F0B6FC002803D03A
:103C0000BDE81040FCF7EEBC10BD00002C00002009
:103C10003C130020FC0000207C000020FEE7FEE7B3
:103C20000148FEF71BB80000382A00202DE9F041BA
:103C300003680D4604461E6C03EB4511D1F8080BD2
:103C4000D4F810E04FF400474FF0200C04F2C442C7
:103C5000BEF1010F09D0DFF898E0764539D10204B2
:103C600032D500BFC1F8087B3FE0224B5FEA007EFF
:103C700004D59E4239D90004F4D436E05FEA806E60
:103C800002D5C1F808CB30E010F0280F2DD19E42AC
:103C900001D90004E6D405EBC50004EB8000D1F89F
:103CA000101BD0F89832C1F31201591AC0F89C12B7
:103CB00000F51F70ADB983691BB102691144016140
:103CC0000FE0012120680AE080060AD5C1F808CB80
:103CD00007E035B9D4F8940218B90021184602F06B
:103CE00041F8E9B22046FDF791FE0020BDE8F081E1
:103CF0000A31544F0A30544F2DE9F84F0E4601EB6C
:103D0000C60100EB810481460568616DE06D3C34BD
:103D1000884202D90120BDE8F88F081AE168814283
:103D200000D20846C01C870805EB46181BE000BF00
:103D3000A0EB010AE068504500D282460AF1030078
:103D4000870899F8100000901FFA8AF3F2B228460B
:103D5000216902F021FB216901EB0A002061216A3F
:103D600001EB0A002062D8F8180980B2B84205D3E6
:103D7000216AA069814201D20028D9D1216AA069B3
:103D8000884208D806F00F0101208840D5F8341881
:103D90008143C5F834180020BDE70000C0ED051AC6
:103DA00012EE901A80EC030A9FED0D0A0D4A80ED89
:103DB000040A80ED030A80ED080A80ED090A9142A9
:103DC00001DDF0EE042A12EE101A074A914201D9E1
:103DD000B8EE042A80ED072AC0ED062A70470000DD
:103DE0000000000000002040000020C0B0EE401A9B
:103DF00090ED030AD0ED010A01EE200A80ED030ADE
:103E0000D0ED060AB4EEE00AF1EE10FA02DDC0EDE4
:103E1000030A08E0D0ED071AB4EEE10AF1EE10FA59
:103E200001D2C0ED031A90ED030AD0ED001A90ED17
:103E3000082A01EE810A31EE422AD0ED021A01EE83
:103E4000820AF4EEC00AF1EE10FA06D3D0ED070AAA
:103E5000F4EEC00AF1EE10FA01DDB0EE600A80ED7A
:103E6000081A70477047000070B50B4D002400BF62
:103E700000F07AF948B108480C304088A5F80200F3
:103E800000EE100AB8EE400A70BD641CE4B20A2CC1
:103E9000EED36888F4E70000501100202DE9F04FC0
:103EA000A94900202DED028BE5B0088048800871FB
:103EB0004871A1F10C094FF4CA7189F800006846F5
:103EC000FCF7CAF9A148B3EE080A80ED080AB3EE80
:103ED000040A80ED0E0A9E48D0ED000A9FED9D1A5F
:103EE00081EE200ABCEEC00A10EE100AC0B200EE4D
:103EF000100AF8EE400A9FED988A9448B0EE480AFE
:103F000003F098F90021914802F0C6FDC820FDF7A2
:103F1000CFFAFFF7A9FF4FF480718C4802F0BCFD87
:103F20001E20FDF7C5FAFFF79FFFBCEEC00A09F19E
:103F300008044FF4007110EE100A2080834802F04C
:103F4000ABFD1E20FDF7B4FAFFF78EFF4FF4407172
:103F50007E4802F0A1FD1E20FDF7AAFA00217B4851
:103F600002F09AFD4FF47A70FDF7A2FAFFF77CFF9A
:103F7000BCEEC00A10EE100A80B260802188401AA0
:103F800001B2002909DD40F69F7101FA80F141F686
:103F90003E70814201D8012101E04FF0FF316A4DAE
:103FA00000246E4FAD1DC9F8041000BFFFF75CFF81
:103FB000BCEEC00A10EE100A27F81400641C04F0CE
:103FC000030035F81010614802F066FD0A20FDF785
:103FD0006FFAA4B2C82CE9D300215C4802F05CFD62
:103FE0004FF4FA70FDF764FA574E00250E365C4C1C
:103FF000FFF73AFFBCEEC00A10EE100A24F81500D5
:1040000005F0030036F81010504802F045FD0A2074
:10401000FDF74EFA6D1CADB2C82DE9D3A346248836
:104020003B88C825BA4600206E001F1BF6EE000A2A
:104030001919EE4613E090B1C0F1C8083AF8102003
:104040003BF818C0A2EB0C0805FA88F8B04577D900
:10405000624564D9C2F58048E04564DC68E005FA51
:1040600087F2B24221D9A3420FD9C3F58042A242BE
:104070000FDC13E0B8EE400A20EE200ABCEEC00AC6
:1040800010EE102AADF800201EE0C4F580429A42DE
:1040900004DD01F5804200EE102AEBE7A1F5804235
:1040A00000EE102AB8EEC00AE6E700EE101AE1E7CB
:1040B00000EE102AB8EE400A20EE200ABCEEC00A3C
:1040C00010EE102A2EF81020401CC0B2C828B2D31F
:1040D000B0EE480A1D48F0EE400A03F0ABF80021AC
:1040E0001A4802F0D9FCD9F804004C46012829D01E
:1040F0005FF01600ADF89001C92269461948FCF737
:10410000C1FB4FF47A70FDF7D3F90120207072B62D
:10411000FDF736FC65B0BDEC028BBDE8F08FCCF549
:104120008048904504DD624402F58042C0E707E024
:104130006244A2F5804200EE102AB8EEC00ABBE746
:104140006244B5E70B20D5E75C110020F430002075
:104150000C00002000004042000000008C3A0020CB
:104160001C3C0020000006082DE9FE4F4FF40340E0
:10417000ADF804004FF404400025DFF8BCB02F4C2C
:10418000ADF806000DF104090DF1080A6E1E4FF09E
:104190000108002210215F465846FDF74BFB012322
:1041A00002AA01A926480096FEF74EFC0122102122
:1041B0003846FDF73FFB002210213846FDF73AFB59
:1041C00001230AF1020209F102011D480096FEF7DF
:1041D0003BFC012210213846FDF72CFBBDF80800FE
:1041E000BDF80A20C0B260F31F22002122800846D9
:1041F0004FEA080303FA00F73A4201D0491CC9B25A
:10420000401CC0B21028F5D3C80706D000206D1C92
:10421000EDB22071032DBCD308E084F80480C2F312
:104220008D006080C2F34000607110B10020BDE8D5
:10423000FE8F0120FBE70000000002405C1100201F
:10424000C411002038B504461248134B0068B0FB77
:10425000F3F04FF47A73584300906068B0F5827FB2
:104260000DD10B46009200228021204600F016F866
:1042700070B1606D40F020006065032038BD00988B
:1042800030B1401E009020688068C0430006F6D51B
:10429000002038BDA000002000366E012DE9F84353
:1042A0001E46914688460446089DFDF7C9FA401B04
:1042B000351AFDF7C5FA074625480068C0F3CB302C
:1042C000684338E0701C37D0FDF7BAFAC01BA8422B
:1042D00003D215B1009860B32CE02068416821F04A
:1042E000E00141606068B0F5827F0BD1A068B0F555
:1042F000004F02D0B0F5806F04D12068016821F032
:1043000040010160A06AB0F5005F09D12068016832
:1043100021F4005101602068016841F400510160FE
:10432000012084F85100002084F850000320BDE8EB
:10433000F8830025401E00902068816838EA01005B
:1043400004D000214945BDD10020F0E70121F9E763
:10435000A000002070470178407841EA00207047B3
:10436000F0B53B483C4AC82701885220B1FBF0F326
:10437000384816680088C83006FB030090FBF7F247
:1043800007FB1205354B6C1E03F5C8706D1C2EE043
:1043900004F1C80292FBF7FC07FB1C2202F1010C9E
:1043A0009CFBF7FE07FB1ECC33F812E033F81CC071
:1043B000012E06D0F44512D28E4517D38C4506D96E
:1043C00014E0F44505D98E4510D88C450ED3027003
:1043D0000FE00BD28E4509D80CF5804CF5E705D9D6
:1043E0008E4503D301F5804EF445F0D9641CAC42F0
:1043F000CEDD02781A4C551CB5FBF7FC34F912409F
:1044000007FB1C55446033F8155033F812207543F0
:1044100002FB06F39D4202DD891A71430BE043F66D
:104420004873012E04D09942A2EB01010CD802E09E
:10443000994205D9891A090291FBF4F10181F0BD75
:10444000C2F580421144F6E7090201F58001F3E765
:10445000441100203401002054110020642F00205A
:1044600074310020FDF7F2B930B593B030216846C1
:10447000FBF7F2FE14210CA8FBF7EEFE1E48002508
:10448000016841F080510160006800F08050119097
:104490001A48016841F4804101600068022400F478
:1044A0008040119001200090000401908001CDE92E
:1044B0000640082008904FF4A870CDE909040720B1
:1044C0000B906846FEF778F808B172B6FEE70CA9C3
:1044D0000F2081E831004FF4A0500F904FF480502E
:1044E000109005210CA8FDF797FF002801D072B6A7
:1044F000FEE713B030BD00004038024000700040BD
:104500000248016841F470010160704788ED00E0E5
:104510000148FEF774BE0000AC120020F0B502683E
:10452000254C264D264E274F274B4FF0804CA0425E
:1045300009D0604507D0A84205D0B04203D0B842A8
:1045400001D0984204D122F0700E4A6842EA0E026D
:10455000A0421BD0604519D0A84217D0B04215D058
:10456000B84213D0984211D0184DA8420ED0184D21
:10457000A8420BD0174DA84208D0174DA84205D02D
:10458000164DA84202D0164DA84203D122F4407520
:10459000CA682A434D6922F080022A4302608A6871
:1045A000C2620A688262A04201D0984201D10969C0
:1045B000016301214161F0BD0000014000040040A1
:1045C00000080040000C0040000401400040014091
:1045D000004401400048014000180040001C004019
:1045E0000020004010B501F01F030121046A99402A
:1045F0008C430462016A9A401143016210BD10B5F8
:1046000001F01F030421046A99408C430462016A8B
:104610009A401143016210BD10B5846842EA03223A
:1046200024F47F440A432243826010BD826822F052
:1046300070020A4342F0070181607047F0B5026AD8
:1046400022F001020262036A42688469124E24F079
:1046500073050C682C4323F002058B682B430D4D2A
:10466000A84201D0B04205D123F00807CB683B43F4
:1046700023F00403A84201D0B04205D14D6922F4D1
:10468000407215438A692A434260846149684163E4
:104690000362F0BD0000014000040140F0B5026A71
:1046A00022F010020262026A436884690D6824F4F1
:1046B000E64444EA05248D6822F0200242EA05120D
:1046C0000F4D104EA84201D0B04206D1CF6822F063
:1046D000800242EA071222F04002A84201D0B04212
:1046E00007D14D6923F4406343EA85038D6943EAAA
:1046F000850343608461496881630262F0BD000004
:104700000000014000040140F0B5026A22F480720A
:104710000262026A4368C46922F4007224F07305DD
:104720000C68124E2C438D6842EA05220E4DA842B9
:1047300001D0B04206D1CF6822F4006242EA0722DB
:1047400022F48062A84201D0B04207D14D6923F41F
:10475000405343EA05138D6943EA05134360C4617E
:104760004968C1630262F0BD0000014000040140DD
:1047700030B5026A22F480520262046A4268C36958
:104780000D6823F4E64343EA05238D6824F40054BE
:1047900044EA0534084DA84202D0084DA84204D18D
:1047A0004D6922F4804242EA85124260C361496841
:1047B0000164046230BD00000000014000040140BB
:1047C00010B5036A046A24F001040462846924F0C9
:1047D000F00444EA021423F00A020A4384610262EC
:1047E00010BD10B5036A23F0100303628369046AE5
:1047F00023F4704343EA023224F0A00343EA011198
:104800008261016210BD2DE9F0410C46D0F8D4124E
:10481000D0F8C82200EB8101D1F8C01229B304F00E
:104820000F0606EB860300EB83050027AB694BB14F
:1048300006EBC60602EB8602926CB3FBF2F602FBB5
:104840001632A2B1C1F81472D0F8D42200EB820063
:10485000D0F8C40203692BB1D1F80802224601F551
:10486000047198470020BDE8F0810320FBE7002396
:104870001A462146AF6100F0D4FDF3E770B5054656
:10488000D0F8D40205EB8000D0F8C04294B128469D
:1048900000F0A9FCC4F80C02D5F8D412D4F8040234
:1048A00005EB8101D1F8C412CA6804F50371904781
:1048B000002070BD032070BD70B5224D04462978DC
:1048C00000F0D5FB2878002600F00F0000EB8000F8
:1048D00004EB800086846978204600F0C8FB687885
:1048E00000F00F0000EB800004EB8000A0F8646192
:1048F000A978204600F0BBFBA87800F00F0000EB81
:10490000800004EB80008684C684D4F8D40204EBD3
:104910008000D0F8C01299B1D0F8C4024068804736
:10492000D4F8D40204EB8000D0F8C00200F09DFF60
:10493000D4F8D40204EB8000C0F8C062C4F8BC62B2
:10494000002070BDA800002010B5D0F8D41200EBF4
:104950008100D0F8C04284B1D0F8C41259B194F8A3
:104960000002FF2807D08B6894F80122214698475F
:10497000FF2084F80002002010BD032010BD0000BD
:104980000A21018000487047AC00002070B506463F
:1049900082210C4800F0FBFA05460121094800F08D
:1049A000F6FA04468121074800F0F1FA0DB1102112
:1049B000A971402104B1A18000B1818043203080E1
:1049C000004870BDB800002070B5064682210D4831
:1049D00000F0DDFA054601210A4800F0D8FA044645
:1049E0008121084800F0D3FA0DB11021A9714FF4CC
:1049F000007104B1A18000B1818043203080014862
:104A000070BD0000B800002070B5064682210C4839
:104A100000F0BDFA05460121094800F0B8FA044645
:104A20008121074800F0B3FA0DB11021A97140218E
:104A300004B1A18000B1818043203080004870BD66
:104A4000B80000202DE9F04704464FF407752846CA
:104A500000F00CFF06004FF0000863D02946FBF77A
:104A6000FBFBD4F8D4023C4D04EB80004FF010095E
:104A7000C0F8C062C4F8BC62207C4FF4007A012701
:104A8000F0B3402302222978204600F019FC287850
:104A9000402300F00F0000EB800004EB80008784CF
:104AA00002226978204600F00BFC6878082300F0A9
:104AB0000F0000EB800004EB80000322A0F864717B
:104AC000A978204601F00F0101EB810104EB81017F
:104AD000A1F82690A97800F0F3FBA87800F00F0069
:104AE00000EB800004EB80008784C6F80482D4F8D1
:104AF000D402474604EB8000D0F8C402006800E00E
:104B000018E006F5017680473761776132687AB13F
:104B1000207CF8B140236978204600F0DDFB0020BE
:104B2000BDE8F087D4F8D41204EB8101C1F8C0824B
:104B30000220F5E7534602222978204600F0C0FB08
:104B40002878534600F00F0000EB800004EB800053
:104B50008784A5E75346DEE7A800002010B5D0F80B
:104B6000D41200EB8101D1F8C01259B1027C084C7B
:104B7000002AD1F8042207D04023617800F0ACFB72
:104B8000002010BD032010BD4FF40073F5E70000B6
:104B9000A800002039B1D0F8D42200EB8200C0F880
:104BA000C4120020704703207047D0F8D42200EBD5
:104BB0008200D0F8C00218B1C0F80412002070477B
:104BC00003207047D0F8D43200EB8300D0F8C00245
:104BD00028B1C0F81022C0F8081200207047032046
:104BE00070472DE9FC410646D0F8D4020C4606EB8E
:104BF00080000021D0F8C0728DF80010ADF80410CC
:104C00000D4637B1217811F060022FD0202A4BD108
:104C100002E00320BDE8FC81E288F2B109060DD56F
:104C2000D0F8C40263783946D0F808C01846E04787
:104C3000E288072A00D9072239462DE0607887F8F4
:104C40000002E088402800D34020C2B287F8012249
:104C50003946304600F081F82BE0D0F8C402637882
:104C60000022866821461846B04722E0607830B1BD
:104C700001281ED00A2809D00B2815D110E096F87B
:104C80009C02032810D1022201A905E096F89C029B
:104C9000032809D101226946304600F078F808E07F
:104CA00096F89C02032804D02146304600F04AF8CA
:104CB00003252846AEE7000010B5D0F8D41200EB6B
:104CC0008101D1F8C02201211AB1D2F8143213B1F6
:104CD00016E0032010BD0121C2F814120949D2F8D0
:104CE0001032097801F00F0404EB840400EB840413
:104CF000A361D2F81032D2F8082200F092FB002112
:104D0000084610BDA800002010B5D0F8B822002435
:104D10005268904700B10324204610BD0020704720
:104D200000207047134610B50A46002100F0D4FA5F
:104D3000002010BD134610B50A46002100F071FB9B
:104D4000002010BD10B50446802100F04FFB204626
:104D5000BDE81040002100F049BB10B50323C0F8A6
:104D60009432C0F858211346C0F85C210A4600214D
:104D700000F0B2FA002010BD10B50521C0F8941261
:104D800000231A46194600F0A7FA002010BD10B5FE
:104D90000223C0F8943282611346C2610A460021A0
:104DA00000F03FFB002010BD10B50421C0F89412A4
:104DB00000231A46194600F034FB002010BD000005
:104DC00010B50A46024903A000F005F9004810BDDD
:104DD0001816002043444320436F6E666967000045
:104DE00012200880004870474C00002010B50A4689
:104DF000024903A000F0EFF8004810BD181600208B
:104E000043444320496E7465726661636500000027
:104E100004200880004870474800002010B50A466A
:104E2000024903A000F0D7F8004810BD1816002072
:104E300053544D6963726F656C656374726F6E690C
:104E40006373000010B50A46024903A000F0C3F8DE
:104E5000004810BD1816002053544D3332205669B7
:104E6000727475616C20436F6D506F727400000036
:104E700010B51A2008800A480168001D0468001D4A
:104E80000068081809D008220649FEF74BFC0549BE
:104E9000042210312046FEF745FC0248801E10BD5A
:104EA000107AFF1F62000020F8B504460020ADF81C
:104EB000000048880D46010A08295FD2DFE801F0AA
:104EC0005E0409175E5E3C45D4F8B412207C0A6883
:104ED00019E0207C02260028D4F8B80205D0C16A67
:104EE000684688470146467039E0816AF8E7C0B2F3
:104EF000062843D2DFE800F0030A1014181CD4F887
:104F0000B402426805E0694690471CE0D4F8B40258
:104F1000826892B3207CF6E7D4F8B402C268F8E75E
:104F2000D4F8B4020269F4E7D4F8B4024269F0E7B5
:104F3000D4F8B4028269ECE7207CF0B9D4F8B80266
:104F4000416B68468847014609E0207CA8B9D4F83F
:104F5000B802016B68468847014607204870EA8816
:104F60008AB1BDF8000040B1824200D90246ADF8D6
:104F700000202046FFF70BFFF8BDFFE7294620463B
:104F8000FFF7E0FEF8E72046FFF70EFFF4E778B5FD
:104F90000E4642880178002504468A4212D9ADF8AF
:104FA00000100AE0694600F00FF84178052904D1A5
:104FB00081780546B14205D000256188BDF8002002
:104FC0009142EFD8284678BD0A8803781A440A80AF
:104FD00001780844704770B5002300281ED00025D2
:104FE000044602E06D1CEDB2641C2678002EF9D157
:104FF000022404EB450414801278CA545B1C03227B
:10500000CA5400245B1C06E0CA545B1CDAB28C5400
:10501000521CD3B2401C0278002AF5D170BD0100A9
:105020004FF0000004D0012901D0022901D0032053
:1050300070470120704778B10023C0F8B832C0F83B
:10504000C432C0F8D03209B1C0F8B412012180F8DE
:105050009C12027000F0CCB80320704710B5D0F855
:10506000C802FCF716FDBDE81040FFF7D8BF10B529
:10507000D0F8C802FCF7E7FCBDE81040FFF7CFBF4F
:105080002DE9F04117460446002521B194F89C0211
:10509000032842D04CE0D4F8941204F11400022901
:1050A00035D1D0E902639E4206D9F21A82603946B0
:1050B0002046FFF73FFE0FE0B34214D1406898420C
:1050C00011D3D4F8981288420DD2002211462046FE
:1050D000FFF730FEC4F8985200231A4619462046BE
:1050E00000F0FAF813E094F89C02032808D1D4F8F1
:1050F000B802C16821B1C4F8D452C16820468847BB
:105100008021204600F072F92046FFF735FE94F822
:10511000A00268B184F8A0520AE0D4F8B80242694B
:1051200032B1C4F8D452426920469047002800D1D9
:105130000020BDE8F08170B513460446002221B17D
:1051400094F89C02032830D03AE0D4F8941204F585
:10515000AA70032934D1D0E902518D420AD96A1AC2
:1051600082600846824200D3024619462046FFF775
:10517000D9FD25E094F8AA0210F01F0003D0012801
:1051800002D0022800D0002294F89C02032808D103
:10519000D4F8B802016921B1C4F8D42201692046CB
:1051A00088472046FFF700FE0AE0D4F8B80283697A
:1051B00033B1C4F8D422826920469047002800D138
:1051C000002070BD0020704710B50024012180F838
:1051D0009C12D0F8B82222B152680179904700B1F0
:1051E0000324204610BDD0F8C802FCF780BC0000A4
:1051F00010B5017839BB15490222C1F80805C0F87D
:10520000C8124FF0A0400860042048600020C1E9A7
:105210000320C1E9062008624862C86208630846A4
:10522000FCF7D4FF08B1FBF7DDF980210748FCF754
:10523000BAFB402200210548FCF7B9FB802201217E
:105240000248FCF7B4FB002010BD0000382A002003
:105250000A0601F07F01D0F8C80201EBC10100EBA2
:10526000810002D590F83E00704790F87E027047AA
:1052700010B5D0F8D42200EB8202D2F8B82222B1C5
:1052800090F89C32032B02D004E0032010BD126A78
:1052900002B19047002010BD10B5D0F8D42200EB29
:1052A0008202D2F8B82222B190F89C32032B02D0AD
:1052B00004E0032010BD526A02B19047002010BDE7
:1052C00010B51C461346D0F8C8022246FCF718FC5D
:1052D000BDE81040FFF7A3BE10B5D0F8C802FCF738
:1052E0003FFCBDE81040FFF79ABE2DE9F0410026D3
:1052F0000125044680F89C52C4F894626660C4F8A4
:10530000A46280F8A062D0F8B80230B1426822B13D
:1053100000212046904700B1032600224023114679
:105320002046FFF7CDFF4027A4F864513B460022FA
:1053300080212046C4F86071FFF7C2FFA584304683
:105340002762BDE8F08190F89C12042903D190F8FF
:105350009D1280F89C120020704710B590F89C12A6
:10536000032905D1D0F8B81211B1C96901B1884734
:10537000002010BD01740020704710B5D0F8C8029D
:10538000FCF7F6FFBDE81040FFF749BE70B50446D4
:1053900000F2AA20054600F04DF80120C4F894025E
:1053A000B4F8B002C4F8980294F8AA0210F01F01F1
:1053B0000AD001290ED0022912D000F08001204627
:1053C000BDE8704000F012B829462046BDE87040A4
:1053D00000F0CCB829462046BDE8704000F00CBA79
:1053E00029462046BDE8704000F056B910B5D0F807
:1053F000C802FCF7D9FBBDE81040FFF710BE10B59E
:10540000D0F8C802FCF7CFFFBDE81040FFF707BE99
:1054100090F89C1280F89D12042180F89C120020C4
:10542000704710B5D0F8C802FCF7F8FBBDE8104093
:10543000FFF7F5BD70B5054611F8010B2870087827
:1054400068704C1C2046FEF786FF6880A41C20462E
:10545000FEF781FFA880A01CFEF77DFFE88070BDED
:1054600038B504460020ADF80000A1B1C4F8B81268
:10547000D4F8D40204EB8000D0F8B802C16A19B1A4
:1054800068468847C4F8D002D4F8D802401CC4F853
:10549000D802002038BD032038BD02460020D2F8D3
:1054A000B832002B02D01B68104618477047000026
:1054B0002DE9F04188462B4E89780025044631704D
:1054C000012906D941462046FFF73CFC0320BDE8F0
:1054D000F08194F89C02022702280CD003281DD0EA
:1054E00041462046FFF72EFC31782046FFF70CFCA2
:1054F00003252846EBE789B320466160FFF7CDFF1F
:10550000050004D041462046FFF71CFC1DE0204664
:10551000FFF74AFC032084F89C02EAE7C1B1606807
:1055200088421BD0C1B22046FFF7EEFB31782046FF
:105530006160FFF7B2FF050010D041462046FFF73B
:1055400001FC21792046FFF7DFFB84F89C72D0E74D
:1055500084F89C7220466160FFF7D6FB2046FFF777
:1055600023FCC6E7A4000020FFF749BF2DE9F04166
:105570000A78002512F060020CD0202A01D0402ABF
:105580007DD1D0F8D42200EB8202D2F8B822926802
:10559000904731E04B78002201260A2B6FD2DFE8DA
:1055A00003F041666E586E08056E2D29FFF77CFCEE
:1055B00067E004468888D8B9C888C8B94888802870
:1055C00016D200F07F0794F89C02032810D084F8CC
:1055D0009E7239462046FFF7D0FE2046FFF7E4FBD7
:1055E0001FB1022084F89C024BE084F89C6248E0E2
:1055F000204644E0FFF75CFF054642E0CB88012BE4
:105600003DD190F89C32012B04D0022B02D0032B09
:1056100035D104E08260012200F1080116E0012288
:10562000011D13E090F89C22012A03D0022A01D028
:10563000032A24D1CA88022A21D1C660D0F8A41234
:1056400009B10321C160022200F10C01FFF79FFBA9
:1056500017E04A88012A02D0022A03D00FE0C0F8DE
:10566000A46216E08988090A80F8A01211E090F877
:105670009C32012B08D0022B06D0032B04D0FFF75D
:1056800061FB2846BDE8F08149880129F9D1C0F8BD
:10569000A422FFF789FBF4E72DE9F04105460878DD
:1056A0000C790E464FF0000810F060000BD0202857
:1056B00001D040286AD121462846FFF72FFBFF285A
:1056C00000D0D8B395E07078C8B3012824D003285F
:1056D0005CD195F89C02022802D0032856D10CE038
:1056E000002C53D0802C51D021462846FFF77EFE57
:1056F00080212846FFF77AFE7BE0708840B93CB1F4
:10570000802C05D0C88818B921462846FFF76EFEC0
:105710002846FFF749FB6CE095F89C020228DFD091
:10572000032863D1708880BB600603D021462846D9
:10573000FFF794FC2846FFF737FBBCE700E00AE0E0
:10574000C5F8D402D5F8B8028268F2B131462846CD
:10575000904780464DE095F89C020027022802D031
:10576000032843D113E00CB1802C3FD1200604F074
:105770007F0000EB800005EB800101D5143101E0D2
:1057800001F5AA7102220F602CE032E02EE0200623
:1057900004F00F0000EB800005EB800009D5808C41
:1057A00020B304F07F0000EB800005EB8006143688
:1057B0000AE0B0F86401C8B104F07F0000EB80009B
:1057C00005EB800606F5AA764CB1802C07D0214661
:1057D0002846FFF73DFD10B10120306000E0376042
:1057E000022231462846FFF7D2FA02E02846FFF7A8
:1057F000A9FA4046BDE8F08170B505460878002456
:105800000E4610F0600003D0202801D0402827D198
:1058100095F89C02012803D0022801D003281FD14B
:10582000B088C1B201291AD8C1B22846FFF778FA68
:10583000FF280CD058B9D5F8B8128A683AB1C5F823
:10584000D4028A68314628469047044600E0032483
:10585000F088204307D12846FFF7A6FA03E0314637
:105860002846FFF76FFA204670BD70470048704722
:105870001828002070B50A78012302F00F054E7831
:10588000AB401B4CD0F81C58012E17D045EA0343FF
:10589000C0F81C3800EB4210D0F8002B12040BD4D7
:1058A000D0F8002B8B890979C3F30A031A4344EA21
:1058B00081410A43C0F8002B002070BD9BB21D43FC
:1058C000C0F81C5800EB4210D0F800391B04F3D488
:1058D000D0F800398D890979C5F30A0589042B436D
:1058E00041EA82510B432343C0F80039E4E700004A
:1058F00000800010D0F800196FF30A01C0F80019F9
:10590000D0F8041841F48071C0F8041800207047E2
:1059100070B5044606990A9E049D0D98012916D07B
:10592000E06840F04000E060204600F02BF8A16BFA
:105930001EB321F48031A163012D07D1A16841F08C
:105940000601A160A16841F02001A16070BDA16BBA
:1059500021F48031A163E168094A1140E160E16806
:1059600021F44011E160012803D1E06840F4801087
:10597000E060204600F006F8DEE741F48031DAE727
:10598000BFFFBDFF08B500220D490092009B5B1CC4
:1059900000938B420CD80369002BF7DA009202695E
:1059A00042F001020261009A521C00928A4201D91F
:1059B000032008BD0269D207F5D1002008BD000010
:1059C000400D030030B54C780A78012300EB4212F9
:1059D000012C2CD0D2F8004B002C0BDAD2F8004B63
:1059E00044F00064C2F8004BD2F8004B44F080440D
:1059F000C2F8004BD0F83C580C7804F00F0403FABE
:105A000004F425EA0444C0F83C48D0F81C4809785E
:105A100001F00F018B4024EA0341C0F81C18D2F8B2
:105A2000000B19490840C2F8000B002030BDD2F825
:105A30000049002C0BDAD2F8004944F00064C2F8A7
:105A40000049D2F8004944F08044C2F80049D0F837
:105A50003C480D7805F00F0503FA05F5ADB2AC43EF
:105A6000C0F83C48D0F81C48097801F00F018B4081
:105A700099B28C43C0F81C48D2F800090349084089
:105A8000C2F80009D1E700000078F3EF007833ECAA
:105A9000D0F8001E21F00301C0F8001ED0F8041851
:105AA00021F00201C0F8041800207047D0F8001E51
:105AB00021F00301C0F8001ED0F8041841F00201E3
:105AC000C0F80418002070472DE9F04F00250E465D
:105AD0000446DDF82CC0DDF824B0109F2846294686
